:020000041000EA
:1000000000B5324B212058609868022188439860DF
:10001000D860186158612E4B002199600221596106
:100020000121F02299502B49196001219960352056
:1000300000F044F80222904214D00621196600F024
:1000400034F8196E01211966002018661A6600F04E
:100050002CF8196E196E196E052000F02FF8012189
:100060000842F9D1002199601B49196000215960AB
:100070001A491B48016001219960EB211966A021F2
:10008000196600F012F800219960164914480160C1
:100090000121996001BC002800D000471248134993
:1000A000086003C880F30888084703B5996A0420EC
:1000B0000142FBD001200142F8D103BD02B5186610
:1000C0001866FFF7F2FF186E186E02BD00000240BE
:1000D000000000180000070000035F00212200005C
:1000E000F4000018222000A00001001008ED00E03C
:1000F00000000000000000000000000074B24E7A12
:1001000000200420F7010010C3010010C5010010F9
:10011000C1010010C1010010C1010010C101001097
:10012000C1010010C1010010C1010010C701001081
:10013000C1010010C1010010C9010010CB01001065
:10014000CD010010CD010010CD010010CD01001037
:10015000CD010010CD010010CD010010CD01001027
:10016000CD010010CD010010CD010010CD01001017
:10017000CD010010CD010010CD010010CD01001007
:10018000CD010010CD010010CD010010CD010010F7
:10019000CD010010CD010010CD010010CD010010E7
:1001A000CD010010CD010010CD010010CD010010D7
:1001B000CD010010CD010010CD010010CD010010C7
:1001C00000BE00BE00BE00BE00BE00BE00F04BF888
:1001D000103800BEF2EB8871686500109865001059
:1001E0003402001090A31AE700202149086006C8D5
:1001F00081F3088810471F48006800282FD10DA4FC
:100200000ECC002902D000F012F8F9E71A491B4A77
:10021000002000E001C19142FCD1194988471949E9
:1002200088471949884700BEFDE701C901C29A42C3
:10023000FBD3704798650010C0000020480D0020D7
:100240002072001000000420000004202072001022
:1002500000100420001004200000000070470B482C
:1002600001F0ACFF0047EFF30580C0B2704700001B
:1002700008ED00E0000000D0480D0020F01A00203A
:1002800055180010790300108D1900105756000002
:1002900006005250ABB36053C862001006005250C3
:1002A000861C0302D8620010060052505422A29D00
:1002B000E062001005005250DE65F4682072001004
:1002C000F8B5C046054B0648033310B51B1A062B7C
:1002D00003D9044B002B00D0984710BD480D0020D7
:1002E000480D0020000000000648074910B5091A13
:1002F0008910CB0F5918491003D0044B002B00D0A4
:10030000984710BD480D0020480D00200000000057
:1003100010B5074C2378002B09D1FFF7D3FF054B0D
:10032000002B02D0044800E000BF0123237010BD61
:10033000500E002000000000D0610010094B10B5E5
:10034000002B03D00849094800E000BF08480368B3
:10035000002B02D1FFF7C8FF10BD064B002BF9D0D0
:100360009847F7E700000000540E0020D06100100D
:10037000480D002000000000F8B58025D024AD0411
:100380002E0002F0BFF9192000F02AF82406074FCA
:100390006562A661FA2000F0F7FC6561380002F0A2
:1003A00077F8FA20800000F0EFFCF2E7E861001037
:1003B000094A830094464022634410B51C68C0007B
:1003C0006240C02414408022520113431C60034B3E
:1003D0009C466044416010BD04C0014000400140A3
:1003E0000123D0228340120693629361094A83005D
:1003F0009446402263441968C0004A40C02111401D
:100400008022520113431960034B9C46052360442C
:100410004360704704C0014000400140F8B5EFF36D
:10042000108772B60D4E3368002BFCD0BFF35F8F80
:100430000725CB08C01801230D40AB401D000478F0
:10044000254007D123430370BFF35F8F356087F3E7
:100450001088F8BD100001F09BFAC0462C0100D0B6
:10046000F8B5CE4647468C4680B5EFF3108872B695
:100470001D4D2C68002CFCD0BFF35F8F9A4219D819
:100480000721012511408D40D408041926783542F2
:100490001FD007218946063909E04D460F00154057
:1004A000AF40D408041926783D00374211D00132FC
:1004B0009342F2D201204042BFF35F8F00220A4BE9
:1004C0001A6088F31088002807DB0CBC9046994618
:1004D000F8BD354325701000EEE76346002BF4D0DD
:1004E000089801F055FAC0462C0100D0024B18685C
:1004F0008007C00F7047C04600C006400021044B73
:10050000044ABFF35F8F02C39342FAD17047C046DB
:10051000000100D0800100D0044A1078431CDBB2F7
:10052000172B00D9102313707047C046F00300202A
:1005300000B5054B83B00100009318221F23034828
:10054000FFF78EFF03B000BD2062001028130020CB
:10055000F8B5040006200D0001F09CFB030000200C
:10056000002B49D0294B80229C424DD0D203284BEE
:1005700028491A60284B1A6010008B689843FBD1F9
:10058000264B8021E3185A425341254A5B0049001B
:100590000620995201F07EFB2900C00001F040FEC8
:1005A000C3092AD01F4A93422AD87F221040013023
:1005B00040089F011A0003003F1826008025626250
:1005C000A36200232C36AD0135432B60062001F0D9
:1005D00061FB3900800001F023FE6023E26A534092
:1005E0006E221A4080235B0133431A600E4B236353
:1005F00010232B600D3BA364F8BD40270122DCE7EC
:100600000A4F00230A4AD8E71204B0E700800340EB
:1006100000E0004000C0004000F000400080FCBF4F
:1006200024180020FEFF000001030000C0FF3F006F
:10063000FFFF000083680B4810B5844661446244A4
:10064000090112019A18591854684B6801209C42FC
:1006500001D802D00020C0B210BD12680B689A42C7
:10066000F9D8F7E7FFFFFF0F0A4B1968EFF3108087
:1006700072B60A68002AFCD0BFF35F8F1B68BFF315
:100680005F8F00221A6080F3108840BF0020002195
:100690007047C046EC170020F8B54E464546DE468A
:1006A0005746E0B51F000CAB1D780DAB1B7881469B
:1006B0009B46036816009846002D08D1987B0028B9
:1006C00041D13CBC90469946A246AB46F8BD2800B5
:1006D0006C006419033C384B00229C464B469B68D7
:1006E00060449C4600010A9B604483600B9B06604B
:1006F0004760C36043461B681B199A705A701A7092
:1007000043465B7B9A46002B3BD043462A009868C1
:1007100051465B68984743461A68002824D05346E0
:100720005B005344033BD31814195246A2701A7845
:10073000002A00D062701D705246434628005A734A
:10074000AA45BED11FE0414644001B682418033C63
:100750001B195A788A73002A00D1CA730022050037
:100760009A705A701A70B6E753465B005344033BC5
:10077000D31814199D702278002A00D05A7053465D
:10078000237043465D734B463200187D3B0000F0FA
:10079000E3FC041E07D05B46002B04D14B46290026
:1007A000186800F02DFF0E9B002B02D01C70280053
:1007B00087E7280085E7C046FFFFFF0F744B8200E4
:1007C000F0B5D4580023DE4657464E4645469B4674
:1007D000E0B58DB00B9000F033FC6268EFF310854C
:1007E00072B61368002BFCD0BFF35F8F23689C4662
:1007F0005B7B9946002B00D181E0A268654B904657
:100800004B441B01984443461E685F6832003B001E
:10081000121A8B41002B00DC84E03B0032000B9865
:1008200000F09AFC0023002208920993002300277D
:100830009A466368BFF35F8F5A461A6085F3108843
:100840005346002B64D00A9B390018024B461843CC
:10085000D047626806900791EFF3108872B656464B
:1008600045461368002BFCD0B246A846BFF35F8F05
:100870000699079A002A25DA2369002B28D0089DBB
:10088000099E6D1A96412A003300089D099E9E42DA
:1008900000D971E000D173E0594604910121039120
:1008A000494602915146019700912000FFF7F4FE5E
:1008B0005B4623616368BFF35F8F5A461A6088F313
:1008C000108888E71300194302D02369002B46D112
:1008D0002368DA7B002A07D051008A1819688C46F1
:1008E00049466244033A51704A46DA73E2684B461D
:1008F0009446013B63441A7801321A70D8E700230A
:10090000002208920993002300279A46002090E7CE
:10091000002800D05FE70DB03CBC90469946A24647
:10092000AB46F0BD002B02D1002A00D075E70021B4
:10093000604600F0B9FD43461A685B680892099367
:1009400043469B689A464346DF68E3684B44013B55
:100950001B780A931B0218432061002069E700F00E
:100960006FFB069A079B12184B41994204D800D09E
:1009700092E7904200D88FE701225242D3178BE7CB
:10098000954200D888E701225242D31784E7C04637
:10099000D4170020FFFFFF0F10B5124C6368002B27
:1009A00004D00A21104800F065FC10BD23000F4A56
:1009B0001021206800F05AFD032000F035FB0320D1
:1009C00000F038FC0A49032000F080FBFFF7A4FD8B
:1009D000084B9C46032360442375074B80006060EE
:1009E000DC60DEE7F4030020EC1700203506001081
:1009F000BD07001040000034D417002000487047A5
:100A0000F4030020F0B55746DE4645464E46E0B5B5
:100A100085B00092019310AB1B7807009B46002322
:100A20009A4698467A68EFF3108972B61368002BDD
:100A3000FCD0BFF35F8F3E68B47B002C00D173E025
:100A400065002D193368033D5B195A78B273002A8B
:100A500000D1F27342469A705A701A70BA68504BBD
:100A600094460099019AE3181B01634419605A6087
:100A70000E9A9A600F9ADA60424633685B199A7050
:100A80005A701A70737B0393002B00D176E0190023
:100A900073682200B0689C46E047326800285ED048
:100AA00003985519844643006344033BD318A87048
:100AB0001A78002A00D06FE01C70707384425ED0F8
:100AC000FB681B19013B18787B68BFF35F8F4246B8
:100AD0001A6089F310885346002B08D10002204386
:100AE00005B03CBC90469946A246AB46F0BD5B467D
:100AF000002B53D00E9B0F99002098470300040051
:100B00000D000B434AD0002917DA00980199020022
:100B10000B00121BAB4199421AD801D1904217D851
:100B200000920193DA467DE77B68BFF35F8F1C601C
:100B300089F3108801204042D2E700F081FA24189E
:100B40004D4100940195A94202D8EBD1A042E9D9C8
:100B500001235B42DC17DA460093019462E70399B4
:100B600055198C464B006344033BD3189C702A787C
:100B7000002A00D05A706B461B7B2B707473387D33
:100B8000009A019B00F0E8FA8246002898D02100E4
:100B9000386800F035FD93E76A708DE700209FE725
:100BA000FFFFFF0FF0B557464E464546DE460400B0
:100BB000E0B50D0006267642F71736196F4185B06D
:100BC0008F4255D852D000F03BFA32003B00121A47
:100BD0008B41002B56DD674B9A465A68EFF3108B1A
:100BE00072B61368002BFCD0BFF35F8F53461B68AF
:100BF00099469B7B9846002B49D153465B68BFF3CF
:100C00005F8F00221A608BF310884346002B11D0AF
:100C1000BC46B0460094019500266546564F574A9B
:100C20007B6AAB4211D3B96A414501D2AB420CD0C9
:100C3000009C019D2000290000F038FA05B03CBC62
:100C400090469946A246AB46F0BD1168EFF310807E
:100C500072B60B68002BFCD0BFF35F8F1368BFF335
:100C60005F8F1E6080F3108820BFD9E78642AAD923
:100C70000026002700F0E4F932003B00121A8B41F5
:100C8000002BA8DC002BD5D1002AA4D1D2E75B0031
:100C900043444A46033B9C464946126800936244DB
:100CA00053788B73002B00D1CB7300235146937084
:100CB000537013708968324A8C464244314912019C
:100CC0006244166057609160D36000994A468C4632
:100CD000126862449370537013704B465B7B0393AE
:100CE000002B35D0190048464B46424680685B6869
:100CF0009847002819D00398009984464A46430033
:100D000063448C4669461268097B033BD3186244EE
:100D100091701978002900D0517042461A704B46E4
:100D20005873804500D068E715E04B4603981A6871
:100D30008446009BD11843006344033BD3184246CA
:100D40009A700A78002A00D05A706B461B7B0B7091
:100D50004B4642465A7353463200187D3B0000F022
:100D6000FBF9002800D148E753464146186800F0D7
:100D700047FC42E7F403002000400540EC17002048
:100D8000FFFFFF0F6906001070B5060000F058F96C
:100D9000FA2204000D00920000233000002101F02F
:100DA000A1FA001969418D4205D901204042C117BD
:100DB000FFF7F8FE70BD8D42FAD18442F5D8F7E70F
:100DC000F0B54E464546DE465746E0B56A4C83B020
:100DD000814688466268EFF3108A72B61368002B6A
:100DE000FCD0BFF35F8F2668B57B002D46D06F0027
:100DF0007F193368033F0195DB195A78B273002AD3
:100E000000D1F27300229A705A701A70A1685B4B7D
:100E10008C464946EB181B016344196041465960F2
:100E20005749DA6099603368DB199A705A701A7002
:100E3000737B9B46002B00D189E02A001900B06823
:100E4000736898473268002800D173E05B465B0006
:100E50005B44033BD318D7195A46BA701A78002A54
:100E600000D07A701D705B4673735D4500D16FE0F2
:100E70000026E3685B19013B1B7802E00023002693
:100E800001936268BFF35F8F002111608AF31088BD
:100E9000002D44D0002E42D1019A1B02134320BFE3
:100EA0006168EFF3108772B60A68002AFCD0BFF3BE
:100EB0005F8F2068D9B2427B8A4256D0FF221A4007
:100EC0005500AA4605689244AC4655466544033D24
:100ED000AD78002D29D0E5681B0AAC466244013A82
:100EE00012789A4244D06368BFF35F8F00221A6081
:100EF00087F31088234A536A984508D8926A0126D6
:100F00004A4504D24246D31A5E1EB341DEB23000D7
:100F100003B03CBC90469946A246AB46F0BD194A88
:100F20000026536A9845F2D8E8E722699342DAD15D
:100F30002561D8E75B465B005B44033BD318D719B8
:100F40009D703A78002A00D05A705B463B707573EA
:100F5000207D4A46434600F0FFF8061E00D187E791
:100F60002900206800F04CFB83E7FF221A40B2E71B
:100F700000F046FBB7E7C046F4030020FFFFFF0F79
:100F80006906001000400540F8B5CE46474680B5DA
:100F9000EFF305833F22134018001038EFF3108C55
:100FA00072B61B490A68002AFCD0BFF35F8F01218B
:100FB0000F008740174D184A6F631478914622003E
:100FC000C24090464646002231420BD0696A134D1A
:100FD000884681004D59A84512D3114BBC43CA58CD
:100FE0004B461C70BFF35F8F0021094B19608CF3D7
:100FF0001088002A00D090470CBC90469946F8BD56
:1010000008499B008846434419681960EAE7C046CE
:10101000280100D00040054023180020F8170020C8
:1010200018120020D03F054010B50100024A0348C5
:10103000FFF7F4F910BDC0464862001020180020E8
:10104000044A516A00E01900906A536A9942FAD141
:101050007047C04600400540134A30B5546A00E06E
:101060001C00956A536AA342FAD12A002300801813
:1010700059418C4211D80ED00C000B4A536AA3423E
:10108000FCD307D1084A02E0516A994202D1916A21
:101090008142F9D330BD8542EED90124012040427E
:1010A000C1176442E9E7C04600400540064A536A5A
:1010B0009942FCD807D1044B02E05A6A914202D10E
:1010C0009A6A8242F9D370470040054070B5040027
:1010D0000D00EFF3108672B61A4A1368002BFCD08D
:1010E000BFF35F8F002D1BD0200000F0F3FD1649E9
:1010F00088420AD0200000F0F5FD0121200000F018
:10110000CFFD0123A340114A1360114BA400E55009
:10111000BFF35F8F00220B4B1A6086F3108870BDFF
:101120000B4BA200D5500122A2400A4920000B78A7
:1011300093430B70044900F0FFFD0021200000F0F4
:10114000AFFDE5E7280100D0890F001038600540A9
:101150001812002023180020F0B5D6464F46464608
:101160002F4CC0B5656A00E00D00A66A616AA9420D
:10117000FAD1AB4249D9EFF3108972B6294C2168F4
:101180000029FCD0BFF35F8F0126274986408C469B
:101190000978264D0F0037438846F9B28A466146E2
:1011A00054460C701E49041DA4004E636250840016
:1011B00063510D6A002435421AD04D6A00E02500C3
:1011C0008F6A4C6AAC42FAD1AB4224D801D1BA4200
:1011D00021D8D04521D0124B154A1E625E631F23D1
:1011E00018401E3B834013606346424601241A7038
:1011F000BFF35F8F00220B4B1A6089F31088200029
:101200001CBC90469946A246F0BDAB4201D1B24209
:10121000B1D80124F3E70024EAE70124E8E7C04657
:1012200000400540280100D023180020F8170020B6
:1012300080E200E010B5EFF3108472B60A490B6843
:10124000002BFCD0BFF35F8F01238340074A08487F
:10125000136202789A430270BFF35F8F00230B6022
:1012600084F3108810BDC046280100D0004005401E
:1012700023180020024B9C4661448900016070479E
:101280004000003410B50400FFF746F901002000CB
:10129000FFF7F0FFFF23237100236371BFF35F8F1C
:1012A00010BDC04610B50400FFF736F9010020005C
:1012B000FFF7E0FFFF2323716371BFF35F8F10BD62
:1012C00010B504000120FFF733F9044B9C4660443D
:1012D00080002060BFF35F8F10BDC0464000003427
:1012E000F8B54E464546DE465746E0B54C00641814
:1012F0000368033C1A190D0051780600894600293D
:1013000006D128003CBC90469946A246AB46F8BDA3
:101310004F004F44033FD81941788846002141705F
:101320005170002D12D073684A462900B068984762
:101330003368002873D0DF191A19BD70117800299D
:1013400000D0797049462700117000E04D464246B2
:10135000002AD6D054004444033C1A1951788946D7
:10136000002911D1736842462900B0689847336854
:10137000002849D01C19DF19A5703B78002B00D03C
:10138000637043463B70BCE74900494403398A46D1
:10139000534459788B4600215970517073684A46FE
:1013A0004146B06898473368002843D152461C191B
:1013B0009A184B46A3701378002B00D063704346F5
:1013C0005446C84613705B46002BCBD059463000BC
:1013D000FFF786FF81460028C4D002004146B0686E
:1013E00073689847326800282FD04B465B004B4407
:1013F000033B1119D31842469A700A78002A00D08C
:101400005A704B460B70ADE71C19DF194346BB7091
:101410002378002B00D07B702570454671E7494644
:101420001C19DA19A1701178002900D061701570AB
:101430004D468CE741461A1953449970117800299A
:1014400000D059704B461370BDE74B465B004B44D0
:10145000033BD11814194A46A2700A78002A00D01A
:10146000627042461C000A70C8467BE710B5836074
:101470000023CCB243730133047342608373C4739B
:101480000068012C07D90123421C0133DBB2137021
:1014900003329C42F9D8FF2319404B00591800230E
:1014A00040180338437010BDF0B54E4657464546C8
:1014B000DE46E0B5477B03687C00E419033C1A195B
:1014C000167883B005008946002E1ED1002911D060
:1014D000C07B002869D041000918591803394F70A2
:1014E000EF73002E06D07100891903398846002158
:1014F000434499700023380053706E7303B03CBCB2
:1015000090469946A246AB46F0BD71008919033951
:101510008846591848788246002807D1494600294C
:10152000E5D0E87B0028D6D1EF73DCE742005244D7
:10153000033A9446019263445A78934600225A70C3
:101540004A706B6852463100A86898472B6800289B
:1015500032D0414601985A1819188E701078002818
:1015600025D1514611705A46002A23D059462800E9
:10157000FFF7B6FE824600281BD002006B683100E0
:10158000A86898472B68002825D0424699185246EB
:1015900052005244033A9A1896700878002800D0F6
:1015A000507052460A701A19B8E7EF73A2E74870F4
:1015B000D7E72B681A19B1E741465046019A5918E6
:1015C0009A1888701078002800D048701670019A18
:1015D00056469046C7E752465100514403395A18BF
:1015E000404693465246181882705A461278002A8E
:1015F00000D042705A46884616701A1956468DE732
:10160000F0B54546DE4657464E46E0B50C0083B081
:101610000500002200293DD0477B0168BC426BD009
:1016200066003619033E88198378002B32D05A00A1
:10163000D318033BCB181A78944202D143E0002A16
:1016400008D053009B18033BCB185A789442F6D12C
:1016500042785A7000238370437003789846002BB9
:1016600025D1EA7B002A1DD053009B18CB18033BE1
:101670005C704346EC73002B00D171E05C000023EA
:101680004444033C09198B704370002F1ED143461C
:1016900001226B73100003B03CBC90469946A246F1
:1016A000AB46F0BDB846EC7300234370EFE719007A
:1016B0002800FFF715FE2968EA7B80466F7B8819B2
:1016C000002AD6D0D0E742781A70C3E742463900E4
:1016D000A8686B6898472A68002824D07B00DB192B
:1016E0001419033BD318A7701A78002A00D062702F
:1016F0004246B8461A70CAE77E00F619033E8B19B7
:101700001878804600281BD1E87B002804D04200CE
:1017100012188A18033A5470EC7300225A70434628
:1017200001326B73B6E77B00DB19033B1419D31846
:1017300042469A702278002A00D05A702770A6E795
:1017400044004444E01E019008184478A246002C4E
:1017500008D1EC7B002C76D1EF7300228270DCE79D
:10176000B846A1E763005344033B994649444B788C
:101770004A7042709B4622006B684146A8689847B1
:101780002B6800284BD049464046019C59181A192D
:1017900088701078002850D15146A14611705A46E1
:1017A000002A20D059462800FFF79AFD041E19D0C0
:1017B00002004146A8686B68984700281ED04A4638
:1017C00041462B68981862001219033A9A189170D2
:1017D0000178002900D051700470E97B002905D1FF
:1017E0009B19B9E72B684A469818F6E74A00521841
:1017F0009A18033A57709B19EF73AEE74B46296866
:10180000600000190338CB1808189C700278002A71
:1018100000D05A704346A04603708B1999E74A4698
:101820009818019A9C185246A2700278002A00D09B
:1018300062704246D0460270B1E74870514611705E
:10184000019A9146ABE7032262438A18033A577024
:1018500082E7C046314A324B70B51A60314A324B8A
:1018600032491A6010008B689843FBD1304E314BDF
:101870009E420AD2F5430024ED18AD080135A300BD
:10188000F35801349847AC42F9D100F09FF82A4A46
:10189000254B1A60254A9368DB018033FBD1402237
:1018A000264B274C9A675A671A67DA66254B9C4283
:1018B0000ED2E6430025F618F608013663792000BB
:1018C000002B23D00135FFF7EDFC0834AE42F5D1F3
:1018D0001D4D1E4CC022A168280000F075FDA560BA
:1018E000FEF70CFE00F060FBFFF756F8184E194BA0
:1018F0009E420AD2F5430024ED18AD080135A3003D
:10190000F35801349847A542F9D170BD0135FFF76E
:10191000B9FC0834B542D1D1DAE7C046BFCDFBFEF1
:1019200000E00040FE7F3C0000F0004000C00040AE
:10193000300D0020400D0020FFFFFF0100F00140AE
:10194000280D0020300D00200000002000ED00E0F8
:10195000400D0020480D0020094A1368002B06D0D6
:1019600008491818884208D8106018007047064BBC
:101970000449181813608842F6D901204042F5E75F
:10198000C413002000000420F01A002000BEFDE770
:101990000FB400B5084883B000F07AFD049B002B1B
:1019A00007D005A91800019100F0E8FB034800F0FA
:1019B0006FFD00BEFDE7C04678620010886200102F
:1019C00010B50148FFF7E4FF6C62001030B50C2041
:1019D00083B000F051FBFEF789FD00280ED0964B36
:1019E000964A1A605A609A60DA601A615A619A617E
:1019F000DA611A62924A5A6203B030BD914CA06714
:101A000000F08AFB0122904B1A60636C012BFCD121
:101A100003228E4B1A608B4A936B012BFCD102245C
:101A200005338B4A01218B48009400F0D9FA052335
:101A3000894A00940121894800F0D2FA884B5A68FB
:101A4000FF2A02D8802252005A6080227A4C7F4BB3
:101A500021691201824D1A60002900D0E5E0E021E1
:101A60007F4B02201A681140802252012A431160E4
:101A70001968484003210140116004219A6811420D
:101A8000FCD08022802192012A430901116080222A
:101A900052005A60734B2361734B5968FF2900D879
:101AA000C1E00322684B70481A60012103009A6864
:101AB0001142FCD0E0251A681540802252010243F1
:101AC00015601B684B400321194011600221664AD2
:101AD00093681942FCD0802380219B0103430901B4
:101AE00019608021614B490051606361604B5A6805
:101AF000FF2A00D8596080225E4BE16912015C4DDB
:101B00001A60002905D0606900F08AFB01300138B5
:101B1000FDD1E02256490B681A4080235B012B431C
:101B20001A60802380229B012B4312011A608022BD
:101B3000424B52004A60E3614F4B5968FF2900D87D
:101B40005A6080224D4B216A12014B4D1A600029C8
:101B500005D0606900F064FB01300138FDD1E0225E
:101B600045490B681A4080235B012B431A60802390
:101B700080229B012B4312011A6080235B004B6083
:101B80002E4B3F4A23623F4B5968914201D80132A4
:101B90005A6080223C4B616A12013A4D1A6000295A
:101BA00005D0606900F03CFB01300138FDD1E02236
:101BB00034490B681A4080235B012B431A60802351
:101BC00080229B012B4312011A608023DB024B60B1
:101BD0001B4B63622D4B5A68FF2A02D880225200A9
:101BE0005A6080222A4BA1691201284D1A600029EF
:101BF00005D0606900F014FB01300138FDD1E0220E
:101C000022490B681A4080235B012B431A60802312
:101C100080229B012B4312011A6080235B004B60E2
:101C2000124BA361E8E65A603BE7606900F0F8FAFE
:101C300001300138FDD112E72C130020006CDC02CA
:101C40001BB70000008000403CB0004030B00040B6
:101C5000002F68590080024000389C1C00C00240E0
:101C600030800040001BB7003C80004040597307A3
:101C70005480004054B000406080004060B000409C
:101C8000FFFF03006C8000406CB0004048800040C3
:101C900048B00040014B8000C05870472C13002012
:101CA00001238340002902D1034A13607047034A8D
:101CB0001360034A1360F9E780E100E080E200E08E
:101CC00000E100E001238340014A13607047C046F1
:101CD00000E200E0024B10309B688000C058704763
:101CE00000ED00E070B50D00EFF3108672B60F4AFC
:101CF0001368002BFCD0BFF35F8F0D4B10309B6837
:101D000084001B590B4A934203D09D4201D0FFF738
:101D100057FE074B9B681D51BFF35F8FBFF35F8F6B
:101D20000022024B1A6086F3108870BD240100D097
:101D300000ED00E0CD010010F0B54546DE46574607
:101D40004E46E0B50D0083B0EFF3108B72B65C4ADF
:101D50001368002BFCD0BFF35F8F102290468044A5
:101D60004246584B97009B68DE59574B99469E4216
:101D700006D0AE4200D17DE0544C331B2F2B12D93C
:101D8000504B9B68DE51BFF35F8FBFF35F8F002224
:101D90004B4B1A608BF3108803B03CBC90469946BD
:101DA000A246AB46F0BD012383409A465246484BBB
:101DB0001B681A4000925246464B1A60BFF35F8F71
:101DC000FEF751FA0190002849D1012332009A43CD
:101DD00013001B1B5B4146495943090D93689D4203
:101DE0004DD006201056002805DA31E0062018569E
:101DF0001A0000282CDB43001B189B00E31898688E
:101E00008542F3D10620185600283BDB420011180A
:101E1000890065188846A9689960E979D971062111
:101E200069569971A9797F2926D8AD88E11A6D057F
:101E30002D1545444919E0250905490D2D02294371
:101E400099801218244B9200A4181A781870A27165
:101E5000009B002B08D152461E4B1A6090E780452C
:101E6000B3D0FFF7ADFDB0E752461C4B1A60184BDC
:101E70001A6085E71E0083E7BD210902E0E7130031
:101E80000022BFE7019800280AD1002A15D0FF30B0
:101E9000907113489080104A107811709871D7E7AC
:101EA000104A1149D21A083A5002400D0143998054
:101EB0000E4952080A43DA80CAE74E46EBE7C046AD
:101EC000240100D000ED00E0CD0100101C04002032
:101ED00000E100E080E100E02118002080E200E065
:101EE00000BDFFFF5604002000F0FFFF00F8FFFFD9
:101EF000AAAA0000F8B5012504000543FEF7B3F9CE
:101F0000EFF3108672B6214A1368002BFCD0BFF3A2
:101F10005F8F1F4A2100891A4941224B4B431B0DF9
:101F20001C4980008F685BB23F58BD4226D0062115
:101F30005156994226D012215156994224D01E2141
:101F40005156994210D02A215156032099420CD063
:101F5000114A11781370A171BFF35F8F00220B4BF0
:101F60001A6086F31088F8BD022041000918890024
:101F70005218FF21917109499180E9E78A6808495F
:101F80001150E5E70020F0E70120EEE7240100D042
:101F90001C04002000ED00E02118002000BDFFFF20
:101FA000CD010010AAAA0000F0B500220324FF27EB
:101FB000802620003D00094B11009C461040C000C7
:101FC0008540A14361440B680132AB433500854035
:101FD0002B430B60202AECD1F0BDC04600E400E0AA
:101FE000F8B504000C2017001D000E0000F018F9D1
:101FF0001C494143380000F013F9069A2B041203E0
:1020000013432268002A1CDB174A8021944226D001
:102010004901164A164D1160164A11600F00AA6850
:102020009743FBD1C021221D890111432122266043
:10203000A0600A602268002AFCDAE36008230B60D3
:10204000F8BD3F2221680A409642DDD1A268120500
:10205000120D9042D8D1E268002BD5D1F0E789016A
:10206000D7E7C04640420F0000C0024000E00040F9
:1020700000C0004000F0004080239B001843014B4B
:10208000D86270470080054010B58024184BE405E5
:102090001C60002825D00123164C1843164BDC6128
:1020A000164C44401C62596298628021104BC9054D
:1020B0001960134813490860E021C9041960002A17
:1020C00012D0FA23DB005A430F4B9A420DD90F4A24
:1020D00013601A00084B5A6080220D4BD2051A601B
:1020E00010BD054BD861E0E70A4A084B1A60F1E7DA
:1020F00000B00540D3C007B0008005402D3FF84F29
:10210000FCFF010008200140FFFFFF00CC1700206A
:1021100000A00540A0860100AA23064A1B01136007
:102120002F230549D360054B19605368002BFCDA57
:102130007047C0460040024000B0FA000060024014
:1021400010B5002800D110BD0B4B1C68A268936825
:10215000013B9360002B04DB1368591C116018705D
:10216000F1E791698B4201DB0A28F5D101002000DB
:1021700003F020FAE7E7C046E804002010B5094A5A
:1021800084B01468002C09D001220091030052424F
:1021900003A90548A047012004B010BD00F078F95C
:1021A0000020F9E7C8170020412100100148042150
:1021B000014B184770040020DD210010142310B5D6
:1021C0000100188804331B88984710BD162310B5EA
:1021D0000100188802331B88984710BDF8B54746A0
:1021E000CE4680B50F1E19D014239946043304003F
:1021F0000025012698464B461888434621681B88CF
:10220000984701C4431E9841013540420640AF4201
:10221000F1D130000CBC90469946F8BD0126F8E794
:10222000114A936F9B0813D210665166002905D09E
:10223000FFE7FFE7FFE7516F106F704704B5002815
:1022400001D00020C04303F0A3FF002104BDC0461D
:10225000F0B5146E556E576F166FFFF7E5FF1466F5
:10226000556657671667F0BD000000D0132370B5A0
:102270001C78012C10D00BDD0C48FFF7A7FF0C4D8C
:1022800001008022280000F09FF8022C01D070BDD0
:10229000074D084AAA64FAE7054D064A29002B00B3
:1022A000803104C38B42FCD1AA64F0E753440000A0
:1022B00028180020B922001007B5604601880A0AD4
:1022C0000230DF2AFAD1C9B2820804D302884088DA
:1022D0000004104300E00068014A5050039007BD1D
:1022E0002818002051434343C9188C46110C83B26F
:1022F0004B4310B4040C614392B280B2504362432A
:102300001C041B0C001910BC59411304120CC018FA
:102310005141614470470000132310B51C781348E5
:10232000FFF754FF012C0BD004DD01008022104880
:1023300000F04AF80F48FFF741FF0F4B186010BD3F
:102340000B4C01005422200000F03EF80B4B63655B
:10235000A365E36523666366A366E3662367636735
:10236000A367E3672362E361E4E7C04653460000E6
:10237000281900204C330000281A00208123001067
:1023800007B5604601880A0A0230DF2AFAD1C9B2CD
:10239000820804D3028840880004104300E00068EB
:1023A000014A5050039007BD28190020014804211C
:1023B000014B184780040020DD210010014B1B68F1
:1023C0001847000080040020014B5B68184700009C
:1023D00080040020F8B54746CE4680B5437C804651
:1023E0000E001700002B48D0002A2EDD274B0125B8
:1023F00000240020994604E02B00013401359F425F
:1024000019DD002C3ED0631EF35C0D3B594259414F
:10241000CBB2325D0A2AEFD1002BEDD1844226DC0B
:10242000434648461B6802219847013428002B0088
:1024300001359F42E5DCB8420BDBF619013E3378EB
:102440000D3B59425941434619740CBC904699467C
:10245000F8BD4346391A3018F6191B68013E9847F3
:1024600033780D3B5942594143461974EDE74346D1
:10247000211A1B6830189847D2E703681100300012
:102480009847E2E743461B7CC3E7C046EC62001076
:10249000F0B5DE464E4657464546E0B583B00700E8
:1024A00003F056F8D02301AE1B06804631003548B4
:1024B0001C6803F075FE8146002808D1019B64B2B8
:1024C0009C4204D02F4803F07BFE012399464346EB
:1024D000C346013351D02C4B1C689A46002C40D087
:1024E0002A4D02E0E468002C20D02368002BF9D0AC
:1024F0002B68002B01D0A342F4D15A4639002000AA
:10250000FFF768FF0A233370637C002B30D0237CF5
:10251000002B21D102211E482368984733780D3BB8
:10252000594259412174E468002CDED14B46002BFE
:102530001AD153461C68002C06D06368002B00D0CB
:102540009847E468002CF8D1404603B03CBC904664
:102550009946A246AB46F0BD01213000236898475A
:10256000DCE74B46002BEFD0064803F009FEE0E71E
:102570000121300023689847B4E7380002F0E8FFF3
:102580008346A8E7280D0020BC130020C0130020BC
:10259000EC620010F0B54646DE465746C0B59046A0
:1025A00082B00E00002830D1194B1A4D1A685B68B2
:1025B000194F9A46194B01929B465B461C68002CAA
:1025C00005D115E0A34205D0E468002C10D02B689B
:1025D000002BF7D1A368002BF6D041463000984776
:1025E0000028F1DD02B01CBC90469A46A346F0BD1F
:1025F00001200021FEF730FD7B6A9A45DDD8BA6ADA
:1026000001998A4201D29A45D7D001204042E9E798
:1026100040620010C013002000400540BC130020A1
:10262000F0B54646D6464F46C0B5884682B016003D
:10263000012840D1D0231B061C68204B01A918009B
:102640009A4603F0ADFD071E07D1019B64B29C4280
:1026500003D0504603F0B4FD0137B146731C25D0BA
:10266000174B1C68002C14D0164D02E0E468002CB7
:102670000FD02368002BF9D02B68002B01D0A34288
:10268000F4D120004A464146FFF7A4FEE468002C3E
:10269000EFD1002F06D1300002B01CBC9046994605
:1026A000A246F0BD504603F06BFDF4E7404602F051
:1026B0004FFF8146D4E701267642ECE7280D002043
:1026C000BC130020C01300200D4B1A68002A12D042
:1026D000824203D109E0984207D01A00D368002B48
:1026E000F9D1002900D0D06070470029FCD1C3681F
:1026F000D360C160F8E70029F6D01860F4E7C0465F
:10270000BC13002010B500F047F800F09DF910BD93
:10271000F0B5002915DD0E4B0D271A680D4B411839
:10272000D3185C4263410C4C5B001E5F202405788B
:10273000B54207D093691C42FCD101301560884234
:10274000F5D1F0BD93691C42FCD11760F2E7C04699
:10275000081800200080FCBF2418002030B5002994
:1027600014DD0C4B1A689369DB060FD405001024A6
:102770000020013093691C42FCD113682B70814208
:1027800003D0936901351C42F3D030BD0320404291
:10279000FBE7C04608180020E12110B50B4B0C48A0
:1027A0001B780C4B49021B780B4B1860FDF7D0FED1
:1027B00002210020FDF7FCFD02210120FDF7F8FDBC
:1027C00001210648FFF780FF10BDC0468C65001050
:1027D000004003409065001008180020900400207D
:1027E0007047C0460022014B1A7070472218002023
:1027F000012070474B790020FF2B00D070478B7968
:10280000002BFBD1CB79012BF8D1082AF6D98A7895
:10281000014B09301A70F1E72218002070B5002929
:1028200015D115495379107909781B02034300200B
:10283000994200D070BD5378012B0AD0022BF9D1F8
:10284000002064220021FFF71FFC0120F2E7012095
:10285000F0E7D478917824020C430500E20502D514
:10286000620A93401D000548FFF7A8FC7F21030082
:10287000214028009847C0462218002055420000F9
:102880000123037000487047306300104A780B78CA
:1028900012021A438B7810B51B041A43CB781B061F
:1028A00013439622D200934200D010BD0348FFF795
:1028B00085FC0021030008009847C04655420000EF
:1028C00070B5184C82B005000E00200001A903F07D
:1028D00067FC002808D1D0231B061B68019A93428D
:1028E0001CD0200003F06CFC002001F031FD00281A
:1028F00007D103256D42200003F042FC280002B0FE
:1029000070BD002001F03CFD0028F2D0290032000B
:10291000002001F043FD051EEBD0ECE703256D42DE
:10292000ECE7C046F017002010B51F20FFF7CAF9EA
:10293000FA200021800010BD10B5064C00212000B7
:1029400003F02EFC002804D000F084FD200003F0EA
:1029500017FC10BDF0170020F0B54F464646D6468E
:10296000C0B5364B82B007000E00180001A9994689
:1029700003F016FC002808D1D0231B061B68019A1F
:10298000934241D0484603F01BFC002001F0E0FCDC
:10299000002831D00024002E33DD294B9A4698467A
:1029A00012E0002847D100F055FD002001F076FD2F
:1029B000002001F0CDFC002823D0002001F0AAFD6A
:1029C000002827D0A6421CDD0020351B01F0A2FD07
:1029D0008542E6DC39192A00002001F017FD0500C8
:1029E00000F038FD002001F059FDFEF729FB4346B9
:1029F000641918605960E5E700200021104B186049
:102A00005960484603F0BCFB02B01CBC9046994696
:102A1000A246F0BDFEF714FB53460D001A685B6832
:102A200000218446074812184B419D42E9D8C9D17C
:102A30009445C7D9E5E70500CCE7C046F01700206C
:102A4000480E002020A1070010B51D4B84B01B7854
:102A500001F072FF1B491F20FFF744F901211F20DD
:102A6000FFF71EF91848FEF70DFCFDF7C7FF04003D
:102A7000FEF7E6FAFA220023920012184B4199421F
:102A800018D901225242D31701210291002101914C
:102A90000E4920000091FDF7B5FF0400631E9C4124
:102AA000E4B2002803D001210948FFF70DFE200001
:102AB00004B010BD9942E7D19042E2D8E4E7C046A5
:102AC0009465001039290010F01700202929001002
:102AD000A404002000487047E863001000487047D5
:102AE0009463001010B5040017480378002B1BD026
:102AF000002C06D1154B16484380063BFF3B038054
:102B000010BD052C1DD8134BA400E4580023104819
:102B1000821CE15C00290BD0013311800232132B9F
:102B2000F7D1CA239B00EAE7112102F051F9DFE750
:102B3000FF22134001335A00C0239B0013439BB272
:102B4000DDE70020DCE7C0460C1800200904000087
:102B500094130020FC630010F0B54546DE4657464E
:102B60004E4698238024E0B5464A6402D35885B087
:102B70009846234232D0012123200022424B19548F
:102B8000D9702F315A541A7440490132002001F093
:102B90002BF980223E4B92021A653E4B039343462B
:102BA000DB0621D4802342469B011A4208D01C43F5
:102BB000344B1B6DDB035AD58022354B52021A650C
:102BC000802342465B011A4244D1444555D105B0A9
:102BD0003CBC90469946A246AB46F0BD10230393F9
:102BE00043460024DB06DDD5264B9F6D002F23D006
:102BF0009A46274B002601259B4603E06D000136CF
:102C0000202E19D03D42F9D05346DB6D5B460122A0
:102C10009D6573085C001C4B91469C46B243A4180A
:102C200064016444200000F063FA002806D1AF4339
:102C300001366D00002FE3D1039CB3E74B46A28A17
:102C4000A17800200093002301F0FCF8200000F0A0
:102C5000DDF9ECE700210B4A0020116001221C4342
:102C600001F098F880220A4B12031A65ADE70122A1
:102C70000221002001F01AF89EE741460648614013
:102C8000FEF786FE00001150C8130020000010500F
:102C900000301150100001003C64001010B50121FB
:102CA0000520FEF7FDFF10BD01222321002310B5F2
:102CB00006484254C2702F328354037400222030DD
:102CC0000133002100F0A0FA10BDC046C813002057
:102CD0008022024B5202DA647047C0460020115035
:102CE000F8B5050000F06AF91B490520FEF7FAFF68
:102CF00080221A4CD20000212000FFF75FFB184B06
:102D0000184A40201A6001230022802722261649F3
:102D10006370E370A083A1600A60A0870238A755A2
:102D2000225412491248013EA2550236A355626050
:102D3000E1602370A062026062622032A3540D4AF7
:102D4000E162136480239B05D36490230A49280021
:102D5000D150FFF7BDFFF8BD592B0010C81300205C
:102D6000D017002080011050840010500001105036
:102D70008000105000001150103001000B785B06ED
:102D800002D14B78052B09D0012123200022054BCD
:102D9000D97019542F311A745A5470478A78024BDB
:102DA0001A60F1E7C813002000001150F0B54F463B
:102DB0004646D646C0B507208B784A799C46CC78E3
:102DC0000B791040A4070002A40F1843E3B29A46FF
:102DD00062467F2382B0134069466246CA71CA794F
:102DE000674652B29046D60F59003D4D8A1952019E
:102DF000AA1897704746FF43FF0F57705F425F4125
:102E0000D7705246012A3DD040283ED88A19520137
:102E1000AA18908394774246002A21DB314CDA00CD
:102E2000A4469C0162442C19A26000241460002B6B
:102E300021D02D4ADB00944663448A195201AC1814
:102E40006360AA5CA046002A23D0012201208B19CE
:102E50005B01EA5402B01CBC90469946A246F0BD04
:102E6000224CDA00A4469C0162442C19A262002480
:102E70001460002B28D100227301EB185A601C4A01
:102E8000DA60E2E71B4A9042C0D901001A48FEF717
:102E90007FFD1A4A146894464246D460021C4028BA
:102EA00017D83F2092B2A218024201D0824340328A
:102EB00060460260124A6240A0242406144352462F
:102EC000970627431F60C0E70D4ADB009446634422
:102ED000B3E740223F2092B2A2180242E6D1E7E7D0
:102EE000C8130020840010500400105080001050BF
:102EF00000011050FF03000014640010D0170020E0
:102F0000000010507F2010B5140008404000C9098F
:102F10001A004018044B400118182100012300F04A
:102F200073F9012010BDC046C81300207F2270B580
:102F300014000C40CE0964000B4DA0194001281864
:102F400083781A4205D15BB2DB43084ADB0F0133B9
:102F5000936680220649120100F060F80123A4194B
:102F600064012C19237470BDC81300200020115077
:102F7000FFF7FFFF7F2270B514000C40CE096400FC
:102F80000B4DA0194001281883781A4205D15BB275
:102F9000DB43084ADB0F013393660022064900F049
:102FA0003DF80023A41964012C19237470BDC04698
:102FB000C813002000301150FFF7FFFF80220E4B96
:102FC000520410B51A600D4B0D491A6010008B6841
:102FD0009843FBD10B4C9C2200212000FFF7EEF917
:102FE0008022002152010848FFF7E8F909236367AE
:102FF0000333A36710BDC04600E0004000F000406E
:1030000000C0004000001150000010500023037465
:10301000437443828382C3828361704710B583689F
:10302000002901D01C682140002A11D08024E4002E
:10303000114322420CD01A6822420BD10A4A0A409C
:103040001A60FFE7FFE7FFE7FFE7FFE7FFE78368B7
:10305000196010BD7F2281780448CB091140044AD1
:103060009B009A58FEF794FCFFFBFFFF5064001092
:10307000B804002070B543780400C58A002B1BD02B
:103080008022D2001543E3781A00511E8A410121A3
:103090004B40A168E3700B6852032A435B0517D4C9
:1030A000104B13400B60FFE7FFE7FFE7FFE7FFE789
:1030B000FFE7A3681A6070BD8369818A9C462A0075
:1030C0006144C068FFF780F9842212021543DAE7F1
:1030D0007F22A1780448CB091140044A9B009A58EA
:1030E000FEF756FCFFFBFFFF50640010B804002001
:1030F000F8B5467C0400002E00D169E08368407872
:103100001D68AD05AD0D00283CD1A18A691889B2B2
:10311000A182A58B628A2B1C3F2D2BD99FB2BC4666
:10312000551AAFB2BC4523D89DB2E3828A424CD334
:1031300049D000283CD08022D2001543E3781A0001
:10314000511E8A4101214B40A168E3700B68520374
:103150002A435B0543D4274B13400B60FFE7FFE78F
:10316000FFE7FFE7FFE7FFE70020A3681A60F8BD6D
:103170002B1CD9E740239FB2BC46551AAFB2BC45C1
:10318000D2D9F5E7A369A08A9C46E16860442A0089
:10319000FFF71AF9A18A6078691889B2A18200281C
:1031A000B7D0E38AAB42B4D900236182E382DEE781
:1031B000A3692A009C46E0686144FFF705F9842270
:1031C00012021543BAE73000D1E70B48FEF7E0FBE7
:1031D0007F238178094A19400948FEF7D9FB7F22ED
:1031E000A1780848CB091140044A9B009A58FEF781
:1031F000CFFBC046FFFBFFFF9C640010B80400201B
:10320000706400105064001070B51D000400437C11
:10321000002D48D0002B01D0002303740023A08B85
:10322000A3826282031C3F2838D998B2904224D8E6
:103230009DB2E382012363746378A161002B25D0E2
:103240008022D2001543E3781A00511E8A410121E1
:103250004B40A168E3700B6852032A435B0500D51D
:1032600062E0364B13400B60FFE7FFE7FFE7FFE745
:10327000FFE7FFE7A3681A6070BD131C9DB2E382ED
:10328000012363746378A161002BD9D12A00E0681F
:10329000FFF79AF8842212021543D4E7402398B22C
:1032A0009042C5D9E9E7002B37D083681A68437884
:1032B0009205960D002B18D1828AB21892B28282A2
:1032C000A08B618A031C3F280DD9881A9EB285B253
:1032D000AE4200D9031CE3828A421BD8CCD0200026
:1032E000FFF7C8FEC8E74023EFE7A369808A9C4642
:1032F00032006044E168FFF767F8A38AF3189AB2D6
:103300006378A282002BDBD0E38AB342D8D96282F1
:10331000E582B1E70A48FEF73BFB81787F3319402D
:10332000084A0948FEF734FB7F22A1780748CB09F9
:103330001140044A9B009A58FEF72AFBFFFBFFFF4F
:103340009C640010B80400207064001050640010E9
:10335000024B5878431E9841C0B27047D8110020E4
:10336000024B18784007C00F7047C046D8110020A4
:10337000014B18787047C0461E180020F8B5474624
:10338000CE462A4E80B533788046002B04D00120EB
:103390000CBC90469946F8BD372200212448FFF71F
:1033A0000DF8244C2000FDF76DFF234B1C60234CCF
:1033B00020001C30FDF784FF200001F0BDFC204BF5
:1033C0001C60204B002B28D01F4D00242800FFF745
:1033D00057FA1E4F1E4A38602B7891460AE0630068
:1033E0001B193A68DB009B58984701342B78E4B2EC
:1033F000A34209DB9C42F2D315D14B4698470134D6
:103400002B78E4B2A342F5DA4046FFF769FC404668
:10341000FFF744FC01233370B9E701F089F80A4B48
:103420001B78002BF0D000231B68FFDE1E18002045
:10343000D81100209011002010120020C00400209C
:1034400014120020812800101D180020A00E00205A
:1034500031450010F0B5DE4657464E464546E0B5CC
:103460008BB001F06FFA002800D17DE1CD4E07ACA2
:103470003568EA69EFF3108172B61368002BFCD04F
:10348000BFF35F8F29622800210001F0C5FAEA69C5
:103490002B6ABFF35F8F0021116083F3108800282F
:1034A00000D161E16378082BE2D8BF4A9B00D35872
:1034B0009F466368002BDBD0A0689847D8E77F223F
:1034C0002179BA4B0A405500C8095B191B1818002E
:1034D000012720304579BD43457145790337BD4308
:1034E0004571002A00D17FE1B14ADB7C002A00D17E
:1034F00043E1B04A1278934200D33CE15A00D3181A
:10350000AD4ADB001268D318002B00D12CE11D69F5
:1035100036E10122A54D01212B78042013432B70A5
:103520002523EA5C8A43EA54EA5C8243EA54013385
:10353000EA5C8A43EA54EA5C8243EA542378002036
:103540009B4600F075FE23795A06920F032A00D19C
:103550001EE160221A40402A00D116E1DB06DB0E94
:10356000012B00D151E1002B00D164E1022B00D0EE
:103570000EE17F232089C1B20B40082B00D907E15F
:1035800040B2C00F80465F00EB1989484344DB7CA2
:10359000002800D17CE187480078834200D375E1A0
:1035A0005800C3188448DB00006881469944002A0B
:1035B00000D174E14B46002B00D1E9E0D86800F05F
:1035C00037FE4B4608AADB6800215846984718E1A9
:1035D0007A4B002B00D14BE700E000BF48E7784B67
:1035E000002B00D144E7714B18780007C00F00E0B2
:1035F00000BF3DE76F4B002598461A786C4B002BB7
:1036000000D1ABE06C4F07E0AA4200D0A9E0013541
:10361000EDB2AA4200DA2BE7AA42F5D939686B006D
:103620008C465B19DB0063445B69002BEFD020788C
:10363000984743461A78EAE75C4D37220021280074
:103640002778FEF7BBFEE81C1022FF21FEF7B6FE2E
:1036500028001222FF211330FEF7B0FE00F0DEFD3D
:10366000544B534A984600251B78002A6CD0524A86
:103670009146544A92460FE04A4612686B009446BF
:103680005B19DB0063445B683800984743460135AB
:103690001B78EDB2AB420BDBAB42EDD85BD15346AE
:1036A00038009847434601351B78EDB2AB42F3DA58
:1036B000454B002B00D1DBE600E000BFD8E63B4DD8
:1036C00023783722002128009946FEF777FE102242
:1036D000FF21E81CFEF772FE28001222FF211330A2
:1036E000FEF76CFE00F09AFD324B314A98460027F7
:1036F0001B78002A00D16DE02F4A9246314A93464A
:103700002A004D4691460FE0524612687B009446CF
:10371000DB19DB0063445B682800984743460137A8
:103720001B78FFB2BB420BDBBB42EDD813D15B462B
:1037300028009847434601371B78FFB2BB42F3DAB3
:103740004D462379AB7093E6380000F02FFF4346D7
:103750001B78002BACD000235B68FFDE002A00D171
:1037600086E600235B69FFDE0BB03CBC90469946C1
:10377000A246AB46F0BD9B1ADBB2002BF4D1134D31
:1037800062792078A368A84772E61148002831D1F1
:1037900020780021FFF7CAFB20788021FFF7C6FBC5
:1037A00066E6C04614120020C0640010D811002044
:1037B000812800101D180020A00E0020000000002D
:1037C00000000000AD45001000000000A5470010FB
:1037D00000000000484600F0E9FE43461B78002B3D
:1037E000AFD000235B68FFDE62792078A36800F029
:1037F00033FD3DE600F01CFD08AA0021584600E01C
:1038000000BF002800D033E6C2E7237A0F2BBFD8D1
:10381000CC4AED18EB78002A1BD0CB4A12789342A1
:1038200015D2CA4A5D00EB181568DB00ED18002DB3
:10383000AED0E86811E0202A00D1F8E0002AA7D134
:103840006379092BA4D8C24A9B00D3589F469B1A80
:10385000DBB2002B9CD1BF48BF4D00F0E9FCEB6808
:1038600008AA002158469847002800D000E66023A7
:10387000227913408CD162790A2A00D10BE10B2AFC
:1038800086D108A9584600F05BFCF1E51B1ADBB2B3
:10389000002B3AD0002A00D07AE7002399466379BA
:1038A0009A46012B05D0002B00D1DFE0032B00D07E
:1038B0006EE7E388002B11D153465846012B00D107
:1038C000DAE1FFF733FB0221EB19434420335A7945
:1038D0000A4301215A715A790A435A714B46002B07
:1038E00000D1C5E54B46D86800F0A2FC4B4608AABB
:1038F000DB68002158469847002000F099FC2623F9
:10390000EB5CDB0700D5B3E5BBE7002A00D0BEE0E7
:10391000914B9946C3E7A37904931A006B78002B67
:1039200002D1002A00D0BFE06B461B7C08A9584694
:103930006B7000F005FC9BE56B7806AA02321370F1
:1039400008A90123584600F013FC91E52B7806AA3C
:1039500099061B07DB0FC90F5B0002320B43138074
:1039600008A90223584600F003FC81E5E388D8B299
:103970001B0A0F2B00D90BE7784A9B00D3589F46B0
:1039800008A800F05BFCA1795846FFF78DF90222E8
:103990002B7813432B706BE5E388012B00D0F7E6FF
:1039A00008222B7808A9134358462B7000F0C8FB57
:1039B0005EE5E388012B00D0EAE608222B7808A90F
:1039C000934358462B7000F0BBFB51E5644B002B32
:1039D00000D1DDE600E000BF021E00D1D8E613787A
:1039E00008A9584600F0C4FB0BE72189FFF77AF8D5
:1039F000021EF4D1CCE6FFF771F8051E00D1C7E630
:103A000006AB9F1CA91C02223800FEF7DDFC3B8898
:103A10002A0008A9584600F0ABFBF2E6FFF75AF877
:103A20001223020008A9584600F0A2FBE9E6237A17
:103A30000F2B00D9ACE6434AED18EB78002A20D0D2
:103A4000414A127893421AD2404A5D00EB18156839
:103A5000DB00ED18002D00D19AE6E86800F0E8FBE5
:103A6000EB6808AA002158469847CAE6EB19434478
:103A700020335B7906AA9B07DB0F02326FE79B1AA4
:103A8000DBB2002B00D083E63248334DE6E7324B01
:103A90003048994693E506AA0232137008A901330B
:103AA000584600F065FBE3E4501EC0B2FFF716F87D
:103AB000002800D16CE64378022B00D068E6012292
:103AC000C77991467B09134019012B78BF099846A5
:103AD000102342469A4313004A460B4320213A40A2
:103AE00052018B4313432B7009239946C378827884
:103AF0001B021343C31881440593994500D3ACE0DE
:103B0000114B9A462B004D46994600236A78029342
:103B10000B2A04D12B780295EB181D005A78042A41
:103B200000D035E6059B074A5B1B9BB200935346CA
:103B30001B78002A32D00022A846019200275D4659
:103B400027E0C046812800101D180020A00E00208C
:103B5000E4640010C54600104C6500100C650010B0
:103B6000000000004D4A7B001268DB199446DB0020
:103B700063449B680392009A4146280098470028B6
:103B80001CD1534601371B78FFB20197BB4200DAC4
:103B9000FEE5BB42E6D80ED1414BECE7009A290086
:103BA000584600F019FD8046002873D153461B7813
:103BB000002B00D1ECE500239B68FFDEAB464546B9
:103BC00080464346082B00D8E2E5009B434500D2DF
:103BD000DEE54A46AB78D218D178FF2900D0D7E588
:103BE000D770029A002A15D091781000994200D01F
:103BF000CEE512796B799A4200D0C9E5C278012AE4
:103C000008D9023A04314944D2B2080001323900DD
:103C1000FEF7D4FB2A00002305E011785B189BB265
:103C2000521843450DD251780529F6D191787F205D
:103C30008C4601406046490049441331C0090F5485
:103C4000EBE75346019A1B784544934200DA9FE51F
:103C5000059BAB4200D958E74D46124B002B00D1D3
:103C600062E600E000BF5FE60F4B002B00D18FE55E
:103C700000E000BF0500C3E6FFF77CF90221EB1965
:103C8000434420335A798A4351465A715A798A43B8
:103C90005A7123E600230027019392E7A00E00202B
:103CA000D9450010000000000000000070B50600BB
:103CB0000C0084B001AD0C2200212800FEF77EFB31
:103CC0002E706C70032C08D01BD9042C07D0052C47
:103CD00034D12E4B1A78D20749D404B070BD2B4B87
:103CE0001A78D207F9D504211A780A431A70284B9A
:103CF0001C68E269EFF3108172B61368002B26D1BD
:103D0000FBE7022C1AD1214B1A78D207E5D5012105
:103D10001A788A431A701A780331A2431A70002263
:103D20005A701A788A431A70194B1C68E269EFF3CB
:103D3000108172B61368002B09D1FBE7144B1C6885
:103D4000E269EFF3108172B61368002BFCD0BFF369
:103D50005F8F21622000290000F02AFFE269236AB8
:103D6000BFF35F8F0021116083F31088B5E7042152
:103D70001A788A431A70064B1C68E269EFF31081C7
:103D800072B61368002BE2D1FBE7C046D8110020C1
:103D90001412002070B584B001AC06000D000C2296
:103DA00000212000FEF70AFB012363700D4B2571F3
:103DB0001D682670EA69EFF3108372B61168002956
:103DC000FCD0BFF35F8F2B622100280000F0F0FED3
:103DD000EA692B6ABFF35F8F0021116083F31088BB
:103DE00004B070BD1412002070B584B001AD06009F
:103DF0000C000C2200212800FEF7E0FA0623210027
:103E0000082202A86B702E70FEF7DEFA0C4B1C68BD
:103E1000E269EFF3108372B611680029FCD0BFF39A
:103E20005F8F23622900200000F0C2FEE269236A4E
:103E3000BFF35F8F0021116083F3108804B070BD61
:103E400014120020F0B5C646804600B584B001AC1F
:103E50000F00160000210C2220001D00FEF7AEFA14
:103E600043462370072363700F4B65711D682771EC
:103E7000A660EA69EFF3108372B611680029FCD0DE
:103E8000BFF35F8F2B622100280000F091FEEA69EA
:103E90002B6ABFF35F8F0021116083F3108804B099
:103EA00004BC9046F0BDC04614120020F8B54E4642
:103EB000DE46574645468146E0B50C00002A42D012
:103EC000497805294BD1E578AD07AD0FAB4246D116
:103ED000314B571E00269A469B4698460EE00A9A9A
:103EE00013702378E418B7422DD06378052B36D1B0
:103EF000E37801369B079B0FAB4230D1022D3BD0BC
:103F000034D8012D2BD143469A78023A53425A4174
:103F1000224B9C46624407236079217903401B02AF
:103F20000B439A421BDB21004846FEF73FFF002867
:103F300015D0A3785AB2002AD1DA0B9A13702378DD
:103F4000E418B742D1D101200AE062790533134069
:103F5000802221791B0292000B439342E3D0002080
:103F60003CBC90469946A246AB46F8BD5B469B7862
:103F7000022B0ED04022CEE753469B78022BE4D092
:103F80000723617922790B401B021343402BCADDC2
:103F9000E5E78022D200BEE7D8110020FF03000031
:103FA000CB7870B59B079B0F022B2CD019D8012B17
:103FB00002D00023180070BD234B07249A784D7956
:103FC000023A53425A41214B2C409C460B79240221
:103FD00062441C4300239442ECDCFEF7E7FE03003E
:103FE000E8E7194B40249B78022B29D007224D7912
:103FF0000B792A4012021A430023A242DADCFEF7B0
:10400000D5FE0300D6E7104B9B78022B0CD007227D
:104010004C790B79224012021A430023402AC9DC52
:10402000FEF7C4FE0300C5E707224C790B79224056
:10403000802412021A43A4000023A242BAD1CCE782
:104040008024E400D2E7C046D8110020FF0300001E
:104050007F2370B50B40134C5B00C909E41864184A
:1040600020346079C007C00F1AD163795B0700D58F
:1040700070BD01210C4E4942306802F099F8637915
:104080000025DB0707D463795B0704D404220125EC
:10409000637913436371306802F072F82800E7E730
:1040A0000020E5E7D81100201012002070B50D00A7
:1040B00001210F4C4942206802F07AF87F21294003
:1040C0004B000C49ED09C918491920314B790025DD
:1040D000DB0707D44B795B0704D504224B79013504
:1040E00093434B71206802F04BF8280070BDC04626
:1040F00010120020D811002070B57F240C406500FC
:104100000E4C06006419C809241820346579002073
:10411000ED0700D570BD012560792843607130003E
:10412000FEF7F0FE0028F5D1012263799343637115
:104130006379033293436371ECE7C046D8110020E2
:1041400070B50A4C0600082220000D00FEF73CF96D
:1041500000230021A360E381A38169563000C94395
:10416000C90FC9010022FFF7C7FF70BD7C110020F5
:10417000F0B5C6469046274C082200B50600200040
:104180000D001F00FEF720F94346A3600023E381E2
:10419000EB79AA791B0213431A1CBB4200D93A1CC3
:1041A00097B2A281002B12D0002F1FD04346002BC4
:1041B0002ED03B1C402F17D89FB223787F2B1ED8C0
:1041C0000021154A3B003000FFF796FF09E000216F
:1041D00069560023C943C90FC90100223000FFF707
:1041E0008BFF04BC9046F0BD4023E5E723787F2B8E
:1041F00002D800210022E5E780210022E2E7064CF8
:104200003A0041462000FEF7DFF880212200D9E77E
:104210000020E6E77C1100209811002010B5142240
:1042200000210248FEF7CAF810BDC0467C110020EC
:10423000014B18617047C0467C11002010B5054C39
:10424000010008222000FEF7BFF80023A360E381ED
:10425000A38110BD7C11002070B53A4C1D0023785D
:104260000600DA09C9098A4212D00020002D0ED1B9
:10427000354B002B03D021003000FEF77FFD236972
:10428000002B2ED02200022130009847012070BD63
:104290007F2B06D8A068002825D02A002B49FEF7DE
:1042A00093F8A268E38951195B19E2889BB2E38114
:1042B000A1609A4201D03F2D17D82369002B05D069
:1042C0002200012130009847002824D000216156A7
:1042D0000023C943C90FC90100223000FFF70CFFBA
:1042E000D5E70120D3E70020D1E7A289D31A1D1C0E
:1042F0009BB2402B00D940252378ADB27F2B14D838
:104300000021002D05D100222B003000FFF7F4FE24
:10431000BDE70E4AF8E700213000FEF707FE300047
:104320008021FEF703FE0120B1E7002D01D180219D
:10433000E9E7064C2A002000FEF746F8802122001B
:10434000E2E7C0467C1100207D2D0010981100206E
:1043500010B50400FEF7FCFF002801D1002010BDBD
:10436000FEF7FEFF0028F9D1B62080004443034841
:104370000019037901201840F1E7C046A40E00207F
:104380000300B6208000584310B5034B10301818B6
:1043900000F018FB10BDC046A40E0020F0B5B625F5
:1043A000AD0045432C00C646174E1034341900B5F5
:1043B00092B2200000F080FB0700200000F01CFB00
:1043C0003F2803D8380004BC9046F0BD7319D97853
:1043D00000209846FFF73CFE0028F3D0200000F0B4
:1043E0000BFB3F2805D843460020D978FFF75EFE37
:1043F000E8E796239B00EA184346B218D9780020D4
:104400004023FFF779FEDDE7A40E0020F0B5B625C6
:10441000AD0045432C00C6461F4E2C34341900B560
:1044200092B2200000F006FC0700200000F0CAFA5B
:104430003F2803D8380004BC9046F0BDFEF788FF43
:104440000028F7D0FEF78CFF0028F3D1200000F001
:10445000B9FA0028EED07319997800209846FFF732
:10446000F7FD0028E6D0A6239B009C4665447619FC
:1044700031004022200000F01FFB434699780028BD
:1044800005D0030032000020FFF736FED2E70020FF
:10449000FFF70CFECEE7C046A40E0020F8B50500DD
:1044A000FEF756FF002801D10020F8BDFEF758FFA7
:1044B0000028F9D1B624A40065432E00144F2C36F1
:1044C000BE19300000F07EFA0028EDD07C19A178EA
:1044D0000020FFF7BDFD0028E6D0A6239B009C46E8
:1044E00065447D1929003000402200F0E5FAA178EA
:1044F000061E08D003002A000020FFF7FDFD00285B
:10450000D2D03000D1E70020FFF7D0FDCCE7C04685
:10451000A40E00200300B6208000584310B5034BC2
:104520002C30181800F068FA10BDC046A40E002008
:10453000B622F0B51B4C83B0920000212000FDF79D
:104540003DFFFF236371184B80260025E380012780
:104550000823210020007600237327813200483190
:104560000095073B103000F0F1F92100200049319F
:104570003200FF31009701232C3000F0E7F992233D
:104580009B00E6183000FCF77DFE94239B00A6629A
:10459000E61865623000FCF775FE2664656403B0BA
:1045A000F0BDC046A40E002000C2FFFF10B5094CAC
:1045B000052200212000FDF701FF20002C341030DF
:1045C00000F0BAFB200000F0B7FB0121200000F052
:1045D000D9FB10BDA40E0020F0B5C64600B54B793E
:1045E00082B00700022B05D00025280002B004BCD1
:1045F0009046F0BD8B79022BF6D1CB79062BF3D800
:104600002F4EB378002BEFD18B78092533700C78BF
:104610000C196378242B0BD1082A02D821E0AA4276
:104620001FD32378E418ED186378ADB2242BF6D0AD
:10463000052B2DD0042B14D163790A2B11D12378AB
:1046400021009846B31C0193F31C009341440223BC
:1046500002223800FFF72AFC0028C5D00E35454459
:10466000ADB234001034200000F0C6F93F28BCD9A8
:10467000F1780020FFF7ECFC0028B6D0200000F015
:10468000BBF93F2812D8F1780020FFF70FFDACE707
:1046900021003800FFF784FC0028A5D0A3787370B0
:1046A0002378ED18E418ADB26378C3E796239B0036
:1046B000F218F17840230020FFF71EFD95E7C04671
:1046C000A40E0020F8B560231400127800271340D0
:1046D000202B01D03800F8BD2E4A63792679157851
:1046E0001B0233439D42F5D16378212B43D009D976
:1046F000222B24D0232B14D1002945D0022912D0FB
:104700000127E7E7202B0CD1002936D00229F7D169
:10471000214B002BF4D0911D0020FEF7B7F80127A4
:10472000D8E70027D6E71D4B002BE9D0E178A37826
:1047300009021943002000E000BF0127CAE7002951
:1047400022D00229DCD10125A178E47824020C438F
:10475000290014712C32A143100000F013FB104B00
:10476000002BCDD0290062082A402140002000E023
:1047700000BF0127AEE70029C2D10632072321007E
:10478000FFF7F6FC0127A5E72100FFF7D9FC012779
:10479000A0E7C046A40E00208D28001000000000F5
:1047A00000000000F0B546464F46D646C0B55E4D07
:1047B0009846EB7882B081460E008B4200D176E0BD
:1047C000AB788B422CD00024200002B01CBC904659
:1047D0009946A246F0BD554B002B07D0280010305B
:1047E00000F002F9002801D100E000BF2C001034D5
:1047F000200000F001F93F280FD9E9780020FFF7E9
:1048000027FC002809D0200000F0F6F83F2800D946
:1048100080E0E9780020FFF749FCAB789E4244D164
:10482000434B002B02D0002000E000BFFEF790FDBC
:10483000002817D128002C3000F0C4F8002834D10B
:104840004346002B31D09B062FD1A9784846FFF76D
:10485000FFFB041E29D0A978002300224846FFF759
:104860004BFCB1E7FEF77CFD0028E3D12C002C3493
:10487000200000F0A7F80028DCD0A9780020FFF77E
:10488000E7FB0028D6D0A6239B00EE18310040227B
:10489000200000F011F9A978002837D00300320079
:1048A0000020FFF729FC0028C4D001248CE74346F0
:1048B0006A46D38096239B00EC1810239A46AA449C
:1048C000D2882100504600F0B5F91A4B002B82D057
:1048D0006B79FF2B00D17EE74246002A00D17AE7B0
:1048E0009627BF004744EF1904E00134BC4200D1D1
:1048F00071E76B7922789A42F7D1504600F074F84C
:104900000028F2D1697900E000BFEEE70020FFF750
:10491000CDFB8FE796239B00EA18E978402300201F
:10492000FFF7EAFBAB7879E7A40E00200000000057
:10493000000000000000000010B50020FEF71EFD82
:1049400010BDC04610B5FEF713FD10BDF0B5C6464C
:1049500000B51E0006AB1B780400984680230F00AC
:1049600015001B0200209A4226D86069002803D057
:104970000121494201F01CFCA069002803D001215B
:10498000494201F015FC4346A5806D00ADB223728B
:104990006B1EA381002360696D42E3812760E6807E
:1049A00065812382002801D001F0EAFBA06900287C
:1049B00005D001F0E5FB012004BC9046F0BD0120CC
:1049C000FAE7C046C189028A89B292B28B1A9BB2B9
:1049D000914202D242899B1A9BB28288101C9A4251
:1049E00000D9181C80B27047C389008A181A434244
:1049F0005841C0B27047C04610B5C489018AA4B2FC
:104A000089B2631A82889BB28C4202D240891B1AF7
:104A10009BB2D01A80B210BD70B5040080690D0041
:104A2000002803D00121494201F0C2FBE089218A1C
:104A300080B289B2421A92B2884202D26389D21AF3
:104A400092B2A388934207D2C21A904229DA6089AF
:104A5000121A92B222821A00002A02D126E0C91A42
:104A600089B28B42FBD92368E2889C4651432800D7
:104A70006144FDF7A9FC01250122238A9BB2591C40
:104A8000A0899B1888420ADA62899B189BB2A069A8
:104A90002382002801D001F073FB280070BD9BB277
:104AA000F5E7A0898242D2DC92B2D3E7238A0025BF
:104AB0009BB219000022E3E7F8B54746CE46040052
:104AC000806980B50E001700002803D001214942FB
:104AD00001F06EFBE289218A92B289B2551AADB219
:104AE0008A4202D26389ED1AADB2A388AB4209D2E1
:104AF000D11A8A4253DA6289891A89B21D00218249
:104B0000218A89B2002D4FD03A1CAF4245D895B2C8
:104B10008B4203D8C91A89B28B42FBD95B1A9FB268
:104B2000E3885943984623689C466144BD4224D992
:104B30004046784383B21A0030009946FDF744FCA2
:104B400043463000EA1B5A43216892B24844FDF7BD
:104B50003BFC228A92B2531919009A4218DD6289ED
:104B60009B189BB2A0692382002801D001F008FBAA
:104B700028000CBC90469946F8BD424630006A4376
:104B8000FDF722FC228A92B2531919009A42E6DC00
:104B9000A2898A42E3DB9BB2E4E72A1CB7E7A28939
:104BA0009142A8DC89B2A9E7218A89B20B00EFE71C
:104BB00070B5050040690E00002803D0012149426C
:104BC00001F0F6FAEC892B8AA4B29BB2E21A92B2F7
:104BD0009C4202D26B89D21A92B2AB88934225D002
:104BE00020009C4203D3C01A80B28342FBD92B68B9
:104BF000EA889C46504331006044FDF7E5FBAB89F1
:104C00009C4209DA01346869A4B2EC8100280BD017
:104C100001F0B6FA012070BD6B896869E4180134AF
:104C2000A4B2EC810028F3D10120F4E7287A00280F
:104C3000D6D1F0E7F8B557464E464546DE46E0B5D4
:104C400006000F00151E06D128003CBC9046994670
:104C5000A246AB46F8BD4069002803D00121494275
:104C600001F0A6FAF489337A308AA4B280B2002B1C
:104C700012D1221AB38892B2844202D27189521A96
:104C800092B29A1A111C92B2AA4200D9291CF28837
:104C90008DB29146A84605E0B3889D4242D2F28883
:104CA000A846914620009C4203D3C01A80B2984285
:104CB000FBD21B1A9BB29A464B46584333689C461C
:104CC000604455451AD84A46434639005A43FDF7D1
:104CD0007BFB4346E3189C420BDCB289934208DC21
:104CE0002C19A4B27069F4810028ADD001F048FA03
:104CF000AAE773892C19E418A4B2F3E7534649468E
:104D000059438BB21A0039009B46FDF75DFB5346B1
:104D1000EA1A4B4639005A43594492B23068FDF7BB
:104D200053FBD6E7F288ED1A554398467F19914612
:104D300004001D00B6E7C04610B504004069002815
:104D400003D00121494201F033FAA069002803D0C1
:104D50000121494201F02CFA0023E3812382A38838
:104D600060695B009BB25A1E5B42A281638100288E
:104D700001D001F005FAA069002801D001F000FA85
:104D8000012010BD70B5040040690D00002803D05B
:104D90000121494201F00CFAA069002803D0012149
:104DA000494201F005FA60692572002801D001F03E
:104DB000E7F9A069002801D001F0E2F9012070BDF7
:104DC00010B5024800F0E4F810BDC046E41700201A
:104DD000013910B5002900D1A5E06C4B1A781211E9
:104DE00014003034092A00DDA0E00470012900D14C
:104DF00099E00F221C78224014003034092A00DD8B
:104E000097E04470022900D18DE05A781211140005
:104E10003034092A00DD8FE08470032900D182E05C
:104E20000F225C78224014003034092A00DD86E02D
:104E3000C470042977D09A78121114003034092AEA
:104E400000DD7FE0047105296DD00F229C7822409F
:104E500014003034092A00DD77E04471062962D05D
:104E6000DA78121114003034092A00DD70E0847100
:104E7000072958D00F22DC78224014003034092A48
:104E800069DCC47108294ED01A791211140030342B
:104E9000092A63DC0472092945D00F221C792240BB
:104EA00014003034092A5CDC44720A293BD05A7958
:104EB000121114003034092A56DC84720B2932D0C6
:104EC0000F225C79224014003034092A4FDCC4726E
:104ED0000C2928D09A79121114003034092A49DC9F
:104EE00004730D291FD00F229C7922401400303406
:104EF000092A42DC44730E2915D0DA791211140004
:104F00003034092A3CDC84730F290CD0DA790F2362
:104F100013401A003732092B01DC30331A00C273F8
:104F2000102900D010210023435410BD3732140043
:104F30005BE73732140064E7373214006CE737322E
:104F4000140075E7373214007CE73732140084E729
:104F5000373214008BE73732140092E737321400EF
:104F600098E7373214009FE737321400A5E737324D
:104F70001400ACE737321400B2E737321400B9E757
:104F80003732140084730F29C0D1CCE7E417002016
:104F900010B588B004000D2200216846FDF70EFA16
:104FA0000D22002104A8FDF709FA4B236A4604A943
:104FB000137068460D2201F0DBF8152108226944C0
:104FC0002000FDF701FA08B010BDC046F0B5574605
:104FD0004546DE464E46E0B50D000B3583B0070072
:104FE000162D00D89FE007239D4300D5C4E0A942B9
:104FF00000D9C1E000F096FAF823FF339D4200D8B3
:1050000089E2680A00D1BBE0042800D964E13823B2
:105010009846A80980443930C100C94E7118083932
:10502000CC68A14219D0032362689A431300521B33
:105030000F2A00DDAAE0002A00DB88E003239C465B
:1050400008E06246636893435A1B0F2A00DD9DE027
:10505000002A7CDAE468A142F3D1320034690832D4
:10506000944200D18BE10323616899438946491B2F
:105070000F2900DD70E172613261002900DB87E0F9
:10508000B04A4B46914500D932E1DB08FF3A99100E
:10509000FF3A8A40DB0071689B190A439968726085
:1050A000E360A1609C601300CC60012182109140FC
:1050B00099426FD80B4205D1032290434900043036
:1050C0000B42FBD003239846C3009946B144CC461B
:1050D00082466346DC68A44507D152E1002A00DB22
:1050E00061E1E468A44500D14BE142466368934323
:1050F0005A1B0F2AF2DD01208046611905436560C5
:10510000A068E5680836C560A8604046F160B160F7
:1051100010434860CE608E603800E25000F004FA20
:105120002000083021E0102926D8380000F0FAF9D4
:10513000102518230220824EF3181A005C68083AE2
:10514000944200D129E1032362689A431300E26884
:10515000A168CA6091600122E318596838000A43C7
:105160005A6000F0E1F92000083003B03CBC9046E2
:105170009946A246AB46F0BD0C2300203B60F4E705
:1051800080213F2340208900984646E7404664E757
:105190004B46E0E70323B46862689A439046AA420C
:1051A00003D3531B0F2B00DD88E023004344664AE2
:1051B0000193664B93469A4692681B68EB1801323E
:1051C00000D161E1624A944663441B0B1B030093C8
:1051D0000099380000F0AAF903008146013362D03B
:1051E000019B834200D9F9E053465B68009A9C46D4
:1051F000534662445A60019B1100834200D14FE143
:105200005B469B68013300D166E14B46019A9B1ACD
:1052100059185346596007234A46134000D11EE1EE
:10522000082189464B49D21A9144CB1A009A38007A
:105230004A441105090D5B1A19009B4600F076F9E6
:10524000431C00D13CE14B46C01A0123584418438B
:1052500053465B685B441900534659604B46B36044
:105260005860B44213D043460F2B00D8E2E04346C7
:10527000072260680C3B9343063A024005201A431C
:105280006260E218506090600F2B00D91CE1534619
:10529000DB6A994201D95346D96253461B6B994246
:1052A00001D9534619630323B46862689A43531BB8
:1052B000954200D9C1E00F2B00DCBEE0012229009D
:1052C00013431143651961603800B5606B6000F0ED
:1052D0002BF92000083048E7142873D9542800D946
:1052E000B2E06E239846280B80446F30C10094E6EC
:1052F0005A0A042A6CD9142A00D9C8E011005C3279
:105300005B31D20008235B429C46B218944463464A
:105310009A6803239846944500D1A3E04346516818
:105320009943894500D38DE092689445F6D1634650
:10533000DA6873686146E260A1609460CC60B4E6AC
:1053400018090020FF010000180D00206C0E00203D
:105350000F10000008100000012360191D43656054
:1053600070613061C26082601A004B460A4342603D
:105370003800E15000F0D8F820000830F5E67368F6
:1053800093E608239B46073BDC449B46DA444346AE
:105390005246134200D09CE636E0DC680230A3425D
:1053A00000D15AE6CFE60122E318596838000A43D3
:1053B0005A60E368A268D3609A6000F0B5F82000F4
:1053C0000830D2E65B23984680445C30C10024E676
:1053D0009A09110039323831D20093E7B44200D033
:1053E00061E753465B68009A9C465346624411004D
:1053F0005A6005E708235B429C46E1444B469B68A4
:105400000138994500D084E043460342F2D17368E5
:105410008B4373604900994200D9BBE6002900D153
:10542000B8E650460B4200D04EE6490004300B422D
:10543000FBD049E601234A465360380000F074F877
:10544000002092E6944672E7AA235B00984211D8A6
:10545000DD3B9846E80B80447830C100DDE58023D1
:105460005B01E3E68910023B8B4072681343736073
:1054700062465FE72A4B98421CD87C239846A80CCA
:1054800080447D30C100C8E510330093A0E6542A63
:1054900026D84B461A0B11006F326E31D20031E71D
:1054A0001B0500D0ACE60120009BB26843440343D7
:1054B0005360ECE6FE217E237F2089009846ACE510
:1054C000002301209B46C3E621003800083100F08C
:1054D0007DFB53465968DAE65B464A469A609AE68F
:1054E000AA2149008A4206D84B46DA0B11007832CD
:1054F0007731D20006E70A498A4206D84B469A0C11
:1055000011007D327C31D200FCE6FE227E21920029
:10551000F8E673687EE72B00E80808330BE6C04620
:10552000540500007047C0467047C046002370B560
:10553000064C050008002360FCF70EFA431C00D05F
:1055400070BD2368002BFBD02B60F9E7EC1A00201C
:1055500010B5830725D00378002B24D00300032146
:1055600002E01A78002A1AD001330B42F9D11968E7
:105570000E4A0F4C8A188A43224206D10433196816
:105580000A4A8A188A432242F8D01A001B78002B54
:1055900003D0013211780029FBD1101A10BD181A5E
:1055A000FCE70300E3E70020F8E7C046FFFEFEFE4D
:1055B00080808080F8B506000D001400002802D01D
:1055C000836B002B4ED0A369A3600C23E05E81B2F5
:1055D0000B073CD52369002B39D0FF22EFB21540D1
:1055E00080229201114215D022686169D31A8B4240
:1055F0001BDA0133A1680139A160511C21601770C9
:1056000062699A421AD0A389DB0701D50A2D15D009
:105610002800F8BD0243616EA281144A0A40626606
:1056200061692268D31A8B42E3DB2100300000F06D
:105630003DF9002808D122680123DBE72100300072
:1056400000F034F90028E3D001256D42E0E72100A5
:10565000300000F019F80028F6D10C23E05E236931
:1056600081B2BAE700F03AFAADE7C046FFDFFFFFCC
:1056700010B5044B0A001B6801001800FFF79AFFE1
:1056800010BDC046E8040020334B70B50500186813
:105690000C00002802D0836B002B3CD00C23E25E70
:1056A00093B219070DD52169002915D0DA0721D544
:1056B0000023A360636900205B42A361002921D01D
:1056C00070BDD9063FD55B0728D421690823134351
:1056D000A3819BB20029E9D1A02280209200800002
:1056E0001A408242E2D02100280000F0C5FBA389C5
:1056F0002169DBE700229B0700D46269A2600020D9
:105700000029DDD10C22A35E1A06D9D5402213430D
:10571000A3810138D4E700F0E1F9BFE7216B00294C
:105720000AD023004033994204D0280000F04EFAFA
:105730000C23E25E0023236324239A430023216980
:1057400063602160C2E709232B60402301201A43D4
:10575000A2814042B4E7C046E8040020F0B5C64646
:1057600000B50C23CA5E804693B20C00190740D4E2
:1057700080231B0113436268A381002A00DC70E0D0
:10578000A66A002E31D042464146156800229BB2DF
:105790000A60DA0400D469E0226D5B0706D563680D
:1057A000D21A236B002B01D0E36BD21A0023E169DC
:1057B0004046B047431C3DD0A3893A4A13400022DB
:1057C000626022691BB2A3812260DB0447D4434696
:1057D000216B1D60002908D023004033994202D07C
:1057E000404600F0F3F900232363002004BC9046F8
:1057F000F0BD2669002EF8D022682660951B002295
:105800009B0700D16269A260002D04DCEDE7361829
:105810002D1A002DE9DD2B003200E1694046676A50
:10582000B8470028F3DC40220120A38940421343FB
:10583000A381DBE7434619681D29F4D81A4B0122DE
:10584000CB409A43EFD1A389164E62603340226960
:105850001BB2A3812260DB04B9D50029B7D1206532
:10586000B5E7E26B002A00DD8AE7BEE700220123EC
:10587000E1694046B0470200431C02D0A389A66AF2
:105880008BE743461B68002BF8D01D2B01D0162B4D
:1058900003D1434600201D60A8E74021A3890B43A4
:1058A000A381A3E7FFF7FFFF0100402070B50400CC
:1058B0000D00002802D0836B002B09D00C22AB5EB8
:1058C0000020002B03D029002000FFF747FF70BD08
:1058D00000F004F9F2E7C04610B5011E04D0054BF4
:1058E0001868FFF7E3FF10BD034B0449186800F088
:1058F0006DFAF8E7E804002064650010AD58001068
:105900000020704710B5024900F060FA10BDC04693
:10591000ED5F0010F8B5DE4657464E464546344B1F
:10592000E0B5C363B823002403229B00C4500433B2
:105930004568C2500833C218043BC2500600042315
:1059400028002C606C60AC60AB816C66EC812C61D3
:105950006C61AC61082200215C30FCF72FFD254B07
:10596000254F9A462B62254BEF6299466B62244B7A
:10597000ED61AB62B568984609232800AB81083B0E
:105980002C606C60AC606C66EB812C616C61AC610E
:10599000082200215C309B46FCF710FD53462B6229
:1059A0004B466B624346EF62AB62ED61F5681223D2
:1059B0002800AB81103BEB812C606C60AC606C66A6
:1059C0002C616C61AC61082200215C30FCF7F6FCB4
:1059D00053462B624B466B624346AB625B46EF62BB
:1059E000ED61B3633CBC90469946A246AB46F8BD18
:1059F00005590010015F0010955F00102D5F001029
:105A0000695F00100020704770B568244A1E544337
:105A10000E0021007431FFF7D9FA051E09D00023CA
:105A20002200036046600C30A86068320021FCF759
:105A3000C5FC280070BDC046214B70B51D6806002E
:105A4000AB6B002B2DD0B8239B009C4665446B6844
:105A5000AC68013B03D51FE06834013B1CD30C212B
:105A6000625E002AF8D10123002520005B42E38119
:105A70000233A38165662560A56065602561656167
:105A8000A561082200215C30FCF798FC2563656362
:105A90006564A564200070BD2868002805D0050055
:105AA000D5E72800FFF736FFCDE704213000FFF7E8
:105AB000ABFF28600028F2D10C2300243360E9E713
:105AC0006465001010B5034B0349186800F07EF9B7
:105AD00010BDC04664650010ED5F0010836B10B50B
