:020000041000EA
:1000000000B5324B212058609868022188439860DF
:10001000D860186158612E4B002199600221596106
:100020000121F02299502B49196001219960352056
:1000300000F044F80222904214D00621196600F024
:1000400034F8196E01211966002018661A6600F04E
:100050002CF8196E196E196E052000F02FF8012189
:100060000842F9D1002199601B49196000215960AB
:100070001A491B48016001219960EB211966A021F2
:10008000196600F012F800219960164914480160C1
:100090000121996001BC002800D000471248134993
:1000A000086003C880F30888084703B5996A0420EC
:1000B0000142FBD001200142F8D103BD02B5186610
:1000C0001866FFF7F2FF186E186E02BD00000240BE
:1000D000000000180000070000035F00212200005C
:1000E000F4000018222000A00001001008ED00E03C
:1000F00000000000000000000000000074B24E7A12
:1001000000200420F7010010C3010010C5010010F9
:10011000C1010010C1010010C1010010C101001097
:10012000C1010010C1010010C1010010C701001081
:10013000C1010010C1010010C9010010CB01001065
:10014000CD010010CD010010CD010010CD01001037
:10015000CD010010CD010010CD010010CD01001027
:10016000CD010010CD010010CD010010CD01001017
:10017000CD010010CD010010CD010010CD01001007
:10018000CD010010CD010010CD010010CD010010F7
:10019000CD010010CD010010CD010010CD010010E7
:1001A000CD010010CD010010CD010010CD010010D7
:1001B000CD010010CD010010CD010010CD010010C7
:1001C00000BE00BE00BE00BE00BE00BE00F04BF888
:1001D000103800BEF2EB88719C760010C4760010D7
:1001E0003402001090A31AE700202149086006C8D5
:1001F00081F3088810471F48006800282FD10DA4FC
:100200000ECC002902D000F012F8F9E71A491B4A77
:10021000002000E001C19142FCD1194988471949E9
:1002200088471949884700BEFDE701C901C29A42C3
:10023000FBD37047C4760010C0000020202D0020A2
:1002400030A30010000004200000042030A30010A0
:1002500000100420001004200000000070470B482C
:1002600002F01EF80047EFF30580C0B270470000AF
:1002700008ED00E0000000D0302D0020143C0020EC
:10028000D91900107D040010111B001057560000F2
:1002900006005250ABB36053287400100600525051
:1002A000861C030238740010060052505422A29D8E
:1002B0005074001005005250DE65F46830A3001041
:1002C000F8B5C046054B0648033310B51B1A062B7C
:1002D00003D9044B002B00D0984710BD202D0020DF
:1002E000202D0020000000000648074910B5091A1B
:1002F0008910CB0F5918491003D0044B002B00D0A4
:10030000984710BD202D0020202D00200000000067
:1003100010B5074C2378002B09D1FFF7D3FF054B0D
:10032000002B02D0044800E000BF0123237010BD61
:10033000302E002000000000F8710010094B10B5AD
:10034000002B03D00849094800E000BF08480368B3
:10035000002B02D1FFF7C8FF10BD064B002BF9D0D0
:100360009847F7E700000000342E0020F8710010D5
:10037000202D002000000000FA22024B92001A609B
:100380007047C046D0030020FA22014B1A60704724
:10039000D0030020014A024B1A607047C4090000D4
:1003A000D0030020FA22024B92001A607047C04628
:1003B000D003002010B5002901D0002A00D110BDC3
:1003C00022220249002004F0D3F9F8E73872001025
:1003D0007047C04630B585B003E003A9002004F0A3
:1003E00051FC0021002004F03BFC0028F5D100F076
:1003F000F9FE002932D0FA220023920001F0C4FF56
:100400001E211B4AFF311368C01A884224D91F33AA
:10041000184CFF33136023685A1E24D416498D5C90
:10042000CB5C01AA537090207F2310709370002141
:100430007C3B002004F064FC02AA80235570002558
:10044000137000217D3B0020957004F059FC236857
:1004500001333F2B0AD9256005B030BDFA21890050
:1004600001F050FFCCE766250349D9E72360F3E7A5
:10047000C8370020AC370020F8710010F0B5DE4618
:1004800057464E464546E0B593B002F055FC05F0A0
:1004900023FA304B9946304B9B46304B9A466B467D
:1004A000DD1D9F1D1FE0FA220023920001F06CFF6A
:1004B0004B465A461B681268C01A90420CD39B18D0
:1004C0004A4613605346187802F04EFC5346012208
:1004D0001B78534052461370002004F0EBF80028BC
:1004E0000CD1FFF777FF03F01FF900F07BFE002926
:1004F000D9D1FA21890001F005FFD9E7002004F0E5
:10050000F1F80028EDD0402202A9002004F0F8F80C
:100510000A2302AC26189846002803D116E00134BD
:10052000B44213D023780122290000202B7004F05C
:100530001FF923780D2BF2D1434601223900002008
:1005400001343B7004F014F9B442EBD1002004F004
:1005500055F9C6E7CC370020D0030020EC37002047
:10056000F0B5C64600B588B08C4602A916000A0050
:1005700098460F4B90CB90C204AC22000D4BA1CB00
:10058000A1C21B78604613700B4B0722019302F047
:10059000A5F921000C22300002F0A0F9032201A9E4
:1005A000404602F09BF908B004BC9046F0BDC0463E
:1005B0005C72001064720010312E30000120704710
:1005C00010230B60F133FF33138070470120704715
:1005D00010B549028918044A18005118029A02F00D
:1005E0007DF9029810BDC046D403002010B505481F
:1005F0004C02A21880181900029A02F06FF90298B2
:1006000010BDC046D403002010B50A781C0000239A
:100610001E2A01D1180010BD2022052104F01EFE63
:100620002300F7E710B502F0A9FB044B186000287F
:1006300001D1034810BD0348FCE7C046A4370020A1
:100640004073001054730010034B1B68002B01D142
:10065000024870470248FCE7A43700209872001057
:100660007872001070B5002825D003282DD8194BBA
:100670008000C458200005F06FFFC3B21F2B18D8AC
:10068000D8B2002823D02300441E134DE4B2013415
:10069000AA1C1C1919780133118002329C42F9D12D
:1006A000C023013040009B00184380B228802800FE
:1006B00070BD1F20E7E7084D064BA81C19680222F1
:1006C00002F00CF9C1208000F0E70020F0E70348B9
:1006D000014DEBE7D4230020F02F0020020300009F
:1006E000094A830094464022634410B51C68C00048
:1006F0006240C02414408022520113431C60034B0B
:100700009C466044416010BD04C00140004001406F
:10071000034BC0009C46604443681F20184070474C
:10072000004001400B4B80009C46604400290DD0E6
:100730000C210823002A00D00B00026853400C2231
:100740001A4080235B011843026070470421002394
:10075000F0E7C04604C00140074BC0009C4660441F
:10076000036809045940C0239B02194080235B01A0
:10077000184301607047C04604400140074BC00069
:100780009C466044036809035940C0239B011940FB
:1007900080235B01184301607047C046044001405C
:1007A0000123D0228340120693629361094A830099
:1007B0009446402263441968C0004A40C021114059
:1007C0008022520113431960034B9C460523604469
:1007D0004360704704C0014000400140F8B5EFF3AA
:1007E000108772B60D4E3368002BFCD0BFF35F8FBD
:1007F0000725CB08C01801230D40AB401D0004782D
:10080000254007D123430370BFF35F8F356087F323
:100810001088F8BD100001F07DF9C0462C0100D011
:10082000F8B5CE4647468C4680B5EFF3108872B6D1
:100830001D4D2C68002CFCD0BFF35F8F9A4219D855
:100840000721012511408D40D4080419267835422E
:100850001FD007218946063909E04D460F00154093
:10086000AF40D408041926783D00374211D0013238
:100870009342F2D201204042BFF35F8F00220A4B25
:100880001A6088F31088002807DB0CBC9046994654
:10089000F8BD354325701000EEE76346002BF4D019
:1008A000089801F037F9C0462C0100D0024B1868B7
:1008B0008007C00F7047C04600C006400021044BAF
:1008C000044ABFF35F8F02C39342FAD17047C04618
:1008D000000100D0800100D0044A1078431CDBB234
:1008E000172B00D9102313707047C046E423002053
:1008F00000B5054B83B00100009318221F23034865
:10090000FFF78EFF03B000BD80730010243300207A
:10091000F8B5040006200D0001F07EFA0300002067
:10092000002B49D0294B80229C424DD0D203284B2A
:1009300028491A60284B1A6010008B689843FBD135
:10094000264B8021E3185A425341254A5B00490057
:100950000620995201F060FA2900C00001F0D2FC93
:10096000C3092AD01F4A93422AD87F22104001305F
:1009700040089F011A0003003F182600802562628C
:10098000A36200232C36AD0135432B60062001F015
:1009900043FA3900800001F0B5FC6023E26A53405D
:1009A0006E221A4080235B0133431A600E4B23638F
:1009B00010232B600D3BA364F8BD40270122DCE728
:1009C0000A4F00230A4AD8E71204B0E70080034028
:1009D00000E0004000C0004000F000400080FCBF8C
:1009E000F0370020FEFF000001030000C0FF3F00C1
:1009F000FFFF000083680B4810B5844661446244E1
:100A0000090112019A18591854684B6801209C4238
:100A100001D802D00020C0B210BD12680B689A4203
:100A2000F9D8F7E7FFFFFF0F0A4B1968EFF31080C3
:100A300072B60A68002AFCD0BFF35F8F1B68BFF351
:100A40005F8F00221A6080F3108840BF00200021D1
:100A50007047C046C4370020F8B54E464546DE46CE
:100A60005746E0B51F000CAB1D780DAB1B788146D7
:100A70009B46036816009846002D08D1987B0028F5
:100A800041D13CBC90469946A246AB46F8BD2800F1
:100A90006C006419033C384B00229C464B469B6813
:100AA00060449C4600010A9B604483600B9B066087
:100AB0004760C36043461B681B199A705A701A70CE
:100AC00043465B7B9A46002B3BD043462A009868FE
:100AD00051465B68984743461A68002824D053461D
:100AE0005B005344033BD31814195246A2701A7882
:100AF000002A00D062701D705246434628005A7387
:100B0000AA45BED11FE0414644001B682418033C9F
:100B10001B195A788A73002A00D1CA730022050073
:100B20009A705A701A70B6E753465B005344033B01
:100B3000D31814199D702278002A00D05A70534699
:100B4000237043465D734B463200187D3B0000F036
:100B5000C5FB041E07D05B46002B04D14B46290081
:100B6000186800F00FFE0E9B002B02D01C702800AE
:100B700087E7280085E7C046FFFFFF0F744B820020
:100B8000F0B5D4580023DE4657464E4645469B46B0
:100B9000E0B58DB00B9000F025FB6268EFF3108597
:100BA00072B61368002BFCD0BFF35F8F23689C469E
:100BB0005B7B9946002B00D181E0A268654B904693
:100BC0004B441B01984443461E685F6832003B005B
:100BD000121A8B41002B00DC84E03B0032000B98A2
:100BE00000F07CFB002300220892099300230027D9
:100BF0009A466368BFF35F8F5A461A6085F3108880
:100C00005346002B64D00A9B390018024B46184308
:100C1000D047626806900791EFF3108872B6564687
:100C200045461368002BFCD0B246A846BFF35F8F41
:100C30000699079A002A25DA2369002B28D0089DF7
:100C4000099E6D1A96412A003300089D099E9E4216
:100C500000D971E000D173E059460491012103915C
:100C6000494602915146019700912000FFF7F4FE9A
:100C70005B4623616368BFF35F8F5A461A6088F34F
:100C8000108888E71300194302D02369002B46D14E
:100C90002368DA7B002A07D051008A1819688C462D
:100CA00049466244033A51704A46DA73E2684B4659
:100CB0009446013B63441A7801321A70D8E7002346
:100CC000002208920993002300279A46002090E70B
:100CD000002800D05FE70DB03CBC90469946A24684
:100CE000AB46F0BD002B02D1002A00D075E70021F1
:100CF000604600F09BFC43461A685B6808920993C3
:100D000043469B689A464346DF68E3684B44013B91
:100D10001B780A931B0218432061002069E700F04A
:100D200061FA069A079B12184B41994204D800D0E9
:100D300092E7904200D88FE701225242D3178BE707
:100D4000954200D888E701225242D31784E7C04673
:100D5000B4370020FFFFFF0F10B5124C6368002B63
:100D600004D00A21104800F047FB10BD23000F4AB1
:100D70001021206800F03CFC032000F027FA03203B
:100D800000F01AFB0A49032000F062FAFFF7A4FD05
:100D9000084B9C46032360442375074B800060602A
:100DA000DC60DEE7E8230020C4370020F5090010EE
:100DB0007D0B001040000034B4370020004870471D
:100DC000E8230020F0B55746DE4645464E46E0B5DE
:100DD00085B00092019310AB1B7807009B4600235F
:100DE0009A4698467A68EFF3108972B61368002B1A
:100DF000FCD0BFF35F8F3E68B47B002C00D173E062
:100E000065002D193368033D5B195A78B273002AC7
:100E100000D1F27342469A705A701A70BA68504BF9
:100E200094460099019AE3181B01634419605A60C3
:100E30000E9A9A600F9ADA60424633685B199A708C
:100E40005A701A70737B0393002B00D176E019005F
:100E500073682200B0689C46E047326800285ED084
:100E600003985519844643006344033BD318A87084
:100E70001A78002A00D06FE01C70707384425ED034
:100E8000FB681B19013B18787B68BFF35F8F4246F4
:100E90001A6089F310885346002B08D100022043C2
:100EA00005B03CBC90469946A246AB46F0BD5B46B9
:100EB000002B53D00E9B0F9900209847030004008D
:100EC0000D000B434AD0002917DA0098019902005F
:100ED0000B00121BAB4199421AD801D1904217D88E
:100EE00000920193DA467DE77B68BFF35F8F1C6059
:100EF00089F3108801204042D2E700F073F92418EA
:100F00004D4100940195A94202D8EBD1A042E9D904
:100F100001235B42DC17DA460093019462E70399F0
:100F200055198C464B006344033BD3189C702A78B8
:100F3000002A00D05A706B461B7B2B707473387D6F
:100F4000009A019B00F0CAF98246002898D021003F
:100F5000386800F017FC93E76A708DE700209FE780
:100F6000FFFFFF0FF0B54E464546DE465746E0B55B
:100F70006A4C83B0814688466268EFF3108A72B685
:100F80001368002BFCD0BFF35F8F2668B57B002D64
:100F900046D06F007F193368033F0195DB195A78FB
:100FA000B273002A00D1F27300229A705A701A703C
:100FB000A1685B4B8C464946EB181B0163441960E2
:100FC000414659605749DA6099603368DB199A7075
:100FD0005A701A70737B9B46002B00D189E02A005F
:100FE0001900B068736898473268002800D173E030
:100FF0005B465B005B44033BD318D7195A46BA7073
:101000001A78002A00D07A701D705B4673735D45B4
:1010100000D16FE00026E3685B19013B1B7802E01A
:101020000023002601936268BFF35F8F00211160E7
:101030008AF31088002D44D0002E42D1019A1B0261
:10104000134320BF6168EFF3108772B60A68002A65
:10105000FCD0BFF35F8F2068D9B2427B8A4256D062
:10106000FF221A405500AA4605689244AC465546F0
:101070006544033DAD78002D29D0E5681B0AAC46D8
:101080006244013A12789A4244D06368BFF35F8F9A
:1010900000221A6087F31088234A536A984508D8BB
:1010A000926A01264A4504D24246D31A5E1EB341D3
:1010B000DEB2300003B03CBC90469946A246AB4637
:1010C000F0BD194A0026536A9845F2D8E8E722692C
:1010D0009342DAD12561D8E75B465B005B44033B72
:1010E000D318D7199D703A78002A00D05A705B4601
:1010F0003B707573207D4A46434600F0EFF8061EAC
:1011000000D187E72900206800F03CFB83E7FF223D
:101110001A40B2E700F036FBB7E7C046E8230020EC
:10112000FFFFFF0F290A001000400540F8B5CE462A
:10113000474680B5EFF305833F221340180010386F
:10114000EFF3108C72B61B490A68002AFCD0BFF37B
:101150005F8F01210F008740174D184A6F63147885
:1011600091462200C24090464646002231420BD0B2
:10117000696A134D884681004D59A84512D3114B19
:10118000BC43CA584B461C70BFF35F8F0021094B0C
:1011900019608CF31088002A00D090470CBC904650
:1011A0009946F8BD08499B00884643441968196070
:1011B000EAE7C046280100D000400540ED37002096
:1011C000D037002014330020D03F054010B5010077
:1011D000024A0348FFF702FB10BDC046A873001087
:1011E000EA370020044A516A00E01900906A536A05
:1011F0009942FAD17047C04600400540134A30B5C5
:10120000546A00E01C00956A536AA342FAD12A008E
:101210002300801859418C4211D80ED00C000B4A83
:10122000536AA342FCD307D1084A02E0516A9942AB
:1012300002D1916A8142F9D330BD8542EED90124B1
:1012400001204042C1176442E9E7C0460040054022
:1012500070B504000D00EFF3108672B61A4A1368D9
:10126000002BFCD0BFF35F8F002D1BD0200000F0BF
:10127000EBFD164988420AD0200000F0EDFD012167
:10128000200000F0CFFD0123A340114A1360114B51
:10129000A400E550BFF35F8F00220B4B1A6086F36A
:1012A000108870BD0B4BA200D5500122A2400A4904
:1012B00020000B7893430B70044900F0F7FD0021E8
:1012C000200000F0AFFDE5E7280100D02D1100104F
:1012D0003860054014330020ED370020F0B5D646C5
:1012E0004F4646462F4CC0B5656A00E00D00A66A21
:1012F000616AA942FAD1AB4249D9EFF3108972B6BB
:10130000294C21680029FCD0BFF35F8F01262749B3
:1013100086408C460978264D0F0037438846F9B23F
:101320008A46614654460C701E49041DA4004E6353
:101330006250840063510D6A002435421AD04D6A10
:1013400000E025008F6A4C6AAC42FAD1AB4224D847
:1013500001D1BA4221D8D04521D0124B154A1E6284
:101360005E631F2318401E3B834013606346424662
:1013700001241A70BFF35F8F00220B4B1A6089F3B0
:10138000108820001CBC90469946A246F0BDAB4296
:1013900001D1B242B1D80124F3E70024EAE70124E5
:1013A000E8E7C04600400540280100D0ED370020A6
:1013B000D037002080E200E010B5EFF3108472B661
:1013C0000A490B68002BFCD0BFF35F8F01238340D9
:1013D000074A0848136202789A430270BFF35F8F8E
:1013E00000230B6084F3108810BDC046280100D094
:1013F00000400540ED370020024B9C4661448900C7
:10140000016070474000003410B50400FFF764FA33
:1014100001002000FFF7F0FFFF2323710023637119
:10142000BFF35F8F10BDC04610B50400FFF754FA3C
:1014300001002000FFF7E0FFFF2323716371BFF37A
:101440005F8F10BD10B504000120FFF751FA044B67
:101450009C46604480002060BFF35F8F10BDC04693
:1014600040000034F8B54E464546DE465746E0B5E6
:101470004C0064180368033C1A190D0051780600EB
:101480008946002906D128003CBC90469946A246D0
:10149000AB46F8BD4F004F44033FD819417888460A
:1014A000002141705170002D12D073684A46290006
:1014B000B06898473368002873D0DF191A19BD70D7
:1014C0001178002900D0797049462700117000E09A
:1014D0004D464246002AD6D054004444033C1A19D3
:1014E00051788946002911D1736842462900B068B5
:1014F00098473368002849D01C19DF19A5703B783C
:10150000002B00D0637043463B70BCE74900494460
:1015100003398A46534459788B46002159705170DB
:1015200073684A464146B06898473368002843D1FB
:1015300052461C199A184B46A3701378002B00D002
:10154000637043465446C84613705B46002BCBD0AD
:1015500059463000FFF786FF81460028C4D00200BC
:101560004146B06873689847326800282FD04B46D0
:101570005B004B44033B1119D31842469A700A781A
:10158000002A00D05A704B460B70ADE71C19DF19CA
:101590004346BB702378002B00D07B7025704546F6
:1015A00071E749461C19DA19A1701178002900D099
:1015B000617015704D468CE741461A195344997075
:1015C0001178002900D059704B461370BDE74B4687
:1015D0005B004B44033BD11814194A46A2700A78A9
:1015E000002A00D0627042461C000A70C8467BE7A1
:1015F00010B583600023CCB243730133047342609F
:101600008373C4730068012C07D90123421C013382
:10161000DBB2137003329C42F9D8FF2319404B0010
:101620005918002340180338437010BDF0B54E46DA
:1016300057464546DE46E0B5477B03687C00E41923
:10164000033C1A19167883B005008946002E1ED176
:10165000002911D0C07B002869D041000918591811
:1016600003394F70EF73002E06D0710089190339CA
:1016700088460021434499700023380053706E73EC
:1016800003B03CBC90469946A246AB46F0BD710003
:10169000891903398846591848788246002807D1A5
:1016A00049460029E5D0E87B0028D6D1EF73DCE776
:1016B00042005244033A9446019263445A78934656
:1016C00000225A704A706B6852463100A8689847E9
:1016D0002B68002832D0414601985A1819188E708C
:1016E0001078002825D1514611705A46002A23D07F
:1016F00059462800FFF7B6FE824600281BD002009C
:101700006B683100A86898472B68002825D04246AE
:101710009918524652005244033A9A189670087823
:10172000002800D0507052460A701A19B8E7EF73BB
:10173000A2E74870D7E72B681A19B1E7414650462F
:10174000019A59189A1888701078002800D04870AB
:101750001670019A56469046C7E7524651005144CA
:1017600003395A18404693465246181882705A4612
:101770001278002A00D042705A46884616701A190C
:1017800056468DE7F0B54546DE4657464E46E0B52F
:101790000C0083B00500002200293DD0477B016882
:1017A000BC426BD066003619033E88198378002B43
:1017B00032D05A00D318033BCB181A78944202D186
:1017C00043E0002A08D053009B18033BCB185A78FB
:1017D0009442F6D142785A700023837043700378A4
:1017E0009846002B25D1EA7B002A1DD053009B1878
:1017F000CB18033B5C704346EC73002B00D171E0C7
:101800005C0000234444033C09198B704370002F93
:101810001ED1434601226B73100003B03CBC9046BE
:101820009946A246AB46F0BDB846EC730023437020
:10183000EFE719002800FFF715FE2968EA7B8046CC
:101840006F7B8819002AD6D0D0E742781A70C3E798
:1018500042463900A8686B6898472A68002824D057
:101860007B00DB191419033BD318A7701A78002AE0
:1018700000D062704246B8461A70CAE77E00F61978
:10188000033E8B191878804600281BD1E87B00287E
:1018900004D0420012188A18033A5470EC730022E4
:1018A0005A70434601326B73B6E77B00DB19033B8A
:1018B0001419D31842469A702278002A00D05A7020
:1018C0002770A6E744004444E01E019008184478BD
:1018D000A246002C08D1EC7B002C76D1EF730022BD
:1018E0008270DCE7B846A1E763005344033B9946A6
:1018F00049444B784A7042709B4622006B684146CF
:10190000A86898472B6800284BD049464046019C60
:1019100059181A1988701078002850D15146A146DC
:1019200011705A46002A20D059462800FFF79AFD28
:10193000041E19D002004146A8686B689847002829
:101940001ED04A4641462B68981862001219033A85
:101950009A1891700178002900D051700470E97BC9
:10196000002905D19B19B9E72B684A469818F6E774
:101970004A0052189A18033A57709B19EF73AEE752
:101980004B462968600000190338CB1808189C7072
:101990000278002A00D05A704346A04603708B1983
:1019A00099E74A469818019A9C185246A270027804
:1019B000002A00D062704246D0460270B1E74870FB
:1019C00051461170019A9146ABE7032262438A188F
:1019D000033A577082E7C046314A324B70B51A60FD
:1019E000314A324B32491A6010008B689843FBD160
:1019F000304E314B9E420AD2F5430024ED18AD081B
:101A00000135A300F35801349847AC42F9D100F0F6
:101A10009FF82A4A254B1A60254A9368DB018033D8
:101A2000FBD14022264B274C9A675A671A67DA6621
:101A3000254B9C420ED2E6430025F618F6080136E7
:101A400063792000002B23D00135FFF7EDFC08342B
:101A5000AE42F5D11D4D1E4CC022A168280000F0F9
:101A60003DFFA560FEF72AFF00F058FBFFF774F971
:101A7000184E194B9E420AD2F5430024ED18AD08CA
:101A80000135A300F35801349847A542F9D170BD40
:101A90000135FFF7B9FC0834B542D1D1DAE7C046C9
:101AA000BFCDFBFE00E00040FE7F3C0000F00040A8
:101AB00000C00040082D0020182D0020FFFFFF016E
:101AC00000F00140002D0020082D00200000002023
:101AD00000ED00E0182D0020202D0020094A136899
:101AE000002B06D008491818884208D81060180042
:101AF0007047064B0449181813608842F6D9012034
:101B00004042F5E79C33002000000420143C0020F4
:101B100000BEFDE70FB400B5084883B000F042FFF7
:101B2000049B002B07D005A91800019100F098FB39
:101B3000034800F037FF00BEFDE7C046D873001031
:101B4000E873001010B50148FFF7E4FFCC730010F4
:101B500030B50C2083B000F049FBFEF7A7FE00284B
:101B60000ED0964B964A1A605A609A60DA601A61F3
:101B70005A619A61DA611A62924A5A6203B030BDC0
:101B8000914CA06700F03AFB0122904B1A60636C05
:101B9000012BFCD103228E4B1A608B4A936B012BD5
:101BA000FCD1022405338B4A01218B48009400F0BC
:101BB000D1FA0523894A00940121894800F0CAFA24
:101BC000884B5A68FF2A02D8802252005A6080222D
:101BD0007A4C7F4B21691201824D1A60002900D096
:101BE000E5E0E0217F4B02201A681140802252017B
:101BF0002A43116019684840032101401160042103
:101C00009A681142FCD08022802192012A43090166
:101C10001160802252005A60734B2361734B5968E4
:101C2000FF2900D8C1E00322684B70481A600121E7
:101C300003009A681142FCD0E0251A681540802202
:101C40005201024315601B684B400321194011608B
:101C50000221664A93681942FCD0802380219B01AF
:101C60000343090119608021614B490051606361A0
:101C7000604B5A68FF2A00D8596080225E4BE169A8
:101C800012015C4D1A60002905D0606900F03AFB32
:101C900001300138FDD1E02256490B681A408023FB
:101CA0005B012B431A60802380229B012B4312018E
:101CB0001A608022424B52004A60E3614F4B5968E0
:101CC000FF2900D85A6080224D4B216A12014B4DEA
:101CD0001A60002905D0606900F014FB013001385A
:101CE000FDD1E02245490B681A4080235B012B435C
:101CF0001A60802380229B012B4312011A608023EB
:101D00005B004B602E4B3F4A23623F4B5968914228
:101D100001D801325A6080223C4B616A12013A4D6F
:101D20001A60002905D0606900F0ECFA0130013832
:101D3000FDD1E02234490B681A4080235B012B431C
:101D40001A60802380229B012B4312011A6080239A
:101D5000DB024B601B4B63622D4B5A68FF2A02D893
:101D6000802252005A6080222A4BA1691201284D1C
:101D70001A60002905D0606900F0C4FA013001380A
:101D8000FDD1E02222490B681A4080235B012B43DE
:101D90001A60802380229B012B4312011A6080234A
:101DA0005B004B60124BA361E8E65A603BE7606959
:101DB00000F0A8FA01300138FDD112E728330020E5
:101DC000006CDC021BB70000008000403CB000400B
:101DD00030B00040002F68590080024000389C1C41
:101DE00000C0024030800040001BB7003C80004033
:101DF000405973075480004054B000406080004058
:101E000060B00040FFFF03006C8000406CB00040F9
:101E10004880004048B00040014B8000C0587047E7
:101E20002833002001238340002902D1034A136094
:101E30007047034A1360034A1360F9E780E100E04A
:101E400080E200E000E100E0024B10309B6880007F
:101E5000C058704700ED00E070B50D00EFF310863C
:101E600072B60F4A1368002BFCD0BFF35F8F0D4B87
:101E700010309B6884001B590B4A934203D09D424B
:101E800001D0FFF75FFE074B9B681D51BFF35F8FCB
:101E9000BFF35F8F0022024B1A6086F3108870BD7B
:101EA000240100D000ED00E0CD010010F0B5454662
:101EB000DE4657464E46E0B50D0083B0EFF3108B7B
:101EC00072B65C4A1368002BFCD0BFF35F8F102200
:101ED000904680444246584B97009B68DE59574BCA
:101EE00099469E4206D0AE4200D17DE0544C331B51
:101EF0002F2B12D9504B9B68DE51BFF35F8FBFF37E
:101F00005F8F00224B4B1A608BF3108803B03CBCF0
:101F100090469946A246AB46F0BD012383409A46BF
:101F20005246484B1B681A4000925246464B1A6074
:101F3000BFF35F8FFEF797F90190002849D1012385
:101F400032009A4313001B1B5B4146495943090D5C
:101F500093689D424DD006201056002805DA31E0E6
:101F6000062018561A0000282CDB43001B189B0083
:101F7000E31898688542F3D10620185600283BDB09
:101F800042001118890065188846A9689960E979A6
:101F9000D971062169569971A9797F2926D8AD880A
:101FA000E11A6D052D1545444919E0250905490D2E
:101FB0002D02294399801218244B9200A4181A78F4
:101FC0001870A271009B002B08D152461E4B1A605C
:101FD00090E78045B3D0FFF7B5FDB0E752461C4B04
:101FE0001A60184B1A6085E71E0083E7BD210902BD
:101FF000E0E713000022BFE7019800280AD1002A79
:1020000015D0FF30907113489080104A10781170ED
:102010009871D7E7104A1149D21A083A5002400D78
:10202000014399800E4952080A43DA80CAE74E46B6
:10203000EBE7C046240100D000ED00E0CD01001028
:102040001024002000E100E080E100E0EB370020F8
:1020500080E200E000BDFFFF4A24002000F0FFFF07
:1020600000F8FFFFAAAA0000F8B501250400054307
:10207000FEF7F9F8EFF3108672B6214A1368002BC9
:10208000FCD0BFF35F8F1F4A2100891A4941224BC0
:102090004B431B0D1C4980008F685BB23F58BD420B
:1020A00026D006215156994226D0122151569942E6
:1020B00024D01E215156994210D02A215156032076
:1020C00099420CD0114A11781370A171BFF35F8F40
:1020D00000220B4B1A6086F31088F8BD02204100E5
:1020E000091889005218FF21917109499180E9E787
:1020F0008A6808491150E5E70020F0E70120EEE783
:10210000240100D01024002000ED00E0EB37002077
:1021100000BDFFFFCD010010AAAA0000F0B500220B
:102120000324FF27802620003D00094B11009C4618
:102130001040C0008540A14361440B680132AB43AD
:10214000350085402B430B60202AECD1F0BDC04602
:1021500000E400E0F8B504000C2017001D000E009C
:1021600000F0D0F81C494143380000F0CBF8069A43
:102170002B04120313432268002A1CDB174A802118
:10218000944226D04901164A164D1160164A116034
:102190000F00AA689743FBD1C021221D890111437A
:1021A00021222660A0600A602268002AFCDAE3602F
:1021B00008230B60F8BD3F2221680A409642DDD11A
:1021C000A2681205120D9042D8D1E268002BD5D139
:1021D000F0E78901D7E7C04640420F0000C0024047
:1021E00000E0004000C0004000F0004080239B0061
:1021F0001843014BD862704700800540AA23064A65
:102200001B0113602F230549D360054B19605368E8
:10221000002BFCDA7047C0460040024000B0FA00D4
:102220000060024010B5002800D110BD0B4B1C68A7
:10223000A2689368013B9360002B04DB1368591C70
:1022400011601870F1E791698B4201DB0A28F5D122
:102250000100200004F0B2F9E7E7C046C0240020E6
:1022600010B5094A84B01468002C09D001220091ED
:102270000300524203A90548A047012004B010BD45
:1022800000F090FB0020F9E7A03700202522001085
:1022900001480421014B184760240020C12200108E
:1022A000142310B50100188804331B88984710BD0B
:1022B000162310B50100188802331B88984710BDFB
:1022C000F8B54746CE4680B50F1E19D0142399465F
:1022D000043304000025012698464B4618884346DF
:1022E00021681B88984701C4431E9841013540422C
:1022F0000640AF42F1D130000CBC90469946F8BD83
:102300000126F8E7114A936F9B0813D210665166B5
:10231000002905D0FFE7FFE7FFE7516F106F704717
:1023200004B5002801D00020C04304F035FF00218F
:1023300004BDC046F0B5146E556E576F166FFFF7AB
:10234000E5FF1466556657671667F0BD000000D0BC
:1023500094464E4A926F9208624601D230E0C046DF
:10236000F0B54A4EB56F6D08FCD3346E756E776F5D
:10237000366F00F025F89446444A14665566576750
:1023800016676246F0BDC0469446404A926F920876
:10239000624601D258E0C046F0B53C4EB56F6D08BC
:1023A000FCD3346E756E776F366F00F04DF894463F
:1023B000364A14665566576716676246F0BDC046D2
:1023C000002B24DB11D000293EDA00B5C94340427E
:1023D00000D1013100F038F8C943404200D1013149
:1023E000DB43524200D1013300BD002AEBD100286B
:1023F00001D1002905D00020C90FC90701D1C04370
:10240000410800B504F0C0FE0022002300BD00B565
:1024100000290ADBDB43524200D1013300F014F8FB
:10242000C943404200D1013100BDC943404200D1FF
:102430000131DB43524200D1013300F005F8DB43A8
:10244000524200D1013300BD002923D1002B18D105
:10245000002A0CD0BC460D4F38667A660021002356
:10246000FFE7FFE7FFE77A6F386F6746704700289E
:1024700001D00748010000B504F086FE00220023C9
:1024800000BD02000B00002000217047000000D0BA
:10249000FFFFFFFF002B00D0BDE0130C26D1002A68
:1024A000E7D080B4104F39667A66FFE7FFE730B4B3
:1024B000040C7B6F396F1B0423433B66FFE7FFE788
:1024C000FFE7C04684B27B6F3D6F1B0423433B662E
:1024D000FFE7FFE7C04600232C042D0C7A6F386F0E
:1024E00000196941B0BC7047000000D0F0B59446B7
:1024F0000025140E01D112020835140F01D112016A
:102500000435940F01D192000235D40F01D152004D
:102510000135D40B0134254F7C66254C3C660E0CEE
:1025200093B2FFE7FFE7FFE73C6F6643360C7703A4
:10253000BE467343DF0B5B04C01AB941130C7343EF
:10254000DB18C91ACE086643360CB64493B27343FF
:102550001F0F1B01C01AB941130C73431F0B1B053E
:10256000C01AB941860D8F023E436643360C092DD1
:1025700024DB520A7243801A7703460A6643360CFC
:1025800016235B1BDE40DF40BF1964466643821B97
:102590007046043506330100D940A840C01900D365
:1025A0000131A24206D20023F0BD0000000000D09D
:1025B000FFFFFFFF121B0130F3D3F1E709277F1B59
:1025C000FE406446A2B27243801A00D20139220C46
:1025D0007243130C1204821A99410B0070460435A1
:1025E00013370100F940A840801900D30131002BB6
:1025F00002D1A2420AD2F0BD013000D30131121B38
:10260000FAD2013BF8D1A24200D2F0BD013000D392
:102610000131121BF7E7F0B51C0C00D080E00CB4C0
:1026200000251C0A04D11B02160E33431202083582
:102630001C0B04D11B01160F3343120104359C0BF4
:1026400004D19B00960F334392000235DC0B02D17C
:1026500092185B4101351C00971864410134464FC4
:102660007C66464C3C660E0CFFE7FFE7FFE7C04682
:102670003C6F6643360C7703BE4697B27743C01B68
:1026800000D20139C01B00D201399FB27743C91B68
:10269000C91B170C77437E04FF0B801BB941CE0882
:1026A0006643360C0C2D33DBB644120B1F053A4340
:1026B0001B0B97B27743C01B00D201399FB27743FF
:1026C000C91B170C77433E043F0C801BB941860D94
:1026D0008F023E43664329277F1BFE400C3D774611
:1026E000AF40BF1930BCA2B2ABB272437343801A81
:1026F0009941220C7243130C1204801A9941020072
:102700000B000137001BA941F9D2781E0021F0BD52
:102710000C277F1BFE4077467F0BAF40FF19E0E799
:1027200000245D1C07D0144F7D663966FFE7FFE784
:10273000FFE7FFE73C6F95B29EB265436643401BDF
:10274000B141150C1E0C6543664336042F0C3E4305
:102750002D04401BB141994204D202000B0020001D
:102760000021F0BD01D19042F7D3801A9941013484
:102770009942F2D3F6E70000000000D0FFFFFFFF10
:10278000132370B51C78012C10D00BDD0C48FFF71B
:102790008FFD0C4D01008022280000F09FF8022CD4
:1027A00001D070BD074D084AAA64FAE7054D064AF4
:1027B00029002B00803104C38B42FCD1AA64F0E7CE
:1027C00053440000F4370020CD27001007B56046C1
:1027D00001880A0A0230DF2AFAD1C9B2820804D37A
:1027E000028840880004104300E00068014A50500D
:1027F000039007BDF437002051434343C9188C466A
:10280000110C83B24B4310B4040C614392B280B2FA
:10281000504362431C041B0C001910BC59411304A3
:10282000120CC0185141614470470000132310B5C9
:102830001C781348FFF73CFD012C0BD004DD010090
:102840008022104800F04AF80F48FFF729FD0F4B8F
:10285000186010BD0B4C01005422200000F03EF81F
:102860000B4B6365A365E36523666366A366E36656
:1028700023676367A367E3672362E361E4E7C04616
:1028800053460000F43800204C330000F439002097
:102890009528001007B5604601880A0A0230DF2A31
:1028A000FAD1C9B2820804D30288408800041043D8
:1028B00000E00068014A5050039007BDF438002042
:1028C00001480421014B184770240020C122001048
:1028D000014B1B681847000070240020014B5B6807
:1028E0001847000070240020F8B54746CE4680B552
:1028F000437C80460E001700002B48D0002A2EDDB6
:10290000274B012500240020994604E02B000134C8
:1029100001359F4219DD002C3ED0631EF35C0D3B58
:1029200059425941CBB2325D0A2AEFD1002BEDD189
:10293000844226DC434648461B68022198470134FE
:1029400028002B0001359F42E5DCB8420BDBF6196D
:10295000013E33780D3B59425941434619740CBC32
:1029600090469946F8BD4346391A3018F6191B6847
:10297000013E984733780D3B5942594143461974FB
:10298000EDE74346211A1B6830189847D2E70368E1
:10299000110030009847E2E743461B7CC3E7C0467E
:1029A0005C740010F0B5DE464E4657464546E0B52D
:1029B00083B0070003F0D0FDD02301AE1B06804694
:1029C000310035481C6804F0EFFB8146002808D12F
:1029D000019B64B29C4204D02F4804F0F5FB012314
:1029E00099464346C346013351D02C4B1C689A4646
:1029F000002C40D02A4D02E0E468002C20D023684F
:102A0000002BF9D02B68002B01D0A342F4D15A46F9
:102A100039002000FFF768FF0A233370637C002B26
:102A200030D0237C002B21D102211E4823689847F7
:102A300033780D3B594259412174E468002CDED1B2
:102A40004B46002B1AD153461C68002C06D06368F5
:102A5000002B00D09847E468002CF8D1404603B022
:102A60003CBC90469946A246AB46F0BD01213000E1
:102A700023689847DCE74B46002BEFD0064804F06C
:102A80007BFBE0E70121300023689847B4E738007A
:102A900003F062FD8346A8E7002D0020903300205C
:102AA000943300205C740010F0B54646DE4657466D
:102AB000C0B5904682B00E00002830D1194B1A4D97
:102AC0001A685B68194F9A46194B01929B465B4600
:102AD0001C68002C05D115E0A34205D0E468002C49
:102AE00010D02B68002BF7D1A368002BF6D04146FD
:102AF000300098470028F1DD02B01CBC90469A4691
:102B0000A346F0BD01200021FEF778FB7B6A9A45C1
:102B1000DDD8BA6A01998A4201D29A45D7D00120FC
:102B20004042E9E7A07300109433002000400540C4
:102B300090330020F0B54646D6464F46C0B588468D
:102B400082B01600012840D1D0231B061C68204B00
:102B500001A918009A4604F027FB071E07D1019B24
:102B600064B29C4203D0504604F02EFB0137B146BC
:102B7000731C25D0174B1C68002C14D0164D02E096
:102B8000E468002C0FD02368002BF9D02B68002BB1
:102B900001D0A342F4D120004A464146FFF7A4FEEB
:102BA000E468002CEFD1002F06D1300002B01CBC2D
:102BB00090469946A246F0BD504604F0DDFAF4E78F
:102BC000404603F0C9FC8146D4E701267642ECE793
:102BD000002D002090330020943300200D4B1A6804
:102BE000002A12D0824203D109E0984207D01A008D
:102BF000D368002BF9D1002900D0D060704700299C
:102C0000FCD1C368D360C160F8E70029F6D0186032
:102C1000F4E7C04690330020F0B5002915DD0E4BD7
:102C20000D271A680D4B4118D3185C4263410C4CB8
:102C30005B001E5F20240578B54207D093691C42D3
:102C4000FCD1013015608842F5D1F0BD93691C427A
:102C5000FCD11760F2E7C046E43700200080FCBFDB
:102C6000F037002030B5002914DD0C4B1A68936949
:102C7000DB060FD4050010240020013093691C42AC
:102C8000FCD113682B70814203D0936901351C423B
:102C9000F3D030BD03204042FBE7C046E4370020BC
:102CA00070B51C000A4B15001860FDF731FE002DB1
:102CB00003DB02212800FDF713FD002C03DB0221BA
:102CC0002000FDF70DFD01210248FFF787FF70BDD1
:102CD000E43700208024002010B5114C114B2268ED
:102CE0009A4210D1104B62689A420CD10F4BA268E5
:102CF0009A4208D100230E482360FFF7D1FA002141
:102D0000030000209847074B0A482360064B002128
:102D10006360064BA360FEF771FA0023236010BDC9
:102D2000202D0020DE8116F0299B72BD7ABE59D37A
:102D300055420000400D030010B51920FDF730FD8D
:102D40008022D023E12192041B065A620448054BDD
:102D50000022186049020123FFF7A2FF10BDC04600
:102D600000400340E03700208022D02392041B065D
:102D7000002801D19A6170475A61FCE710B504F050
:102D80002BFA01235840C0B210BDC046F0B54546ED
:102D9000DE4657464E4698238024E0B5634A6402D7
:102DA000D35885B0984623422CD001222321604B72
:102DB00000205A54DA705F4901F004FA80225E4B19
:102DC00092021A655D4B03934346DB0620D48023B1
:102DD00042465B011A4247D180234246DB011A4238
:102DE00000D094E0802342461B021A4200D083E0C8
:102DF000444500D095E005B03CBC90469946A246BB
:102E0000AB46F0BD1023039343460024DB06DED51A
:102E1000464B9F6D002F21D0474B00269B46012338
:102E20009946434B01259A4603E06D000136202E5A
:102E300014D02F42F9D05B469D654B467408640060
:102E4000B343E41864015444200000F0DBFA002886
:102E500046D1AF4301366D00002FE8D180234246B2
:102E60005B01039C1A42B7D000268022304D2F4FC1
:102E7000D20000213E6028001C43FFF729FD80207E
:102E80002F4B304A40211A60012384462E4A6B7032
:102E9000EB70A983AA6016602C4A5E38EA609146FE
:102EA00062462A5401382E5402302B543D33EE54DE
:102EB000274BA987AB626E601E604B460122EB6216
:102EC0006E620021002001F053F980221A4B120398
:102ED0001A65FB6CDB0300D47EE703F04BF87BE75D
:102EE0004B46A28AA17800200093002301F098F9B4
:102EF000200000F0A5F9ACE70122052100201C43C9
:102F000001F0A2F880220C4B12011A6570E7012231
:102F1000042100201C4301F097F81022064B1A658B
:102F200060E741460B486140FEF7F4FD0000115098
:102F3000A03300200000105000301150100001009C
:102F4000A83700208001105084001050000110505C
:102F5000800010509C74001010B501210520FEF770
:102F600061FF10BD0123232210B5044800218354C2
:102F7000C3700022203000F097F910BDA03300206C
:102F80008022024B5202DA647047C0460020115082
:102F9000F0B5C64600B5060000F02CF90C231E4D16
:102FA0001E49AB670520FEF757FF802280271C4C87
:102FB000D20000212000FFF78BFC1A4B1A4A402058
:102FC0001A6000230122BC4618496270E270A08397
:102FD000A1600B601649A087E160884661465E3FAC
:102FE0000238E1552354013F1248E3550237E255B8
:102FF0006360A062036063624346E36280239B05D3
:103000002A64EB6490230C4A3000EA50FFF7B8FFC3
:1030100004BC9046F0BDC046000011508D2D00103C
:10302000A0330020A83700208001105084001050E9
:10303000000110508000105010D001000B785B068A
:1030400002D14B78052B05D001222321034BDA70E6
:103050005A5470478A78024B1A60F5E7A033002073
:1030600000001150F0B54746CE46072380B5487999
:103070000A79034083B01B028F781343CA786946EC
:103080009207920FCA7194467F22CD7979B2884611
:103090003A40CE0F54002D48A119490141188F70B4
:1030A0004746FF43FF0F4F7057425741CF70674667
:1030B0008B838F77414600292DDB254FD100BC46FD
:1030C00097016144C719B96000270F60002A2DD00D
:1030D0002049D2008C466244A119490141184A6036
:1030E0001D493F330B40022D2CD01C4FA4193968C9
:1030F0006401CB183B601A4B0019C1605940802312
:103100001B060B43AD061D431560012003B00CBC2C
:1031100090469946F0BD134FD100BC4697016144DB
:10312000C719B96200270F60002A06D10023760173
:10313000801943600C4BC360E7E70949D2008C4615
:103140006244C9E75B009BB2CFE7C046A0330020D2
:103150008400105004001050C0FF0000A837002069
:103160000000105080001050000110507F2070B5FA
:10317000150008404000C909044C401840012018BF
:1031800029001A0000F090F8012070BDA033002043
:103190007F2010B5084049B2002804D1CB43084A2B
:1031A000DB0F013393668022C90F400040180549A8
:1031B000400108181201044900F04AF810BDC04649
:1031C00000201150A0330020FFF7FFFF7F2310B530
:1031D0000B4009D0C9095B00CB1804485B01C0183B
:1031E0000022034900F034F810BDC046A03300208F
:1031F000FFD7FFFF80220D4B520410B51A600C4B15
:103200000C491A6010008B689843FBD10A4C9C2231
:1032100000212000FFF75CFB8022002152010748BB
:10322000FFF756FB0923636710BDC04600E000406E
:1032300000F0004000C0004000001150000010509D
:103240000023037443744382838283617047C046C2
:1032500010B58368002901D01C682140002A11D0D4
:103260008024E400114322420CD01A6822420BD180
:103270000A4A0A401A60FFE7FFE7FFE7FFE7FFE7B8
:10328000FFE78368196010BD7F2281780448CB096D
:103290001140044A9B009A58FEF73CFCFFFBFFFFDD
:1032A000B074001094240020F8B5CE46474680B58F
:1032B000437C0400002B01D0002303740023A3826D
:1032C000013363746368A1611B689946A38B1E1C5C
:1032D000934200D9161CE37880251800471EB84198
:1032E000B6B2ED0040033543054301204340921B35
:1032F000E370637892B26282002B52D0002A1FD111
:10330000A023DB011D43394B1B6C4A468027384BF9
:10331000BF0513401F436368A2681F6013685B0505
:103320005AD4344B2B401360FFE7FFE7FFE7FFE77A
:10333000FFE7FFE7A3681D600CBC90469946F8BD07
:1033400080235B011D43294B1B6C9B0702D4A37890
:103350007F2BDAD9A38B191C934200D9111C80262C
:103360008BB2F600D21A1E439846E37892B2190047
:10337000481E814149030E4301214B40E3706378AD
:103380006282002B1AD0002A02D18023DB011E4367
:103390004A46A027184B36041340FF0535431F4308
:1033A000B9E73200E068FFF799FAA369628A9C46A0
:1033B000802366441B02A6611D439FE7E0684246E6
:1033C0004030A169FFF78AFAA369628A4344A36186
:1033D00080231B021E43D6E77F22A1780748CB0932
:1033E0001140074A9B009A58FEF794FB00001150C9
:1033F000FFFFFFAFFFFBFFFFFFFFFFDFB074001019
:1034000094240020F0B5C64600B5467C0400002E8A
:1034100000D1D4E083681A681D684378AD05AD0D0E
:10342000002B00D063E0838AEB189BB28382A18BD0
:103430008D4207D20023638263681B68300004BC9E
:103440009046F0BD62681268520010D58D420ED1D0
:10345000A26817686278BF01BF0D002A00D092E011
:10346000FB18A382AF4265D200236382E6E7638A3A
:10347000002BE3D062680F1C166899424AD8E278A4
:1034800080251100481E8141BFB2ED0049033D4334
:103490000D4301214A40DB1BE27062789BB26382DC
:1034A000002A39D0002B2FD08022520115434C4ADC
:1034B000126C920741D4A2787F2A3ED8494B334000
:1034C0008026B6051E436368A2681E6013685B050C
:1034D00000D57BE0444B2B401360FFE7FFE7FFE79D
:1034E000FFE7FFE7FFE7A36800261D60A6E72A00C5
:1034F000C1688069FFF7F2F9A38AA269EB189BB251
:103500005219A382A26192E7A023DB011D43344B31
:103510001B6CD3E71F1CB2E73A00A169E068FFF714
:10352000DDF9A3699C46802367441B021D43A76104
:10353000638AB7E7638A29009AE7A28B111C9A4233
:1035400000D9191C80278AB2FF009B1A17439046A6
:10355000E2789BB21100481E814149030F430121CB
:103560004A40E27062786382002A1AD0002B02D1AE
:103570008023DB011F431D4B3F043340A026F6058B
:103580003D431E439FE7E1683A004031A069FFF7E1
:10359000A5F9A38AA58BFB18A382A369DB19A361F4
:1035A00060E7E06842464030A169FFF797F9A369F8
:1035B0004344A36180231B021F43638AD6E77F2312
:1035C00081780B4A19400B48FEF7A4FA7F22A178B4
:1035D0000948CB091140064A9B009A58FEF79AFA0F
:1035E00000001150FFFFFFAFFFFBFFFFFFFFFFDFFA
:1035F00094240020D0740010B0740010024B58784E
:10360000431E9841C0B27047B8320020024B187870
:103610004007C00F7047C046B8320020014B1878F1
:103620007047C046E9370020F8B54746CE46344ECD
:1036300080B533788046002B04D001200CBC904626
:103640009946F8BD532200212E48FFF741F92E4C30
:103650002000FDF7D9FE2D4B1C602D4C20001C30A6
:10366000FDF7F0FE200002F085FB2A4B1C602A4B80
:10367000002B33D0294D0024280000E000BF284F44
:10368000284A38602B7891460DE03A6863009446EA
:103690001B19DB0063441B6898472B780134E4B2A4
:1036A0009A1CA24211DB9C42EFD3E31ADBB2022B3D
:1036B00022D85A00D318DB004B441B6898472B785C
:1036C0000134E4B29A1CA242EDDA4046FFF760FCF6
:1036D0004046FFF741FC01233370AEE70124114F50
:1036E0000E4D3B6898472B7822000233183701347F
:1036F0009342EADB042CF4D100231B68FFDEC046B2
:10370000E9370020B8320020703200200C3300204E
:103710009C2400201033002000000000E837002027
:10372000802E002090750010F0B5DE4657464E46BC
:103730004546E0B58BB002F0D5F8002800D1CBE1CA
:10374000D94E07AC3568EA69EFF3108172B6136899
:10375000002BFCD0BFF35F8F29622800210002F00C
:1037600083F9EA692B6ABFF35F8F0021116083F34D
:103770001088002800D1AFE16378082BE2D8CB4A4B
:103780009B00D3589F466368002BDBD0A068984706
:10379000D8E77F222179C64B0A405500C8095B193A
:1037A0001B18180001273030C578BD43C570C57897
:1037B0000337BD43C570002A00D1BBE1BD4ADB7CA5
:1037C000002A00D191E1BC4A1278934200D38AE1E9
:1037D0005A00D218B94BD2001B689B18002B00D19D
:1037E0007AE11D6962792078A368A847AAE7B04BFF
:1037F00001221D0000931B78012113432B703323FA
:103800000420EA5C27788A43EA54EA5C8243EA545B
:103810000133EA5C8A43EA54EA5C8243EA540020BA
:1038200000F0B8FE23795A06920F032A00D178E1FE
:1038300060221A40402A00D182E1DB06DB0E012B18
:1038400000D19FE1002B00D1CBE1022B00D068E139
:103850007F232089C1B20B400F2B00D961E140B218
:10386000C00F80465D00009B92485B194344DB7C9F
:10387000002800D1CDE190480078834200D3C6E112
:103880005800C3188D48DB00006881469944002A1F
:1038900000D1C4E14B46002B00D142E14B46D86831
:1038A00000F078FE4B4608AADB68002138009847F4
:1038B00050E17F4B1B78DB0700D443E7804B002BA4
:1038C00000D13FE7FCF76EFD3CE7794B1A78D20751
:1038D00000D437E77B4A002A00D133E71878000785
:1038E000C00FFCF757FD2DE7734F724B3A78002558
:1038F000002B00D1B8E0714B9846734B994612E00B
:10390000414609686B008C465B19DB0063445B69C8
:10391000002B02D0207898473A780135EDB2931CFD
:10392000AB4200DA0EE7AA42EAD8A91AC9B20229C4
:1039300000D9AFE04B005B18DB004B44E7E75C4D80
:1039400023785322002128009846FEF7C1FFE81C87
:103950001022FF21FEF7BCFF28002022FF21133098
:10396000FEF7B6FF00F00CFE534F524A3B7800259D
:10397000002A63D0514A9146534A92463A0047463C
:10398000904610E04A4612686B0094465B19DB00D3
:1039900063445B683800984743461B780135EDB2B5
:1039A0009A1CAA4279DBAB42ECD8EB1ADBB2022BB1
:1039B00057D85A00D318DB005344EAE73C4D23782C
:1039C00053220021280099460095FEF781FFE81C4C
:1039D0001022FF21FEF77CFF28002022FF21133058
:1039E000FEF776FF00F0CCFD334F324A3B780025DE
:1039F000002A00D1B2E0314AB8469246324A4F46D8
:103A0000934610E0524612686B0094465B19DB0047
:103A100063445B683800984743461B780135EDB234
:103A20009A1CAA4254DBAB42ECD8EB1ADBB2022B55
:103A300017D85A00D318DB005B44EAE7224B013564
:103A400099463B004F4699467B68404698474B460F
:103A50001B782A000233183701359A421DDC042DE9
:103A6000F2D100235B68FFDE174B013598463B001F
:103A7000474698467B69002B03D0207898474346F9
:103A80001A78931C290018370135994200DD59E650
:103A9000042DEFD100235B69FFDE0C4B002B00D11E
:103AA00050E6FCF771FC4DE6103300200475001061
:103AB000B832002000000000E8370020802E0020EF
:103AC000A5030010950300109075001089030010E5
:103AD0002379009A937035E60BB03CBC904699462A
:103AE000A246AB46F0BD9B1ADBB2022BF4D85A00BB
:103AF000D218C24BD2009B181D6962792078A36846
:103B0000A8471FE6FCF7A0FD021E0AD0C378817803
:103B10001B020B43380008A900F0DCFC002800D091
:103B200010E620780021FFF733FB20788021FFF793
:103B30002FFB07E662792078A36800F03FFD01E6DD
:103B4000AF480028EDD000F025FD08AA002138007C
:103B500000E000BF002800D0F4E5E2E7A74BB8463C
:103B60001F0001357B684846984743461B782A006A
:103B70000233183701359A42AADC042DF2D1002312
:103B80005B68FFDE237A0F2BCBD8009AD5189D4AAD
:103B9000EB78002A33D09C4A127893422DD29B4A6C
:103BA0005D00EB181568DB00ED18002DB9D0E86852
:103BB00000F0F0FCEB6808AA0021380098470028C4
:103BC00000D0BFE5602322791340AAD162790A2A86
:103BD00000D1B5E10B2AA4D108A9380000F062FC9D
:103BE000B0E5202A00D1D4E0002A9AD16379092BCC
:103BF00097D8874A9B00D3589F469B1ADBB2022B6B
:103C00008FD85D00EB187D4DDB00ED18CFE71B1A58
:103C1000DBB2022B3BD9002A83D10023994663797A
:103C20009A46012B05D0002B00D1D2E0032B00D007
:103C300077E7E388002B12D153463800012B00D1DF
:103C4000E1E1FFF7A5FA0221009B5B194344303301
:103C5000DA780A430121DA70DA780A43DA704B46DF
:103C6000002B00D16EE54B46D86800F093FC4B4624
:103C700008AADB68002138009847002000F08AFC81
:103C80003423009AD35CDB0700D55BE5A4E758003A
:103C9000C3185A48DB0081469944002A00D0FDE54C
:103CA000BDE7A37903931A00009B5B78002B02D138
:103CB000002A00D0B2E06A46009B127B08A93800B7
:103CC0005A7000F0EFFB3DE5009B06AA5B780232DC
:103CD000137008A90123380000F0FCFB32E5E388EB
:103CE000D8B21B0A0F2B00D91BE74A4A9B00D358B6
:103CF0009F4608A800F054FCA1793800FFF732F97C
:103D0000022200990B7813430B701BE5E388012B0B
:103D100000D006E7082200990B7813430B705BE78D
:103D2000E388012B00D0FCE6082200990B7893432E
:103D30000B7051E7009B06AA1B78023299061B07FD
:103D4000DB0FC90F5B000B43138008A90223380067
:103D500000F0C0FBF6E4304B002B00D1E1E600E0C0
:103D600000BF021E00D1DCE6137808A9380000F07D
:103D7000B1FBEFE62189FCF775FC021EF4D1D0E619
:103D8000FCF750FC1223020008A9380000F0A2FB47
:103D9000C4E6237A0F2B00D9C3E6009AD518194A36
:103DA000EB78002A21D0184A127893421BD2174A86
:103DB0005D00EB181568DB00ED18002D00D1B0E6B2
:103DC000E86800F0E7FBEB6808AA00213800984794
:103DD000C0E6009B06AA5B1943443033DB7802320D
:103DE0009B07DB0FB0E79B1ADBB2022B00D998E6EA
:103DF0005D00EB18014DDB00ED18E1E79075001058
:103E00000000000000000000E8370020802E0020A5
:103E1000287500105075001000000000501EC0B240
:103E2000FCF712FC002800D17BE64378022B00D07F
:103E300077E60122C57910216B0913401B019846D2
:103E4000009BAD091B782A408B4341460B43202140
:103E500052018B431343009A137009239A46C37887
:103E600082781B021343C318824404939A4500D3FB
:103E7000ACE05346BA461F0000237A7802930B2A1F
:103E800000D1AAE0042A00D04BE6009A049B944695
:103E9000DB1B9BB20193BB786344DB78FF2B00D024
:103EA0003FE6634B634A1B78002A2BD000229146E1
:103EB0003A0000255746924617E05F4A6B001268A9
:103EC0005B199446DB00059263449B68019A514656
:103ED0003800984700283DD1554B01351B78EDB28D
:103EE0009A1CA946AA4200DA1BE6AB42E5D8EB1AB7
:103EF000DBB2022B21D85A00D318504ADB0094467B
:103F00006344E2E74D4BB9469B4600235F461D00E4
:103F10000FE0019A49465046BB689847002800D0F8
:103F200080E0434B01351B7818370233AB4200DA8F
:103F3000F7E5EBB29846032DEBD100239B68FFDE3B
:103F400006AA0232137008A90133380000F0C2FA41
:103F5000FFF7F8FB53468046BA461F004346082B3E
:103F600000D8DEE5019B434500D2DAE5BB78009A34
:103F7000D218D570029A002A15D091781000994273
:103F800000D0CEE512797B799A4200D0C9E5C2789B
:103F9000012A08D9023A009B0431D2B258180132E2
:103FA0002900FEF795FC00982B003900133042469B
:103FB00001F0D6FC1E4B47441B7802334B4500DA18
:103FC000AFE5049BBB4200D956E757461C4B002B7C
:103FD00000D170E6FCF7D0F96DE63B780297FB184C
:103FE0005A781F004EE7174B002B00D199E500E0EF
:103FF00000BFC37881781B0202000B43380008A978
:1040000000F068FAA6E5FFF7E1F80221009B5B19D2
:1040100043443033DA788A435146DA70DA788A4397
:10402000DA701CE64F46A9464546804696E7C046EC
:10403000E837002000000000802E0020907500105E
:10404000790300100000000070B586B005000C0078
:104050000C2200216846FEF73BFC6B461D705C702D
:10406000032C53D01CD9042C08D0052C35D13E4B41
:104070001A78D20700D568E006B070BD3A4B1A78BE
:10408000D207F9D504211A780A431A70374B1C68F5
:10409000E269EFF3108172B61368002B26D1FBE7BB
:1040A000022C1AD1304B1A78D207E5D501211A78A3
:1040B0008A431A701A780331A2431A7000225A7088
:1040C0001A788A431A70294B1C68E269EFF3108151
:1040D00072B61368002B09D1FBE7244B1C68E26918
:1040E000EFF3108172B61368002BFCD0BFF35F8F23
:1040F00021626946200001F083FDE269236ABFF373
:104100005F8F0021116083F31088B5E7164B1A7892
:104110005207B1D504211A7803AE8A431A700021E0
:104120000C223000FEF7D4FB052373700F4B357063
:104130001C68E269EFF3108172B61368002BFCD0A3
:10414000BFF35F8F21623100D4E704211A788A43DC
:104150001A70064B1C68E269EFF3108172B613689F
:10416000002BC3D1FBE7C046B8320020103300203B
:1041700070B584B001AC06000D000C2200212000B7
:10418000FEF7A6FB012363700D4B25711D68267099
:10419000EA69EFF3108372B611680029FCD0BFF30F
:1041A0005F8F2B622100280001F02AFDEA692B6A4B
:1041B000BFF35F8F0021116083F3108804B070BDDE
:1041C0001033002070B584B001AD06000C000C2245
:1041D00000212800FEF77CFB06232100082202A80C
:1041E0006B702E70FEF77AFB0C4B1C68E269EFF3E4
:1041F000108372B611680029FCD0BFF35F8F236271
:104200002900200001F0FCFCE269236ABFF35F8F04
:104210000021116083F3108804B070BD10330020BA
:10422000F0B5C646804600B584B001AC0F0016005C
:1042300000210C2220001D00FEF74AFB434623709C
:10424000072363700F4B65711D682771A660EA69CB
:10425000EFF3108372B611680029FCD0BFF35F8FB3
:104260002B622100280001F0CBFCEA692B6ABFF326
:104270005F8F0021116083F3108804B004BC904666
:10428000F0BDC04610330020F8B55746DE464E4616
:104290004546E0B517000A9A83460C009246002F67
:1042A00045D04A78052A15D1CE78B607B60FB34265
:1042B00010D17F238A7813400F2B0BD81D4B00257C
:1042C00099467F2398464B462000997801F00EFBD3
:1042D000002806D100203CBC90469946A246AB4639
:1042E000F8BD21005846FEF7BDFE0028F2D0A378A5
:1042F0005AB2002A14DB5246137023780135E418B1
:10430000BD4214DA6378052BE4D1E3789B079B0F59
:10431000B342DFD14246A37813400F2BD3D9D9E75C
:104320000B9A013513702378E418BD42EADB0120B3
:10433000D1E7C046B83200207F2370B58A780500E7
:104340000C0013400F2B01D9002070BD054B20003D
:10435000997801F0CBFA0028F6D021002800FEF76A
:1043600081FEF2E7B83200207F2370B50B40134C7A
:104370005B00C909E41864183034E078C007C00F46
:104380001AD1E3785B0700D570BD01210C4E49427C
:10439000306802F011FFE3780025DB0707D4E378EB
:1043A0005B0704D404220125E3781343E3703068EB
:1043B00002F0E2FE2800E7E70020E5E7B83200203F
:1043C0000C33002070B50D0001210F4C49422068CC
:1043D00002F0F2FE7F2129404B000C49ED09C9187B
:1043E00049193031CB780025DB0707D4CB785B0740
:1043F00004D50422CB7801359343CB70206802F0BA
:10440000BBFE280070BDC0460C330020B83200202F
:1044100070B57F240C4065000E4C06006419C80975
:1044200024183034E5780020ED0700D570BD012553
:10443000E0782843E0703000FEF798FE0028F5D1C0
:104440000122E3789343E370E37803329343E3700C
:10445000ECE7C046B832002010B50C00FEF798FE1D
:104460007F21022221404B000649E409C91809199D
:104470003031CB7813430122CB70CB781343CB7010
:1044800010BDC046B83200207F23CA090B40044942
:104490005B00C91889183031C8788007C00F704791
:1044A000B832002070B50A4C0600082220000D002A
:1044B000FEF714FA00230021A360E381A38169566B
:1044C0003000C943C90FC9010022FFF7A1FF70BD29
:1044D000DC2F0020F0B5C6469046274C082200B5D8
:1044E000060020000D001F00FEF7F8F94346A36008
:1044F0000023E381EB79AA791B0213431A1CBB4208
:1045000000D93A1C97B2A281002B12D0002F1FD0E5
:104510004346002B2ED03B1C402F17D89FB2237848
:104520007F2B1ED80021154A3B003000FFF770FF9B
:1045300009E0002169560023C943C90FC9010022BF
:104540003000FFF765FF04BC9046F0BD4023E5E76F
:1045500023787F2B02D800210022E5E7802100226A
:10456000E2E7064C3A0041462000FEF7B7F9802109
:104570002200D9E70020E6E7DC2F00207832002077
:1045800010B5142200210248FEF7A2F910BDC04662
:10459000DC2F0020014B18617047C046DC2F002043
:1045A00010B5054C010008222000FEF797F9002302
:1045B000A360E381A38110BDDC2F002070B53A4CCD
:1045C0001D0023780600DA09C9098A4212D00020AA
:1045D000002D0ED1354B002B03D021003000FEF70B
:1045E0002DFD2369002B2ED0220002213000984798
:1045F000012070BD7F2B06D8A068002825D02A0096
:104600002B49FEF76BF9A268E38951195B19E2881F
:104610009BB2E381A1609A4201D03F2D17D8236954
:10462000002B05D02200012130009847002824D01B
:10463000002161560023C943C90FC901002230007F
:10464000FFF7E6FED5E70120D3E70020D1E7A289F6
:10465000D31A1D1C9BB2402B00D940252378ADB244
:104660007F2B14D80021002D05D100222B00300013
:10467000FFF7CEFEBDE70E4AF8E700213000FEF757
:1046800087FD30008021FEF783FD0120B1E7002D7A
:1046900001D18021E9E7064C2A002000FEF71EF92F
:1046A00080212200E2E7C046DC2F00203D300010D0
:1046B0007832002010B50400FEF7A0FF002801D1D9
:1046C000002010BDFEF7A2FF0028F9D15930FF30BD
:1046D000444303480019037901201840F1E7C0461C
:1046E000842E00200300AC204000584310B5034B3B
:1046F0001030181801F08EF910BDC046842E00202D
:10470000F0B5AC256D0045432C00C646174E10345D
:10471000341900B592B2200001F0F4F9070020002E
:1047200001F092F93F2803D8380004BC9046F0BD50
:104730007319D97800209846FFF716FE0028F3D0A9
:10474000200001F081F93F2805D843460020D978A0
:10475000FFF738FEE8E72A004346D832D978B21886
:1047600040230020FFF754FEDEE7C046842E0020E1
:10477000F0B5AC256D0045432C00C6461E4E2C34CA
:10478000341900B592B2200001F07EFA0700200033
:1047900001F040F93F2803D8380004BC9046F0BD32
:1047A000FEF72CFF0028F7D0FEF730FF0028F3D1EA
:1047B000200001F02FF90028EED07319997800201D
:1047C0009846FFF7D1FD0028E6D01935FF35761958
:1047D00031004022200001F095F9434699780028E5
:1047E00005D0030032000020FFF712FED4E70020BE
:1047F000FFF7E8FDD0E7C046842E0020F8B505009D
:10480000FEF7FCFE002801D10020F8BDFEF7FEFEF9
:104810000028F9D1AC24640065432E00134F2C36D8
:10482000BE19300001F0F6F80028EDD07C19A1780F
:104830000020FFF799FD0028E6D01935FF357D19D6
:1048400029003000402201F05DF9A178061E08D051
:1048500003002A000020FFF7DBFD0028D4D0300041
:10486000D3E70020FFF7AEFDCEE7C046842E002040
:10487000AC2270B5184C82B0520000212000FEF727
:1048800027F8FF236371154B0025E38001260823D9
:10489000210020002681237348310095073B4022E8
:1048A000103001F07BF800962100200026008831AE
:1048B00001234022C8362C3001F070F83000FCF79C
:1048C000A3FDA6622600D03665623000FCF79CFD91
:1048D0002664656402B070BD842E002000C2FFFF14
:1048E00010B5094C052200212000FDF7F1FF200042
:1048F0002C34103001F03EFA200001F03BFA012187
:10490000200001F05DFA10BD842E0020F0B5C646EF
:1049100000B54B7982B00700022B05D0002420009F
:1049200002B004BC9046F0BD8B79022BF6D12F4E1D
:10493000B378002BF2D18B78092433700D784D19A0
:104940006B78242B0BD1082A02D80FE0A2420DD39A
:104950002B78ED18E4186B78A4B2242BF6D0052B35
:104960001BD0042B02D16B790A2B24D035001035D3
:10497000280001F069F83F28D1D9F1780020FFF72D
:10498000F3FC0028CBD0280001F05EF83F2825D8A2
:10499000F1780020FFF716FDC1E729003800FFF786
:1049A000CBFC0028BAD0AB7873702B78E418ED18E4
:1049B000A4B26B78D5E72B7829009846B31C0193F5
:1049C000F31C00934144022302223800FFF75CFCF1
:1049D0000028A3D00E344444A4B2C7E73200F178D3
:1049E000D83240230020FFF713FD98E7842E0020E3
:1049F000F8B560231400127800271340202B01D053
:104A00003800F8BD2E4A6379267915781B023343A6
:104A10009D42F5D16378212B43D009D9222B24D094
:104A2000232B14D1002945D0022912D00127E7E712
:104A3000202B0CD1002936D00229F7D1214B002B95
:104A4000F4D0911D002000E000BF0127D8E7002727
:104A5000D6E71D4B002BE9D0E178A3780902194372
:104A6000002000E000BF0127CAE7002922D0022968
:104A7000DCD10125A178E47824020C4329001471CB
:104A80002C32A143100001F09BF9104B002BCDD02C
:104A9000290062082A4021400020FBF78BFC0127F7
:104AA000AEE70029C2D1063207232100FFF712FD2D
:104AB0000127A5E72100FFF7F5FC0127A0E7C04685
:104AC000842E00200000000000000000B50300104C
:104AD000F0B546464F46D646C0B55D4D9846EB7894
:104AE00082B081460E008B4200D176E0AB788B42DB
:104AF0002CD00024200002B01CBC90469946A2464F
:104B0000F0BD544B002B07D02800103000F094FF6C
:104B1000002801D1FBF75CFC2C001034200000F0D1
:104B200093FF3F280FD9E9780020FFF71DFC0028EC
:104B300009D0200000F088FF3F2800D97EE0E97806
:104B40000020FFF73FFCAB789E4244D1424B002B44
:104B500002D0002000E000BFFEF750FD002817D172
:104B600028002C3000F056FF002834D14346002B9B
:104B700031D09B062FD1A9784846FFF7F5FB041EDC
:104B800029D0A978002300224846FFF741FCB1E76D
:104B9000FEF73CFD0028E3D12C002C34200000F06F
:104BA00039FF0028DCD0A9780020FFF7DDFB0028C2
:104BB000D6D02E001936FF3631004022200000F0FA
:104BC000A1FFA978002835D0030032000020FFF7AC
:104BD0001FFC0028C4D001248CE743466A46D380DA
:104BE00010232C009A46D834AA44D288210050467B
:104BF00001F04AF8194B002B83D06B79FF2B00D1C1
:104C00007FE74246002A00D17BE74746D837EF19B5
:104C100004E00134BC4200D173E76B7922789A42F8
:104C2000F7D1504600F008FF0028F2D1697900E082
:104C300000BFEEE70020FFF7C5FB91E72A00402305
:104C4000D832E9780020FFF7E3FBAB787CE7C04679
:104C5000842E0020D103001000000000000000009E
:104C600070B5AC256D0045432800054C1030001987
:104C700000F0D0FE6419A37B627B9B1A181870BDEC
:104C8000B83A0020F0B5AC25C6466D0045431B4E32
:104C900000B57719BB780020002B02D104BC9046E8
:104CA000F0BD2B0010339846B0440422404600F07B
:104CB00029FF0400404600F0C7FE3F2804D8043C0A
:104CC00060426041C0B2E9E7B9780020FFF74CFBD1
:104CD0000028F4D0404600F0B7FE3F2804D8B97849
:104CE0000020FFF76FFBEAE72A00D8329219B97863
:104CF00040230020FFF78CFBE1E7C046B83A0020D4
:104D0000F0B54546DE4657464E46E0B51F00684BB7
:104D100090469B46AC2302005B005A435C4691469A
:104D20004C44637883B001900025002B58D01600C6
:104D30002C365E44002F4ED009014BB29A460F2309
:104D400052461343DBB200933B004746984630007F
:104D500000F07AFE03283ED9E279795D0135002A18
:104D600046D10223E371E3782171042B56D0082049
:104D7000404284460B099C446046032848D90E2BC8
:104D800046D00F2B56D06B461B786271E37002231E
:104D9000A2712372E3790021E218D1705A1CD2B2B9
:104DA000042A0AD0A218D1709A1CD2B2042A04D0C4
:104DB000A218D170002B00D1A3714B46D91C5944C5
:104DC0000422300000F060FF00232372E371042806
:104DD00006D1A845BBD1300000F01CFE002837D119
:104DE000280003B03CBC90469946A246AB46F0BDB5
:104DF000032AF5D8A318D970E078531CDBB2E3710D
:104E000004280FD0227A9A42E3D1042BC3D1D4E7ED
:104E100052461343E37004232372DAE7F72912D0D2
:104E20002372D6E7F729EDD10432E2702372042B06
:104E3000B1D1C2E7F0292DD00B0002229343F12B10
:104E400023D0F2292ED00523E370033B2372A1E780
:104E5000AC24019B64005C435C4461780020FFF754
:104E600083FA0028BCD04F461937FF375F4439001A
:104E70004022300000F046FE617800280ED003008A
:104E80003A000020FFF7C4FAAAE7EF3BE3700323E0
:104E900023729EE70B3BE37023729AE70020FFF733
:104EA00091FA9DE70323E3700133237291E7C04633
:104EB000B83A0020AC2270B5144C82B052000021E8
:104EC0002000FDF705FD0025210020004831009558
:104ED00001234022103000F061FD26002100200057
:104EE000883101234022C83600952C3000F056FD51
:104EF0003000FCF789FAA6622600D03665623000E1
:104F0000FCF782FA2664656402B070BDB83A0020EE
:104F100010B5074C102200212000FDF7D9FC20001D
:104F2000103000F027FF20002C3000F023FF10BDD0
:104F3000B83A0020F0B54646D6464F46C0B54B7944
:104F400006001500012B06D0002420001CBC904652
:104F50009946A246F0BD8B79012BF5D1CB79002B78
:104F6000F2D10F78BBB2CF197A78242A07D009E0A2
:104F70003A78BF189B187A789BB2242A02D1AB42A8
:104F8000F6D9E1E7042ADFD17A79012ADCD1BA79AE
:104F9000032AD9D1FA79002AD6D1304A91465278DB
:104FA000002A02D000231B70FFDE4A469278924608
:104FB000002AF7D14946BA780A703A78397990468A
:104FC0009B189CB2B844002907D124E043461A78C4
:104FD000A418A4B290448A451DD2A5421BD34346CF
:104FE0005B78052BF2D141463000FFF7A5F9002888
:104FF000AAD043469B785AB2002A25DB4A469370D2
:1050000043461A7853460133A418DBB2A4B2904445
:105010009A463979DAE7124D280000F015FD3F284D
:1050200093D92E00103EB1780020FFF79DF900289B
:1050300000D18AE7280000F007FDB1783F2806D8A4
:105040000020FFF7BFF980E74A465370D8E74023B6
:10505000044A0020FFF7DCF977E7C046B83A0020A1
:10506000C83A0020903B002000207047F0B5C646AB
:1050700000B53E4C1D00A37806008B4227D0637814
:105080008B4204D00024200004BC9046F0BD2700D1
:105090002C37380000F0BEFC00283FD1344C2000F3
:1050A00000F0B8FC002825D1002D23D0AB0621D17B
:1050B0002C3C61783000FFF757F92500041E19D009
:1050C0006978002300223000FFF7A2F9DBE7210016
:1050D0002000AAB2D831103000F0D6FD254B002BAD
:1050E00002D0002000E000BF234D280000F0ACFCFF
:1050F0003F2801D80124C6E72E00103EB1780020D9
:10510000FFF732F9041EF5D0280000F09DFC3F287F
:1051100023D8B1780020FFF755F9B4E76178002073
:10512000FFF722F90028B9D08C235B009846A044F1
:1051300041464022380000F0E5FC6178002808D0A4
:10514000030042460020FFF763F90028A6D001249F
:1051500099E70020FFF736F9A0E72A00B178C832B6
:1051600040230020FFF754F98DE7C046B83A0020ED
:10517000E43A002000000000C83A0020F0B54E4696
:10518000DE4657464546E0B5324C83B0E18A06001C
:1051900049BA89B2002906D0A7683800FDF7B2F8ED
:1051A00083B2002B06D103B03CBC90469946A24680
:1051B000AB46F0BD2369217D1B0A090619430BBAD2
:1051C0009846A36B00049946050C234B29004846DA
:1051D0009A46FDF797F848468B462900FDF792F866
:1051E0004B460100FF1A80234144607B9B009F4295
:1051F0000FD8009753465A46FBF7EAF9002813DB0D
:1052000009D02E2283B2A15C30005246FFF700F98C
:10521000C9E71F00EDE72E230022E15C0090002388
:105220003000FEF7FDFFBEE7A26BA36830009B1ABB
:10523000A36201222C23E25404321033E2541B32C5
:105240000133E25400220133E254103BE15CFFF7EA
:1052500003F9A8E7303200203030002010B53C249C
:10526000034801553D2142543E228354012010BD84
:105270003032002010B5402200210248FDF728FB03
:1052800010BDC0463032002010B540220021024837
:10529000FDF71EFB10BDC0463032002030B54B7903
:1052A00083B00400082B02D0002003B030BD8B79FE
:1052B000062BF9D1CB79502BF6D1162AF4D98A785E
:1052C0000C4D233BEA540B780222C9182B002E33D5
:1052D00001932B002F3300930223FEF7D5FF002804
:1052E000E2D02F232A00E95C2000103BFFF790F862
:1052F0001720DAE73032002070B5060082B01500C2
:105300000124002905D16023127800241340202BAA
:1053100002D0200002B070BD6B78FE2B06D0FF2BB0
:10532000F7D12900FFF7BEF80134F2E701236A46FE
:10533000D3710B4B002B10D000E000BF0028E8D049
:105340000138C0B26B466A46D87107320123290082
:105350003000FFF7BFF80124DBE70020F2E7C0468A
:1053600000000000F0B5454657464E46DE46E0B523
:105370003026C34C91B0A55D80461F00012D38D06A
:10538000002D2CD0032D27D12E23E35C8B4207D098
:10539000012011B03CBC90469946A246AB46F0BDF8
:1053A0000D2FF5D1E37B282B00D13FE22A2B00D033
:1053B00032E2B44B002B02D0607B00E000BF002340
:1053C000302563552F33E15C2200103B4046FFF748
:1053D0001FF800280BD0655D022DD9D128E02F23BE
:1053E000E05C8842D4D1002A01D11F2F45D0002093
:1053F000CFE7237BDB09994610D1E37B2A2B00D131
:1054000077E12100A38E0F31607B9F4AFBF7FCF808
:105410002C23002800DAB5E14A46E254A36B9C46EF
:10542000636B6744A7639F421AD302223023E2547E
:105430002E254046615DFFF727F8002807D12F236E
:105440004046E15CFFF720F8002800D18FE12F23D0
:10545000E15C0023002200934046FEF7E1FE97E75F
:10546000E37B282B00D198E12A2B00D19BE130234C
:10547000E55C022D00D08BE7DAE7844B22689A4284
:10548000B5D1834BA56223626368A5636362012380
:10549000A355E27BA3686363282A00D1DBE12A2AB3
:1054A00000D1DDE1002B03D0217BC90900D1C7E188
:1054B000657B252A1BD8774B92009B589F4606AEEA
:1054C000320007A92800FBF77BF8079B002B03D0CD
:1054D0003288002A00D0EDE13C22A35C002B06D1EB
:1054E0000221A15401324918A1540132A3543C2392
:1054F000E35C002B09D12100634DA38E0F31607B4B
:105500002A00FBF781F800283EDA002301226363BA
:105510002C33E25401320433E2543A32A35C002BC0
:1055200006D10521A1543D221B31A1540132A354BF
:10553000A368002B00D17BE72E23E15C4046FEF7F9
:105540008BFF94E707AE0C2200213000FDF7C0F975
:1055500002AB9C460E2767443A0006A92800FBF7D9
:105560002FF8069A002AB7D03B88002BB4D0082128
:1055700012BA454D5BBAF1700892022273812B007A
:10558000327207CE07C30C2000222C236063E25442
:10559000002800D149E7A368834200D227E72E22E2
:1055A00083B2A15C40462A00FEF732FF002800D0FB
:1055B0005DE70020EDE6384B002B5CD0E17C280055
:1055C0008B07CA07DB0FD20F0909FAF7FFFF002884
:1055D00051D13C23E35C002B97D102223C23E254BF
:1055E00092180133E25400220133E2548DE72B4B31
:1055F000002B00D166E1280000E000BF0323224D0C
:1056000000222B70023B43400420DB016A70AB7028
:10561000EA7000222C236063E254BCE707AE242228
:1056200000213000FDF754F980235B42737008229B
:105630008233202109A8B370F370FDF749F91022D5
:1056400020210BA8FDF744F9154B280009A90F9359
:105650000BAA0FABFAF784FF0B4D2A000BCE0BC23F
:105660000BCE0BC20BCE0BC22420D2E72800FAF7D8
:10567000A5FF0028ADD000232C226363A354D4E6F9
:1056800030320020000000003030002055534243EB
:1056900055534253D8750010CD050010000000008E
:1056A0002020202007AE122200213000FDF710F943
:1056B0003D233C20E75C99460133E55C9A464E3B2E
:1056C000225C33700F231340B3700A2375737E4D31
:1056D000F3712B00377386CE86C337684A461F6046
:1056E000B6889E800023A35452462354A3542A38DC
:1056F0008FE72369207DE18A1B0A0006A26B18430D
:1057000049BA03BA89B2A06802939346FCF7FAFD3E
:105710000004020C110058469246FCF7F3FD58466F
:1057200003915146FCF7EEFD029B039AC118607B82
:10573000654B0097FAF75AFF00284BDBB84200DBB5
:105740006CE600287ADDA36B3F1A1B18A3635E4B3F
:105750003A001918180001F047FD2F23E15C0023DF
:10576000404600933A00FEF75BFD012011E603225C
:105770003023E2542200615D2032233B4046FEF795
:1057800047FE06E60522E5541033E2541B3201338E
:10579000E2544A460133E25440E64046FFF7EEFC4D
:1057A0003023E55C18E6494B002B26D0607B00E0F7
:1057B00000BF002820D1A3680122A3622C23E25459
:1057C00006321033E25401332032E2540133E05404
:1057D0000F3BB2E6A26BA3689B1AA3622C2305229F
:1057E000E5542A3BA3553A33E2541B320133E254C9
:1057F0004A460133E2541BE6A76BA368DF1B8023F4
:105800009B009F4200D91F002F22BBB2A15C4046E3
:105810002D4AFEF7FDFD2AE62D4B002B00D1CEE5EB
:105820002100607B0F3100E000BFC8E5294B002B51
:1058300000D1C4E5607B00E000BFC0E53F1A8CE703
:1058400001009BB2204A4046FEF7E2FD002800D04E
:105850000DE600209DE54046FFF790FCA55DBBE509
:105860001A4B002B14D0607B00E000BF00280FD142
:10587000A3680122A3622C23E25406321033E254BF
:1058800020320133E25400220133E2540F3B54E64C
:10589000A26BA3689B1A80229200934200D9130046
:1058A0002F229BB2A15C4046074AFEF7B1FD302390
:1058B000E55C91E5044D013B1BBA12BA2B606A60AE
:1058C000082061E6012099E6303000200000000049
:1058D000000000000000000010B50020FDF7A4FE4D
:1058E00010BDC04610B5FDF799FE10BD072310B5D9
:1058F0004479027923401B021A43C3789B079B0F0C
:10590000022B16D00DD80020012B09D102394B42B1
:105910005941114B00209C46614491424041C0B224
:1059200010BD022914D04023002093424041C0B250
:10593000F6E7022905D00020402393424041C0B23F
:10594000EEE7064B9C46624450425041C0B2E7E746
:105950008023DB00E8E7C046FF03000000FEFFFFF6
:10596000F0B500247F27002A06D115E00D786419D0
:10597000A4B24919A2420FD94D78052DF6D13D00A8
:105980008E7835406D004519F609AB550D786419D0
:10599000A4B24919A242EFD8F0BDC046F0B5C64640
:1059A00000B51E0006AB1B780400984680230F004C
:1059B00015001B0200209A4226D86069002803D0F7
:1059C0000121494201F0F8FBA069002803D0012120
:1059D000494201F0F1FB4346A5806D00ADB2237250
:1059E0006B1EA381002360696D42E3812760E6801E
:1059F00065812382002801D001F0BEFBA069002848
:105A000005D001F0B9FB012004BC9046F0BD012097
:105A1000FAE7C046C189028A89B292B28B1A9BB258
:105A2000914202D242899B1A9BB28288101C9A42F0
:105A300000D9181C80B27047C389008A181A4342E3
:105A40005841C0B27047C04610B5C489018AA4B29B
:105A500089B2631A82889BB28C4202D240891B1A97
:105A60009BB2D01A80B210BD70B5040080690D00E1
:105A7000002803D00121494201F09EFBE089218AE0
:105A800080B289B2421A92B2884202D26389D21A93
:105A900092B2A388934208D2C21A92B290422CD2F8
:105AA0006089121A92B222821A00002A02D11DE0E5
:105AB000C91A89B28B42FBD92368E2889C465143BC
:105AC00028006144FCF70AFF228A012592B2531C88
:105AD0009BB29A420DD962899B189BB2A06923821E
