:020000041000EA
:1000000000B5324B212058609868022188439860DF
:10001000D860186158612E4B002199600221596106
:100020000121F02299502B49196001219960352056
:1000300000F044F80222904214D00621196600F024
:1000400034F8196E01211966002018661A6600F04E
:100050002CF8196E196E196E052000F02FF8012189
:100060000842F9D1002199601B49196000215960AB
:100070001A491B48016001219960EB211966A021F2
:10008000196600F012F800219960164914480160C1
:100090000121996001BC002800D000471248134993
:1000A000086003C880F30888084703B5996A0420EC
:1000B0000142FBD001200142F8D103BD02B5186610
:1000C0001866FFF7F2FF186E186E02BD00000240BE
:1000D000000000180000070000035F00212200005C
:1000E000F4000018222000A00001001008ED00E03C
:1000F00000000000000000000000000074B24E7A12
:1001000000200420F7010010C3010010C5010010F9
:10011000C1010010C1010010C1010010C101001097
:10012000C1010010C1010010C1010010C701001081
:10013000C1010010C1010010C9010010CB01001065
:10014000CD010010CD010010CD010010CD01001037
:10015000CD010010CD010010CD010010CD01001027
:10016000CD010010CD010010CD010010CD01001017
:10017000CD010010CD010010CD010010CD01001007
:10018000CD010010CD010010CD010010CD010010F7
:10019000CD010010CD010010CD010010CD010010E7
:1001A000CD010010CD010010CD010010CD010010D7
:1001B000CD010010CD010010CD010010CD010010C7
:1001C00000BE00BE00BE00BE00BE00BE00F04BF888
:1001D000103800BEF2EB8871386B0010606B0010B5
:1001E0003402001090A31AE700202149086006C8D5
:1001F00081F3088810471F48006800282FD10DA4FC
:100200000ECC002902D000F012F8F9E71A491B4A77
:10021000002000E001C19142FCD1194988471949E9
:1002200088471949884700BEFDE701C901C29A42C3
:10023000FBD37047606B0010C0000020200C002032
:10024000CC7600100000042000000420CC760010C2
:1002500000100420001004200000000070470B482C
:1002600002F018F80047EFF30580C0B270470000B5
:1002700008ED00E0000000D0300C0020BC18002089
:10028000CD19001079030010051B0010575600000F
:1002900006005250ABB360537C6900100600525008
:1002A000861C03028C690010060052505422A29D45
:1002B0009C69001005005250DE65F468CC76001091
:1002C000F8B5C046054B0648033310B51B1A062B7C
:1002D00003D9044B002B00D0984710BD200C002000
:1002E000200C0020000000000648074910B5091A3C
:1002F0008910CB0F5918491003D0044B002B00D0A4
:10030000984710BD200C0020200C002000000000A9
:1003100010B5074C2378002B09D1FFF7D3FF054B0D
:10032000002B02D0044800E000BF0123237010BD61
:10033000300D002000000000E8660010094B10B5E9
:10034000002B03D00849094800E000BF08480368B3
:10035000002B02D1FFF7C8FF10BD064B002BF9D0D0
:100360009847F7E700000000340D0020E866001011
:10037000200C002000000000F0B5DE4657464E4637
:100380004546E0B593B002F0D1FC04F02FFD5F4B81
:1003900002AD9A466B465F1DDE1D5D4B99465D4B77
:1003A0009B4603F0ADF9002004F02CF900282AD177
:1003B00053461B78002B5ED100F00EFF4B461B68A6
:1003C00098465B461C68002900D189E0FA22002388
:1003D000920001F0D3FF4346C01AA042E1D34B463E
:1003E00044441C604C4B187802F0B8FC01224A4B84
:1003F0001B785340484A137003F082F9002004F040
:1004000001F90028D4D0002004F014F90028CFD03E
:1004100040222900002004F01BF953461B78804637
:10042000002B67D1002004F0EDF80028C0D043462F
:100430000024002B03D117E00134A04514D02B5D1C
:100440000122390000203B7004F03AF92B5D0D2B9E
:10045000F2D16B460A2201A91A710020012201344F
:1004600004F02EF9A045EAD1002004F06FF95346BC
:100470001B78002BA0D0002004F09AFB00289BD012
:1004800040222900002004F0A1FB53461B7880463F
:10049000002B35D1002004F0B5F800288CD043465D
:1004A0000024002B03D117E00134A04514D02B5DAC
:1004B000012231000020337004F002F92B5D0D2B76
:1004C000F2D16B460A22991D9A7100200122013453
:1004D00004F0F6F8A045EAD1002004F037F96BE704
:1004E000FA21890001F008FF4346C01AA04200D259
:1004F00057E774E702002900002004F091FB91E720
:1005000002002900002004F08BFBC3E7EE15002059
:10051000CC150020C8020020EC150020FA22024B66
:1005200092001A607047C046C8020020FA22014BB0
:100530001A607047C8020020014A024B1A607047D7
:10054000C4090000C8020020FA22024B92001A607F
:100550007047C046C8020020F0B5050083B0140003
:100560000120002912D113785B069B0F012B0FD0BD
:10057000022B25D15378012B24D0022B20D1637973
:1005800012791B0213430020072B22D003B0F0BDC9
:1005900053780020222BF9D1E37892781B02134381
:1005A00019004A1E9141194A1170002B21D1FA22DB
:1005B000174B92001A602100280003F01BFFE5E7AB
:1005C0000020E3E72523134A2100280003F02AFF37
:1005D000DCE76B46104E9F1D31000222380002F00E
:1005E00077F932003B88083A2100280003F01AFF0F
:1005F000CCE7013002F0B2FB0122054B52421A60F7
:1006000006492232002004F00BFBD4E7EE1500204F
:10061000C8020020E8660010F467001010670010A0
:1006200010B5002901D0002A00D110BD21220249B5
:10063000002004F045F8F8E7106700107047C04646
:1006400000487047D8670010004870477467001072
:10065000004870473867001070B5002825D005287D
:100660002DD8194B8000C458200005F0FFF9C3B203
:100670001F2B18D8D8B2002823D02300441E134DB6
:10068000E4B20134AA1C1C1919780133118002321A
:100690009C42F9D1C023013040009B00184380B236
:1006A0002880280070BD1F20E7E7084D064BA81CD6
:1006B0001968022202F00CF9C1208000F0E7002046
:1006C000F0E70348014DEBE7CC020020F00E0020DC
:1006D00002030000094A830094464022634410B597
:1006E0001C68C0006240C0241440802252011343A1
:1006F0001C60034B9C466044416010BD04C0014037
:1007000000400140034BC0009C46604443681F20EA
:1007100018407047004001400B4B80009C466044ED
:1007200000290DD00C210823002A00D00B000268FC
:1007300053400C221A4080235B011843026070472B
:1007400004210023F0E7C04604C00140074BC0006D
:100750009C466044036809045940C0239B02194029
:1007600080235B01184301607047C046044001408C
:10077000074BC0009C466044036809035940C023EE
:100780009B01194080235B01184301607047C046FC
:10079000044001400123D0228340120693629361FA
:1007A000094A83009446402263441968C0004A40C5
:1007B000C02111408022520113431960034B9C4613
:1007C000052360444360704704C00140004001407D
:1007D000F8B5EFF3108772B60D4E3368002BFCD0DE
:1007E000BFF35F8F0725CB08C01801230D40AB4036
:1007F0001D000478254007D123430370BFF35F8FAA
:10080000356087F31088F8BD100001F07DF9C0460F
:100810002C0100D0F8B5CE4647468C4680B5EFF3A4
:10082000108872B61D4D2C68002CFCD0BFF35F8F72
:100830009A4219D80721012511408D40D408041986
:10084000267835421FD007218946063909E04D46F2
:100850000F001540AF40D408041926783D003742F8
:1008600011D001329342F2D201204042BFF35F8F98
:1008700000220A4B1A6088F31088002807DB0CBCA2
:1008800090469946F8BD354325701000EEE7634663
:10089000002BF4D0089801F037F9C0462C0100D0A5
:1008A000024B18688007C00F7047C04600C0064062
:1008B0000021044B044ABFF35F8F02C39342FAD175
:1008C0007047C046000100D0800100D0044A107873
:1008D000431CDBB2172B00D9102313707047C0469E
:1008E000E402002000B5054B83B0010000931822FC
:1008F0001F230348FFF78EFF03B000BDDC68001024
:1009000030110020F8B5040006200D0001F07EFA39
:1009100003000020002B49D0294B80229C424DD05F
:10092000D203284B28491A60284B1A6010008B68A4
:100930009843FBD1264B8021E3185A425341254A64
:100940005B0049000620995201F060FA2900C000BE
:1009500001F0D2FCC3092AD01F4A93422AD87F2231
:100960001040013040089F011A0003003F18260084
:1009700080256262A36200232C36AD0135432B60D3
:10098000062001F043FA3900800001F0B5FC602335
:10099000E26A53406E221A4080235B0133431A609F
:1009A0000E4B236310232B600D3BA364F8BD40273F
:1009B0000122DCE70A4F00230A4AD8E71204B0E715
:1009C0000080034000E0004000C0004000F0004014
:1009D0000080FCBFF0150020FEFF000001030000B6
:1009E000C0FF3F00FFFF000083680B4810B584463E
:1009F00061446244090112019A18591854684B68FD
:100A000001209C4201D802D00020C0B210BD126863
:100A10000B689A42F9D8F7E7FFFFFF0F0A4B1968F6
:100A2000EFF3108072B60A68002AFCD0BFF35F8F24
:100A30001B68BFF35F8F00221A6080F3108840BFED
:100A4000002000217047C046C8150020F8B54E466A
:100A50004546DE465746E0B51F000CAB1D780DAB92
:100A60001B7881469B46036816009846002D08D1E6
:100A7000987B002841D13CBC90469946A246AB46A3
:100A8000F8BD28006C006419033C384B00229C46DA
:100A90004B469B6860449C4600010A9B604483600F
:100AA0000B9B06604760C36043461B681B199A7026
:100AB0005A701A7043465B7B9A46002B3BD04346E4
:100AC0002A00986851465B68984743461A68002890
:100AD00024D053465B005344033BD31814195246A9
:100AE000A2701A78002A00D062701D7052464346E8
:100AF00028005A73AA45BED11FE0414644001B6836
:100B00002418033C1B195A788A73002A00D1CA732F
:100B1000002205009A705A701A70B6E753465B00BF
:100B20005344033BD31814199D702278002A00D037
:100B30005A705346237043465D734B463200187D0E
:100B40003B0000F0C5FB041E07D05B46002B04D120
:100B50004B462900186800F00FFE0E9B002B02D0B8
:100B60001C70280087E7280085E7C046FFFFFF0FBD
:100B7000744B8200F0B5D4580023DE4657464E46EB
:100B800045469B46E0B58DB00B9000F025FB6268B2
:100B9000EFF3108572B61368002BFCD0BFF35F8FA4
:100BA00023689C465B7B9946002B00D181E0A268BC
:100BB000654B90464B441B01984443461E685F6852
:100BC00032003B00121A8B41002B00DC84E03B001A
:100BD00032000B9800F07CFB00230022089209935E
:100BE000002300279A466368BFF35F8F5A461A6056
:100BF00085F310885346002B64D00A9B39001802F5
:100C00004B461843D047626806900791EFF310886F
:100C100072B6564645461368002BFCD0B246A8462D
:100C2000BFF35F8F0699079A002A25DA2369002B04
:100C300028D0089D099E6D1A96412A003300089D10
:100C4000099E9E4200D971E000D173E0594604919B
:100C500001210391494602915146019700912000DC
:100C6000FFF7F4FE5B4623616368BFF35F8F5A466C
:100C70001A6088F3108888E71300194302D02369AB
:100C8000002B46D12368DA7B002A07D051008A184E
:100C900019688C4649466244033A51704A46DA73F1
:100CA000E2684B469446013B63441A7801321A705D
:100CB000D8E70023002208920993002300279A46D0
:100CC000002090E7002800D05FE70DB03CBC9046C4
:100CD0009946A246AB46F0BD002B02D1002A00D0B7
:100CE00075E70021604600F09BFC43461A685B688C
:100CF0000892099343469B689A464346DF68E36837
:100D00004B44013B1B780A931B02184320610020CF
:100D100069E700F061FA069A079B12184B41994265
:100D200004D800D092E7904200D88FE701225242C7
:100D3000D3178BE7954200D888E701225242D31798
:100D400084E7C046B8150020FFFFFF0F10B5124C16
:100D50006368002B04D00A21104800F047FB10BD47
:100D600023000F4A1021206800F03CFC032000F013
:100D700027FA032000F01AFB0A49032000F062FA68
:100D8000FFF7A4FD084B9C46032360442375074BE3
:100D900080006060DC60DEE7E8020020C81500200B
:100DA000E9090010710B001040000034B815002054
:100DB00000487047E8020020F0B55746DE46454639
:100DC0004E46E0B585B00092019310AB1B7807004A
:100DD0009B4600239A4698467A68EFF3108972B6CC
:100DE0001368002BFCD0BFF35F8F3E68B47B002CF0
:100DF00000D173E065002D193368033D5B195A7803
:100E0000B273002A00D1F27342469A705A701A7077
:100E1000BA68504B94460099019AE3181B01634449
:100E200019605A600E9A9A600F9ADA6042463368E7
:100E30005B199A705A701A70737B0393002B00D160
:100E400076E0190073682200B0689C46E04732687B
:100E500000285ED003985519844643006344033B41
:100E6000D318A8701A78002A00D06FE01C70707335
:100E700084425ED0FB681B19013B18787B68BFF386
:100E80005F8F42461A6089F310885346002B08D1C1
:100E90000002204305B03CBC90469946A246AB46B2
:100EA000F0BD5B46002B53D00E9B0F990020984756
:100EB000030004000D000B434AD0002917DA009804
:100EC000019902000B00121BAB4199421AD801D1C3
:100ED000904217D800920193DA467DE77B68BFF312
:100EE0005F8F1C6089F3108801204042D2E700F038
:100EF00073F924184D4100940195A94202D8EBD111
:100F0000A042E9D901235B42DC17DA460093019441
:100F100062E7039955198C464B006344033BD31891
:100F20009C702A78002A00D05A706B461B7B2B706D
:100F30007473387D009A019B00F0CAF9824600283C
:100F400098D02100386800F017FC93E76A708DE7AD
:100F500000209FE7FFFFFF0FF0B54E464546DE46F7
:100F60005746E0B56A4C83B0814688466268EFF325
:100F7000108A72B61368002BFCD0BFF35F8F26680F
:100F8000B57B002D46D06F007F193368033F019574
:100F9000DB195A78B273002A00D1F27300229A70DA
:100FA0005A701A70A1685B4B8C464946EB181B01BE
:100FB00063441960414659605749DA609960336863
:100FC000DB199A705A701A70737B9B46002B00D104
:100FD00089E02A001900B0687368984732680028D1
:100FE00000D173E05B465B005B44033BD318D71929
:100FF0005A46BA701A78002A00D07A701D705B4683
:1010000073735D4500D16FE00026E3685B19013B17
:101010001B7802E00023002601936268BFF35F8F14
:10102000002111608AF31088002D44D0002E42D197
:10103000019A1B02134320BF6168EFF3108772B659
:101040000A68002AFCD0BFF35F8F2068D9B2427BC8
:101050008A4256D0FF221A405500AA46056892449B
:10106000AC4655466544033DAD78002D29D0E56872
:101070001B0AAC466244013A12789A4244D0636833
:10108000BFF35F8F00221A6087F31088234A536AE8
:10109000984508D8926A01264A4504D24246D31A96
:1010A0005E1EB341DEB2300003B03CBC90469946B0
:1010B000A246AB46F0BD194A0026536A9845F2D8BD
:1010C000E8E722699342DAD12561D8E75B465B0005
:1010D0005B44033BD318D7199D703A78002A00D09F
:1010E0005A705B463B707573207D4A46434600F05C
:1010F000EFF8061E00D187E72900206800F03CFBCE
:1011000083E7FF221A40B2E700F036FBB7E7C0469C
:10111000E8020020FFFFFF0F1D0A001000400540FD
:10112000F8B5CE46474680B5EFF305833F2213401E
:1011300018001038EFF3108C72B61B490A68002AA9
:10114000FCD0BFF35F8F01210F008740174D184A75
:101150006F63147891462200C240904646460022B2
:1011600031420BD0696A134D884681004D59A8451C
:1011700012D3114BBC43CA584B461C70BFF35F8F50
:101180000021094B19608CF31088002A00D0904789
:101190000CBC90469946F8BD08499B0088464344DC
:1011A00019681960EAE7C046280100D000400540F0
:1011B000ED150020D015002020110020D03F054063
:1011C00010B50100024A0348FFF702FB10BDC046FC
:1011D00000690010EA150020044A516A00E0190075
:1011E000906A536A9942FAD17047C0460040054060
:1011F000134A30B5546A00E01C00956A536AA34252
:10120000FAD12A002300801859418C4211D80ED0FF
:101210000C000B4A536AA342FCD307D1084A02E0F0
:10122000516A994202D1916A8142F9D330BD854217
:10123000EED9012401204042C1176442E9E7C046CB
:101240000040054070B504000D00EFF3108672B643
:101250001A4A1368002BFCD0BFF35F8F002D1BD000
:10126000200000F0EBFD164988420AD0200000F073
:10127000EDFD0121200000F0CFFD0123A340114A24
:101280001360114BA400E550BFF35F8F00220B4B9E
:101290001A6086F3108870BD0B4BA200D550012256
:1012A000A2400A4920000B7893430B70044900F0D8
:1012B000F7FD0021200000F0AFFDE5E7280100D098
:1012C000211100103860054020110020ED1500208C
:1012D000F0B5D6464F4646462F4CC0B5656A00E08D
:1012E0000D00A66A616AA942FAD1AB4249D9EFF36F
:1012F000108972B6294C21680029FCD0BFF35F8F9A
:101300000126274986408C460978264D0F00374331
:101310008846F9B28A46614654460C701E49041D3F
:10132000A4004E636250840063510D6A002435426C
:101330001AD04D6A00E025008F6A4C6AAC42FAD19F
:10134000AB4224D801D1BA4221D8D04521D0124B8A
:10135000154A1E625E631F2318401E3B83401360C4
:101360006346424601241A70BFF35F8F00220B4B85
:101370001A6089F3108820001CBC90469946A2464A
:10138000F0BDAB4201D1B242B1D80124F3E7002451
:10139000EAE70124E8E7C04600400540280100D004
:1013A000ED150020D015002080E200E010B5EFF32D
:1013B000108472B60A490B68002BFCD0BFF35F8F14
:1013C00001238340074A0848136202789A43027057
:1013D000BFF35F8F00230B6084F3108810BDC046FD
:1013E000280100D000400540ED150020024B9C462E
:1013F00061448900016070474000003410B504006A
:10140000FFF764FA01002000FFF7F0FFFF232371CC
:1014100000236371BFF35F8F10BDC04610B5040099
:10142000FFF754FA01002000FFF7E0FFFF232371CC
:101430006371BFF35F8F10BD10B504000120FFF78B
:1014400051FA044B9C46604480002060BFF35F8FDC
:1014500010BDC04640000034F8B54E464546DE4655
:101460005746E0B54C0064180368033C1A190D0098
:10147000517806008946002906D128003CBC9046D8
:101480009946A246AB46F8BD4F004F44033FD819DA
:1014900041788846002141705170002D12D0736848
:1014A0004A462900B06898473368002873D0DF198E
:1014B0001A19BD701178002900D0797049462700AB
:1014C000117000E04D464246002AD6D054004444F4
:1014D000033C1A1951788946002911D17368424694
:1014E0002900B06898473368002849D01C19DF19D3
:1014F000A5703B78002B00D0637043463B70BCE77F
:101500004900494403398A46534459788B4600219F
:101510005970517073684A464146B06898473368BD
:10152000002843D152461C199A184B46A3701378D1
:10153000002B00D0637043465446C84613705B4688
:10154000002BCBD059463000FFF786FF814600289C
:10155000C4D002004146B0687368984732680028DA
:101560002FD04B465B004B44033B1119D318424626
:101570009A700A78002A00D05A704B460B70ADE77B
:101580001C19DF194346BB702378002B00D07B70F9
:101590002570454671E749461C19DA19A170117882
:1015A000002900D0617015704D468CE741461A192C
:1015B000534499701178002900D059704B4613702C
:1015C000BDE74B465B004B44033BD11814194A4618
:1015D000A2700A78002A00D0627042461C000A708D
:1015E000C8467BE710B583600023CCB24373013358
:1015F000047342608373C4730068012C07D901230C
:10160000421C0133DBB2137003329C42F9D8FF2332
:1016100019404B005918002340180338437010BD7F
:10162000F0B54E4657464546DE46E0B5477B036873
:101630007C00E419033C1A19167883B0050089462A
:10164000002E1ED1002911D0C07B002869D0410096
:101650000918591803394F70EF73002E06D0710026
:1016600089190339884600214344997000233800C2
:1016700053706E7303B03CBC90469946A246AB468D
:10168000F0BD710089190339884659184878824697
:10169000002807D149460029E5D0E87B0028D6D1AB
:1016A000EF73DCE742005244033A944601926344EC
:1016B0005A78934600225A704A706B68524631003D
:1016C000A86898472B68002832D0414601985A18DC
:1016D00019188E701078002825D1514611705A467D
:1016E000002A23D059462800FFF7B6FE824600287C
:1016F0001BD002006B683100A86898472B6800284F
:1017000025D042469918524652005244033A9A183C
:1017100096700878002800D0507052460A701A1946
:10172000B8E7EF73A2E74870D7E72B681A19B1E75B
:1017300041465046019A59189A1888701078002826
:1017400000D048701670019A56469046C7E7524638
:101750005100514403395A184046934652461818CE
:1017600082705A461278002A00D042705A46884643
:1017700016701A1956468DE7F0B54546DE465746AF
:101780004E46E0B50C0083B00500002200293DD094
:10179000477B0168BC426BD066003619033E88194E
:1017A0008378002B32D05A00D318033BCB181A7819
:1017B000944202D143E0002A08D053009B18033B17
:1017C000CB185A789442F6D142785A70002383702D
:1017D000437003789846002B25D1EA7B002A1DD060
:1017E00053009B18CB18033B5C704346EC73002BF3
:1017F00000D171E05C0000234444033C09198B7064
:101800004370002F1ED1434601226B73100003B0BA
:101810003CBC90469946A246AB46F0BDB846EC7338
:1018200000234370EFE719002800FFF715FE296831
:10183000EA7B80466F7B8819002AD6D0D0E74278B1
:101840001A70C3E742463900A8686B6898472A684F
:10185000002824D07B00DB191419033BD318A77090
:101860001A78002A00D062704246B8461A70CAE759
:101870007E00F619033E8B191878804600281BD18C
:10188000E87B002804D0420012188A18033A5470EA
:10189000EC7300225A70434601326B73B6E77B004B
:1018A000DB19033B1419D31842469A702278002A98
:1018B00000D05A702770A6E744004444E01E01900F
:1018C00008184478A246002C08D1EC7B002C76D175
:1018D000EF7300228270DCE7B846A1E7630053444F
:1018E000033B994649444B784A7042709B4622001C
:1018F0006B684146A86898472B6800284BD049463A
:101900004046019C59181A1988701078002850D147
:101910005146A14611705A46002A20D05946280047
:10192000FFF79AFD041E19D002004146A8686B68B3
:10193000984700281ED04A4641462B6898186200F6
:101940001219033A9A1891700178002900D0517049
:101950000470E97B002905D19B19B9E72B684A4639
:101960009818F6E74A0052189A18033A57709B19CC
:10197000EF73AEE74B462968600000190338CB18B7
:1019800008189C700278002A00D05A704346A0467E
:1019900003708B1999E74A469818019A9C18524689
:1019A000A2700278002A00D062704246D0460270CF
:1019B000B1E7487051461170019A9146ABE7032296
:1019C00062438A18033A577082E7C046314A324B65
:1019D00070B51A60314A324B32491A6010008B6878
:1019E0009843FBD1304E314B9E420AD2F54300243E
:1019F000ED18AD080135A300F35801349847AC4207
:101A0000F9D100F09FF82A4A254B1A60254A9368BD
:101A1000DB018033FBD14022264B274C9A675A6763
:101A20001A67DA66254B9C420ED2E6430025F6186B
:101A3000F608013663792000002B23D00135FFF72B
:101A4000EDFC0834AE42F5D11D4D1E4CC022A168FC
:101A5000280000F03DFFA560FEF72AFF00F058FBCC
:101A6000FFF774F9184E194B9E420AD2F543002431
:101A7000ED18AD080135A300F35801349847A5428D
:101A8000F9D170BD0135FFF7B9FC0834B542D1D1A9
:101A9000DAE7C046BFCDFBFE00E00040FE7F3C0021
:101AA00000F0004000C00040080C0020180C00208E
:101AB000FFFFFF0100F00140000C0020080C002097
:101AC0000000002000ED00E0180C0020200C002099
:101AD000094A1368002B06D008491818884208D80C
:101AE000106018007047064B0449181813608842AC
:101AF000F6D901204042F5E7A8110020000004209B
:101B0000BC18002000BEFDE70FB400B5084883B044
:101B100000F042FF049B002B07D005A9180001919B
:101B200000F098FB034800F037FF00BEFDE7C04619
:101B3000306900103067001010B50148FFF7E4FF6E
:101B40002469001030B50C2083B000F049FBFEF78B
:101B5000A7FE00280ED0964B964A1A605A609A60EB
:101B6000DA601A615A619A61DA611A62924A5A62BB
:101B700003B030BD914CA06700F03AFB0122904BBE
:101B80001A60636C012BFCD103228E4B1A608B4AC6
:101B9000936B012BFCD1022405338B4A01218B4826
:101BA000009400F0D1FA0523894A00940121894864
:101BB00000F0CAFA884B5A68FF2A02D880225200E5
:101BC0005A6080227A4C7F4B21691201824D1A6043
:101BD000002900D0E5E0E0217F4B02201A68114087
:101BE000802252012A4311601968484003210140B4
:101BF000116004219A681142FCD080228021920158
:101C00002A4309011160802252005A60734B2361FC
:101C1000734B5968FF2900D8C1E00322684B704814
:101C20001A60012103009A681142FCD0E0251A686D
:101C3000154080225201024315601B684B4003216E
:101C4000194011600221664A93681942FCD0802332
:101C500080219B010343090119608021614B4900E8
:101C600051606361604B5A68FF2A00D85960802236
:101C70005E4BE16912015C4D1A60002905D0606974
:101C800000F03AFB01300138FDD1E02256490B68E3
:101C90001A4080235B012B431A60802380229B0122
:101CA0002B4312011A608022424B52004A60E361CA
:101CB0004F4B5968FF2900D85A6080224D4B216A4A
:101CC00012014B4D1A60002905D0606900F014FB29
:101CD00001300138FDD1E02245490B681A408023CC
:101CE0005B012B431A60802380229B012B4312014E
:101CF0001A6080235B004B602E4B3F4A23623F4BB0
:101D00005968914201D801325A6080223C4B616A85
:101D100012013A4D1A60002905D0606900F0ECFA12
:101D200001300138FDD1E02234490B681A4080238C
:101D30005B012B431A60802380229B012B431201FD
:101D40001A608023DB024B601B4B63622D4B5A6889
:101D5000FF2A02D8802252005A6080222A4BA169B1
:101D60001201284D1A60002905D0606900F0C4FAFC
:101D700001300138FDD1E02222490B681A4080234E
:101D80005B012B431A60802380229B012B431201AD
:101D90001A6080235B004B60124BA361E8E65A6037
:101DA0003BE7606900F0A8FA01300138FDD112E785
:101DB00034110020006CDC021BB7000000800040E2
:101DC0003CB0004030B00040002F68590080024015
:101DD00000389C1C00C0024030800040001BB7004F
:101DE0003C800040405973075480004054B000408C
:101DF0006080004060B00040FFFF03006C80004046
:101E00006CB000404880004048B00040014B80006A
:101E1000C05870473411002001238340002902D1AB
:101E2000034A13607047034A1360034A1360F9E7DB
:101E300080E100E080E200E000E100E0024B1030D1
:101E40009B688000C058704700ED00E070B50D0041
:101E5000EFF3108672B60F4A1368002BFCD0BFF365
:101E60005F8F0D4B10309B6884001B590B4A9342C7
:101E700003D09D4201D0FFF75FFE074B9B681D51C9
:101E8000BFF35F8FBFF35F8F0022024B1A6086F3B0
:101E9000108870BD240100D000ED00E0CD010010DD
:101EA000F0B54546DE4657464E46E0B50D0083B0D8
:101EB000EFF3108B72B65C4A1368002BFCD0BFF3B3
:101EC0005F8F1022904680444246584B97009B6893
:101ED000DE59574B99469E4206D0AE4200D17DE076
:101EE000544C331B2F2B12D9504B9B68DE51BFF340
:101EF0005F8FBFF35F8F00224B4B1A608BF310880C
:101F000003B03CBC90469946A246AB46F0BD0123C7
:101F100083409A465246484B1B681A4000925246EC
:101F2000464B1A60BFF35F8FFEF79DF901900028C2
:101F300049D1012332009A4313001B1B5B414649E0
:101F40005943090D93689D424DD006201056002834
:101F500005DA31E0062018561A0000282CDB430071
:101F60001B189B00E31898688542F3D10620185689
:101F700000283BDB42001118890065188846A968D3
:101F80009960E979D971062169569971A9797F29F2
:101F900026D8AD88E11A6D052D1545444919E0256F
:101FA0000905490D2D02294399801218244B9200EE
:101FB000A4181A781870A271009B002B08D1524601
:101FC0001E4B1A6090E78045B3D0FFF7B5FDB0E730
:101FD00052461C4B1A60184B1A6085E71E0083E7B7
:101FE000BD210902E0E713000022BFE701980028A5
:101FF0000AD1002A15D0FF30907113489080104A02
:10200000107811709871D7E7104A1149D21A083A1E
:102010005002400D014399800E4952080A43DA806C
:10202000CAE74E46EBE7C046240100D000ED00E0D1
:10203000CD0100101003002000E100E080E100E08D
:10204000EB15002080E200E000BDFFFF4A03002006
:1020500000F0FFFF00F8FFFFAAAA0000F8B5012575
:1020600004000543FEF7FFF8EFF3108672B6214A2D
:102070001368002BFCD0BFF35F8F1F4A2100891A21
:102080004941224B4B431B0D1C4980008F685BB2BA
:102090003F58BD4226D006215156994226D01221E2
:1020A0005156994224D01E215156994210D02A21CE
:1020B0005156032099420CD0114A11781370A17126
:1020C000BFF35F8F00220B4B1A6086F31088F8BDB8
:1020D00002204100091889005218FF219171094915
:1020E0009180E9E78A6808491150E5E70020F0E7A8
:1020F0000120EEE7240100D01003002000ED00E0F5
:10210000EB15002000BDFFFFCD010010AAAA0000C2
:10211000F0B500220324FF27802620003D00094B54
:1021200011009C461040C0008540A14361440B68EB
:102130000132AB43350085402B430B60202AECD1A4
:10214000F0BDC04600E400E0F8B504000C20170024
:102150001D000E0000F0D0F81C494143380000F08B
:10216000CBF8069A2B04120313432268002A1CDBC7
:10217000174A8021944226D04901164A164D116013
:10218000164A11600F00AA689743FBD1C021221D97
:102190008901114321222660A0600A602268002A7A
:1021A000FCDAE36008230B60F8BD3F2221680A4097
:1021B0009642DDD1A2681205120D9042D8D1E26894
:1021C000002BD5D1F0E78901D7E7C04640420F0088
:1021D00000C0024000E0004000C0004000F00040AD
:1021E00080239B001843014BD86270470080054054
:1021F000AA23064A1B0113602F230549D360054B10
:1022000019605368002BFCDA7047C046004002405A
:1022100000B0FA000060024010B5002800D110BDE7
:102220000B4B1C68A2689368013B9360002B04DB96
:102230001368591C11601870F1E791698B4201DB3A
:102240000A28F5D10100200003F042FCE7E7C04670
:10225000C003002010B5094A84B01468002C09D0CE
:10226000012200910300524203A90548A047012022
:1022700004B010BD00F090FB0020F9E7AC15002081
:102280001922001001480421014B18476003002067
:10229000B5220010142310B50100188804331B88E0
:1022A000984710BD162310B50100188802331B880B
:1022B000984710BDF8B54746CE4680B50F1E19D0D9
:1022C00014239946043304000025012698464B4602
:1022D0001888434621681B88984701C4431E9841CB
:1022E000013540420640AF42F1D130000CBC90466F
:1022F0009946F8BD0126F8E7114A936F9B0813D25F
:1023000010665166002905D0FFE7FFE7FFE7516F30
:10231000106F704704B5002801D00020C04304F0BE
:10232000C3F9002104BDC046F0B5146E556E576F59
:10233000166FFFF7E5FF1466556657671667F0BD21
:10234000000000D094464E4A926F9208624601D235
:1023500030E0C046F0B54A4EB56F6D08FCD3346E20
:10236000756E776F366F00F025F89446444A146610
:102370005566576716676246F0BDC0469446404AA8
:10238000926F9208624601D258E0C046F0B53C4ECA
:10239000B56F6D08FCD3346E756E776F366F00F0D5
:1023A0004DF89446364A1466556657671667624676
:1023B000F0BDC046002B24DB11D000293EDA00B569
:1023C000C943404200D1013100F038F8C9434042CE
:1023D00000D10131DB43524200D1013300BD002A5C
:1023E000EBD1002801D1002905D00020C90FC90771
:1023F00001D1C043410800B504F04EF9002200238A
:1024000000BD00B500290ADBDB43524200D1013395
:1024100000F014F8C943404200D1013100BDC94366
:10242000404200D10131DB43524200D1013300F080
:1024300005F8DB43524200D1013300BD002923D10E
:10244000002B18D1002A0CD0BC460D4F38667A6696
:1024500000210023FFE7FFE7FFE77A6F386F674649
:102460007047002801D00748010000B504F014F9B6
:102470000022002300BD02000B0000200021704755
:10248000000000D0FFFFFFFF002B00D0BDE0130CC9
:1024900026D1002AE7D080B4104F39667A66FFE76C
:1024A000FFE730B4040C7B6F396F1B0423433B669A
:1024B000FFE7FFE7FFE7C04684B27B6F3D6F1B0479
:1024C00023433B66FFE7FFE7C04600232C042D0CA7
:1024D0007A6F386F00196941B0BC7047000000D0B6
:1024E000F0B594460025140E01D112020835140FE0
:1024F00001D112010435940F01D192000235D40F9D
:1025000001D152000135D40B0134254F7C66254C96
:102510003C660E0C93B2FFE7FFE7FFE73C6F6643B4
:10252000360C7703BE467343DF0B5B04C01AB94118
:10253000130C7343DB18C91ACE086643360CB64435
:1025400093B273431F0F1B01C01AB941130C73439D
:102550001F0B1B05C01AB941860D8F023E4366430F
:10256000360C092D24DB520A7243801A7703460A7F
:102570006643360C16235B1BDE40DF40BF19644602
:102580006643821B7046043506330100D940A840DB
:10259000C01900D30131A24206D20023F0BD0000D1
:1025A000000000D0FFFFFFFF121B0130F3D3F1E763
:1025B00009277F1BFE406446A2B27243801A00D2F4
:1025C0000139220C7243130C1204821A99410B0038
:1025D0007046043513370100F940A840801900D334
:1025E0000131002B02D1A2420AD2F0BD013000D34A
:1025F0000131121BFAD2013BF8D1A24200D2F0BD48
:10260000013000D30131121BF7E7F0B51C0C00D0EC
:1026100080E00CB400251C0A04D11B02160E3343C3
:10262000120208351C0B04D11B01160F3343120193
:1026300004359C0B04D19B00960F33439200023566
:10264000DC0B02D192185B4101351C0097186441E4
:102650000134464F7C66464C3C660E0CFFE7FFE7B4
:10266000FFE7C0463C6F6643360C7703BE4697B221
:102670007743C01B00D20139C01B00D201399FB281
:102680007743C91BC91B170C77437E04FF0B801BC4
:10269000B941CE086643360C0C2D33DBB644120B21
:1026A0001F053A431B0B97B27743C01B00D2013979
:1026B0009FB27743C91B170C77433E043F0C801B26
:1026C000B941860D8F023E43664329277F1BFE409A
:1026D0000C3D7746AF40BF1930BCA2B2ABB27243DB
:1026E0007343801A9941220C7243130C1204801A0E
:1026F000994102000B000137001BA941F9D2781E55
:102700000021F0BD0C277F1BFE4077467F0BAF40BA
:10271000FF19E0E700245D1C07D0144F7D66396681
:10272000FFE7FFE7FFE7FFE73C6F95B29EB2654327
:102730006643401BB141150C1E0C654366433604CD
:102740002F0C3E432D04401BB141994204D202009C
:102750000B0020000021F0BD01D19042F7D3801A78
:10276000994101349942F2D3F6E70000000000D00D
:10277000FFFFFFFF132370B51C78012C10D00BDD79
:102780000C48FFF78FFD0C4D01008022280000F05F
:102790009FF8022C01D070BD074D084AAA64FAE7E1
:1027A000054D064A29002B00803104C38B42FCD121
:1027B000AA64F0E753440000F4150020C12700107C
:1027C00007B5604601880A0A0230DF2AFAD1C9B289
:1027D000820804D3028840880004104300E00068A7
:1027E000014A5050039007BDF41500205143434364
:1027F000C9188C46110C83B24B4310B4040C6143CE
:1028000092B280B2504362431C041B0C001910BCEE
:1028100059411304120CC018514161447047000023
:10282000132310B51C781348FFF73CFD012C0BD087
:1028300004DD01008022104800F04AF80F48FFF73D
:1028400029FD0F4B186010BD0B4C010054222000D5
:1028500000F03EF80B4B6365A365E3652366636692
:10286000A366E36623676367A367E3672362E361A5
:10287000E4E7C04653460000F41600204C33000045
:10288000F41700208928001007B5604601880A0A5D
:102890000230DF2AFAD1C9B2820804D30288408804
:1028A0000004104300E00068014A5050039007BD47
:1028B000F416002001480421014B18477003002042
:1028C000B5220010014B1B68184700007003002060
:1028D000014B5B681847000070030020F8B54746BD
:1028E000CE4680B5437C80460E001700002B48D0B2
:1028F000002A2EDD274B012500240020994604E004
:102900002B00013401359F4219DD002C3ED0631E9F
:10291000F35C0D3B59425941CBB2325D0A2AEFD1EB
:10292000002BEDD1844226DC434648461B68022139
:102930009847013428002B0001359F42E5DCB8425E
:102940000BDBF619013E33780D3B594259414346A2
:1029500019740CBC90469946F8BD4346391A301894
:10296000F6191B68013E984733780D3B594259418F
:1029700043461974EDE74346211A1B6830189847FF
:10298000D2E70368110030009847E2E743461B7C1A
:10299000C3E7C046A8690010F0B5DE464E4657466C
:1029A0004546E0B583B0070003F060F8D02301AEE0
:1029B0001B068046310035481C6803F07DFE8146C9
:1029C000002808D1019B64B29C4204D02F4803F038
:1029D00083FE012399464346C346013351D02C4B15
:1029E0001C689A46002C40D02A4D02E0E468002C76
:1029F00020D02368002BF9D02B68002B01D0A342F4
:102A0000F4D15A4639002000FFF768FF0A233370DB
:102A1000637C002B30D0237C002B21D102211E4867
:102A20002368984733780D3B594259412174E46833
:102A3000002CDED14B46002B1AD153461C68002CCB
:102A400006D06368002B00D09847E468002CF8D1CA
:102A5000404603B03CBC90469946A246AB46F0BD0A
:102A60000121300023689847DCE74B46002BEFD06C
:102A7000064803F009FEE0E701213000236898478B
:102A8000B4E7380002F0F2FF8346A8E7000C00200C
:102A90009C110020A0110020A8690010F0B5464646
:102AA000DE465746C0B5904682B00E00002830D1B1
:102AB000194B1A4D1A685B68194F9A46194B0192C7
:102AC0009B465B461C68002C05D115E0A34205D04F
:102AD000E468002C10D02B68002BF7D1A368002BE2
:102AE000F6D04146300098470028F1DD02B01CBC0A
:102AF00090469A46A346F0BD01200021FEF778FBE0
:102B00007B6A9A45DDD8BA6A01998A4201D29A4510
:102B1000D7D001204042E9E7F8680010A01100205A
:102B2000004005409C110020F0B54646D6464F4671
:102B3000C0B5884682B01600012840D1D0231B06BC
:102B40001C68204B01A918009A4603F0B5FD071E2A
:102B500007D1019B64B29C4203D0504603F0BCFDF8
:102B60000137B146731C25D0174B1C68002C14D0BC
:102B7000164D02E0E468002C0FD02368002BF9D03A
:102B80002B68002B01D0A342F4D120004A464146D5
:102B9000FFF7A4FEE468002CEFD1002F06D130002F
:102BA00002B01CBC90469946A246F0BD504603F0C8
:102BB0006BFDF4E7404602F059FF8146D4E7012659
:102BC0007642ECE7000C00209C110020A0110020B0
:102BD0000D4B1A68002A12D0824203D109E09842B4
:102BE00007D01A00D368002BF9D1002900D0D0609B
:102BF00070470029FCD1C368D360C160F8E70029A1
:102C0000F6D01860F4E7C0469C110020F0B500290A
:102C100015DD0E4B0D271A680D4B4118D3185C4279
:102C200063410C4C5B001E5F20240578B54207D041
:102C300093691C42FCD1013015608842F5D1F0BD8A
:102C400093691C42FCD11760F2E7C046E4150020EE
:102C50000080FCBFF015002030B5002914DD0C4BBE
:102C60001A689369DB060FD4050010240020013098
:102C700093691C42FCD113682B70814203D0936985
:102C800001351C42F3D030BD03204042FBE7C04673
:102C9000E415002070B51C000A4B15001860FDF704
:102CA00031FE002D03DB02212800FDF713FD002C6F
:102CB00003DB02212000FDF70DFD01210248FFF793
:102CC00087FF70BDE41500208003002010B5114C73
:102CD000114B22689A4210D1104B62689A420CD173
:102CE0000F4BA2689A4208D100230E482360FFF7D9
:102CF000D1FA0021030000209847074B0A482360BF
:102D0000064B00216360064BA360FEF771FA0023B7
:102D1000236010BD200C0020DE8116F0299B72BDBF
:102D20007ABE59D355420000400D030010B519205A
:102D3000FDF730FD8022D023E12192041B065A6268
:102D40000448054B0022186049020123FFF7A2FF47
:102D500010BDC04600400340E01500208022D02373
:102D600092041B06002801D19A6170475A61FCE762
:102D7000F0B54546DE4657464E4698238024E0B5DA
:102D8000634A6402D35885B0984623422CD001226E
:102D90002321604B00205A54DA705F4901F0D2F9C8
:102DA00080225E4B92021A655D4B03934346DB061D
:102DB00020D4802342465B011A4247D180234246F9
:102DC000DB011A4200D094E0802342461B021A42E3
:102DD00000D083E0444500D095E005B03CBC90466F
:102DE0009946A246AB46F0BD102303934346002408
:102DF000DB06DED5464B9F6D002F21D0474B0026CA
:102E00009B4601239946434B01259A4603E06D00FA
:102E10000136202E14D02F42F9D05B469D654B46DB
:102E200074086400B343E41864015444200000F0C3
:102E3000DBFA002846D1AF4301366D00002FE8D100
:102E4000802342465B01039C1A42B7D000268022B1
:102E5000304D2F4FD20000213E6028001C43FFF769
:102E600031FD80202F4B304A40211A6001238446D7
:102E70002E4A6B70EB70A983AA6016602C4A5E38EC
:102E8000EA60914662462A5401382E5402302B548F
:102E90003D33EE54274BA987AB626E601E604B46F4
:102EA0000122EB626E620021002001F021F98022F4
:102EB0001A4B12031A65FB6CDB0300D47EE702F0A9
:102EC000E3FA7BE74B46A28AA17800200093002317
:102ED00001F066F9200000F0A5F9ACE70122052118
:102EE00000201C4301F070F880220C4B12011A657F
:102EF00070E70122042100201C4301F065F8102234
:102F0000064B1A6560E741460B486140FEF7FCFD41
:102F100000001150AC110020000010500030115082
:102F200010000100B01500208001105084001050E6
:102F30000001105080001050E869001010B5012108
:102F40000520FEF769FF10BD0123232210B50448B8
:102F500000218354C3700022203000F097F910BD87
:102F6000AC1100208022024B5202DA647047C04646
:102F700000201150F0B5C64600B5060000F02CF94F
:102F80000C231E4D1E49AB670520FEF75FFF802214
:102F900080271C4CD20000212000FFF793FC1A4B25
:102FA0001A4A40201A6000230122BC461849627068
:102FB000E270A083A1600B601649A087E16088469B
:102FC00061465E3F0238E1552354013F1248E35504
:102FD0000237E2556360A062036063624346E362C6
:102FE00080239B052A64EB6490230C4A3000EA504E
:102FF000FFF7B8FF04BC9046F0BDC046000011507A
:10300000712D0010AC110020B0150020800110506F
:1030100084001050000110508000105010D00100AA
:103020000B785B0602D14B78052B05D001222321BA
:10303000034BDA705A5470478A78024B1A60F5E7EE
:10304000AC11002000001150F0B54746CE460723D2
:1030500080B548790A79034083B01B028F78134307
:10306000CA7869469207920FCA7194467F22CD7939
:1030700079B288463A40CE0F54002D48A119490133
:1030800041188F704746FF43FF0F4F70574257411B
:10309000CF7067468B838F77414600292DDB254F04
:1030A000D100BC4697016144C719B96000270F6081
:1030B000002A2DD02049D2008C466244A119490132
:1030C00041184A601D493F330B40022D2CD01C4F44
:1030D000A41939686401CB183B601A4B0019C16010
:1030E000594080231B060B43AD061D43156001208C
:1030F00003B00CBC90469946F0BD134FD100BC46BE
:1031000097016144C719B96200270F60002A06D1F0
:1031100000237601801943600C4BC360E7E709493F
:10312000D2008C466244C9E75B009BB2CFE7C04641
:10313000AC1100208400105004001050C0FF0000AB
:10314000B0150020000010508000105000011050F9
:103150007F2070B5150008404000C909044C401894
:103160004001201829001A0000F090F8012070BDDD
:10317000AC1100207F2010B5084049B2002804D1CE
:10318000CB43084ADB0F013393668022C90F40000E
:1031900040180549400108181201044900F04AF896
:1031A00010BDC04600201150AC110020FFF7FFFFFA
:1031B0007F2310B50B4009D0C9095B00CB18044828
:1031C0005B01C0180022034900F034F810BDC0466E
:1031D000AC110020FFD7FFFF80220D4B520410B529
:1031E0001A600C4B0C491A6010008B689843FBD195
:1031F0000A4C9C2200212000FFF764FB8022002162
:1032000052010748FFF75EFB0923636710BDC04604
:1032100000E0004000F0004000C0004000001150FD
:10322000000010500023037443744382838283613F
:103230007047C04610B58368002901D01C68214042
:10324000002A11D08024E400114322420CD01A68D5
:1032500022420BD10A4A0A401A60FFE7FFE7FFE764
:10326000FFE7FFE7FFE78368196010BD7F228178E1
:103270000448CB091140044A9B009A58FEF744FCCD
:10328000FFFBFFFFFC69001094030020F8B5CE4659
:10329000474680B5437C0400002B01D00023037413
:1032A0000023A382013363746368A1611B6899469C
:1032B000A38B1E1C934200D9161CE37880251800AE
:1032C000471EB841B6B2ED00400335430543012027
:1032D0004340921BE370637892B26282002B52D01B
:1032E000002A1FD1A023DB011D43394B1B6C4A462A
:1032F0008027384BBF0513401F436368A2681F60D7
:1033000013685B055AD4344B2B401360FFE7FFE78B
:10331000FFE7FFE7FFE7FFE7A3681D600CBC9046EF
:103320009946F8BD80235B011D43294B1B6C9B070D
:1033300002D4A3787F2BDAD9A38B191C934200D92E
:10334000111C80268BB2F600D21A1E439846E378F1
:1033500092B21900481E814149030E4301214B409E
:10336000E37063786282002B1AD0002A02D1802396
:10337000DB011E434A46A027184B36041340FF05C5
:1033800035431F43B9E73200E068FFF7A1FAA369AC
:10339000628A9C46802366441B02A6611D439FE708
:1033A000E06842464030A169FFF792FAA369628A59
:1033B0004344A36180231B021E43D6E77F22A178EA
:1033C0000748CB091140074A9B009A58FEF79CFB1F
:1033D00000001150FFFFFFAFFFFBFFFFFFFFFFDF0C
:1033E000FC69001094030020F0B5C64600B5467C89
:1033F0000400002E00D1D4E083681A681D68437869
:10340000AD05AD0D002B00D063E0838AEB189BB2B5
:103410008382A18B8D4207D20023638263681B687D
:10342000300004BC9046F0BD62681268520010D5AE
:103430008D420ED1A26817686278BF01BF0D002AC5
:1034400000D092E0FB18A382AF4265D200236382D2
:10345000E6E7638A002BE3D062680F1C1668994286
:103460004AD8E27880251100481E8141BFB2ED00A4
:1034700049033D430D4301214A40DB1BE270627862
:103480009BB26382002A39D0002B2FD080225201B8
:1034900015434C4A126C920741D4A2787F2A3ED839
:1034A000494B33408026B6051E436368A2681E6000
:1034B00013685B0500D57BE0444B2B401360FFE7AE
:1034C000FFE7FFE7FFE7FFE7FFE7A36800261D60D0
:1034D000A6E72A00C1688069FFF7FAF9A38AA26902
:1034E000EB189BB25219A382A26192E7A023DB01E1
:1034F0001D43344B1B6CD3E71F1CB2E73A00A16994
:10350000E068FFF7E5F9A3699C46802367441B0246
:103510001D43A761638AB7E7638A29009AE7A28BF4
:10352000111C9A4200D9191C80278AB2FF009B1AED
:1035300017439046E2789BB21100481E814149032F
:103540000F4301214A40E27062786382002A1AD058
:10355000002B02D18023DB011F431D4B3F0433406E
:10356000A026F6053D431E439FE7E1683A0040313F
:10357000A069FFF7ADF9A38AA58BFB18A382A36905
:10358000DB19A36160E7E06842464030A169FFF7BC
:103590009FF9A3694344A36180231B021F43638AED
:1035A000D6E77F2381780B4A19400B48FEF7ACFA27
:1035B0007F22A1780948CB091140064A9B009A58FE
:1035C000FEF7A2FA00001150FFFFFFAFFFFBFFFF65
:1035D000FFFFFFDF940300201C6A0010FC6900104D
:1035E000024B5878431E9841C0B27047780F0020B4
:1035F000024B18784007C00F7047C046780F002074
:10360000014B18787047C046E9150020F8B54746C9
:10361000CE46314E80B533788046002B04D0012051
:103620000CBC90469946F8BD532200212B48FFF769
:1036300049F92B4C2000FDF7E1FE2A4B1C602A4C77
:1036400020001C30FDF7F8FE200001F01DFE274B86
:103650001C60274B002B36D0264D0024280000E0AC
:1036600000BF254F254A38602B7891460DE03A6817
:10367000630094461B19DB0063441B6898472B7852
:103680000134E4B25A1CA24214DB9C42EFD3E31A89
:10369000DBB2012B02D900231B68FFDE5A00D318CE
:1036A000DB004B441B6898472B780134E4B25A1C6A
:1036B000A242EADA4046FFF75DFC4046FFF73EFCD7
:1036C00001233370ABE701F07BF801F0D7FA094B27
:1036D0001B78002BDFD1EDE7E9150020780F0020E3
:1036E000300F0020CC0F00209C030020D00F0020C2
:1036F00000000000E8150020800D0020DC6A0010AA
:10370000F0B5DE4657464E464546E0B58BB001F073
:1037100073FB002800D19EE1D24E07AC3568EA6900
:10372000EFF3108172B61368002BFCD0BFF35F8FEC
:1037300029622800210001F021FCEA692B6ABFF30D
:103740005F8F0021116083F31088002800D182E18F
:103750006378082BE2D8C44A9B00D3589F4663681D
:10376000002BDBD0A0689847D8E77F222179BF4B98
:103770000A405500C8095B191B1818000127303092
:10378000C578BD43C570C5780337BD43C570002AF1
:1037900000D1A6E1B64ADB7C002A00D17CE1B54A23
:1037A0001278934200D375E15A00D218B24BD2007E
:1037B0001B689B18002B00D14DE11D6962792078B0
:1037C000A368A847AAE7A94B01221D0000931B7814
:1037D000012113432B7033230420EA5C27788A43AA
:1037E000EA54EA5C8243EA540133EA5C8A43EA54CD
:1037F000EA5C8243EA54002000F074FE23795A0602
:10380000920F032A00D163E160221A40402A00D1BE
:103810006DE1DB06DB0E012B00D176E1002B00D140
:1038200089E1022B00D053E17F232089C1B20B40F4
:103830000F2B00D94CE140B2C00F80465D00009BC9
:103840008B485B194344DB7C002800D1A4E1894804
:103850000078834200D39DE15800C3188648DB00FE
:10386000006881469944002A00D19BE14B46002B19
:1038700000D12DE14B46D86800F034FE4B4608AA33
:10388000DB680021380098473BE1784B1B78DB0769
:1038900000D443E7794B002B00D13FE7FCF754FEFF
:1038A0003CE7724B1A78D20700D437E7744A002AF3
:1038B00000D133E718780007C00FFCF73DFE2DE775
:1038C0006C4F6B4B3A780025002B00D1DEE06A4B41
:1038D00098466C4B994612E0414609686B008C464D
:1038E0005B19DB0063445B69002B02D020789847AA
:1038F0003A780135EDB2531CAB4200DA0EE7AA422A
:10390000EAD8A91AC9B201297ED900235B69FFDE72
:10391000564D23785322002128009846FEF7D2FF07
:10392000E81C1022FF21FEF7CDFF28002022FF21F6
:103930001330FEF7C7FF00F0CBFD4E4F4C4A3B78EB
:103940000025002A6AD04C4A91464E4A92463A00D7
:103950004746904610E04A4612686B0094465B1951
:10396000DB0063445B683800984743461B780135A9
:10397000EDB25A1CAA425ADBAB42ECD8EB1ADBB2CE
:10398000012B46D900235B68FFDE384D2378532294
:103990000021280099460095FEF794FFE81C1022AC
:1039A000FF21FEF78FFF28002022FF211330FEF7B2
:1039B00089FF00F08DFD2F4F2D4A3B780025002A0E
:1039C0003CD02D4AB84692462E4A4F46934610E0C8
:1039D000524612686B0094465B19DB0063445B68D7
:1039E0003800984743461B780135EDB25A1CAA426D
:1039F0002DDBAB42ECD8EB1ADBB2012BC2D85A005C
:103A0000D318DB005B44EAE74B005B18DB004B4458
:103A100069E75A00D318DB005344A3E7404600F09F
:103A200007FF404601F058F93B78002BAAD1164B0E
:103A3000002B00D172E6FCF779FD6FE6484600F0F6
:103A4000F7FE484601F048F93B78002B9AD12379DC
:103A5000009A937062E60BB03CBC90469946A24631
:103A6000AB46F0BDD00F0020506A0010780F002048
:103A700000000000E8150020800D0020490500101E
:103A800039050010DC6A00102D050010002A00D056
:103A90003BE743E69B1ADBB2012BDCD85A00D21875
:103AA000B74BD2009B181D6962792078A368A8479C
:103AB00034E6FCF7C9FD021E0AD0C37881781B02E8
:103AC0000B43380008A900F0ADFC002800D025E623
:103AD00020780021FFF74EFB20788021FFF74AFB7A
:103AE0001CE662792078A36800F010FD16E6A54870
:103AF0000028EDD000F0F6FC08AA00213800FCF701
:103B00002BFD002800D009E6E2E7237A0F2BDFD84F
:103B1000009AD5189C4AEB78002A1AD09B4A127852
:103B2000934214D29A4A5D00EB181568DB00ED1839
:103B3000002D15D1CCE7202A00D1ECE0002AC7D116
:103B40006379092BC4D8934A9B00D3589F469B1A8C
:103B5000DBB2012BBCD85D00EB18894DDB00ED1802
:103B6000E86800F0BFFCEB6808AA0021380098471D
:103B7000002800D0D2E5602322791340A8D16279D1
:103B80000A2A00D19AE10B2AA2D108A9380000F034
:103B900031FCC3E51B1ADBB2012B3AD9002A97D1BD
:103BA0000023994663799A46012B04D0002B00D15B
:103BB000D1E0032B8CD1E388002B12D1534638007F
:103BC000012B00D1CCE1FFF7D5FA0221009B5B1954
:103BD00043443033DA780A430121DA70DA780A4351
:103BE000DA704B46002B00D198E54B46D86800F0C0
:103BF00079FC4B4608AADB68002138009847002072
:103C000000F070FC3423009AD35CDB0700D585E517
:103C1000BBE75800C3185A48DB0081469944002A84
:103C200000D027E6BEE7A37903931A00009B5B78D8
:103C3000002B02D1002A00D0B2E06A46009B127B22
:103C400008A938005A7000F0D5FB67E5009B06AA6A
:103C50005B780232137008A90123380000F0E2FB00
:103C60005CE5009B06AA1B78023299061B07DB0F56
:103C7000C90F5B000B43138008A90223380000F032
:103C8000D1FB4BE5E388D8B21B0A0F2B00D91FE705
:103C9000414A9B00D3589F4608A800F029FCA1790F
:103CA0003800FFF751F9022200990B7813430B708B
:103CB00034E5E388012B00D00AE7082200990B784D
:103CC00013430B7061E7E388012B00D000E7082263
:103CD00000990B7893430B7057E7304B002B00D1C2
:103CE000F6E600E000BF021E00D1F1E6137808A955
:103CF000380000F097FB04E72189FCF7ADFC021EB9
:103D0000F4D1E5E6FCF79CFC1223020008A9380078
:103D100000F088FBD9E6237A0F2B00D9D8E6009A69
:103D2000D518194AEB78002A21D0184A1278934204
:103D30001BD2174A5D00EB181568DB00ED18002D4B
:103D400000D1C5E6E86800F0CDFBEB6808AA0021C9
:103D500038009847D5E6009B06AA5B1943443033E8
:103D6000DB7802329B07DB0F85E79B1ADBB2012B66
:103D700000D9ADE65D00EB18014DDB00ED18E1E781
:103D8000DC6A00105905001000000000E815002052
:103D9000800D0020746A00109C6A00100000000072
:103DA000501EC0B2FCF750FC002800D190E64378CA
:103DB000022B00D08CE60122C57910216B0913403B
:103DC0001B019846009BAD091B782A408B43414656
:103DD0000B43202152018B431343009A1370092394
:103DE0009946C37882781B021343C3188144049315
:103DF000994500D3A7E06E4BBA469B464F46002339
:103E00007A7802930B2A00D1A4E0042A00D05FE65E
:103E1000009A049B9446DB1B9BB29946BB78634493
:103E2000DB78FF2B00D053E65B46624A1B78002A02
:103E30002ED0002201923A0000255746924617E004
:103E40005D4A6B0012685B199446DB00059263447F
:103E50009B684A46514638009847002837D15B4650
:103E60001B780135EDB25A1C0195AA4200DA2FE603
:103E7000AB42E5D8EB1ADBB2012B02D900239B68D9
:103E8000FFDE5A00D3184D4ADB0094466344DFE757
:103E90004A463900504600F0E1FC8046002800D038
:103EA00081E04A463900504600F024FF8046002851
:103EB00075D15B461B78002BE0D109E606AA0232D9
:103EC000137008A90133380000F0ACFA26E4534619
:103ED0008046BA461F004346082B00D8F8E5C14586
:103EE00000D2F5E5BB78009AD218D570029A002A64
:103EF00015D091781000994200D0E9E512797B79CC
:103F00009A4200D0E4E5C278012A08D9023A009B1F
:103F10000431D2B2581801322900FEF7D3FC0098C0
:103F20002B0042463900133000F0A4FF5B461B789B
:103F3000019A01334744934200DAC9E5049BBB422E
:103F400000D95CE757461E4B002B00D175E6FCF705
:103F5000E5FA72E63B780297FB185A781F0054E79F
:103F6000FFF726F90221009B5B1943443033DA78CE
:103F70008A435146DA70DA788A43DA7031E6114BB7
:103F8000002B00D1A4E5FCF763FBC37881781B020A
:103F900002000B43380008A900F044FAB1E5012300
:103FA0000125019397E700230025019393E7C0467D
:103FB000E815002000000000800D0020DC6A0010E1
:103FC0001D0500105106001070B586B005000C00EC
:103FD0000C2200216846FEF775FC6B461D705C7074
:103FE000032C53D01CD9042C08D0052C35D13E4BC2
:103FF0001A78D20700D568E006B070BD3A4B1A783F
:10400000D207F9D504211A780A431A70374B1C6875
:10401000E269EFF3108172B61368002B26D1FBE73B
:10402000022C1AD1304B1A78D207E5D501211A7823
:104030008A431A701A780331A2431A7000225A7008
:104040001A788A431A70294B1C68E269EFF31081D1
:1040500072B61368002B09D1FBE7244B1C68E26998
:10406000EFF3108172B61368002BFCD0BFF35F8FA3
:1040700021626946200001F04DF8E269236ABFF32E
:104080005F8F0021116083F31088B5E7164B1A7813
:104090005207B1D504211A7803AE8A431A70002161
:1040A0000C223000FEF70EFC052373700F4B3570A9
:1040B0001C68E269EFF3108172B61368002BFCD024
:1040C000BFF35F8F21623100D4E704211A788A435D
:1040D0001A70064B1C68E269EFF3108172B6136820
:1040E000002BC3D1FBE7C046780F0020D00F002083
:1040F00070B584B001AC06000D000C220021200038
:10410000FEF7E0FB012363700D4B25711D682670DF
:10411000EA69EFF3108372B611680029FCD0BFF38F
:104120005F8F2B622100280000F0F4FFEA692B6A00
:10413000BFF35F8F0021116083F3108804B070BD5E
:10414000D00F002070B584B001AD06000C000C2229
:1041500000212800FEF7B6FB06232100082202A852
:104160006B702E70FEF7B4FB0C4B1C68E269EFF32A
:10417000108372B611680029FCD0BFF35F8F2362F1
:104180002900200000F0C6FFE269236ABFF35F8FB9
:104190000021116083F3108804B070BDD00F00209F
:1041A000F0B5C646804600B584B001AC0F001600DD
:1041B00000210C2220001D00FEF784FB43462370E3
:1041C000072363700F4B65711D682771A660EA694C
:1041D000EFF3108372B611680029FCD0BFF35F8F34
:1041E0002B622100280000F095FFEA692B6ABFF3DB
:1041F0005F8F0021116083F3108804B004BC9046E7
:10420000F0BDC046D00F0020F8B55746DE464E46FA
:104210004546E0B517000A9A83460C009246002FE7
:1042200045D04A78052A15D1CE78B607B60FB342E5
:1042300010D17F238A7813400F2B0BD81D4B0025FC
:1042400099467F2398464B462000997800F0D8FD88
:10425000002806D100203CBC90469946A246AB46B9
:10426000F8BD21005846FEF7EFFE0028F2D0A378F3
:104270005AB2002A14DB5246137023780135E41831
:10428000BD4214DA6378052BE4D1E3789B079B0FDA
:10429000B342DFD14246A37813400F2BD3D9D9E7DD
:1042A0000B9A013513702378E418BD42EADB012034
:1042B000D1E7C046780F00207F2370B58A780500CB
:1042C0000C0013400F2B01D9002070BD054B2000BE
:1042D000997800F095FD0028F6D021002800FEF71F
:1042E000B3FEF2E7780F00207F2370B50B40134C2C
:1042F0005B00C909E41864183034E078C007C00FC7
:104300001AD1E3785B0700D570BD01210C4E4942FC
:10431000306802F0D9F9E3780025DB0707D4E378A9
:104320005B0704D404220125E3781343E37030686B
:1043300002F0AAF92800E7E70020E5E7780F00205F
:10434000CC0F002070B50D0001210F4C49422068B0
:1043500002F0BAF97F2129404B000C49ED09C91838
:1043600049193031CB780025DB0707D4CB785B07C0
:1043700004D50422CB7801359343CB70206802F03A
:1043800083F9280070BDC046CC0F0020780F0020B4
:1043900070B57F240C4065000E4C06006419C809F6
:1043A00024183034E5780020ED0700D570BD0125D4
:1043B000E0782843E0703000FEF7CAFE0028F5D10F
:1043C0000122E3789343E370E37803329343E3708D
:1043D000ECE7C046780F00207F23CA090B40044950
:1043E0005B00C91889183031C878C007C00F704702
:1043F000780F002070B50A4C0600082220000D003E
:10440000FEF766FA00230021A360E381A3816956C9
:104410003000C943C90FC9010022FFF7B9FF70BDC1
:10442000DC0E0020F0B5C6469046274C082200B5A9
:10443000060020000D001F00FEF74AFA4346A36065
:104440000023E381EB79AA791B0213431A1CBB42B8
:1044500000D93A1C97B2A281002B12D0002F1FD096
:104460004346002B2ED03B1C402F17D89FB22378F9
:104470007F2B1ED80021154A3B003000FFF788FF34
:1044800009E0002169560023C943C90FC901002270
:104490003000FFF77DFF04BC9046F0BD4023E5E708
:1044A00023787F2B02D800210022E5E7802100221B
:1044B000E2E7064C3A0041462000FEF709FA802167
:1044C0002200D9E70020E6E7DC0E0020380F0020AC
:1044D00010B5142200210248FEF7F4F910BDC046C1
:1044E000DC0E0020014B18617047C046DC0E002036
:1044F00010B5054C010008222000FEF7E9F9002361
:10450000A360E381A38110BDDC0E002070B53A4C9E
:104510001D0023780600DA09C9098A4212D000205A
:10452000002D0ED1354B002B03D021003000FEF7BB
:1045300077FD2369002B2ED02200022130009847FE
:10454000012070BD7F2B06D8A068002825D02A0046
:104550002B49FEF7BDF9A268E38951195B19E2887E
:104560009BB2E381A1609A4201D03F2D17D8236905
:10457000002B05D02200012130009847002824D0CC
:10458000002161560023C943C90FC9010022300030
:10459000FFF7FEFED5E70120D3E70020D1E7A2898F
:1045A000D31A1D1C9BB2402B00D940252378ADB2F5
:1045B0007F2B14D80021002D05D100222B003000C4
:1045C000FFF7E6FEBDE70E4AF8E700213000FEF7F0
:1045D000D1FD30008021FEF7CDFD0120B1E7002D97
:1045E00001D18021E9E7064C2A002000FEF770F98E
:1045F00080212200E2E7C046DC0E002021300010BE
:10460000380F002010B50400FEF7EAFF002801D1A2
:10461000002010BDFEF7ECFF0028F9D15930FF3023
:10462000444303480019037901201840F1E7C046CC
:10463000840D00200300AC204000584310B5034B0C
:104640001030181800F070FC10BDC046840D00201A
:10465000F0B5AC256D0045432C00C646174E10340E
:10466000341900B592B2200000F0D6FC07002000FB
:1046700000F074FC3F2803D8380004BC9046F0BD1D
:104680007319D97800209846FFF72EFE0028F3D042
:10469000200000F063FC3F2805D843460020D9786D
:1046A000FFF750FEE8E72A004346D832D978B2181F
:1046B00040230020FFF76CFEDEE7C046840D00209B
:1046C000F0B5AC256D0045432C00C6461E4E2C347B
:1046D000341900B592B2200000F060FD0700200000
:1046E00000F022FC3F2803D8380004BC9046F0BDFF
:1046F000FEF776FF0028F7D0FEF77AFF0028F3D107
:10470000200000F011FC0028EED0731999780020E9
:104710009846FFF7E9FD0028E6D01935FF357619F0
:1047200031004022200000F077FC434699780028B1
:1047300005D0030032000020FFF72AFED4E7002056
:10474000FFF700FED0E7C046840D0020F8B5050055
:10475000FEF746FF002801D10020F8BDFEF748FF14
:104760000028F9D1AC24640065432E00134F2C3689
:10477000BE19300000F0D8FB0028EDD07C19A178DC
:104780000020FFF7B1FD0028E6D01935FF357D196F
:1047900029003000402200F03FFCA178061E08D01E
:1047A00003002A000020FFF7F3FD0028D4D03000DA
:1047B000D3E70020FFF7C6FDCEE7C046840D0020FA
:1047C000AC2270B5184C82B0520000212000FEF7D8
:1047D00079F8FF236371154B0025E3800126082338
:1047E000210020002681237348310095073B402299
:1047F000103000F05DFB009621002000260088317B
:1048000001234022C8362C3000F052FB3000FCF768
:10481000F5FDA6622600D03665623000FCF7EEFD9D
:104820002664656402B070BD840D002000C2FFFFE5
:1048300010B5094C052200212000FEF743F82000A6
:104840002C34103000F020FD200000F01DFD01216F
:10485000200000F03FFD10BD840D0020F0B5C646DD
:1048600000B54B7982B00700022B05D00024200050
:1048700002B004BC9046F0BD8B79022BF6D12F4ECE
:10488000B378002BF2D18B78092433700D784D1951
:104890006B78242B0BD1082A02D80FE0A2420DD34B
:1048A0002B78ED18E4186B78A4B2242BF6D0052BE6
:1048B0001BD0042B02D16B790A2B24D03500103584
:1048C000280000F04BFB3F28D1D9F1780020FFF7FA
:1048D0000BFD0028CBD0280000F040FB3F2825D856
:1048E000F1780020FFF72EFDC1E729003800FFF71F
:1048F000E3FC0028BAD0AB7873702B78E418ED187D
:10490000A4B26B78D5E72B7829009846B31C0193A5
:10491000F31C00934144022302223800FFF774FC89
:104920000028A3D00E344444A4B2C7E73200F17883
:10493000D83240230020FFF72BFD98E7840D00209C
:10494000F8B560231400127800271340202B01D003
:104950003800F8BD2E4A6379267915781B02334357
:104960009D42F5D16378212B43D009D9222B24D045
:10497000232B14D1002945D0022912D00127E7E7C3
:10498000202B0CD1002936D00229F7D1214B002B46
:10499000F4D0911D002000E000BF0127D8E70027D8
:1049A000D6E71D4B002BE9D0E178A3780902194323
:1049B000002000E000BF0127CAE7002922D0022919
:1049C000DCD10125A178E47824020C43290014717C
:1049D0002C32A143100000F07DFC104B002BCDD0F9
:1049E000290062082A4021400020FBF719FE012718
:1049F000AEE70029C2D1063207232100FFF712FDDE
:104A00000127A5E72100FFF7F5FC0127A0E7C04635
:104A1000840D0020000000000000000021060010AE
:104A2000F0B546464F46D646C0B55D4D9846EB7844
:104A300082B081460E008B4200D176E0AB788B428B
:104A40002CD00024200002B01CBC90469946A246FF
:104A5000F0BD544B002B07D02800103000F076FA40
:104A6000002801D1FBF7EAFD2C001034200000F0F3
:104A700075FA3F280FD9E9780020FFF735FC0028A8
:104A800009D0200000F06AFA3F2800D97EE0E978DA
:104A90000020FFF757FCAB789E4244D1424B002BDD
:104AA00002D0002000E000BFFEF79AFD002817D1D9
:104AB00028002C3000F038FA002834D14346002B6F
:104AC00031D09B062FD1A9784846FFF70DFC041E74
:104AD00029D0A978002300224846FFF759FCB1E706
:104AE000FEF786FD0028E3D12C002C34200000F0D6
:104AF0001BFA0028DCD0A9780020FFF7F5FB00287E
:104B0000D6D02E001936FF3631004022200000F0AA
:104B100083FAA978002835D0030032000020FFF77F
:104B200037FC0028C4D001248CE743466A46D38072
:104B300010232C009A46D834AA44D288210050462B
:104B400000F02CFB194B002B83D06B79FF2B00D18D
:104B50007FE74246002A00D17BE74746D837EF1966
:104B600004E00134BC4200D173E76B7922789A42A9
:104B7000F7D1504600F0EAF90028F2D1697900E057
:104B800000BFEEE70020FFF7DDFB91E72A0040239E
:104B9000D832E9780020FFF7FBFBAB787CE7C04612
:104BA000840D00203D060010000000000000000001
:104BB0000300A6204000584310B5034B04301818DA
:104BC00000F0B2F910BDC046D40F0020F0B5A62405
:104BD000C64664004443114E251D751900B592B2B6
:104BE000280000F019FA37198046B9780020FFF73D
:104BF000F3FB002803D0404604BC9046F0BD2800DB
:104C000000F0ACF93F28F6D92200CC32B218B978BE
:104C100040230020FFF7BCFBEDE7C046D40F002087
:104C2000F0B5A624640044432500C646124E203544
:104C3000751900B592B2280000F0B0FA3719804615
:104C400079780020FFF7C8FB002803D0404604BC59
:104C50009046F0BD0D34FF34341940222100280065
:104C600000F0DAF90028F1D0030079782200002062
:104C7000FFF78EFBEAE7C046D40F0020A62270B5EE
:104C8000144C82B0520000212000FDF71BFE0025CD
:104C90002100201D3C3100950123402200F008F93D
:104CA0002600210020007C3101234022BC360095E3
:104CB000203000F0FDF83000FCF7A0FBE661260094
:104CC000C436A5613000FCF799FB6663A56302B0AA
:104CD00070BDC046D40F002010B5054C0023200045
:104CE00008C000F0D1FA2000203000F0CDFA10BD4D
:104CF000D40F0020F0B54B7983B007000E00FF2BD6
:104D000002D0002003B0F0BD0D79E800401B09304F
:104D100085B29542F5D80F4C6378002BF1D1A3787A
:104D2000002BEED1631C31780193A31C0093711802
:104D3000022302223800FFF767FA0028E1D02200A0
:104D4000B378CC322370A17840233800FFF720FBE2
:104D50002800D7E7D40F002070B5224CA0788842F5
:104D60001FD063788B4201D0002070BD1900002055
:104D7000FFF732FB002801D00120F6E725002000D4
:104D80000D35FF3520304022290000F045F900287C
:104D9000F2D0030061782A000020FFF7F9FA012021
:104DA000E3E721009AB2CC31201D00F0F7F90E4B59
:104DB000002B02D0002000E000BFA1780020FFF708
:104DC0000BFB0028D8D1201D00F0C8F83F28D3D90C
:104DD0002200A178CC3240230020FFF7D9FA01202D
:104DE000C3E7C046D40F00200000000010B500202B
:104DF000FEF70CFC10BDC04610B5FEF701FC10BD5F
:104E0000072310B54479027923401B021A43C37863
:104E10009B079B0F022B16D00DD80020012B09D128
:104E200002394B425941114B00209C46614491424A
:104E30004041C0B210BD022914D04023002093424B
:104E40004041C0B2F6E7022905D00020402393423A
:104E50004041C0B2EEE7064B9C466244504250418E
:104E6000C0B2E7E78023DB00E8E7C046FF030000AD
:104E700000FEFFFFF0B500247F27002A06D115E0D1
:104E80000D786419A4B24919A2420FD94D78052DA5
:104E9000F6D13D008E7835406D004519F609AB55C9
:104EA0000D786419A4B24919A242EFD8F0BDC046EA
:104EB000F0B5C64600B51E0006AB1B780400984648
:104EC00080230F0015001B0200209A4226D860693B
:104ED000002803D00121494201F0F6FBA069002817
:104EE00003D00121494201F0EFFB4346A5806D004C
:104EF000ADB223726B1EA381002360696D42E38112
:104F00002760E68065812382002801D001F0BCFB88
:104F1000A069002805D001F0B7FB012004BC904631
:104F2000F0BD0120FAE7C046C189028A89B292B277
:104F30008B1A9BB2914202D242899B1A9BB2828801
:104F4000101C9A4200D9181C80B27047C389008A8D
:104F5000181A43425841C0B27047C04610B5C489C0
:104F6000018AA4B289B2631A82889BB28C4202D2AF
:104F700040891B1A9BB2D01A80B210BD70B50400D4
:104F800080690D00002803D00121494201F09CFBFB
:104F9000E089218A80B289B2421A92B2884202D252
:104FA0006389D21A92B2A388934208D2C21A92B2EB
:104FB00090422CD26089121A92B222821A00002AE0
:104FC00002D11DE0C91A89B28B42FBD92368E2885D
:104FD0009C46514328006144FDF77AFC228A012552
:104FE00092B2531C9BB29A420DD962899B189BB214
:104FF000A0692382002801D001F046FB280070BD83
:105000000025238A9BB2A2899A42F1D2EDE7A089BA
:105010009042D2D2CEE7C046F8B54746CE4604000D
:10502000806980B50E001700002803D00121494295
:1050300001F04AFBE289218A92B289B2551AADB2D7
:105040008A4202D26389ED1AADB2A388AB420AD27A
:10505000D11A89B28A4252D26289891A89B21D0054
:105060002182218A89B2002D4DD03A1CAF4244D80A
:1050700095B28B4203D8C91A89B28B42FBD95B1A0D
:105080009FB2E3885943984623689C466144BD42D9
:1050900024D94046784383B21A0030009946FDF780
:1050A00017FC43463000EA1B5A43484492B2216839
:1050B000FDF70EFC228A92B253199BB29A4218D97C
:1050C00062899B189BB2A0692382002801D001F05D
:1050D000DBFA28000CBC90469946F8BD42463000E9
:1050E0006A43FDF7F5FB228A92B253199BB29A42AA
:1050F000E6D8A2899A42E6D2E2E72A1CB8E7A2895A
:105100008A42ACD2A8E7238AA2899BB29A42DAD219
:10511000D6E7C04670B5040040690E00002803D0F1
:105120000121494201F0D0FAE589238AADB29BB250
:10513000EA1A92B29D4202D26389D21A92B2A3882D
:10514000934226D028009D4203D3C01A80B28342E6
:10515000FBD92368E2889C46504331006044FDF748
:10516000B7FB6B1C9BB29D420AD9628960699B1890
:105170009BB2E38100280AD001F086FA012070BDBD
:10518000A2899A42F1D36069E3810028F4D1012019
:10519000F5E7207A0028D5D1F1E7C046F0B54F46B3
:1051A000D64646460500C0B514000F00002A05D1BA
:1051B00020001CBC90469946A246F0BD40690028DC
:1051C00003D00121494201F07FFAEE892B7A288A27
:1051D000B6B280B2002B11D1321AAB8892B286429D
:1051E00002D26989521A92B29A1A111C92B2A24240
:1051F00000D9211CEA888CB2904609E0EA88AB8885
:1052000090469C4204D3E41A544306003F191C0004
:1052100030009E4203D3C01A80B29842FBD21B1AC0
:105220009BB29946434658432B689C4660444C4584
:1052300015D8424639006243FDF74AFBA3199BB2D9
:105240009E4202D8AA899A4202D26A899B189BB2CE
:105250006869EB810028ABD001F016FAA8E74B464D
:10526000414659438BB21A0039009A46FDF730FB8C
:105270004B46E21A434639005A43514492B22868D9
:10528000FDF726FBDAE7C04610B5040040690028A8
:1052900003D00121494201F017FAA069002803D088
:1052A0000121494201F010FA0023E3812382A388FF
:1052B00060695B009BB25A1E5B42A2816381002839
:1052C00001D001F0E1F9A069002801D001F0DCF97A
:1052D000012010BD70B5040040690D00002803D006
:1052E0000121494201F0F0F9A069002803D0012111
:1052F000494201F0E9F960692572002801D001F006
:10530000C3F9A069002801D001F0BEF9012070BDE9
:1053100080210B4A4902136D0B42FCD00923042162
:105320005367084A7733D150074B00201A68074B60
:105330000021DA67064B1A68064B1A647047C046AC
:105340000000115000301150A41100200040014015
:10535000B415002000C0014070B5102084B0FBF7E8
:10536000D1F9082865D0344B344DDB6F344C2B60B9
:10537000344B01221B6C01210F202360FBF7CCF979
:1053800002210F20FBF7F4F908222F4B03211B68A1
:105390000F205A401F2313402C4A1360FBF7D6F905
:1053A000022204212A4BDA677E329950294B743A43
:1053B0005A671B6D1B079B0F012B01D0FCF7BCFB31
:1053C000FBF7F6FC0600FBF707FFFA22002392002A
:1053D00012184B4199420FD901225242D317012191
:1053E0000291002101911C4930000091FBF7E4FC7F
:1053F000002806DB04B070BD9942F0D19042EBD892
:10540000EDE7FA2000218000FBF7F2FE8021114A2F
:105410004902136D0B42FCD00923042153670F4A44
:105420007733D1502A68044BDA672268054B1A6437
:10543000E0E70B48FCF768FB00400140A4110020A6
:10544000B415002000C001407C4001407C50014068
:105450000020115000001150115300100030115065
:105460000C6B0010074B10B51B6D1B079B0F03D176
:10547000FA200021800010BDFFF76EFF0020002100
:10548000F9E7C0460000115010B584B0FBF790FC5E
:105490000400FBF7A1FEFA220023920012184B41F0
:1054A00099420FD901225242D317012102910021C2
:1054B00001910B4920000091FBF77EFC002806DBE0
:1054C00004B010BD9942F0D19042EBD8EDE7032231
:1054D00004490B6D9B081A42FBD0FFF73DFFEFE735
:1054E0006554001000001150F0B557464546DE46A1
:1054F0004E46E0B50D000B3583B00700162D00D8E1
:105500009FE007239D4300D5C4E0A94200D9C1E034
:1055100000F096FAF823FF339D4200D889E2680A2A
:1055200000D1BBE0042800D964E138239846A809DB
:1055300080443930C100C94E71180839CC68A14285
:1055400019D0032362689A431300521B0F2A00DD0F
:10555000AAE0002A00DB88E003239C4608E06246BC
:10556000636893435A1B0F2A00DD9DE0002A7CDA12
:10557000E468A142F3D1320034690832944200D188
:105580008BE10323616899438946491B0F2900DD9C
:1055900070E172613261002900DB87E0B04A4B465E
:1055A000914500D932E1DB08FF3A9910FF3A8A4071
:1055B000DB0071689B190A4399687260E360A1601F
:1055C0009C601300CC6001218210914099426FD8F9
:1055D0000B4205D103229043490004300B42FBD01B
:1055E00003239846C3009946B144CC46824663469D
:1055F000DC68A44507D152E1002A00DB61E1E468E0
:10560000A44500D14BE14246636893435A1B0F2ADD
:10561000F2DD01208046611905436560A068E568F8
:105620000836C560A8604046F160B160104348602C
:10563000CE608E603800E25000F004FA200008309E
:1056400021E0102926D8380000F0FAF91025182397
:105650000220824EF3181A005C68083A944200D186
:1056600029E1032362689A431300E268A168CA60D3
:1056700091600122E318596838000A435A6000F02B
:10568000E1F92000083003B03CBC90469946A246A0
:10569000AB46F0BD0C2300203B60F4E780213F23A4
:1056A00040208900984646E7404664E74B46E0E7DD
:1056B0000323B46862689A439046AA4203D3531BFB
:1056C0000F2B00DD88E023004344664A0193664BBC
:1056D00093469A4692681B68EB18013200D161E14B
:1056E000624A944663441B0B1B03009300993800E5
:1056F00000F0AAF903008146013362D0019B834286
:1057000000D9F9E053465B68009A9C4653466244D0
:105710005A60019B1100834200D14FE15B469B68B8
:10572000013300D166E14B46019A9B1A5918534642
:10573000596007234A46134000D11EE108218946DB
:105740004B49D21A9144CB1A009A38004A441105A9
:10575000090D5B1A19009B4600F076F9431C00D135
:105760003CE14B46C01A01235844184353465B683A
:105770005B441900534659604B46B3605860B442CD
:1057800013D043460F2B00D8E2E04346072260685F
:105790000C3B9343063A024005201A436260E2182C
:1057A000506090600F2B00D91CE15346DB6A994290
:1057B00001D95346D96253461B6B994201D95346CE
:1057C00019630323B46862689A43531B954200D956
:1057D000C1E00F2B00DCBEE001222900134311437E
:1057E000651961603800B5606B6000F02BF920002E
:1057F000083048E7142873D9542800D9B2E06E2342
:105800009846280B80446F30C10094E65A0A042A57
:105810006CD9142A00D9C8E011005C325B31D20087
:1058200008235B429C46B218944463469A6803235B
:105830009846944500D1A3E0434651689943894571
:1058400000D38DE092689445F6D16346DA687368B8
:105850006146E260A1609460CC60B4E6F00700208D
:10586000FF010000F00B00204C0D00200F10000085
:1058700008100000012360191D43656070613061EC
:10588000C26082601A004B460A4342603800E15011
:1058900000F0D8F820000830F5E6736893E6082396
:1058A0009B46073BDC449B46DA4443465246134240
:1058B00000D09CE636E0DC680230A34200D15AE614
:1058C000CFE60122E318596838000A435A60E368BA
:1058D000A268D3609A6000F0B5F820000830D2E6E4
:1058E0005B23984680445C30C10024E69A0911008D
:1058F00039323831D20093E7B44200D061E75346E1
:105900005B68009A9C465346624411005A6005E762
:1059100008235B429C46E1444B469B68013899450D
:1059200000D084E043460342F2D173688B43736036
:105930004900994200D9BBE6002900D1B8E650469B
:105940000B4200D04EE6490004300B42FBD049E642
:1059500001234A465360380000F074F8002092E6B4
:10596000944672E7AA235B00984211D8DD3B984623
:10597000E80B80447830C100DDE580235B01E3E67D
:105980008910023B8B4072681343736062465FE785
:105990002A4B98421CD87C239846A80C80447D3022
:1059A000C100C8E510330093A0E6542A26D84B4620
:1059B0001A0B11006F326E31D20031E71B0500D097
:1059C000ACE60120009BB268434403435360ECE61D
:1059D000FE217E237F2089009846ACE5002301202C
:1059E0009B46C3E621003800083100F07DFB53469A
:1059F0005968DAE65B464A469A609AE6AA21490067
:105A00008A4206D84B46DA0B110078327731D20041
:105A100006E70A498A4206D84B469A0C11007D32A5
:105A20007C31D200FCE6FE227E219200F8E673680B
:105A30007EE72B00E80808330BE6C046540500005B
:105A40007047C0467047C046002370B5064C05003D
:105A500008002360FCF73CF8431C00D070BD2368AD
:105A6000002BFBD02B60F9E7B818002010B5830796
:105A700025D00378002B24D00300032102E01A78FC
:105A8000002A1AD001330B42F9D119680E4A0F4C83
:105A90008A188A43224206D1043319680A4A8A18AE
:105AA0008A432242F8D01A001B78002B03D001321F
:105AB00011780029FBD1101A10BD181AFCE7030059
:105AC000E3E70020F8E7C046FFFEFEFE808080800E
:105AD000F8B506000D001400002802D0836B002BDF
