:020000041000EA
:1000000000B5324B212058609868022188439860DF
:10001000D860186158612E4B002199600221596106
:100020000121F02299502B49196001219960352056
:1000300000F044F80222904214D00621196600F024
:1000400034F8196E01211966002018661A6600F04E
:100050002CF8196E196E196E052000F02FF8012189
:100060000842F9D1002199601B49196000215960AB
:100070001A491B48016001219960EB211966A021F2
:10008000196600F012F800219960164914480160C1
:100090000121996001BC002800D000471248134993
:1000A000086003C880F30888084703B5996A0420EC
:1000B0000142FBD001200142F8D103BD02B5186610
:1000C0001866FFF7F2FF186E186E02BD00000240BE
:1000D000000000180000070000035F00212200005C
:1000E000F4000018222000A00001001008ED00E03C
:1000F00000000000000000000000000074B24E7A12
:1001000000200420F7010010C3010010C5010010F9
:10011000C1010010C1010010C1010010C101001097
:10012000C1010010C1010010C1010010C701001081
:10013000C1010010C1010010C9010010CB01001065
:10014000CD010010CD010010CD010010CD01001037
:10015000CD010010CD010010CD010010CD01001027
:10016000CD010010CD010010CD010010CD01001017
:10017000CD010010CD010010CD010010CD01001007
:10018000CD010010CD010010CD010010CD010010F7
:10019000CD010010CD010010CD010010CD010010E7
:1001A000CD010010CD010010CD010010CD010010D7
:1001B000CD010010CD010010CD010010CD010010C7
:1001C00000BE00BE00BE00BE00BE00BE00F04BF888
:1001D000103800BEF2EB8871F86C0010206D001032
:1001E0003402001090A31AE700202149086006C8D5
:1001F00081F3088810471F48006800282FD10DA4FC
:100200000ECC002902D000F012F8F9E71A491B4A77
:10021000002000E001C19142FCD1194988471949E9
:1002200088471949884700BEFDE701C901C29A42C3
:10023000FBD37047206D0010C0000020C40C0020CC
:1002400030790010000004200000042030790010F4
:1002500000100420001004200000000070470B482C
:1002600002F038F90047EFF30580C0B27047000094
:1002700008ED00E0000000D0D00C0020C4170020E2
:100280000D1C001079030010451D0010575600008A
:1002900006005250ABB36053586A0010060052502B
:1002A000861C0302686A0010060052505422A29D68
:1002B000706A001005005250DE65F4683079001055
:1002C000F8B5C046054B0648033310B51B1A062B7C
:1002D00003D9044B002B00D0984710BDC40C00205C
:1002E000C40C0020000000000648074910B5091A98
:1002F0008910CB0F5918491003D0044B002B00D0A4
:10030000984710BDC40C0020C40C00200000000061
:1003100010B5074C2378002B09D1FFF7D3FF054B0D
:10032000002B02D0044800E000BF0123237010BD61
:10033000D00D002000000000E0680010094B10B54F
:10034000002B03D00849094800E000BF08480368B3
:10035000002B02D1FFF7C8FF10BD064B002BF9D0D0
:100360009847F7E700000000D40D0020E068001077
:10037000C40C002000000000F0B5C64600B502F035
:10038000F5FD04F0A5FE01232F4C304E304D314FCA
:10039000984607E03378002B21D12B78002B30D101
:1003A00000F0A8F903F0AEFA2368002BF2D001F0B8
:1003B00033F8002939D0FA220023920002F0FEF827
:1003C0003B682268C01A9042EAD39B1828783B60A9
:1003D00002F0E4FD42462B7853402B70E0E7012306
:1003E00001202B7002F0DAFD01F016F8002921D06F
:1003F000FA220023920002F0E1F800233860337003
:10040000CEE701F009F8002919D0FA220023920062
:1004100002F0D4F83B68C01A0F4B9842C0D90023B1
:1004200000202B7002F0BAFDBAE7FA21890002F031
:1004300083F8C5E7FA21890002F07EF8DDE7FA21AA
:10044000890002F079F8E5E7C8020020E9140020ED
:10045000EB140020C4140020ED0200000022014B28
:100460001A607047C8020020FA22014B1A607047D8
:10047000C8020020014A024B1A607047C4090000FC
:10048000C80200200022014B1A607047C8020020F9
:100490000122014B1A707047E91400200048704790
:1004A0000C69001000487047E468001070B500281F
:1004B00021D0042829D8174B8000C558280005F002
:1004C000DBFA1F2815D8002821D000220023124C67
:1004D0000133AA5C5900DBB262521A008342F7D39F
:1004E000C023013040009B00184380B220802000D0
:1004F00070BD1F20E9E7084C064BA01C19680222BA
:1005000002F006FBC1208000F0E70020F0E703487E
:10051000014CEBE7CC020020380E00200203000063
:1005200010B504F0BFF910BD00487047886900108D
:100530004021034A012013780B4313707047C046D3
:10054000EC1400200023084A136041790279090263
:100550001143827912041143C27912060A43E12140
:1005600091425B41D8B2704710100020F0B5474669
:10057000CE46244E80B58046306883B047180D00C3
:1005800091460024E02F05D9200003B00CBC904612
:100590009946F0BD1C4B0A001818414602F0B8FA03
:1005A0004B466A46D3803760D388184E184F338045
:1005B0004B463C60002B1CD0032D06D9042241463B
:1005C000144805F08BFA002817D00522414612483E
:1005D00005F084FA00280CD130804046053004F044
:1005E0007DFFC343DB1718400C4B984208DC0C4BD3
:1005F000186004F057F90124C6E701233B60E4E7E3
:100600001800F4E7101000202C0F0020E414002044
:1006100098140020A0690010A8690010102700009D
:10062000E00200200C4A0D4B11681B6810B599427E
:1006300003D00B4B1B68002B0AD0102009490B7804
:1006400083430B700023084913600B8007490B603C
:1006500004F028F9012010BD141000201010002013
:1006600098140020EC140020E4140020181000203E
:1006700070B54279037912021A4383791B041A4335
:10068000C3791B061343154A1360154A1288002AC2
:1006900003D0144C2068002809D1134B00201A689D
:1006A000002A00D070BD01321A600130FAE70F4A0B
:1006B00011680D1A9D4200D91D004219521A51426B
:1006C00051410B4BCAB218182900002303F0F0FF68
:1006D000236801209C4665442560E3E7A0140020C0
:1006E000E414002014100020181000201010002026
:1006F0002C0F002070B5494C23889BB2022B45D0AB
:1007000034D9032B1FD0042B1CD1454D2B68002B53
:1007100018D0444A1368002B14D1434B1B68002B9C
:1007200000D06DE0414B42491B680968994200D9ED
:100730001900CB1A11605A425A413E48D2B20023E6
:1007400003F0B6FF70BD00F067FE00294ED0FA221C
:100750000023920001F032FF374B1B68C01A374B61
:100760001B689842EED904232380EBE7012BE9D1E3
:1007700000F052FE002934D0FA220023920001F04A
:100780001DFF2D4B186002232380DBE700F044FEA1
:10079000002921D0FA220023920001F00FFF264DFC
:1007A0002B68C01A254B1B689842CBD900F034FE49
:1007B000002920D0FA220023920001F0FFFE03233B
:1007C0001021286023801E4B1A780A431A701A7869
:1007D00030310A431A70B5E7FA21890001F0ACFE06
:1007E000DDE7FA21890001F0A7FECAE7FA218900B6
:1007F00001F0A2FEB0E7FA21890001F09DFEDEE7DC
:100800000B4B1968342900D93421002301220D48EB
:1008100003F04EFF002323802B6093E7E4140020B5
:100820001810002014100020981400201010002030
:10083000A01400202C0F0020BC140020E002002097
:10084000EC14002050690010012303700023044AB7
:1008500001201380034A13600022034B1A70704773
:10086000E414002018100020EC14002000230021C4
:10087000084A1380084A1360084A1170084A136036
:10088000084A1360012243780270934343700120A9
:100890007047C046E414002018100020EC1400201B
:1008A00014100020101000200022034B1A600123B6
:1008B000037001207047C0461810002010B503F0E7
:1008C000F1FF012010BDC0460123037001207047D5
:1008D00010B503F0E7FF012010BDC0467047C046C9
:1008E00010B503F0DFFF10BD10B54024044A1378A3
:1008F0001178DBB2A143117001220270180010BD03
:10090000EC14002010B50C00FFF7C2FD01230120FC
:10091000237010BD094A830094464022634410B5F9
:100920001C68C0006240C02414408022520113435E
:100930001C60034B9C466044416010BD04C00140F4
:1009400000400140034BC0009C46604443681F20A8
:1009500018407047004001400B4B80009C466044AB
:1009600000290DD00C210823002A00D00B000268BA
:1009700053400C221A4080235B01184302607047E9
:1009800004210023F0E7C04604C00140074BC0002B
:100990009C466044036809045940C0239B021940E7
:1009A00080235B01184301607047C046044001404A
:1009B000074BC0009C466044036809035940C023AC
:1009C0009B01194080235B01184301607047C046BA
:1009D000044001400123D0228340120693629361B8
:1009E000094A83009446402263441968C0004A4083
:1009F000C02111408022520113431960034B9C46D1
:100A0000052360444360704704C00140004001403A
:100A1000F8B5EFF3108772B60D4E3368002BFCD09B
:100A2000BFF35F8F0725CB08C01801230D40AB40F3
:100A30001D000478254007D123430370BFF35F8F67
:100A4000356087F31088F8BD100001F07DF9C046CD
:100A50002C0100D0F8B5CE4647468C4680B5EFF362
:100A6000108872B61D4D2C68002CFCD0BFF35F8F30
:100A70009A4219D80721012511408D40D408041944
:100A8000267835421FD007218946063909E04D46B0
:100A90000F001540AF40D408041926783D003742B6
:100AA00011D001329342F2D201204042BFF35F8F56
:100AB00000220A4B1A6088F31088002807DB0CBC60
:100AC00090469946F8BD354325701000EEE7634621
:100AD000002BF4D0089801F037F9C0462C0100D063
:100AE000024B18688007C00F7047C04600C0064020
:100AF0000021044B044ABFF35F8F02C39342FAD133
:100B00007047C046000100D0800100D0044A107830
:100B1000431CDBB2172B00D9102313707047C0465B
:100B2000E402002000B5054B83B0010000931822B9
:100B30001F230348FFF78EFF03B000BDB06900100C
:100B40001C100020F8B5040006200D0001F07EFA0C
:100B500003000020002B49D0294B80229C424DD01D
:100B6000D203284B28491A60284B1A6010008B6862
:100B70009843FBD1264B8021E3185A425341254A22
:100B80005B0049000620995201F060FA2900C0007C
:100B900001F0D2FCC3092AD01F4A93422AD87F22EF
:100BA0001040013040089F011A0003003F18260042
:100BB00080256262A36200232C36AD0135432B6091
:100BC000062001F043FA3900800001F0B5FC6023F3
:100BD000E26A53406E221A4080235B0133431A605D
:100BE0000E4B236310232B600D3BA364F8BD4027FD
:100BF0000122DCE70A4F00230A4AD8E71204B0E7D3
:100C00000080034000E0004000C0004000F00040D1
:100C10000080FCBFF0140020FEFF00000103000074
:100C2000C0FF3F00FFFF000083680B4810B58446FB
:100C300061446244090112019A18591854684B68BA
:100C400001209C4201D802D00020C0B210BD126821
:100C50000B689A42F9D8F7E7FFFFFF0F0A4B1968B4
:100C6000EFF3108072B60A68002AFCD0BFF35F8FE2
:100C70001B68BFF35F8F00221A6080F3108840BFAB
:100C8000002000217047C046C0140020F8B54E4631
:100C90004546DE465746E0B51F000CAB1D780DAB50
:100CA0001B7881469B46036816009846002D08D1A4
:100CB000987B002841D13CBC90469946A246AB4661
:100CC000F8BD28006C006419033C384B00229C4698
:100CD0004B469B6860449C4600010A9B60448360CD
:100CE0000B9B06604760C36043461B681B199A70E4
:100CF0005A701A7043465B7B9A46002B3BD04346A2
:100D00002A00986851465B68984743461A6800284D
:100D100024D053465B005344033BD3181419524666
:100D2000A2701A78002A00D062701D7052464346A5
:100D300028005A73AA45BED11FE0414644001B68F3
:100D40002418033C1B195A788A73002A00D1CA73ED
:100D5000002205009A705A701A70B6E753465B007D
:100D60005344033BD31814199D702278002A00D0F5
:100D70005A705346237043465D734B463200187DCC
:100D80003B0000F0C5FB041E07D05B46002B04D1DE
:100D90004B462900186800F00FFE0E9B002B02D076
:100DA0001C70280087E7280085E7C046FFFFFF0F7B
:100DB000744B8200F0B5D4580023DE4657464E46A9
:100DC00045469B46E0B58DB00B9000F025FB626870
:100DD000EFF3108572B61368002BFCD0BFF35F8F62
:100DE00023689C465B7B9946002B00D181E0A2687A
:100DF000654B90464B441B01984443461E685F6810
:100E000032003B00121A8B41002B00DC84E03B00D7
:100E100032000B9800F07CFB00230022089209931B
:100E2000002300279A466368BFF35F8F5A461A6013
:100E300085F310885346002B64D00A9B39001802B2
:100E40004B461843D047626806900791EFF310882D
:100E500072B6564645461368002BFCD0B246A846EB
:100E6000BFF35F8F0699079A002A25DA2369002BC2
:100E700028D0089D099E6D1A96412A003300089DCE
:100E8000099E9E4200D971E000D173E05946049159
:100E9000012103914946029151460197009120009A
:100EA000FFF7F4FE5B4623616368BFF35F8F5A462A
:100EB0001A6088F3108888E71300194302D0236969
:100EC000002B46D12368DA7B002A07D051008A180C
:100ED00019688C4649466244033A51704A46DA73AF
:100EE000E2684B469446013B63441A7801321A701B
:100EF000D8E70023002208920993002300279A468E
:100F0000002090E7002800D05FE70DB03CBC904681
:100F10009946A246AB46F0BD002B02D1002A00D074
:100F200075E70021604600F09BFC43461A685B6849
:100F30000892099343469B689A464346DF68E368F4
:100F40004B44013B1B780A931B021843206100208D
:100F500069E700F061FA069A079B12184B41994223
:100F600004D800D092E7904200D88FE70122524285
:100F7000D3178BE7954200D888E701225242D31756
:100F800084E7C046AC140020FFFFFF0F10B5124CE1
:100F90006368002B04D00A21104800F047FB10BD05
:100FA00023000F4A1021206800F03CFC032000F0D1
:100FB00027FA032000F01AFB0A49032000F062FA26
:100FC000FFF7A4FD084B9C46032360442375074BA1
:100FD00080006060DC60DEE7E8020020C0140020D2
:100FE000290C0010B10D001040000034AC1400209A
:100FF00000487047E8020020F0B55746DE464546F7
:101000004E46E0B585B00092019310AB1B78070007
:101010009B4600239A4698467A68EFF3108972B689
:101020001368002BFCD0BFF35F8F3E68B47B002CAD
:1010300000D173E065002D193368033D5B195A78C0
:10104000B273002A00D1F27342469A705A701A7035
:10105000BA68504B94460099019AE3181B01634407
:1010600019605A600E9A9A600F9ADA6042463368A5
:101070005B199A705A701A70737B0393002B00D11E
:1010800076E0190073682200B0689C46E047326839
:1010900000285ED003985519844643006344033BFF
:1010A000D318A8701A78002A00D06FE01C707073F3
:1010B00084425ED0FB681B19013B18787B68BFF344
:1010C0005F8F42461A6089F310885346002B08D17F
:1010D0000002204305B03CBC90469946A246AB4670
:1010E000F0BD5B46002B53D00E9B0F990020984714
:1010F000030004000D000B434AD0002917DA0098C2
:10110000019902000B00121BAB4199421AD801D180
:10111000904217D800920193DA467DE77B68BFF3CF
:101120005F8F1C6089F3108801204042D2E700F0F5
:1011300073F924184D4100940195A94202D8EBD1CE
:10114000A042E9D901235B42DC17DA4600930194FF
:1011500062E7039955198C464B006344033BD3184F
:101160009C702A78002A00D05A706B461B7B2B702B
:101170007473387D009A019B00F0CAF982460028FA
:1011800098D02100386800F017FC93E76A708DE76B
:1011900000209FE7FFFFFF0FF0B54E464546DE46B5
:1011A0005746E0B56A4C83B0814688466268EFF3E3
:1011B000108A72B61368002BFCD0BFF35F8F2668CD
:1011C000B57B002D46D06F007F193368033F019532
:1011D000DB195A78B273002A00D1F27300229A7098
:1011E0005A701A70A1685B4B8C464946EB181B017C
:1011F00063441960414659605749DA609960336821
:10120000DB199A705A701A70737B9B46002B00D1C1
:1012100089E02A001900B06873689847326800288E
:1012200000D173E05B465B005B44033BD318D719E6
:101230005A46BA701A78002A00D07A701D705B4640
:1012400073735D4500D16FE00026E3685B19013BD5
:101250001B7802E00023002601936268BFF35F8FD2
:10126000002111608AF31088002D44D0002E42D155
:10127000019A1B02134320BF6168EFF3108772B617
:101280000A68002AFCD0BFF35F8F2068D9B2427B86
:101290008A4256D0FF221A405500AA460568924459
:1012A000AC4655466544033DAD78002D29D0E56830
:1012B0001B0AAC466244013A12789A4244D06368F1
:1012C000BFF35F8F00221A6087F31088234A536AA6
:1012D000984508D8926A01264A4504D24246D31A54
:1012E0005E1EB341DEB2300003B03CBC904699466E
:1012F000A246AB46F0BD194A0026536A9845F2D87B
:10130000E8E722699342DAD12561D8E75B465B00C2
:101310005B44033BD318D7199D703A78002A00D05C
:101320005A705B463B707573207D4A46434600F019
:10133000EFF8061E00D187E72900206800F03CFB8B
:1013400083E7FF221A40B2E700F036FBB7E7C0465A
:10135000E8020020FFFFFF0F5D0C00100040054079
:10136000F8B5CE46474680B5EFF305833F221340DC
:1013700018001038EFF3108C72B61B490A68002A67
:10138000FCD0BFF35F8F01210F008740174D184A33
:101390006F63147891462200C24090464646002270
:1013A00031420BD0696A134D884681004D59A845DA
:1013B00012D3114BBC43CA584B461C70BFF35F8F0E
:1013C0000021094B19608CF31088002A00D0904747
:1013D0000CBC90469946F8BD08499B00884643449A
:1013E00019681960EAE7C046280100D000400540AE
:1013F000ED140020C81400201C0F0020D03F054031
:1014000010B50100024A0348FFF702FB10BDC046B9
:10141000D8690010E8140020044A516A00E019005D
:10142000906A536A9942FAD17047C046004005401D
:10143000134A30B5546A00E01C00956A536AA3420F
:10144000FAD12A002300801859418C4211D80ED0BD
:101450000C000B4A536AA342FCD307D1084A02E0AE
:10146000516A994202D1916A8142F9D330BD8542D5
:10147000EED9012401204042C1176442E9E7C04689
:101480000040054070B504000D00EFF3108672B601
:101490001A4A1368002BFCD0BFF35F8F002D1BD0BE
:1014A000200000F0EBFD164988420AD0200000F031
:1014B000EDFD0121200000F0CFFD0123A340114AE2
:1014C0001360114BA400E550BFF35F8F00220B4B5C
:1014D0001A6086F3108870BD0B4BA200D550012214
:1014E000A2400A4920000B7893430B70044900F096
:1014F000F7FD0021200000F0AFFDE5E7280100D056
:1015000061130010386005401C0F0020ED1400200E
:10151000F0B5D6464F4646462F4CC0B5656A00E04A
:101520000D00A66A616AA942FAD1AB4249D9EFF32C
:10153000108972B6294C21680029FCD0BFF35F8F57
:101540000126274986408C460978264D0F003743EF
:101550008846F9B28A46614654460C701E49041DFD
:10156000A4004E636250840063510D6A002435422A
:101570001AD04D6A00E025008F6A4C6AAC42FAD15D
:10158000AB4224D801D1BA4221D8D04521D0124B48
:10159000154A1E625E631F2318401E3B8340136082
:1015A0006346424601241A70BFF35F8F00220B4B43
:1015B0001A6089F3108820001CBC90469946A24608
:1015C000F0BDAB4201D1B242B1D80124F3E700240F
:1015D000EAE70124E8E7C04600400540280100D0C2
:1015E000ED140020C814002080E200E010B5EFF3F5
:1015F000108472B60A490B68002BFCD0BFF35F8FD2
:1016000001238340074A0848136202789A43027014
:10161000BFF35F8F00230B6084F3108810BDC046BA
:10162000280100D000400540ED140020024B9C46EC
:1016300061448900016070474000003410B5040027
:10164000FFF764FA01002000FFF7F0FFFF2323718A
:1016500000236371BFF35F8F10BDC04610B5040057
:10166000FFF754FA01002000FFF7E0FFFF2323718A
:101670006371BFF35F8F10BD10B504000120FFF749
:1016800051FA044B9C46604480002060BFF35F8F9A
:1016900010BDC04640000034F8B54E464546DE4613
:1016A0005746E0B54C0064180368033C1A190D0056
:1016B000517806008946002906D128003CBC904696
:1016C0009946A246AB46F8BD4F004F44033FD81998
:1016D00041788846002141705170002D12D0736806
:1016E0004A462900B06898473368002873D0DF194C
:1016F0001A19BD701178002900D079704946270069
:10170000117000E04D464246002AD6D054004444B1
:10171000033C1A1951788946002911D17368424651
:101720002900B06898473368002849D01C19DF1990
:10173000A5703B78002B00D0637043463B70BCE73C
:101740004900494403398A46534459788B4600215D
:101750005970517073684A464146B068984733687B
:10176000002843D152461C199A184B46A37013788F
:10177000002B00D0637043465446C84613705B4646
:10178000002BCBD059463000FFF786FF814600285A
:10179000C4D002004146B068736898473268002898
:1017A0002FD04B465B004B44033B1119D3184246E4
:1017B0009A700A78002A00D05A704B460B70ADE739
:1017C0001C19DF194346BB702378002B00D07B70B7
:1017D0002570454671E749461C19DA19A170117840
:1017E000002900D0617015704D468CE741461A19EA
:1017F000534499701178002900D059704B461370EA
:10180000BDE74B465B004B44033BD11814194A46D5
:10181000A2700A78002A00D0627042461C000A704A
:10182000C8467BE710B583600023CCB24373013315
:10183000047342608373C4730068012C07D90123C9
:10184000421C0133DBB2137003329C42F9D8FF23F0
:1018500019404B005918002340180338437010BD3D
:10186000F0B54E4657464546DE46E0B5477B036831
:101870007C00E419033C1A19167883B005008946E8
:10188000002E1ED1002911D0C07B002869D0410054
:101890000918591803394F70EF73002E06D07100E4
:1018A0008919033988460021434499700023380080
:1018B00053706E7303B03CBC90469946A246AB464B
:1018C000F0BD710089190339884659184878824655
:1018D000002807D149460029E5D0E87B0028D6D169
:1018E000EF73DCE742005244033A944601926344AA
:1018F0005A78934600225A704A706B6852463100FB
:10190000A86898472B68002832D0414601985A1899
:1019100019188E701078002825D1514611705A463A
:10192000002A23D059462800FFF7B6FE8246002839
:101930001BD002006B683100A86898472B6800280C
:1019400025D042469918524652005244033A9A18FA
:1019500096700878002800D0507052460A701A1904
:10196000B8E7EF73A2E74870D7E72B681A19B1E719
:1019700041465046019A59189A18887010780028E4
:1019800000D048701670019A56469046C7E75246F6
:101990005100514403395A1840469346524618188C
:1019A00082705A461278002A00D042705A46884601
:1019B00016701A1956468DE7F0B54546DE4657466D
:1019C0004E46E0B50C0083B00500002200293DD052
:1019D000477B0168BC426BD066003619033E88190C
:1019E0008378002B32D05A00D318033BCB181A78D7
:1019F000944202D143E0002A08D053009B18033BD5
:101A0000CB185A789442F6D142785A7000238370EA
:101A1000437003789846002B25D1EA7B002A1DD01D
:101A200053009B18CB18033B5C704346EC73002BB0
:101A300000D171E05C0000234444033C09198B7021
:101A40004370002F1ED1434601226B73100003B078
:101A50003CBC90469946A246AB46F0BDB846EC73F6
:101A600000234370EFE719002800FFF715FE2968EF
:101A7000EA7B80466F7B8819002AD6D0D0E742786F
:101A80001A70C3E742463900A8686B6898472A680D
:101A9000002824D07B00DB191419033BD318A7704E
:101AA0001A78002A00D062704246B8461A70CAE717
:101AB0007E00F619033E8B191878804600281BD14A
:101AC000E87B002804D0420012188A18033A5470A8
:101AD000EC7300225A70434601326B73B6E77B0009
:101AE000DB19033B1419D31842469A702278002A56
:101AF00000D05A702770A6E744004444E01E0190CD
:101B000008184478A246002C08D1EC7B002C76D132
:101B1000EF7300228270DCE7B846A1E7630053440C
:101B2000033B994649444B784A7042709B462200D9
:101B30006B684146A86898472B6800284BD04946F7
:101B40004046019C59181A1988701078002850D105
:101B50005146A14611705A46002A20D05946280005
:101B6000FFF79AFD041E19D002004146A8686B6871
:101B7000984700281ED04A4641462B6898186200B4
:101B80001219033A9A1891700178002900D0517007
:101B90000470E97B002905D19B19B9E72B684A46F7
:101BA0009818F6E74A0052189A18033A57709B198A
:101BB000EF73AEE74B462968600000190338CB1875
:101BC00008189C700278002A00D05A704346A0463C
:101BD00003708B1999E74A469818019A9C18524647
:101BE000A2700278002A00D062704246D04602708D
:101BF000B1E7487051461170019A9146ABE7032254
:101C000062438A18033A577082E7C046314A324B22
:101C100070B51A60314A324B32491A6010008B6835
:101C20009843FBD1304E314B9E420AD2F5430024FB
:101C3000ED18AD080135A300F35801349847AC42C4
:101C4000F9D100F09FF82A4A254B1A60254A93687B
:101C5000DB018033FBD14022264B274C9A675A6721
:101C60001A67DA66254B9C420ED2E6430025F61829
:101C7000F608013663792000002B23D00135FFF7E9
:101C8000EDFC0834AE42F5D11D4D1E4CC022A168BA
:101C9000280000F03DFFA560FEF72AFF00F058FB8A
:101CA000FFF774F9184E194B9E420AD2F5430024EF
:101CB000ED18AD080135A300F35801349847A5424B
:101CC000F9D170BD0135FFF7B9FC0834B542D1D167
:101CD000DAE7C046BFCDFBFE00E00040FE7F3C00DF
:101CE00000F0004000C00040AC0C0020BC0C002004
:101CF000FFFFFF0100F00140A40C0020AC0C00200D
:101D00000000002000ED00E0BC0C0020C40C00200E
:101D1000094A1368002B06D008491818884208D8C9
:101D2000106018007047064B044918181360884269
:101D3000F6D901204042F5E794100020000004206D
:101D4000C417002000BEFDE70FB400B5084883B0FB
:101D500000F042FF049B002B07D005A91800019159
:101D600000F098FB034800F037FF00BEFDE7C046D7
:101D7000086A0010186A001010B50148FFF7E4FF68
:101D8000FC69001030B50C2083B000F049FBFEF771
:101D9000A7FE00280ED0964B964A1A605A609A60A9
:101DA000DA601A615A619A61DA611A62924A5A6279
:101DB00003B030BD914CA06700F03AFB0122904B7C
:101DC0001A60636C012BFCD103228E4B1A608B4A84
:101DD000936B012BFCD1022405338B4A01218B48E4
:101DE000009400F0D1FA0523894A00940121894822
:101DF00000F0CAFA884B5A68FF2A02D880225200A3
:101E00005A6080227A4C7F4B21691201824D1A6000
:101E1000002900D0E5E0E0217F4B02201A68114044
:101E2000802252012A431160196848400321014071
:101E3000116004219A681142FCD080228021920115
:101E40002A4309011160802252005A60734B2361BA
:101E5000734B5968FF2900D8C1E00322684B7048D2
:101E60001A60012103009A681142FCD0E0251A682B
:101E7000154080225201024315601B684B4003212C
:101E8000194011600221664A93681942FCD08023F0
:101E900080219B010343090119608021614B4900A6
:101EA00051606361604B5A68FF2A00D859608022F4
:101EB0005E4BE16912015C4D1A60002905D0606932
:101EC00000F03AFB01300138FDD1E02256490B68A1
:101ED0001A4080235B012B431A60802380229B01E0
:101EE0002B4312011A608022424B52004A60E36188
:101EF0004F4B5968FF2900D85A6080224D4B216A08
:101F000012014B4D1A60002905D0606900F014FBE6
:101F100001300138FDD1E02245490B681A40802389
:101F20005B012B431A60802380229B012B4312010B
:101F30001A6080235B004B602E4B3F4A23623F4B6D
:101F40005968914201D801325A6080223C4B616A43
:101F500012013A4D1A60002905D0606900F0ECFAD0
:101F600001300138FDD1E02234490B681A4080234A
:101F70005B012B431A60802380229B012B431201BB
:101F80001A608023DB024B601B4B63622D4B5A6847
:101F9000FF2A02D8802252005A6080222A4BA1696F
:101FA0001201284D1A60002905D0606900F0C4FABA
:101FB00001300138FDD1E02222490B681A4080230C
:101FC0005B012B431A60802380229B012B4312016B
:101FD0001A6080235B004B60124BA361E8E65A60F5
:101FE0003BE7606900F0A8FA01300138FDD112E743
:101FF00020100020006CDC021BB7000000800040B5
:102000003CB0004030B00040002F685900800240D2
:1020100000389C1C00C0024030800040001BB7000C
:102020003C800040405973075480004054B0004049
:102030006080004060B00040FFFF03006C80004003
:102040006CB000404880004048B00040014B800028
:10205000C05870472010002001238340002902D17E
:10206000034A13607047034A1360034A1360F9E799
:1020700080E100E080E200E000E100E0024B10308F
:102080009B688000C058704700ED00E070B50D00FF
:10209000EFF3108672B60F4A1368002BFCD0BFF323
:1020A0005F8F0D4B10309B6884001B590B4A934285
:1020B00003D09D4201D0FFF75FFE074B9B681D5187
:1020C000BFF35F8FBFF35F8F0022024B1A6086F36E
:1020D000108870BD240100D000ED00E0CD0100109B
:1020E000F0B54546DE4657464E46E0B50D0083B096
:1020F000EFF3108B72B65C4A1368002BFCD0BFF371
:102100005F8F1022904680444246584B97009B6850
:10211000DE59574B99469E4206D0AE4200D17DE033
:10212000544C331B2F2B12D9504B9B68DE51BFF3FD
:102130005F8FBFF35F8F00224B4B1A608BF31088C9
:1021400003B03CBC90469946A246AB46F0BD012385
:1021500083409A465246484B1B681A4000925246AA
:10216000464B1A60BFF35F8FFEF77DF801900028A1
:1021700049D1012332009A4313001B1B5B4146499E
:102180005943090D93689D424DD0062010560028F2
:1021900005DA31E0062018561A0000282CDB43002F
:1021A0001B189B00E31898688542F3D10620185647
:1021B00000283BDB42001118890065188846A96891
:1021C0009960E979D971062169569971A9797F29B0
:1021D00026D8AD88E11A6D052D1545444919E0252D
:1021E0000905490D2D02294399801218244B9200AC
:1021F000A4181A781870A271009B002B08D15246BF
:102200001E4B1A6090E78045B3D0FFF7B5FDB0E7ED
:1022100052461C4B1A60184B1A6085E71E0083E774
:10222000BD210902E0E713000022BFE70198002862
:102230000AD1002A15D0FF30907113489080104ABF
:10224000107811709871D7E7104A1149D21A083ADC
:102250005002400D014399800E4952080A43DA802A
:10226000CAE74E46EBE7C046240100D000ED00E08F
:10227000CD0100101003002000E100E080E100E04B
:10228000EA14002080E200E000BDFFFF4A030020C6
:1022900000F0FFFF00F8FFFFAAAA0000F8B5012533
:1022A00004000543FDF7DFFFEFF3108672B6214A05
:1022B0001368002BFCD0BFF35F8F1F4A2100891ADF
:1022C0004941224B4B431B0D1C4980008F685BB278
:1022D0003F58BD4226D006215156994226D01221A0
:1022E0005156994224D01E215156994210D02A218C
:1022F0005156032099420CD0114A11781370A171E4
:10230000BFF35F8F00220B4B1A6086F31088F8BD75
:1023100002204100091889005218FF2191710949D2
:102320009180E9E78A6808491150E5E70020F0E765
:102330000120EEE7240100D01003002000ED00E0B2
:10234000EA14002000BDFFFFCD010010AAAA000082
:10235000F0B500220324FF27802620003D00094B12
:1023600011009C461040C0008540A14361440B68A9
:102370000132AB43350085402B430B60202AECD162
:10238000F0BDC04600E400E0F8B504000C201700E2
:102390001D000E0000F0D0F81C494143380000F049
:1023A000CBF8069A2B04120313432268002A1CDB85
:1023B000174A8021944226D04901164A164D1160D1
:1023C000164A11600F00AA689743FBD1C021221D55
:1023D0008901114321222660A0600A602268002A38
:1023E000FCDAE36008230B60F8BD3F2221680A4055
:1023F0009642DDD1A2681205120D9042D8D1E26852
:10240000002BD5D1F0E78901D7E7C04640420F0045
:1024100000C0024000E0004000C0004000F000406A
:1024200080239B001843014BD86270470080054011
:10243000AA23064A1B0113602F230549D360054BCD
:1024400019605368002BFCDA7047C0460040024018
:1024500000B0FA000060024010B5002800D110BDA5
:102460000B4B1C68A2689368013B9360002B04DB54
:102470001368591C11601870F1E791698B4201DBF8
:102480000A28F5D10100200003F01CFCE7E7C04654
:102490006004002010B5094A84B01468002C09D0EB
:1024A000012200910300524203A90548A0470120E0
:1024B00004B010BD00F090FB0020F9E79C14002050
:1024C0005924001001480421014B184760030020E3
:1024D000F5240010142310B50100188804331B885C
:1024E000984710BD162310B50100188802331B88C9
:1024F000984710BDF8B54746CE4680B50F1E19D097
:1025000014239946043304000025012698464B46BF
:102510001888434621681B88984701C4431E984188
:10252000013540420640AF42F1D130000CBC90462C
:102530009946F8BD0126F8E7114A936F9B0813D21C
:1025400010665166002905D0FFE7FFE7FFE7516FEE
:10255000106F704704B5002801D00020C04304F07C
:102560009FF9002104BDC046F0B5146E556E576F3B
:10257000166FFFF7E5FF1466556657671667F0BDDF
:10258000000000D094464E4A926F9208624601D2F3
:1025900030E0C046F0B54A4EB56F6D08FCD3346EDE
:1025A000756E776F366F00F025F89446444A1466CE
:1025B0005566576716676246F0BDC0469446404A66
:1025C000926F9208624601D258E0C046F0B53C4E88
:1025D000B56F6D08FCD3346E756E776F366F00F093
:1025E0004DF89446364A1466556657671667624634
:1025F000F0BDC046002B24DB11D000293EDA00B527
:10260000C943404200D1013100F038F8C94340428B
:1026100000D10131DB43524200D1013300BD002A19
:10262000EBD1002801D1002905D00020C90FC9072E
:1026300001D1C043410800B504F02AF9002200236B
:1026400000BD00B500290ADBDB43524200D1013353
:1026500000F014F8C943404200D1013100BDC94324
:10266000404200D10131DB43524200D1013300F03E
:1026700005F8DB43524200D1013300BD002923D1CC
:10268000002B18D1002A0CD0BC460D4F38667A6654
:1026900000210023FFE7FFE7FFE77A6F386F674607
:1026A0007047002801D00748010000B504F0F0F899
:1026B0000022002300BD02000B0000200021704713
:1026C000000000D0FFFFFFFF002B00D0BDE0130C87
:1026D00026D1002AE7D080B4104F39667A66FFE72A
:1026E000FFE730B4040C7B6F396F1B0423433B6658
:1026F000FFE7FFE7FFE7C04684B27B6F3D6F1B0437
:1027000023433B66FFE7FFE7C04600232C042D0C64
:102710007A6F386F00196941B0BC7047000000D073
:10272000F0B594460025140E01D112020835140F9D
:1027300001D112010435940F01D192000235D40F5A
:1027400001D152000135D40B0134254F7C66254C54
:102750003C660E0C93B2FFE7FFE7FFE73C6F664372
:10276000360C7703BE467343DF0B5B04C01AB941D6
:10277000130C7343DB18C91ACE086643360CB644F3
:1027800093B273431F0F1B01C01AB941130C73435B
:102790001F0B1B05C01AB941860D8F023E436643CD
:1027A000360C092D24DB520A7243801A7703460A3D
:1027B0006643360C16235B1BDE40DF40BF196446C0
:1027C0006643821B7046043506330100D940A84099
:1027D000C01900D30131A24206D20023F0BD00008F
:1027E000000000D0FFFFFFFF121B0130F3D3F1E721
:1027F00009277F1BFE406446A2B27243801A00D2B2
:102800000139220C7243130C1204821A99410B00F5
:102810007046043513370100F940A840801900D3F1
:102820000131002B02D1A2420AD2F0BD013000D307
:102830000131121BFAD2013BF8D1A24200D2F0BD05
:10284000013000D30131121BF7E7F0B51C0C00D0AA
:1028500080E00CB400251C0A04D11B02160E334381
:10286000120208351C0B04D11B01160F3343120151
:1028700004359C0B04D19B00960F33439200023524
:10288000DC0B02D192185B4101351C0097186441A2
:102890000134464F7C66464C3C660E0CFFE7FFE772
:1028A000FFE7C0463C6F6643360C7703BE4697B2DF
:1028B0007743C01B00D20139C01B00D201399FB23F
:1028C0007743C91BC91B170C77437E04FF0B801B82
:1028D000B941CE086643360C0C2D33DBB644120BDF
:1028E0001F053A431B0B97B27743C01B00D2013937
:1028F0009FB27743C91B170C77433E043F0C801BE4
:10290000B941860D8F023E43664329277F1BFE4057
:102910000C3D7746AF40BF1930BCA2B2ABB2724398
:102920007343801A9941220C7243130C1204801ACB
:10293000994102000B000137001BA941F9D2781E12
:102940000021F0BD0C277F1BFE4077467F0BAF4078
:10295000FF19E0E700245D1C07D0144F7D6639663F
:10296000FFE7FFE7FFE7FFE73C6F95B29EB26543E5
:102970006643401BB141150C1E0C6543664336048B
:102980002F0C3E432D04401BB141994204D202005A
:102990000B0020000021F0BD01D19042F7D3801A36
:1029A000994101349942F2D3F6E70000000000D0CB
:1029B000FFFFFFFF132370B51C78012C10D00BDD37
:1029C0000C48FFF78FFD0C4D01008022280000F01D
:1029D0009FF8022C01D070BD074D084AAA64FAE79F
:1029E000054D064A29002B00803104C38B42FCD1DF
:1029F000AA64F0E753440000F4140020012A0010F8
:102A000007B5604601880A0A0230DF2AFAD1C9B246
:102A1000820804D3028840880004104300E0006864
:102A2000014A5050039007BDF41400205143434322
:102A3000C9188C46110C83B24B4310B4040C61438B
:102A400092B280B2504362431C041B0C001910BCAC
:102A500059411304120CC0185141614470470000E1
:102A6000132310B51C781348FFF73CFD012C0BD045
:102A700004DD01008022104800F04AF80F48FFF7FB
:102A800029FD0F4B186010BD0B4C01005422200093
:102A900000F03EF80B4B6365A365E3652366636650
:102AA000A366E36623676367A367E3672362E36163
:102AB000E4E7C04653460000F41500204C33000004
:102AC000F4160020C92A001007B5604601880A0ADA
:102AD0000230DF2AFAD1C9B2820804D302884088C2
:102AE0000004104300E00068014A5050039007BD05
:102AF000F415002001480421014B18477003002001
:102B0000F5240010014B1B681847000070030020DB
:102B1000014B5B681847000070030020F8B547467A
:102B2000CE4680B5437C80460E001700002B48D06F
:102B3000002A2EDD274B012500240020994604E0C1
:102B40002B00013401359F4219DD002C3ED0631E5D
:102B5000F35C0D3B59425941CBB2325D0A2AEFD1A9
:102B6000002BEDD1844226DC434648461B680221F7
:102B70009847013428002B0001359F42E5DCB8421C
:102B80000BDBF619013E33780D3B59425941434660
:102B900019740CBC90469946F8BD4346391A301852
:102BA000F6191B68013E984733780D3B594259414D
:102BB00043461974EDE74346211A1B6830189847BD
:102BC000D2E70368110030009847E2E743461B7CD8
:102BD000C3E7C0467C6A0010F0B5DE464E46574655
:102BE0004546E0B583B0070002F046FFD02301AEB2
:102BF0001B068046310035481C6803F059FE8146AB
:102C0000002808D1019B64B29C4204D02F4803F0F5
:102C10005FFE012399464346C346013351D02C4BF6
:102C20001C689A46002C40D02A4D02E0E468002C33
:102C300020D02368002BF9D02B68002B01D0A342B1
:102C4000F4D15A4639002000FFF768FF0A23337099
:102C5000637C002B30D0237C002B21D102211E4825
:102C60002368984733780D3B594259412174E468F1
:102C7000002CDED14B46002B1AD153461C68002C89
:102C800006D06368002B00D09847E468002CF8D188
:102C9000404603B03CBC90469946A246AB46F0BDC8
:102CA0000121300023689847DCE74B46002BEFD02A
:102CB000064803F0E5FDE0E701213000236898476E
:102CC000B4E7380002F0D8FE8346A8E7A40C002041
:102CD000881000208C1000207C6A0010F0B5464659
:102CE000DE465746C0B5904682B00E00002830D16F
:102CF000194B1A4D1A685B68194F9A46194B019285
:102D00009B465B461C68002C05D115E0A34205D00C
:102D1000E468002C10D02B68002BF7D1A368002B9F
:102D2000F6D04146300098470028F1DD02B01CBCC7
:102D300090469A46A346F0BD01200021FEF778FB9D
:102D40007B6A9A45DDD8BA6A01998A4201D29A45CE
:102D5000D7D001204042E9E7D06900108C10002054
:102D60000040054088100020F0B54646D6464F4644
:102D7000C0B5884682B01600012840D1D0231B067A
:102D80001C68204B01A918009A4603F091FD071E0C
:102D900007D1019B64B29C4203D0504603F098FDDA
:102DA0000137B146731C25D0174B1C68002C14D07A
:102DB000164D02E0E468002C0FD02368002BF9D0F8
:102DC0002B68002B01D0A342F4D120004A46414693
:102DD000FFF7A4FEE468002CEFD1002F06D13000ED
:102DE00002B01CBC90469946A246F0BD504603F086
:102DF00047FDF4E7404602F03FFE8146D4E7012656
:102E00007642ECE7A40C0020881000208C100020F3
:102E10000D4B1A68002A12D0824203D109E0984271
:102E200007D01A00D368002BF9D1002900D0D06058
:102E300070470029FCD1C368D360C160F8E700295E
:102E4000F6D01860F4E7C04688100020F0B50029DD
:102E500015DD0E4B0D271A680D4B4118D3185C4237
:102E600063410C4C5B001E5F20240578B54207D0FF
:102E700093691C42FCD1013015608842F5D1F0BD48
:102E800093691C42FCD11760F2E7C046DC140020B5
:102E90000080FCBFF014002030B5002914DD0C4B7D
:102EA0001A689369DB060FD4050010240020013056
:102EB00093691C42FCD113682B70814203D0936943
:102EC00001351C42F3D030BD03204042FBE7C04631
:102ED000DC14002070B51C000A4B15001860FDF7CB
:102EE00031FE002D03DB02212800FDF713FD002C2D
:102EF00003DB02212000FDF70DFD01210248FFF751
:102F000087FF70BDDC1400208003002010B5114C39
:102F1000114B22689A4210D1104B62689A420CD130
:102F20000F4BA2689A4208D100230E482360FFF796
:102F3000D1FA0021030000209847074B0A4823607C
:102F4000064B00216360064BA360FEF771FA002375
:102F5000236010BDC40C0020DE8116F0299B72BDD9
:102F60007ABE59D355420000400D030010B5192018
:102F7000FDF730FD8022D023E12192041B065A6226
:102F80000448054B0022186049020123FFF7A2FF05
:102F900010BDC04600400340D81400208022D0233A
:102FA00092041B06002801D19A6170475A61FCE720
:102FB000F0B54546DE4657464E4698238024E0B598
:102FC000634A6402D35885B0984623422CD001222C
:102FD0002321604B00205A54DA705F4901F082F9D6
:102FE00080225E4B92021A655D4B03934346DB06DB
:102FF00020D4802342465B011A4247D180234246B7
:10300000DB011A4200D094E0802342461B021A42A0
:1030100000D083E0444500D095E005B03CBC90462C
:103020009946A246AB46F0BD1023039343460024C5
:10303000DB06DED5464B9F6D002F21D0474B002687
:103040009B4601239946434B01259A4603E06D00B8
:103050000136202E14D02F42F9D05B469D654B4699
:1030600074086400B343E41864015444200000F081
:10307000DBFA002846D1AF4301366D00002FE8D1BE
:10308000802342465B01039C1A42B7D0002680226F
:10309000304D2F4FD20000213E6028001C43FFF727
:1030A00031FD80202F4B304A40211A600123844695
:1030B0002E4A6B70EB70A983AA6016602C4A5E38AA
:1030C000EA60914662462A5401382E5402302B544D
:1030D0003D33EE54274BA987AB626E601E604B46B2
:1030E0000122EB626E620021002001F0D1F8802203
:1030F0001A4B12031A65FB6CDB0300D47EE702F067
:10310000BDF97BE74B46A28AA178002000930023FB
:1031100001F016F9200000F0A5F9ACE70122052125
:1031200000201C4301F020F880220C4B12011A658C
:1031300070E70122042100201C4301F015F8102241
:10314000064B1A6560E741460B486140FEF7FCFDFF
:103150000000115098100020000010500030115055
:1031600010000100A41400208001105084001050B1
:103170000001105080001050BC6A001010B50121F1
:103180000520FEF769FF10BD0123232210B5044876
:1031900000218354C3700022203000F097F910BD45
:1031A000981000208022024B5202DA647047C04619
:1031B00000201150F0B5C64600B5060000F02CF90D
:1031C0000C231E4D1E49AB670520FEF75FFF8022D2
:1031D00080271C4CD20000212000FFF793FC1A4BE3
:1031E0001A4A40201A6000230122BC461849627026
:1031F000E270A083A1600B601649A087E160884659
:1032000061465E3F0238E1552354013F1248E355C1
:103210000237E2556360A062036063624346E36283
:1032200080239B052A64EB6490230C4A3000EA500B
:10323000FFF7B8FF04BC9046F0BDC0460000115037
:10324000B12F001098100020A4140020800110500D
:1032500084001050000110508000105010D0010068
:103260000B785B0602D14B78052B05D00122232178
:10327000034BDA705A5470478A78024B1A60F5E7AC
:103280009810002000001150F0B54746CE460723A5
:1032900080B548790A79034083B01B028F781343C5
:1032A000CA7869469207920FCA7194467F22CD79F7
:1032B00079B288463A40CE0F54002D48A1194901F1
:1032C00041188F704746FF43FF0F4F7057425741D9
:1032D000CF7067468B838F77414600292DDB254FC2
:1032E000D100BC4697016144C719B96000270F603F
:1032F000002A2DD02049D2008C466244A1194901F0
:1033000041184A601D493F330B40022D2CD01C4F01
:10331000A41939686401CB183B601A4B0019C160CD
:10332000594080231B060B43AD061D431560012049
:1033300003B00CBC90469946F0BD134FD100BC467B
:1033400097016144C719B96200270F60002A06D1AE
:1033500000237601801943600C4BC360E7E70949FD
:10336000D2008C466244C9E75B009BB2CFE7C046FF
:10337000981000208400105004001050C0FF00007E
:10338000A4140020000010508000105000011050C4
:103390007F2070B5150008404000C909044C401852
:1033A0004001201829001A0000F090F8012070BD9B
:1033B000981000207F2010B5084049B2002804D1A1
:1033C000CB43084ADB0F013393668022C90F4000CC
:1033D00040180549400108181201044900F04AF854
:1033E00010BDC0460020115098100020FFF7FFFFCD
:1033F0007F2310B50B4009D0C9095B00CB180448E6
:103400005B01C0180022034900F034F810BDC0462B
:1034100098100020FFD7FFFF80220D4B520410B5FB
:103420001A600C4B0C491A6010008B689843FBD152
:103430000A4C9C2200212000FFF764FB802200211F
:1034400052010748FFF75EFB0923636710BDC046C2
:1034500000E0004000F0004000C0004000001150BB
:1034600000001050002303744374438283828361FD
:103470007047C04610B58368002901D01C68214000
:10348000002A11D08024E400114322420CD01A6893
:1034900022420BD10A4A0A401A60FFE7FFE7FFE722
:1034A000FFE7FFE7FFE78368196010BD7F2281789F
:1034B0000448CB091140044A9B009A58FEF744FC8B
:1034C000FFFBFFFFD06A001094030020F8B5CE4642
:1034D000474680B5437C0400002B01D000230374D1
:1034E0000023A382013363746368A1611B6899465A
:1034F000A38B1E1C934200D9161CE378802518006C
:10350000471EB841B6B2ED004003354305430120E4
:103510004340921BE370637892B26282002B52D0D8
:10352000002A1FD1A023DB011D43394B1B6C4A46E7
:103530008027384BBF0513401F436368A2681F6094
:1035400013685B055AD4344B2B401360FFE7FFE749
:10355000FFE7FFE7FFE7FFE7A3681D600CBC9046AD
:103560009946F8BD80235B011D43294B1B6C9B07CB
:1035700002D4A3787F2BDAD9A38B191C934200D9EC
:10358000111C80268BB2F600D21A1E439846E378AF
:1035900092B21900481E814149030E4301214B405C
:1035A000E37063786282002B1AD0002A02D1802354
:1035B000DB011E434A46A027184B36041340FF0583
:1035C00035431F43B9E73200E068FFF7A1FAA3696A
:1035D000628A9C46802366441B02A6611D439FE7C6
:1035E000E06842464030A169FFF792FAA369628A17
:1035F0004344A36180231B021E43D6E77F22A178A8
:103600000748CB091140074A9B009A58FEF79CFBDC
:1036100000001150FFFFFFAFFFFBFFFFFFFFFFDFC9
:10362000D06A001094030020F0B5C64600B5467C71
:103630000400002E00D1D4E083681A681D68437826
:10364000AD05AD0D002B00D063E0838AEB189BB273
:103650008382A18B8D4207D20023638263681B683B
:10366000300004BC9046F0BD62681268520010D56C
:103670008D420ED1A26817686278BF01BF0D002A83
:1036800000D092E0FB18A382AF4265D20023638290
:10369000E6E7638A002BE3D062680F1C1668994244
:1036A0004AD8E27880251100481E8141BFB2ED0062
:1036B00049033D430D4301214A40DB1BE270627820
:1036C0009BB26382002A39D0002B2FD08022520176
:1036D00015434C4A126C920741D4A2787F2A3ED8F7
:1036E000494B33408026B6051E436368A2681E60BE
:1036F00013685B0500D57BE0444B2B401360FFE76C
:10370000FFE7FFE7FFE7FFE7FFE7A36800261D608D
:10371000A6E72A00C1688069FFF7FAF9A38AA269BF
:10372000EB189BB25219A382A26192E7A023DB019E
:103730001D43344B1B6CD3E71F1CB2E73A00A16951
:10374000E068FFF7E5F9A3699C46802367441B0204
:103750001D43A761638AB7E7638A29009AE7A28BB2
:10376000111C9A4200D9191C80278AB2FF009B1AAB
:1037700017439046E2789BB21100481E81414903ED
:103780000F4301214A40E27062786382002A1AD016
:10379000002B02D18023DB011F431D4B3F0433402C
:1037A000A026F6053D431E439FE7E1683A004031FD
:1037B000A069FFF7ADF9A38AA58BFB18A382A369C3
:1037C000DB19A36160E7E06842464030A169FFF77A
:1037D0009FF9A3694344A36180231B021F43638AAB
:1037E000D6E77F2381780B4A19400B48FEF7ACFAE5
:1037F0007F22A1780948CB091140064A9B009A58BC
:10380000FEF7A2FA00001150FFFFFFAFFFFBFFFF22
:10381000FFFFFFDF94030020F06A0010D06A001061
:10382000014B18787047C046E7140020F8B54746AA
:10383000CE462A4E80B533788046002B04D0012036
:103840000CBC90469946F8BD532200212448FFF74E
:1038500059F9244C2000FDF7F1FE234B1C60234C4A
:1038600020001C30FDF708FF200001F025FD204B53
:103870001C60204B002B28D01F4D0024280000E0A6
:1038800000BF1E4F1E4A38602B7891460AE0630045
:103890001B193A68DB009B58984701342B78E4B237
:1038A000A34209DB9C42F2D315D14B469847013421
:1038B0002B78E4B2A342F5DA4046FFF77BFC4046A2
:1038C000FFF75CFC01233370B9E700F05FFF0A4BA0
:1038D0001B78002BF0D000231B68FFDEE7140020CC
:1038E000C00E0020780E0020140F00209C03002042
:1038F000180F002000000000E6140020200E002019
:103900008D470010F0B5DE4657464E464546E0B5B9
:103910008BB001F0E3FB002800D186E1CB4E07AC71
:103920003568EA69EFF3108172B61368002BFCD09A
:10393000BFF35F8F29622800210001F02BFCEA69A8
:103940002B6ABFF35F8F0021116083F3108800287A
:1039500000D16AE16378082BE2D8BD4A9B00D358B6
:103960009F466368002BDBD0A0689847D8E77F228A
:103970002179B84B0A405500C8095B191B1818007B
:1039800001273030C578BD43C570C5780337BD43C6
:10399000C570002A00D191E1AF4ADB7C002A00D13A
:1039A0004CE1AE4A1278934200D345E15A00D31855
:1039B000AB4ADB001268D318002B00D135E11D693A
:1039C0003FE10122A34D01212B78042013432B70EA
:1039D0003323EA5C27788A43EA54EA5C8243EA5458
:1039E0000133EA5C8A43EA54EA5C8243EA540020E9
:1039F00000F0B4FD23795A06920F032A00D14AE160
:103A000060221A40402A00D15EE1DB06DB0E012B6A
:103A100000D167E1002B00D17AE1022B00D03AE11E
:103A20007F232089C1B20B400F2B00D933E140B274
:103A3000C00F80465B009B468748EB184344DB7C05
:103A4000002800D191E185480078834200D38AE1C3
:103A50005800C3188248DB00006881469944002A58
:103A600000D188E14B46002B00D114E1D86800F06A
:103A700075FD4B4608AADB680021380098472DE108
:103A8000744B1B78DB0700D44AE7764B002B00D140
:103A900046E7FCF7F7FC43E76E4B1A78D20700D4F1
:103AA0003EE7714A002A00D13AE718780007C00FB4
:103AB000FCF7E0FC34E7694B002598461A78664B22
:103AC000002B00D1ABE0664F07E0AA4200D0A9E08E
:103AD0000135EDB2AA4200DA22E7AA42F5D93968E7
:103AE0006B008C465B19DB0063445B69002BEFD0F5
:103AF0002078984743461A78EAE7564D532200212A
:103B000028002778FEF7FEFFE81C1022FF21FEF7B1
:103B1000F9FF28002022FF211330FEF7F3FF00F009
:103B200013FD4E4B4C4A984600251B78002A6CD05A
:103B30004B4A91464D4A92460FE04A4612686B0046
:103B400094465B19DB0063445B6838009847434642
:103B500001351B78EDB2AB420BDBAB42EDD85BD14C
:103B6000534638009847434601351B78EDB2AB42C7
:103B7000F3DA3F4B002B00D1D2E6FCF775FCCFE621
:103B8000344D23785322002128009946FEF7BAFFCE
:103B90001022FF21E81CFEF7B5FF28002022FF219C
:103BA0001330FEF7AFFF00F0CFFC2C4B2A4A9846AB
:103BB00000271B78002A00D176E0294A92462B4A3A
:103BC00093462A004D4691460FE0524612687B000C
:103BD0009446DB19DB0063445B6828009847434642
:103BE00001371B78FFB2BB420BDBBB42EDD813D1D0
:103BF0005B4628009847434601371B78FFB2BB421B
:103C0000F3DA4D462379AB708AE6380000F074FE93
:103C100043461B78002BACD000235B68FFDE002AF4
:103C200000D17DE600235B69FFDE0BB03CBC904613
:103C30009946A246AB46F0BD9B1ADBB2002BF4D1ED
:103C40000C4D62792078A368A84769E6180F002018
:103C5000246B0010C00E002000000000E6140020BD
:103C6000200E00208504001075040010F948001093
:103C70006904001031490010FCF714FC021E0AD040
:103C8000C37881781B020B43380008A900F006FCBA
:103C9000002800D044E620780021FFF78BFB207835
:103CA0008021FFF787FB3BE6484600F025FE4346B0
:103CB0001B78002BA6D000235B68FFDE627920789A
:103CC000A36800F05FFC2BE6CD480028E3D000F0AD
:103CD00045FC08AA0021380000E000BF002800D001
:103CE0001EE6D8E7237A0F2BD5D8C64AED18EB7815
:103CF000002A1BD0C44A1278934215D2C34A5D00F1
:103D0000EB181568DB00ED18002DC4D0E86811E051
:103D1000202A00D1E4E0002ABDD16379092BBAD86A
:103D2000BB4A9B00D3589F469B1ADBB2002BB2D1F3
:103D3000B848B94D00F012FCEB6808AA0021380021
:103D40009847002800D0EBE5602322791340A2D1E8
:103D500062790A2A00D1F8E00B2A9CD108A9380020
:103D600000F084FBDCE51B1ADBB2002B39D0002A03
:103D700091D10023994663799A46012B04D0002BF8
:103D800000D1CCE0032B86D1E388002B12D153461F
:103D90003800012B00D1C5E1FFF70CFB5B46022187
:103DA000EB1843443033DA780A430121DA70DA78C9
:103DB0000A43DA704B46002B00D1B1E54B46D86878
:103DC00000F0CCFB4B4608AADB680021380098477E
:103DD000002000F0C3FB3423EB5CDB0700D59FE53C
:103DE000BCE7002A00D0ACE08B4B9946C3E7A3792F
:103DF00003931A006B78002B02D1002A00D0ADE0AB
:103E00006B461B7B08A938006B7000F02FFB87E521
:103E10006B7806AA0232137008A90123380000F05B
:103E20003DFB7DE52B7806AA99061B07DB0FC90F22
:103E30005B0002320B43138008A90223380000F014
:103E40002DFB6DE5E388D8B21B0A0F2B00D922E7C2
:103E5000724A9B00D3589F4608A800F085FBA179C1
:103E60003800FFF791F902222B7813432B7057E5A6
:103E7000E388012B00D00EE708222B7808A9134312
:103E800038002B7000F0F2FA4AE5E388012B00D0ED
:103E900001E708222B7808A9934338002B7000F023
:103EA000E5FA3DE55E4B002B00D1F4E600E000BFF3
:103EB000021E00D1EFE6137808A9380000F0EEFAF0
:103EC0000CE72189FCF7F2FA021EF4D1E3E6FCF7D5
:103ED000E5FA1223020008A9380000F0DFFAD7E65D
:103EE000237A0F2B00D9D6E6464AED18EB78002A44
:103EF00021D0454A127893421BD2444A5D00EB1808
:103F00001568DB00ED18002D00D1C4E6E86800F06C
:103F100025FBEB6808AA002138009847DEE62B0055
:103F20005B4443443033DB7806AA9B07DB0F023245
:103F300081E79B1ADBB2002B00D0ACE63548364D4A
:103F4000E5E7354B3348994691E506AA02321370EE
:103F500008A90133380000F0A1FAE1E4501EC0B214
:103F6000FCF7A0FA002800D195E64378022B00D098
:103F700091E60122C379914698465B0913401901E5
:103F80002B780F32934342469A464B469209134090
:103F90005A0153460B4320218B4313432B700923B3
:103FA0009946C37882781B021343C3188144049353
:103FB000994500D39FE0144BAA469B464B46B94611
:103FC0001F0000237A7802930B2A00D1B9E0042A5B
:103FD00000D060E6049BDB1B9BB20093BB7853448C
:103FE000DB78FF2B00D056E65B46064A1B78002A9A
:103FF00034D0002201923A0000254F46914628E035
:104000000000000000000000E6140020200E002048
:10401000486B0010494C0010B06B0010706B001022
:10402000000000004C4A6B0012685B199446DB00EC
:1040300063449B680592009A4946380098470028D7
:104040001CD15B4601351B78EDB20195AB4200DA1D
:1040500021E6AB42E6D80ED1404BECE7009A39009E
:10406000484600F0A7FB8046002870D15B461B78CD
:10407000002B00D10FE600239B68FFDE4B468046F5
:10408000B9461F004346082B00D804E6009B434571
:1040900000D200E65246BB78D218D570029A002AA8
:1040A00015D091781000994200D0F4E512797B790F
:1040B0009A4200D0EFE5C278012A08D9023A0431C9
:1040C0005144D2B2080001322900FEF71BFD5046D0
:1040D0002B0042463900133001F03EF85B46019A4E
:1040E0001B784744934200DAD5E5049BBB4200D9D4
:1040F00067E74F4655461A4B002B00D180E6FCF788
:10410000ADF97DE6174B002B00D1C4E500E000BF00
:10411000C37881781B0202000B43380008A900F025
:10412000BDF9DBE5FFF764F95B460221EB18434478
:104130003033DA788A435146DA70DA788A43DA70B3
:1041400038E63B780297FB185A781F003FE70023B8
:104150000025019396E7C046200E0020B5470010C9
:104160005D0400100000000070B586B005000C0072
:104170000C2200216846FEF7C5FC6B461D705C7082
:10418000032C53D01CD9042C08D0052C35D13E4B20
:104190001A78D20700D568E006B070BD3A4B1A789D
:1041A000D207F9D504211A780A431A70374B1C68D4
:1041B000E269EFF3108172B61368002B26D1FBE79A
:1041C000022C1AD1304B1A78D207E5D501211A7882
:1041D0008A431A701A780331A2431A7000225A7067
:1041E0001A788A431A70294B1C68E269EFF3108130
:1041F00072B61368002B09D1FBE7244B1C68E269F7
:10420000EFF3108172B61368002BFCD0BFF35F8F01
:1042100021626946200001F00BF8E269236ABFF3CE
:104220005F8F0021116083F31088B5E7164B1A7871
:104230005207B1D504211A7803AE8A431A700021BF
:104240000C223000FEF75EFC052373700F4B3570B7
:104250001C68E269EFF3108172B61368002BFCD082
:10426000BFF35F8F21623100D4E704211A788A43BB
:104270001A70064B1C68E269EFF3108172B613687E
:10428000002BC3D1FBE7C046C00E0020180F002052
:1042900070B584B001AC06000D000C220021200096
:1042A000FEF730FC012363700D4B25711D682670ED
:1042B000EA69EFF3108372B611680029FCD0BFF3EE
:1042C0005F8F2B622100280000F0B2FFEA692B6AA1
:1042D000BFF35F8F0021116083F3108804B070BDBD
:1042E000180F002070B584B001AD06000C000C2240
:1042F00000212800FEF706FC06232100082202A860
:104300006B702E70FEF704FC0C4B1C68E269EFF337
:10431000108372B611680029FCD0BFF35F8F23624F
:104320002900200000F084FFE269236ABFF35F8F59
:104330000021116083F3108804B070BD180F0020B5
:10434000F0B5C646804600B584B001AC0F0016003B
:1043500000210C2220001D00FEF7D4FB43462370F1
:10436000072363700F4B65711D682771A660EA69AA
:10437000EFF3108372B611680029FCD0BFF35F8F92
:104380002B622100280000F053FFEA692B6ABFF37B
:104390005F8F0021116083F3108804B004BC904645
:1043A000F0BDC046180F00207F2370B58A78050045
:1043B0000C0013400F2B01D9002070BD054B2000CD
:1043C000997800F08FFE0028F6D021002800FEF733
:1043D0005BFFF2E7C00E002070B57F240C40650043
:1043E0000E4C06006419C80924183034E578002002
:1043F000ED0700D570BD0125E0782843E07030005E
:10440000FEF7C6FF0028F5D10122E3789343E3705D
:10441000E37803329343E370ECE7C046C00E00201C
:104420007F23CA090B4004495B00C9188918303141
:10443000C878C007C00F7047C00E002010B50C0030
:10444000FEF7B8FF7F21022221404B000649E40914
:10445000C91809193031CB7813430122CB70CB78BE
:104460001343CB7010BDC046C00E002070B50A4C7F
:104470000600082220000D00FEF74AFB0023002161
:10448000A360E381A38169563000C943C90FC90104
:104490000022FFF7A1FF70BD240E0020F0B5C64634
:1044A0009046274C082200B5060020000D001F0092
:1044B000FEF72EFB4346A3600023E381EB79AA7944
:1044C0001B0213431A1CBB4200D93A1C97B2A281AB
:1044D000002B12D0002F1FD04346002B2ED03B1CA8
:1044E000402F17D89FB223787F2B1ED80021154A62
:1044F0003B003000FFF770FF09E000216956002300
:10450000C943C90FC90100223000FFF765FF04BC91
:104510009046F0BD4023E5E723787F2B02D80021A9
:104520000022E5E780210022E2E7064C3A004146FE
:104530002000FEF7EDFA80212200D9E70020E6E70F
:10454000240E0020800E002010B514220021024805
:10455000FEF7D8FA10BDC046240E0020014B1861AA
:104560007047C046240E002010B5054C01000822FB
:104570002000FEF7CDFA0023A360E381A38110BDE4
:10458000240E002070B53A4C1D0023780600DA098D
:10459000C9098A4212D00020002D0ED1354B002BC4
:1045A00003D021003000FEF75BFE2369002B2ED0E4
:1045B0002200022130009847012070BD7F2B06D8D1
:1045C000A068002825D02A002B49FEF7A1FAA2688E
:1045D000E38951195B19E2889BB2E381A1609A4299
:1045E00001D03F2D17D82369002B05D022000121CF
:1045F00030009847002824D0002161560023C94389
:10460000C90FC90100223000FFF7E6FED5E70120FF
:10461000D3E70020D1E7A289D31A1D1C9BB2402BFF
:1046200000D940252378ADB27F2B14D80021002D6E
:1046300005D100222B003000FFF7CEFEBDE70E4A69
:10464000F8E700213000FEF7B5FE30008021FEF7CC
:10465000B1FE0120B1E7002D01D18021E9E7064C30
:104660002A002000FEF754FA80212200E2E7C0462B
:10467000240E002061320010800E0020F8B50F00DB
:104680000121094C06004942206802F019F9074B44
:1046900000251A78B24201D11F700135206802F05E
:1046A000EFF82800F8BDC046E0140020C003002049
:1046B000F8B54746CE46334C1E00237880B5804679
:1046C0000F0091460025042B04D028000CBC904616
:1046D0009946F8BD20000C2208300021FEF712FA9E
:1046E000022323728F33E35C4A466372DB43A37277
:1046F00001231E40760013401E4326743E00200016
:104700000C36E7601430402E1BD83A004146FEF7C5
:10471000FFF98823E5500433E75047440833E75056
:10472000402E2CD006270121174D4942286802F05F
:10473000C7F82378042B15D0286802F0A1F80025CB
:10474000C3E734224146FEF7E3F98823343FE750BC
:10475000342247460433E25034370833E7504026CA
:104760000527E0E72868277002F08AF82200B3B234
:104770000832E178A078FFF72FFE0500A5E7402674
:104780000527D0E7C0030020E014002010B5FBF798
:10479000CBFE9823044C054AD0502000FCF74EFF76
:1047A000034B1C6010BDC046B8170020C00300209A
:1047B000E0140020F8B557464E464546DE46E0B5C3
:1047C0004B7980460E001700FE2B07D000242000F6
:1047D0003CBC90469946A246AB46F8BD8B79032B6C
:1047E000F4D12E4B9A461B78002BEFD152468B7892
:1047F0005370534698700A79002A39D0002399469D
:1048000007330D0000249B4607E02B78E418A4B280
:10481000ED1891452DD2A7422BD36B78052BF4D1FF
:10482000EB789B079B0F022B10D0032BCED1524667
:10483000AB78537129004046FFF7B6FD0028C5D07C
:104840004B460133DBB299463279DEE759466B7944
:104850002A790B401B021343402BB7D1AB785AB2D5
:10486000002A02DB52461371E4E75246D370E1E7B7
:10487000002401210A4D4942286802F021F85346DC
:104880001B78002B02D1524601331370286801F0C7
:10489000F7FF307AFBF744FE99E7C046C0030020DB
:1048A000E014002070B5124D2C78E4B2032C0AD02D
:1048B0000A2C10D0012C0ED0002070BD02233068CD
:1048C0002B7001F0DDFF2A0029794832A8784023B7
:1048D000FFF782FDF1E70121064E4942306801F001
:1048E000EFFF2B789C42E9D0306801F0C9FFE3E785
:1048F000C0030020E0140020F8B50126FBF714FEE9
:10490000094D764207003100286801F0D9FF074CB5
:104910009C2200212000FEF7F5F898232868E75034
:10492000667001F0ADFFF8BDE0140020C003002068
:10493000F0B557464E46DE464546E0B5140083B016
:1049400007001E00002A1CD1BD4D2B78072B30D04C
:104950002B798B422FD0EE788E4255D06C79641A29
:1049600063426341DCB20DE00121B64C494220684C
:1049700001F0A6FF2B78062B00D1BDE0206801F0E6
:104980007FFF0024200003B03CBC90469946A2461D
:10499000AB46F0BD0121AB4B49421868994601F086
:1049A0008FFF2B78022B00D1F5E04B46186801F001
:1049B00067FF0124E6E72A78D2B2022A52D0032AFE
:1049C000DFD12B78032BF4D18533EB589E4200D3F3
:1049D0009BE03F2E00D898E0002231009E4200D993
:1049E000190088205B1A2B5004302B585B182B5071
:1049F00028004830FBF7BAFD0028DAD129793800C1
:104A0000FFF71CFD0024BDE72B78DBB2062BABD0F3
:104A100007D9082B43D0092BB3D10A2301242B70CB
:104A2000B0E7052BADD188239946EB5898463F2B2C
:104A300041D9942398464246543BAA583100FFF787
:104A4000CBFC041E9DD043464246EB584033AB504E
:104A50004B464A46EB58403BAB500432AB584033D0
:104A6000AB508FE70B2E00D88BE74A22AA5C492176
:104A7000D243695CD2B2914200D082E7002900D1D2
:104A80007FE74822AA5C022A58D0802A4AD0012A0D
:104A900000D17FE71900FFF7D1FC002472E72A005C
:104AA000002308323100FFF797FC041E00D168E7AD
:104AB00009232B7066E708239A468C33AA44E958E9
:104AC000424650469B46FEF723F88C22AB583100F5
:104AD0000433AB504B46EC505B466A46EC504346C1
:104AE0009380938838005246FFF776FC041E00D16D
:104AF00047E706232B7045E7053B20682B70002411
:104B000001F0BEFEFBF78EFD3CE701214D4C494212
:104B1000206801F0D5FE2B78032B33D0206801F0FC
:104B2000AFFE6BE79823EB589B7B5B0700D428E72D
:104B300028004830FBF7FCFC040023E70C2E00D0D3
:104B40001FE704210220FFF799FD002800D118E794
:104B50004923EA5C4833EA54EA6C093BEA500022F4
:104B60000433EA503C3BEB5CDB0705D59823EB585C
:104B70005B79DB0700D404E728004830FBF778FDB9
:104B80000400FFE6023B20682B7001F079FE8823C9
:104B90000122EB5821E701332B704B46186801F0D6
:104BA0006FFE00239A46524628008C33EA50EA6C86
:104BB000043B48309B46EA50FBF7C4FC04000190DC
:104BC000504500D11AE72B78032B04D04923EA5C27
:104BD0004733EA54D6E60F3B98465B46EB58B04461
:104BE000984501D23F2E0DD84B4601211868494205
:104BF00001F066FE2B78032B19D04B46186801F0A4
:104C00003FFEFBE6524688234146EB58994200D9C5
:104C1000190088205B1A2B5004302B585B182B503E
:104C200028005430FBF7A2FC0028CFD1E6E6023B77
:104C30002B704B46186801F023FE2200E3E7C046C4
:104C4000C0030020E0140020F0B54746CE4680B5F2
:104C5000804685B01500012400290DD16B46DF1C6C
:104C6000802316783B70013B3340022B58D06023E1
:104C70003340202B06D00024200005B00CBC904609
:104C80009946F0BD6B78052B00D1B0E05FD8022BC0
:104C900000D12BE100D8E9E0032B00D166E1042B21
:104CA000E9D1A22EE7D1EB79AA791B021343082B95
:104CB000E1D102AF082200213800FDF723FF802355
:104CC000C54C3B70237801210A3B1A00531E9A41C0
:104CD0007B7838008B4313437B708C23E3587B60D5
:104CE000FBF7ECFD0028C6D00121BC4E49423068DC
:104CF00001F0E6FD2378DBB20A2B00D1DBE10B2BC0
:104D000000D1D5E1082B00D1D2E1306801F0B8FD27
:104D100008233A0029004046FFF7C0FB0400ABE738
:104D20005378012BA3D1EB7892781B021343A2D1C5
:104D30006B792A79A84D1B0213432A79934200D13B
:104D40003EE1EA78934296D1FBF7C8FD94E7072B42
:104D500000D1F7E000D2ADE0402B6DD0802B00D029
:104D600089E70024A12E00D086E7EB79AA791B02FF
:104D70001343032B00D07FE7EB78AA781B02134381
:104D800019007F2291430A1E00D075E77F3213403D
:104D9000D8B29146821E7D2A00D96DE72A798E4EBF
:104DA000944661466A79777812020A43974200D0A6
:104DB00062E702AF78707279A24200D180E10122ED
:104DC0004946BC7001AC3A70227838008A431343DC
:104DD0008022524213432370FBF786FD607002234A
:104DE000717922004046FFF7F7FA032391E7A12EDD
:104DF00000D040E7EB79AA791B021343012B00D0C6
:104E000039E7754C40462179FFF718FB0121002254
:104E10008823724E49423068E25001F051FD072369
:104E20003068237001F02CFD3800FBF70DFD0028E1
:104E300000D120E701236CE7A12E00D01BE7EB791E
:104E4000AA791B021343012B00D014E7624A97335F
:104E5000D3581B795B0700D40DE739002800FBF716
:104E600051FD002800D106E7012352E7012B00D0B5
:104E700001E7002302AF584C3B809033E25C7A702C
:104E8000A22E00D0F7E6EB79A9791B020B43022B87
:104E900000D0F0E66B79287921791B02034399420F
:104EA00000D0E8E62378032B00D1E3E080233B70B9
:104EB00002232EE7A12E00D0DDE6002302AF3B80C7
:104EC000EE79AB7936021E43022E00D0D3E6424C77
:104ED0004046E178FFF7A4FA002800D1B3E00122B0
:104EE0007B783E7013437B70022312E702AC0822EA
:104EF00000212000FDF706FE0123374A23708B3383
:104F0000D3586360A22E00D0B5E6EB79A9791B02D5
:104F10000B43082B00D0AEE66B79297912791B027E
:104F20000B439A4200D0A6E62000FBF7D1FC0028F4
:104F300000D1A0E62200082329004046FFF7AEFA80
:104F4000040099E6A12E00D095E6EB79AA791B0220
:104F50001343182B00D08EE61F4A8033D258290005
:104F6000803B4046FFF79AFA040085E6002302AF33
:104F7000194C3B809133E25C7A70A22E00D07AE625
:104F8000EB79A9791B020B43022B00D073E66B79F6
:104F90002879E1781B020343994200D06BE623781D
:104FA000042B1DD02378052B1AD02378042B03D093
:104FB0002378052B00D079E781233B700223A8E6F4
:104FC000064E0139306801F07BFC30682C7001F02E
:104FD00057FCFBF785FC4FE6C0030020E0140020DF
:104FE0007F21AB780B409A42DFD101230022374E5C
:104FF0003B70803987333068E25001F061FC8C23CC
:1050000099464A46A2584D3B13405A1E9341306878
:105010000833237001F034FC4B46E358002B0AD1CF
:105020002200E17808324046FFF7D6F9002800D187
:1050300021E6092323703800FBF736FC002800D155
:1050400019E6022365E63800FBF710FC002800D1C2
:1050500011E63B78012B00D02AE701211B4E494283
:10506000306801F02DFC02233068237001F008FC49
:1050700002234EE67F21AB780B409A429CD001215F
:105080000123124E494230683B7001F019FC0B239A
:105090003068237001F0F4FB3800FBF715FC0028A2
:1050A00000D1E8E521794046FFF7C8F9022330E650
:1050B00002233B7029E601233B70DB18237024E6B2
:1050C0003800FBF711FC0323B87022E6E01400203F
:1050D00010B50020FEF7AAFB10BDC04610B5FEF7C4
:1050E0009FFB10BD072310B54479027923401B02B2
:1050F0001A43C3789B079B0F022B16D00DD80020B4
:10510000012B09D102394B425941114B00209C46D9
:10511000614491424041C0B210BD022914D04023E5
:10512000002093424041C0B2F6E7022905D000209A
:10513000402393424041C0B2EEE7064B9C46624496
:1051400050425041C0B2E7E78023DB00E8E7C046A9
:10515000FF03000000FEFFFFF0B500247F27002AB8
:1051600006D115E00D786419A4B24919A2420FD9ED
:105170004D78052DF6D13D008E7835406D004519EE
:10518000F609AB550D786419A4B24919A242EFD8BB
:10519000F0BDC04670B5040080690D00002803D042
:1051A0000121494201F08CFBE089218A80B289B259
:1051B000421A92B2884202D26389D21A92B2A3886A
:1051C000934208D2C21A92B290422CD26089121A2B
:1051D00092B222821A00002A02D11DE0C91A89B2B5
:1051E0008B42FBD92368E2889C46514328006144E6
:1051F000FDF78EFC228A012592B2531C9BB29A4283
:105200000DD962899B189BB2A0692382002801D026
:1052100001F036FB280070BD0025238A9BB2A289CD
:105220009A42F1D2EDE7A0899042D2D2CEE7C046B1
:1052300070B5040040690E00002803D001214942E6
:1052400001F03EFBE589238AADB29BB2EA1A92B225
:105250009D4202D26389D21A92B2A388934226D089
:1052600028009D4203D3C01A80B28342FBD9236831
:10527000E2889C46504331006044FDF749FC6B1CBA
:105280009BB29D420AD9628960699B189BB2E381F7
:1052900000280AD001F0F4FA012070BDA2899A42D8
:1052A000F1D36069E3810028F4D10120F5E7207A89
:1052B0000028D5D1F1E7C04610B5040040690028A8
:1052C00003D00121494201F0FBFAA069002803D074
:1052D0000121494201F0F4FA0023E3812382A388EB
:1052E00060695B009BB25A1E5B42A2816381002809
:1052F00001D001F0C5FAA069002801D001F0C0FA80
:10530000012010BD80210B4A4902136D0B42FCD0D5
:10531000092304215367084A7733D150074B0020F3
:105320001A68074B0021DA67064B1A68064B1A64A5
:105330007047C046000011500030115090100020FE
:1053400000400140A814002000C0014070B51020AA
:1053500084B0FBF7F7FA082865D0344B344DDB6F87
:10536000344C2B60344B01221B6C01210F20236035
:10537000FBF7F2FA02210F20FBF71AFB08222F4B52
:1053800003211B680F205A401F2313402C4A13602F
:10539000FBF7FCFA022204212A4BDA677E3299508D
:1053A000294B743A5A671B6D1B079B0F012B01D0C9
:1053B000FCF7E2FCFBF71CFE0600FCF72DF8FA22D6
:1053C0000023920012184B4199420FD901225242F8
:1053D000D31701210291002101911C493000009155
:1053E000FBF70AFE002806DB04B070BD9942F0D13D
:1053F0009042EBD8EDE7FA2000218000FCF718F886
:105400008021114A4902136D0B42FCD0092304216B
:1054100053670F4A7733D1502A68044BDA67226802
:10542000054B1A64E0E70B48FCF78EFC0040014096
:1054300090100020A814002000C001407C400140D2
:105440007C50014000201150000011500553001005
:1054500000301150C86B0010074B10B51B6D1B07B7
:105460009B0F03D1FA200021800010BDFFF76EFFD3
:1054700000200021F9E7C0460000115010B584B0AB
:10548000FBF7B6FD0400FBF7C7FFFA2200239200EA
:1054900012184B4199420FD901225242D3170121D0
:1054A0000291002101910B4920000091FBF7A4FD1E
:1054B000002806DB04B010BD9942F0D19042EBD831
:1054C000EDE7032204490B6D9B081A42FBD0FFF75E
:1054D0003DFFEFE7595400100000115010B50A22AB
:1054E000002100F0E3FB10BD10B50A23002200F0FC
:1054F00021FB10BDF0B557464546DE464E46E0B5A9
:105500000D000B3583B00700162D00D89FE0072350
:105510009D4300D5C4E0A94200D9C1E000F096FA4D
:10552000F823FF339D4200D889E2680A00D1BBE02E
:10553000042800D964E138239846A809804439300A
:10554000C100C94E71180839CC68A14219D0032393
:1055500062689A431300521B0F2A00DDAAE0002A5A
:1055600000DB88E003239C4608E0624663689343BF
:105570005A1B0F2A00DD9DE0002A7CDAE468A14274
:10558000F3D1320034690832944200D18BE1032315
:10559000616899438946491B0F2900DD70E17261FA
:1055A0003261002900DB87E0B04A4B46914500D9C3
:1055B00032E1DB08FF3A9910FF3A8A40DB0071685C
:1055C0009B190A4399687260E360A1609C601300B4
:1055D000CC6001218210914099426FD80B4205D1D5
:1055E00003229043490004300B42FBD0032398462A
:1055F000C3009946B144CC4682466346DC68A44564
:1056000007D152E1002A00DB61E1E468A44500D142
:105610004BE14246636893435A1B0F2AF2DD012097
:105620008046611905436560A068E5680836C56075
:10563000A8604046F160B16010434860CE608E6063
:105640003800E25000F004FA2000083021E0102970
:1056500026D8380000F0FAF9102518230220824ECF
:10566000F3181A005C68083A944200D129E1032338
:1056700062689A431300E268A168CA6091600122DF
:10568000E318596838000A435A6000F0E1F9200035
:10569000083003B03CBC90469946A246AB46F0BDEC
:1056A0000C2300203B60F4E780213F234020890049
:1056B000984646E7404664E74B46E0E70323B46874
:1056C00062689A439046AA4203D3531B0F2B00DD16
:1056D00088E023004344664A0193664B93469A460A
:1056E00092681B68EB18013200D161E1624A94466E
:1056F00063441B0B1B0300930099380000F0AAF9C8
:1057000003008146013362D0019B834200D9F9E056
:1057100053465B68009A9C46534662445A60019B1C
:105720001100834200D14FE15B469B68013300D1F9
:1057300066E14B46019A9B1A591853465960072354
:105740004A46134000D11EE1082189464B49D21A2E
:105750009144CB1A009A38004A441105090D5B1A8E
:1057600019009B4600F076F9431C00D13CE14B4602
:10577000C01A01235844184353465B685B44190020
:10578000534659604B46B3605860B44213D0434609
:105790000F2B00D8E2E04346072260680C3B93439E
:1057A000063A024005201A436260E2185060906099
:1057B0000F2B00D91CE15346DB6A994201D95346AD
:1057C000D96253461B6B994201D95346196303238F
:1057D000B46862689A43531B954200D9C1E00F2B0D
:1057E00000DCBEE00122290013431143651961600A
:1057F0003800B5606B6000F02BF92000083048E7F6
:10580000142873D9542800D9B2E06E239846280B87
:1058100080446F30C10094E65A0A042A6CD9142AD5
:1058200000D9C8E011005C325B31D20008235B4232
:105830009C46B218944463469A680323984694455C
:1058400000D1A3E0434651689943894500D38DE0D8
:1058500092689445F6D16346DA6873686146E260FF
:10586000A1609460CC60B4E690080020FF010000C5
:10587000900C0020EC0D00200F100000081000001C
:10588000012360191D43656070613061C2608260F0
:105890001A004B460A4342603800E15000F0D8F845
:1058A00020000830F5E6736893E608239B46073B23
:1058B000DC449B46DA4443465246134200D09CE601
:1058C00036E0DC680230A34200D15AE6CFE601227E
:1058D000E318596838000A435A60E368A268D36045
:1058E0009A6000F0B5F820000830D2E65B239846B5
:1058F00080445C30C10024E69A0911003932383105
:10590000D20093E7B44200D061E753465B68009A47
:105910009C465346624411005A6005E708235B42E7
:105920009C46E1444B469B680138994500D084E091
:1059300043460342F2D173688B4373604900994236
:1059400000D9BBE6002900D1B8E650460B4200D092
:105950004EE6490004300B42FBD049E601234A469B
:105960005360380000F074F8002092E6944672E725
:10597000AA235B00984211D8DD3B9846E80B80448F
:105980007830C100DDE580235B01E3E68910023B4E
:105990008B4072681343736062465FE72A4B9842FC
:1059A0001CD87C239846A80C80447D30C100C8E5F3
:1059B00010330093A0E6542A26D84B461A0B110048
:1059C0006F326E31D20031E71B0500D0ACE601200A
:1059D000009BB268434403435360ECE6FE217E2300
:1059E0007F2089009846ACE5002301209B46C3E652
:1059F00021003800083100F071FC53465968DAE69E
:105A00005B464A469A609AE6AA2149008A4206D82D
:105A10004B46DA0B110078327731D20006E70A499B
:105A20008A4206D84B469A0C11007D327C31D20056
:105A3000FCE6FE227E219200F8E673687EE72B00EA
:105A4000E80808330BE6C046540500007047C0461E
:105A50007047C046002370B5064C0500080023605F
:105A6000FCF756F9431C00D070BD2368002BFBD017
:105A70002B60F9E7C017002010B5830725D0037805
:105A8000002B24D00300032102E01A78002A1AD048
:105A900001330B42F9D119680E4A0F4C8A188A4318
:105AA000224206D1043319680A4A8A188A432242DC
:105AB000F8D01A001B78002B03D00132117800298E
:105AC000FBD1101A10BD181AFCE70300E3E7002011
:105AD000F8E7C046FFFEFEFE80808080F0B5944669
