:020000041000EA
:1000000000B5324B212058609868022188439860DF
:10001000D860186158612E4B002199600221596106
:100020000121F02299502B49196001219960352056
:1000300000F044F80222904214D00621196600F024
:1000400034F8196E01211966002018661A6600F04E
:100050002CF8196E196E196E052000F02FF8012189
:100060000842F9D1002199601B49196000215960AB
:100070001A491B48016001219960EB211966A021F2
:10008000196600F012F800219960164914480160C1
:100090000121996001BC002800D000471248134993
:1000A000086003C880F30888084703B5996A0420EC
:1000B0000142FBD001200142F8D103BD02B5186610
:1000C0001866FFF7F2FF186E186E02BD00000240BE
:1000D000000000180000070000035F00212200005C
:1000E000F4000018222000A00001001008ED00E03C
:1000F00000000000000000000000000074B24E7A12
:1001000000200420F7010010C3010010C5010010F9
:10011000C1010010C1010010C1010010C101001097
:10012000C1010010C1010010C1010010C701001081
:10013000C1010010C1010010C9010010CB01001065
:10014000CD010010CD010010CD010010CD01001037
:10015000CD010010CD010010CD010010CD01001027
:10016000CD010010CD010010CD010010CD01001017
:10017000CD010010CD010010CD010010CD01001007
:10018000CD010010CD010010CD010010CD010010F7
:10019000CD010010CD010010CD010010CD010010E7
:1001A000CD010010CD010010CD010010CD010010D7
:1001B000CD010010CD010010CD010010CD010010C7
:1001C00000BE00BE00BE00BE00BE00BE00F04BF888
:1001D000103800BEF2EB8871C0630010E8630010B5
:1001E0003402001090A31AE700202149086006C8D5
:1001F00081F3088810471F48006800282FD10DA4FC
:100200000ECC002902D000F012F8F9E71A491B4A77
:10021000002000E001C19142FCD1194988471949E9
:1002200088471949884700BEFDE701C901C29A42C3
:10023000FBD37047E8630010C0000020500C002082
:10024000846F00100000042000000420846F001060
:1002500000100420001004200000000070470B482C
:1002600001F052FF0047EFF30580C0B27047000075
:1002700008ED00E0000000D0600C0020A81700206E
:10028000411800105D040010791900105756000045
:1002900006005250ABB3605320620010060052506B
:1002A000861C030230620010060052505422A29DA8
:1002B0003C62001005005250DE65F468846F001047
:1002C000F8B5C046054B0648033310B51B1A062B7C
:1002D00003D9044B002B00D0984710BD500C0020D0
:1002E000500C0020000000000648074910B5091A0C
:1002F0008910CB0F5918491003D0044B002B00D0A4
:10030000984710BD500C0020500C00200000000049
:1003100010B5074C2378002B09D1FFF7D3FF054B0D
:10032000002B02D0044800E000BF0123237010BD61
:10033000600D002000000000D8600010094B10B5CF
:10034000002B03D00849094800E000BF08480368B3
:10035000002B02D1FFF7C8FF10BD064B002BF9D0D0
:100360009847F7E700000000640D0020D8600010F7
:10037000500C002000000000FA22024B92001A608C
:100380007047C046C8020020FA22014B1A6070472D
:10039000C8020020014A024B1A607047C4090000DD
:1003A000C8020020FA22024B92001A607047C04631
:1003B000C802002070B584B003E003A9002003F058
:1003C000B7FF0021002003F0A1FF0028F5D100F0C5
:1003D0003DFE002932D0FA220023920001F008FFEE
:1003E0001E211B4AFF311368C01A884224D91F33CB
:1003F000184CFF33136023685E1E26D4164D01AAE5
:10040000EB5C902153707F231170937000217C3B33
:10041000002003F0CBFF802302AA1370AB5D002500
:100420005370002103230020957003F0BFFF236861
:1004300001333F2B07D9256004B070BDFA21890034
:1004400001F094FECCE72360F6E73F26D6E7C046EE
:100450005C13002040130020CC020020F8B502F00D
:100460009FFB012704F0E0F9114C124E124D13E0EE
:10047000FA220023920001F0BBFE23683268C01A02
:10048000904207D39B182878236002F0A1FB2B78B9
:100490007B402B70FFF78EFF03F04EF800F0D6FD87
:1004A0000029E5D1FA21890001F060FEE5E7C046A8
:1004B00060130020C802002080130020004870470D
:1004C000DC60001000487047F060001070B5002834
:1004D00025D003282DD8194B8000C458200004F0E3
:1004E000BDFFC3B21F2B18D8D8B2002823D02300D9
:1004F000441E134DE4B20134AA1C1C1919780133AF
:10050000118002329C42F9D1C023013040009B008F
:10051000184380B22880280070BD1F20E7E7084DEF
:10052000064BA81C1968022202F00CF9C1208000B9
:10053000F0E70020F0E70348014DEBE70C03002053
:10054000C80D002002030000094A8300944640229F
:10055000634410B51C68C0006240C024144080226F
:10056000520113431C60034B9C466044416010BD24
:1005700004C0014000400140034BC0009C46604461
:1005800043681F2018407047004001400B4B80001B
:100590009C46604400290DD00C210823002A00D07D
:1005A0000B00026853400C221A4080235B01184361
:1005B0000260704704210023F0E7C04604C00140F8
:1005C000074BC0009C466044036809045940C0239F
:1005D0009B02194080235B01184301607047C046AD
:1005E00004400140074BC0009C4660440368090377
:1005F0005940C0239B01194080235B0118430160CF
:100600007047C046044001400123D02283401206B7
:1006100093629361094A83009446402263441968B7
:10062000C0004A40C021114080225201134319608A
:10063000034B9C46052360444360704704C001405F
:1006400000400140F8B5EFF3108772B60D4E3368E5
:10065000002BFCD0BFF35F8F0725CB08C018012308
:100660000D40AB401D000478254007D123430370A3
:10067000BFF35F8F356087F31088F8BD100001F07D
:100680007DF9C0462C0100D0F8B5CE4647468C46D1
:1006900080B5EFF3108872B61D4D2C68002CFCD08D
:1006A000BFF35F8F9A4219D80721012511408D4071
:1006B000D4080419267835421FD007218946063907
:1006C00009E04D460F001540AF40D40804192678C4
:1006D0003D00374211D001329342F2D20120404214
:1006E000BFF35F8F00220A4B1A6088F3108800283E
:1006F00007DB0CBC90469946F8BD354325701000C9
:10070000EEE76346002BF4D0089801F037F9C046B5
:100710002C0100D0024B18688007C00F7047C046FC
:1007200000C006400021044B044ABFF35F8F02C3A0
:100730009342FAD17047C046000100D0800100D03A
:10074000044A1078431CDBB2172B00D91023137016
:100750007047C0461C03002000B5054B83B0010064
:10076000009318221F230348FFF78EFF03B000BD3C
:1007700078610010BC0E0020F8B5040006200D00C2
:1007800001F07EFA03000020002B49D0294B802283
:100790009C424DD0D203284B28491A60284B1A603E
:1007A00010008B689843FBD1264B8021E3185A42F6
:1007B0005341254A5B0049000620995201F060FA36
:1007C0002900C00001F0D2FCC3092AD01F4A93427D
:1007D0002AD87F221040013040089F011A000300F0
:1007E0003F18260080256262A36200232C36AD01EB
:1007F00035432B60062001F043FA3900800001F0F8
:10080000B5FC6023E26A53406E221A4080235B01EC
:1008100033431A600E4B236310232B600D3BA364FC
:10082000F8BD40270122DCE70A4F00230A4AD8E737
:100830001204B0E70080034000E0004000C0004028
:1008400000F000400080FCBF84130020FEFF000089
:1008500001030000C0FF3F00FFFF000083680B485A
:1008600010B5844661446244090112019A1859186E
:1008700054684B6801209C4201D802D00020C0B2CD
:1008800010BD12680B689A42F9D8F7E7FFFFFF0F17
:100890000A4B1968EFF3108072B60A68002AFCD080
:1008A000BFF35F8F1B68BFF35F8F00221A6080F376
:1008B000108840BF002000217047C0465813002018
:1008C000F8B54E464546DE465746E0B51F000CAB30
:1008D0001D780DAB1B7881469B4603681600984631
:1008E000002D08D1987B002841D13CBC9046994608
:1008F000A246AB46F8BD28006C006419033C384B97
:1009000000229C464B469B6860449C4600010A9B23
:10091000604483600B9B06604760C36043461B686E
:100920001B199A705A701A7043465B7B9A46002BCB
:100930003BD043462A00986851465B689847434637
:100940001A68002824D053465B005344033BD31855
:1009500014195246A2701A78002A00D062701D70D5
:100960005246434628005A73AA45BED11FE041466D
:1009700044001B682418033C1B195A788A73002A08
:1009800000D1CA73002205009A705A701A70B6E737
:1009900053465B005344033BD31814199D702278CF
:1009A000002A00D05A705346237043465D734B466D
:1009B0003200187D3B0000F0C5FB041E07D05B46EB
:1009C000002B04D14B462900186800F00FFE0E9B47
:1009D000002B02D01C70280087E7280085E7C0465E
:1009E000FFFFFF0F744B8200F0B5D4580023DE46A2
:1009F00057464E4645469B46E0B58DB00B9000F0FD
:100A000025FB6268EFF3108572B61368002BFCD0EB
:100A1000BFF35F8F23689C465B7B9946002B00D118
:100A200081E0A268654B90464B441B0198444346C5
:100A30001E685F6832003B00121A8B41002B00DCFD
:100A400084E03B0032000B9800F07CFB0023002286
:100A500008920993002300279A466368BFF35F8FCB
:100A60005A461A6085F310885346002B64D00A9BBF
:100A7000390018024B461843D04762680690079128
:100A8000EFF3108872B6564645461368002BFCD02B
:100A9000B246A846BFF35F8F0699079A002A25DA67
:100AA0002369002B28D0089D099E6D1A96412A00C3
:100AB0003300089D099E9E4200D971E000D173E089
:100AC00059460491012103914946029151460197EB
:100AD00000912000FFF7F4FE5B4623616368BFF3DB
:100AE0005F8F5A461A6088F3108888E7130019430D
:100AF00002D02369002B46D12368DA7B002A07D075
:100B000051008A1819688C4649466244033A51706C
:100B10004A46DA73E2684B469446013B63441A78CE
:100B200001321A70D8E700230022089209930023AB
:100B300000279A46002090E7002800D05FE70DB01C
:100B40003CBC90469946A246AB46F0BD002B02D174
:100B5000002A00D075E70021604600F09BFC434668
:100B60001A685B680892099343469B689A46434615
:100B7000DF68E3684B44013B1B780A931B02184370
:100B80002061002069E700F061FA069A079B1218BD
:100B90004B41994204D800D092E7904200D88FE7A9
:100BA00001225242D3178BE7954200D888E70122F1
:100BB0005242D31784E7C04648130020FFFFFF0FBF
:100BC00010B5124C6368002B04D00A21104800F0C5
:100BD00047FB10BD23000F4A1021206800F03CFCA9
:100BE000032000F027FA032000F01AFB0A49032033
:100BF00000F062FAFFF7A4FD084B9C460323604413
:100C00002375074B80006060DC60DEE72003002076
:100C1000581300205D080010E50900104000003462
:100C2000481300200048704720030020F0B55746C5
:100C3000DE4645464E46E0B585B00092019310ABC6
:100C40001B7807009B4600239A4698467A68EFF384
:100C5000108972B61368002BFCD0BFF35F8F3E681B
:100C6000B47B002C00D173E065002D193368033D7F
:100C70005B195A78B273002A00D1F27342469A7017
:100C80005A701A70BA68504B94460099019AE3184A
:100C90001B01634419605A600E9A9A600F9ADA60D9
:100CA000424633685B199A705A701A70737B0393CB
:100CB000002B00D176E0190073682200B0689C46D2
:100CC000E047326800285ED00398551984464300F7
:100CD0006344033BD318A8701A78002A00D06FE051
:100CE0001C70707384425ED0FB681B19013B18783E
:100CF0007B68BFF35F8F42461A6089F310885346C2
:100D0000002B08D10002204305B03CBC9046994618
:100D1000A246AB46F0BD5B46002B53D00E9B0F990D
:100D200000209847030004000D000B434AD000291F
:100D300017DA0098019902000B00121BAB4199428F
:100D40001AD801D1904217D800920193DA467DE774
:100D50007B68BFF35F8F1C6089F3108801204042DD
:100D6000D2E700F073F924184D4100940195A9428F
:100D700002D8EBD1A042E9D901235B42DC17DA4665
:100D80000093019462E7039955198C464B00634424
:100D9000033BD3189C702A78002A00D05A706B4607
:100DA0001B7B2B707473387D009A019B00F0CAF98D
:100DB0008246002898D02100386800F017FC93E79D
:100DC0006A708DE700209FE7FFFFFF0FF0B54E46EA
:100DD0004546DE465746E0B56A4C83B081468846B4
:100DE0006268EFF3108A72B61368002BFCD0BFF371
:100DF0005F8F2668B57B002D46D06F007F19336862
:100E0000033F0195DB195A78B273002A00D1F273BF
:100E100000229A705A701A70A1685B4B8C46494642
:100E2000EB181B0163441960414659605749DA6069
:100E300099603368DB199A705A701A70737B9B46FD
:100E4000002B00D189E02A001900B0687368984728
:100E50003268002800D173E05B465B005B44033BD3
:100E6000D318D7195A46BA701A78002A00D07A7067
:100E70001D705B4673735D4500D16FE00026E3682B
:100E80005B19013B1B7802E0002300260193626896
:100E9000BFF35F8F002111608AF31088002D44D0CA
:100EA000002E42D1019A1B02134320BF6168EFF369
:100EB000108772B60A68002AFCD0BFF35F8F2068E3
:100EC000D9B2427B8A4256D0FF221A405500AA4628
:100ED00005689244AC4655466544033DAD78002D07
:100EE00029D0E5681B0AAC466244013A12789A425E
:100EF00044D06368BFF35F8F00221A6087F31088C5
:100F0000234A536A984508D8926A01264A4504D272
:100F10004246D31A5E1EB341DEB2300003B03CBC81
:100F200090469946A246AB46F0BD194A0026536A40
:100F30009845F2D8E8E722699342DAD12561D8E7EB
:100F40005B465B005B44033BD318D7199D703A782E
:100F5000002A00D05A705B463B707573207D4A466C
:100F6000434600F0EFF8061E00D187E7290020680D
:100F700000F03CFB83E7FF221A40B2E700F036FBAB
:100F8000B7E7C04620030020FFFFFF0F91080010C5
:100F900000400540F8B5CE46474680B5EFF30583DF
:100FA0003F22134018001038EFF3108C72B61B4923
:100FB0000A68002AFCD0BFF35F8F01210F00874031
:100FC000174D184A6F63147891462200C24090462C
:100FD0004646002231420BD0696A134D8846810093
:100FE0004D59A84512D3114BBC43CA584B461C70EF
:100FF000BFF35F8F0021094B19608CF31088002A22
:1010000000D090470CBC90469946F8BD08499B001B
:101010008846434419681960EAE7C046280100D0B1
:10102000004005408113002064130020AC0E002016
:10103000D03F054010B50100024A0348FFF702FB0C
:1010400010BDC046A06100107E130020044A516A02
:1010500000E01900906A536A9942FAD17047C0467D
:1010600000400540134A30B5546A00E01C00956A00
:10107000536AA342FAD12A002300801859418C42B6
:1010800011D80ED00C000B4A536AA342FCD307D1EF
:10109000084A02E0516A994202D1916A8142F9D329
:1010A00030BD8542EED9012401204042C11764427F
:1010B000E9E7C0460040054070B504000D00EFF3BD
:1010C000108672B61A4A1368002BFCD0BFF35F8FEC
:1010D000002D1BD0200000F0EBFD164988420AD0FD
:1010E000200000F0EDFD0121200000F0CFFD0123E4
:1010F000A340114A1360114BA400E550BFF35F8F6A
:1011000000220B4B1A6086F3108870BD0B4BA200B7
:10111000D5500122A2400A4920000B7893430B705E
:10112000044900F0F7FD0021200000F0AFFDE5E7E5
:10113000280100D0950F001038600540AC0E00204B
:1011400081130020F0B5D6464F4646462F4CC0B519
:10115000656A00E00D00A66A616AA942FAD1AB4255
:1011600049D9EFF3108972B6294C21680029FCD0C7
:10117000BFF35F8F0126274986408C460978264DAC
:101180000F0037438846F9B28A46614654460C70D0
:101190001E49041DA4004E636250840063510D6A11
:1011A000002435421AD04D6A00E025008F6A4C6A4F
:1011B000AC42FAD1AB4224D801D1BA4221D8D045B1
:1011C00021D0124B154A1E625E631F2318401E3B3E
:1011D000834013606346424601241A70BFF35F8F59
:1011E00000220B4B1A6089F3108820001CBC90462B
:1011F0009946A246F0BDAB4201D1B242B1D801241A
:10120000F3E70024EAE70124E8E7C0460040054090
:10121000280100D0811300206413002080E200E048
:1012200010B5EFF3108472B60A490B68002BFCD09E
:10123000BFF35F8F01238340074A08481362027897
:101240009A430270BFF35F8F00230B6084F3108812
:1012500010BDC046280100D0004005408113002089
:10126000024B9C4661448900016070474000003495
:1012700010B50400FFF764FA01002000FFF7F0FF4B
:10128000FF23237100236371BFF35F8F10BDC0463E
:1012900010B50400FFF754FA01002000FFF7E0FF4B
:1012A000FF2323716371BFF35F8F10BD10B504007E
:1012B0000120FFF751FA044B9C46604480002060F7
:1012C000BFF35F8F10BDC04640000034F8B54E46F6
:1012D0004546DE465746E0B54C0064180368033CBB
:1012E0001A190D00517806008946002906D12800F8
:1012F0003CBC90469946A246AB46F8BD4F004F44D1
:10130000033FD81941788846002141705170002D63
:1013100012D073684A462900B0689847336800289D
:1013200073D0DF191A19BD701178002900D07970B7
:1013300049462700117000E04D464246002AD6D0AB
:1013400054004444033C1A1951788946002911D1AC
:10135000736842462900B06898473368002849D02E
:101360001C19DF19A5703B78002B00D06370434631
:101370003B70BCE74900494403398A4653445978D5
:101380008B4600215970517073684A464146B068D7
:1013900098473368002843D152461C199A184B4687
:1013A000A3701378002B00D0637043465446C846A0
:1013B00013705B46002BCBD059463000FFF786FFF9
:1013C00081460028C4D002004146B068736898473F
:1013D000326800282FD04B465B004B44033B111969
:1013E000D31842469A700A78002A00D05A704B46A9
:1013F0000B70ADE71C19DF194346BB702378002B37
:1014000000D07B702570454671E749461C19DA19F2
:10141000A1701178002900D0617015704D468CE7DD
:1014200041461A19534499701178002900D0597017
:101430004B461370BDE74B465B004B44033BD11852
:1014400014194A46A2700A78002A00D062704246F7
:101450001C000A70C8467BE710B583600023CCB23D
:1014600043730133047342608373C4730068012CB7
:1014700007D90123421C0133DBB2137003329C42B3
:10148000F9D8FF2319404B0059180023401803389E
:10149000437010BDF0B54E4657464546DE46E0B5B2
:1014A000477B03687C00E419033C1A19167883B063
:1014B00005008946002E1ED1002911D0C07B0028CE
:1014C00069D041000918591803394F70EF73002E85
:1014D00006D0710089190339884600214344997068
:1014E0000023380053706E7303B03CBC904699469D
:1014F000A246AB46F0BD71008919033988465918D8
:1015000048788246002807D149460029E5D0E87B83
:101510000028D6D1EF73DCE742005244033A9446E8
:10152000019263445A78934600225A704A706B685D
:1015300052463100A86898472B68002832D04146AF
:1015400001985A1819188E701078002825D1514624
:1015500011705A46002A23D059462800FFF7B6FEDC
:10156000824600281BD002006B683100A8689847AB
:101570002B68002825D04246991852465200524402
:10158000033A9A1896700878002800D05070524696
:101590000A701A19B8E7EF73A2E74870D7E72B680B
:1015A0001A19B1E741465046019A59189A1888709D
:1015B0001078002800D048701670019A5646904660
:1015C000C7E752465100514403395A1840469346E2
:1015D0005246181882705A461278002A00D042707B
:1015E0005A46884616701A1956468DE7F0B5454694
:1015F000DE4657464E46E0B50C0083B0050000229B
:1016000000293DD0477B0168BC426BD0660036198B
:10161000033E88198378002B32D05A00D318033B3D
:10162000CB181A78944202D143E0002A08D0530024
:101630009B18033BCB185A789442F6D142785A70E3
:1016400000238370437003789846002B25D1EA7BF2
:10165000002A1DD053009B18CB18033B5C704346F7
:10166000EC73002B00D171E05C0000234444033C88
:1016700009198B704370002F1ED1434601226B73F2
:10168000100003B03CBC90469946A246AB46F0BD64
:10169000B846EC7300234370EFE719002800FFF70A
:1016A00015FE2968EA7B80466F7B8819002AD6D010
:1016B000D0E742781A70C3E742463900A8686B68E1
:1016C00098472A68002824D07B00DB191419033BB3
:1016D000D318A7701A78002A00D062704246B84624
:1016E0001A70CAE77E00F619033E8B1918788046F7
:1016F00000281BD1E87B002804D0420012188A1869
:10170000033A5470EC7300225A70434601326B73F3
:10171000B6E77B00DB19033B1419D31842469A70D5
:101720002278002A00D05A702770A6E7440044446B
:10173000E01E019008184478A246002C08D1EC7BEA
:10174000002C76D1EF7300228270DCE7B846A1E767
:1017500063005344033B994649444B784A704270B6
:101760009B4622006B684146A86898472B68002872
:101770004BD049464046019C59181A198870107878
:10178000002850D15146A14611705A46002A20D057
:1017900059462800FFF79AFD041E19D00200414661
:1017A000A8686B68984700281ED04A4641462B68B7
:1017B000981862001219033A9A189170017800295A
:1017C00000D051700470E97B002905D19B19B9E75D
:1017D0002B684A469818F6E74A0052189A18033AB6
:1017E00057709B19EF73AEE74B46296860000019EC
:1017F0000338CB1808189C700278002A00D05A7061
:101800004346A04603708B1999E74A469818019AF7
:101810009C185246A2700278002A00D0627042469C
:10182000D0460270B1E7487051461170019A914656
:10183000ABE7032262438A18033A577082E7C04637
:10184000314A324B70B51A60314A324B32491A6014
:1018500010008B689843FBD1304E314B9E420AD228
:10186000F5430024ED18AD080135A300F358013409
:101870009847AC42F9D100F09FF82A4A254B1A60EC
:10188000254A9368DB018033FBD14022264B274C4D
:101890009A675A671A67DA66254B9C420ED2E6436E
:1018A0000025F618F608013663792000002B23D0B6
:1018B0000135FFF7EDFC0834AE42F5D11D4D1E4C4D
:1018C000C022A168280000F03DFFA560FEF72AFFB6
:1018D00000F058FBFFF774F9184E194B9E420AD2DC
:1018E000F5430024ED18AD080135A300F358013489
:1018F0009847A542F9D170BD0135FFF7B9FC08340E
:10190000B542D1D1DAE7C046BFCDFBFE00E00040D2
:10191000FE7F3C0000F0004000C00040380C00207A
:10192000480C0020FFFFFF0100F00140300C0020B8
:10193000380C00200000002000ED00E0480C0020E2
:10194000500C0020094A1368002B06D008491818CB
:10195000884208D8106018007047064B04491818D0
:1019600013608842F6D901204042F5E7340F002089
:1019700000000420A817002000BEFDE70FB400B54A
:10198000084883B000F042FF049B002B07D005A954
:101990001800019100F098FB034800F037FF00BEEB
:1019A000FDE7C046D0610010E061001010B50148AD
:1019B000FFF7E4FFC461001030B50C2083B000F0E5
:1019C00049FBFEF7A7FE00280ED0964B964A1A60F8
:1019D0005A609A60DA601A615A619A61DA611A6231
:1019E000924A5A6203B030BD914CA06700F03AFBB6
:1019F0000122904B1A60636C012BFCD103228E4BA9
:101A00001A608B4A936B012BFCD1022405338B4A5D
:101A100001218B48009400F0D1FA0523894A0094F3
:101A20000121894800F0CAFA884B5A68FF2A02D877
:101A3000802252005A6080227A4C7F4B2169120129
:101A4000824D1A60002900D0E5E0E0217F4B0220A2
:101A50001A681140802252012A43116019684840D7
:101A600003210140116004219A681142FCD08022B8
:101A7000802192012A4309011160802252005A609C
:101A8000734B2361734B5968FF2900D8C1E00322CF
:101A9000684B70481A60012103009A681142FCD01B
:101AA000E0251A68154080225201024315601B6828
:101AB0004B400321194011600221664A9368194284
:101AC000FCD0802380219B01034309011960802100
:101AD000614B490051606361604B5A68FF2A00D82E
:101AE000596080225E4BE16912015C4D1A60002949
:101AF00005D0606900F03AFB01300138FDD1E022E9
:101B000056490B681A4080235B012B431A608023DF
:101B100080229B012B4312011A608022424B52000B
:101B20004A60E3614F4B5968FF2900D85A60802210
:101B30004D4B216A12014B4D1A60002905D0606996
:101B400000F014FB01300138FDD1E02245490B685B
:101B50001A4080235B012B431A60802380229B0163
:101B60002B4312011A6080235B004B602E4B3F4ACF
:101B700023623F4B5968914201D801325A6080225A
:101B80003C4B616A12013A4D1A60002905D0606928
:101B900000F0ECFA01300138FDD1E02234490B6845
:101BA0001A4080235B012B431A60802380229B0113
:101BB0002B4312011A608023DB024B601B4B6362D4
:101BC0002D4B5A68FF2A02D8802252005A60802288
:101BD0002A4BA1691201284D1A60002905D06069BD
:101BE00000F0C4FA01300138FDD1E02222490B682F
:101BF0001A4080235B012B431A60802380229B01C3
:101C00002B4312011A6080235B004B60124BA361CF
:101C1000E8E65A603BE7606900F0A8FA0130013855
:101C2000FDD112E7C00E0020006CDC021BB70000E3
:101C3000008000403CB0004030B00040002F6859A8
:101C40000080024000389C1C00C0024030800040F0
:101C5000001BB7003C80004040597307548000408F
:101C600054B000406080004060B00040FFFF0300BF
:101C70006C8000406CB000404880004048B000409C
:101C8000014B8000C0587047C00E002001238340E4
:101C9000002902D1034A13607047034A1360034AC4
:101CA0001360F9E780E100E080E200E000E100E09D
:101CB000024B10309B688000C058704700ED00E078
:101CC00070B50D00EFF3108672B60F4A1368002B43
:101CD000FCD0BFF35F8F0D4B10309B6884001B5905
:101CE0000B4A934203D09D4201D0FFF75FFE074BA2
:101CF0009B681D51BFF35F8FBFF35F8F0022024BC4
:101D00001A6086F3108870BD240100D000ED00E059
:101D1000CD010010F0B54546DE4657464E46E0B5CB
:101D20000D0083B0EFF3108B72B65C4A1368002B82
:101D3000FCD0BFF35F8F1022904680444246584B40
:101D400097009B68DE59574B99469E4206D0AE429B
:101D500000D17DE0544C331B2F2B12D9504B9B6884
:101D6000DE51BFF35F8FBFF35F8F00224B4B1A60D2
:101D70008BF3108803B03CBC90469946A246AB4614
:101D8000F0BD012383409A465246484B1B681A40D7
:101D900000925246464B1A60BFF35F8FFEF763FA1C
:101DA0000190002849D1012332009A4313001B1BE4
:101DB0005B4146495943090D93689D424DD0062029
:101DC0001056002805DA31E0062018561A000028BF
:101DD0002CDB43001B189B00E31898688542F3D165
:101DE0000620185600283BDB4200111889006518B0
:101DF0008846A9689960E979D9710621695699716F
:101E0000A9797F2926D8AD88E11A6D052D1545449D
:101E10004919E0250905490D2D0229439980121819
:101E2000244B9200A4181A781870A271009B002B02
:101E300008D152461E4B1A6090E78045B3D0FFF799
:101E4000B5FDB0E752461C4B1A60184B1A6085E787
:101E50001E0083E7BD210902E0E713000022BFE76F
:101E6000019800280AD1002A15D0FF30907113483C
:101E70009080104A107811709871D7E7104A114974
:101E8000D21A083A5002400D014399800E49520877
:101E90000A43DA80CAE74E46EBE7C046240100D089
:101EA00000ED00E0CD0100104803002000E100E05B
:101EB00080E100E07F13002080E200E000BDFFFF32
:101EC0008203002000F0FFFF00F8FFFFAAAA000035
:101ED000F8B5012504000543FEF7C5F9EFF31086B8
:101EE00072B6214A1368002BFCD0BFF35F8F1F4AE4
:101EF0002100891A4941224B4B431B0D1C4980008C
:101F00008F685BB23F58BD4226D006215156994298
:101F100026D012215156994224D01E215156994261
:101F200010D02A215156032099420CD0114A117821
:101F30001370A171BFF35F8F00220B4B1A6086F301
:101F40001088F8BD02204100091889005218FF21AD
:101F5000917109499180E9E78A6808491150E5E7DC
:101F60000020F0E70120EEE7240100D04803002024
:101F700000ED00E07F13002000BDFFFFCD01001049
:101F8000AAAA0000F0B500220324FF278026200023
:101F90003D00094B11009C461040C0008540A14304
:101FA00061440B680132AB43350085402B430B6025
:101FB000202AECD1F0BDC04600E400E0F8B50400F2
:101FC0000C2017001D000E0000F0D0F81C49414302
:101FD000380000F0CBF8069A2B0412031343226852
:101FE000002A1CDB174A8021944226D04901164A58
:101FF000164D1160164A11600F00AA689743FBD175
:10200000C021221D8901114321222660A0600A609F
:102010002268002AFCDAE36008230B60F8BD3F2247
:1020200021680A409642DDD1A2681205120D904245
:10203000D8D1E268002BD5D1F0E78901D7E7C046B7
:1020400040420F0000C0024000E0004000C00040DD
:1020500000F0004080239B001843014BD86270477A
:1020600000800540AA23064A1B0113602F2305495F
:10207000D360054B19605368002BFCDA7047C046EB
:102080000040024000B0FA000060024010B5002895
:1020900000D110BD0B4B1C68A2689368013B936094
:1020A000002B04DB1368591C11601870F1E791696B
:1020B0008B4201DB0A28F5D10100200003F000FA71
:1020C000E7E7C046F003002010B5094A84B0146861
:1020D000002C09D0012200910300524203A90548B7
:1020E000A047012004B010BD00F090FB0020F9E7EC
:1020F000381300208D20001001480421014B18479F
:102100009003002029210010142310B50100188825
:1021100004331B88984710BD162310B5010018889A
:1021200002331B88984710BDF8B54746CE4680B5A8
:102130000F1E19D0142399460433040000250126EC
:1021400098464B461888434621681B88984701C427
:10215000431E9841013540420640AF42F1D1300064
:102160000CBC90469946F8BD0126F8E7114A936FDA
:102170009B0813D210665166002905D0FFE7FFE7E0
:10218000FFE7516F106F704704B5002801D00020A1
:10219000C04303F081FF002104BDC046F0B5146EBA
:1021A000556E576F166FFFF7E5FF14665566576754
:1021B0001667F0BD000000D094464E4A926F920818
:1021C000624601D230E0C046F0B54A4EB56F6D08A8
:1021D000FCD3346E756E776F366F00F025F8944639
:1021E000444A14665566576716676246F0BDC04696
:1021F0009446404A926F9208624601D258E0C04627
:10220000F0B53C4EB56F6D08FCD3346E756E776FCC
:10221000366F00F04DF89446364A14665566576797
:1022200016676246F0BDC046002B24DB11D00029A2
:102230003EDA00B5C943404200D1013100F038F820
:10224000C943404200D10131DB43524200D1013346
:1022500000BD002AEBD1002801D1002905D00020C3
:10226000C90FC90701D1C043410800B503F00CFFF5
:102270000022002300BD00B500290ADBDB435242E7
:1022800000D1013300F014F8C943404200D10131BC
:1022900000BDC943404200D10131DB43524200D16D
:1022A000013300F005F8DB43524200D1013300BD99
:1022B000002923D1002B18D1002A0CD0BC460D4F89
:1022C00038667A6600210023FFE7FFE7FFE77A6FB1
:1022D000386F67467047002801D00748010000B5F5
:1022E00003F0D2FE0022002300BD02000B000020FC
:1022F00000217047000000D0FFFFFFFF002B00D03F
:10230000BDE0130C26D1002AE7D080B4104F396607
:102310007A66FFE7FFE730B4040C7B6F396F1B046C
:1023200023433B66FFE7FFE7FFE7C04684B27B6FCE
:102330003D6F1B0423433B66FFE7FFE7C0460023D6
:102340002C042D0C7A6F386F00196941B0BC7047AE
:10235000000000D0F0B594460025140E01D1120201
:102360000835140F01D112010435940F01D19200E8
:102370000235D40F01D152000135D40B0134254F61
:102380007C66254C3C660E0C93B2FFE7FFE7FFE747
:102390003C6F6643360C7703BE467343DF0B5B042A
:1023A000C01AB941130C7343DB18C91ACE0866432F
:1023B000360CB64493B273431F0F1B01C01AB941C8
:1023C000130C73431F0B1B05C01AB941860D8F02F6
:1023D0003E436643360C092D24DB520A7243801AB1
:1023E0007703460A6643360C16235B1BDE40DF404C
:1023F000BF1964466643821B7046043506330100EC
:10240000D940A840C01900D30131A24206D200230E
:10241000F0BD0000000000D0FFFFFFFF121B0130E5
:10242000F3D3F1E709277F1BFE406446A2B2724353
:10243000801A00D20139220C7243130C1204821A42
:1024400099410B007046043513370100F940A8404C
:10245000801900D30131002B02D1A2420AD2F0BD73
:10246000013000D30131121BFAD2013BF8D1A24254
:1024700000D2F0BD013000D30131121BF7E7F0B5F7
:102480001C0C00D080E00CB400251C0A04D11B02F7
:10249000160E3343120208351C0B04D11B01160F14
:1024A0003343120104359C0B04D19B00960F334338
:1024B00092000235DC0B02D192185B4101351C0001
:1024C000971864410134464F7C66464C3C660E0CBE
:1024D000FFE7FFE7FFE7C0463C6F6643360C770334
:1024E000BE4697B27743C01B00D20139C01B00D251
:1024F00001399FB27743C91BC91B170C77437E0470
:10250000FF0B801BB941CE086643360C0C2D33DB24
:10251000B644120B1F053A431B0B97B27743C01BFF
:1025200000D201399FB27743C91B170C77433E0491
:102530003F0C801BB941860D8F023E43664329271D
:102540007F1BFE400C3D7746AF40BF1930BCA2B2A6
:10255000ABB272437343801A9941220C7243130C3D
:102560001204801A994102000B000137001BA94197
:10257000F9D2781E0021F0BD0C277F1BFE40774664
:102580007F0BAF40FF19E0E700245D1C07D0144F1C
:102590007D663966FFE7FFE7FFE7FFE73C6F95B22F
:1025A0009EB265436643401BB141150C1E0C65434A
:1025B000664336042F0C3E432D04401BB141994223
:1025C00004D202000B0020000021F0BD01D1904296
:1025D000F7D3801A994101349942F2D3F6E700000B
:1025E000000000D0FFFFFFFF132370B51C78012C03
:1025F00010D00BDD0C48FFF78FFD0C4D0100802241
:10260000280000F09FF8022C01D070BD074D084A49
:10261000AA64FAE7054D064A29002B00803104C35D
:102620008B42FCD1AA64F0E75344000088130020D9
:102630003526001007B5604601880A0A0230DF2AF5
:10264000FAD1C9B2820804D302884088000410433A
:1026500000E00068014A5050039007BD8813002035
:1026600051434343C9188C46110C83B24B4310B4F9
:10267000040C614392B280B2504362431C041B0CB1
:10268000001910BC59411304120CC0185141614487
:1026900070470000132310B51C781348FFF73CFD6A
:1026A000012C0BD004DD01008022104800F04AF814
:1026B0000F48FFF729FD0F4B186010BD0B4C0100B0
:1026C0005422200000F03EF80B4B6365A365E365E0
:1026D00023666366A366E36623676367A367E367AE
:1026E0002362E361E4E7C0465346000088140020FB
:1026F0004C33000088150020FD26001007B5604609
:1027000001880A0A0230DF2AFAD1C9B2820804D34A
:10271000028840880004104300E00068014A5050DD
:10272000039007BD8814002001480421014B18477D
:10273000A003002029210010014B1B68184700004E
:10274000A0030020014B5B6818470000A003002095
:10275000F8B54746CE4680B5437C80460E0017004C
:10276000002B48D0002A2EDD274B01250024002015
:10277000994604E02B00013401359F4219DD002CFD
:102780003ED0631EF35C0D3B59425941CBB2325DE2
:102790000A2AEFD1002BEDD1844226DC434648467D
:1027A0001B6802219847013428002B0001359F4205
:1027B000E5DCB8420BDBF619013E33780D3B59429C
:1027C0005941434619740CBC90469946F8BD43469E
:1027D000391A3018F6191B68013E984733780D3BBB
:1027E0005942594143461974EDE74346211A1B6883
:1027F00030189847D2E70368110030009847E2E7A5
:1028000043461B7CC3E7C04648620010F0B5DE4675
:102810004E4657464546E0B583B0070002F01EFE1F
:10282000D02301AE1B068046310035481C6803F0FA
:102830003BFC8146002808D1019B64B29C4204D035
:102840002F4803F041FC012399464346C346013318
:1028500051D02C4B1C689A46002C40D02A4D02E0E7
:10286000E468002C20D02368002BF9D02B68002BC3
:1028700001D0A342F4D15A4639002000FFF768FF87
:102880000A233370637C002B30D0237C002B21D1B2
:1028900002211E482368984733780D3B594259411D
:1028A0002174E468002CDED14B46002B1AD153462C
:1028B0001C68002C06D06368002B00D09847E468A1
:1028C000002CF8D1404603B03CBC90469946A24645
:1028D000AB46F0BD0121300023689847DCE74B464A
:1028E000002BEFD0064803F0C7FBE0E701213000E2
:1028F00023689847B4E7380002F0B0FD8346A8E7A4
:10290000300C0020280F00202C0F002048620010FF
:10291000F0B54646DE465746C0B5904682B00E003A
:10292000002830D1194B1A4D1A685B68194F9A4626
:10293000194B01929B465B461C68002C05D115E0A3
:10294000A34205D0E468002C10D02B68002BF7D1EF
:10295000A368002BF6D04146300098470028F1DDEF
:1029600002B01CBC90469A46A346F0BD012000214F
:10297000FEF778FB7B6A9A45DDD8BA6A01998A42EC
:1029800001D29A45D7D001204042E9E79861001072
:102990002C0F002000400540280F0020F0B54646CF
:1029A000D6464F46C0B5884682B01600012840D1B1
:1029B000D0231B061C68204B01A918009A4603F07F
:1029C00073FB071E07D1019B64B29C4203D05046A3
:1029D00003F07AFB0137B146731C25D0174B1C68F6
:1029E000002C14D0164D02E0E468002C0FD02368B0
:1029F000002BF9D02B68002B01D0A342F4D120008A
:102A00004A464146FFF7A4FEE468002CEFD1002FB0
:102A100006D1300002B01CBC90469946A246F0BDDB
:102A2000504603F029FBF4E7404602F017FD8146CB
:102A3000D4E701267642ECE7300C0020280F002076
:102A40002C0F00200D4B1A68002A12D0824203D1AD
:102A500009E0984207D01A00D368002BF9D1002969
:102A600000D0D06070470029FCD1C368D360C1603A
:102A7000F8E70029F6D01860F4E7C046280F0020D8
:102A8000F0B5002915DD0E4B0D271A680D4B4118C6
:102A9000D3185C4263410C4C5B001E5F2024057818
:102AA000B54207D093691C42FCD1013015608842C1
:102AB000F5D1F0BD93691C42FCD11760F2E7C04626
:102AC000781300200080FCBF8413002030B500295B
:102AD00014DD0C4B1A689369DB060FD40500102433
:102AE0000020013093691C42FCD113682B70814295
:102AF00003D0936901351C42F3D030BD032040421E
:102B0000FBE7C0467813002070B51C000A4B150087
:102B10001860FDF731FE002D03DB02212800FDF7D0
:102B200013FD002C03DB02212000FDF70DFD012128
:102B30000248FFF787FF70BD78130020B003002024
:102B400010B5114C114B22689A4210D1104B62689B
:102B50009A420CD10F4BA2689A4208D100230E482A
:102B60002360FFF7D1FA0021030000209847074BAC
:102B70000A482360064B00216360064BA360FEF702
:102B800071FA0023236010BD500C0020DE8116F086
:102B9000299B72BD7ABE59D355420000400D0300F7
:102BA00010B51920FDF730FD8022D023E1219204D9
:102BB0001B065A620448054B002218604902012393
:102BC000FFF7A2FF10BDC046004003407413002071
:102BD0008022D02392041B06002801D19A617047FD
:102BE0005A61FCE7F0B54546DE4657464E46982307
:102BF0008024E0B5634A6402D35885B098462342E6
:102C00002CD001222321604B00205A54DA705F49F6
:102C100001F082F980225E4B92021A655D4B0393AC
:102C20004346DB0620D4802342465B011A4247D14B
:102C300080234246DB011A4200D094E080234246C2
:102C40001B021A4200D083E0444500D095E005B055
:102C50003CBC90469946A246AB46F0BD1023039378
:102C600043460024DB06DED5464B9F6D002F21D066
:102C7000474B00269B4601239946434B01259A4624
:102C800003E06D000136202E14D02F42F9D05B46B0
:102C90009D654B4674086400B343E41864015444D2
:102CA000200000F0DBFA002846D1AF4301366D006A
:102CB000002FE8D1802342465B01039C1A42B7D023
:102CC00000268022304D2F4FD20000213E60280088
:102CD0001C43FFF731FD80202F4B304A40211A6002
:102CE000012384462E4A6B70EB70A983AA6016609C
:102CF0002C4A5E38EA60914662462A5401382E54C6
:102D000002302B543D33EE54274BA987AB626E60E3
:102D10001E604B460122EB626E620021002001F032
:102D2000D1F880221A4B12031A65FB6CDB0300D426
:102D30007EE702F0A1F87BE74B46A28AA17800204B
:102D40000093002301F016F9200000F0A5F9ACE78C
:102D50000122052100201C4301F020F880220C4BA9
:102D600012011A6570E70122042100201C4301F0C2
:102D700015F81022064B1A6560E741460B48614082
:102D8000FEF7FCFD00001150380F0020000010502D
:102D900000301150100001003C1300208001105041
:102DA0008400105000011050800010508862001004
:102DB00010B501210520FEF769FF10BD0123232274
:102DC00010B5044800218354C3700022203000F065
:102DD00097F910BD380F00208022024B5202DA64AE
:102DE0007047C04600201150F0B5C64600B5060039
:102DF00000F02CF90C231E4D1E49AB670520FEF791
:102E00005FFF802280271C4CD20000212000FFF7AA
:102E100093FC1A4B1A4A40201A6000230122BC4638
:102E200018496270E270A083A1600B601649A08708
:102E3000E160884661465E3F0238E1552354013F18
:102E40001248E3550237E2556360A0620360636293
:102E50004346E36280239B052A64EB6490230C4A7B
:102E60003000EA50FFF7B8FF04BC9046F0BDC04602
:102E700000001150E52B0010380F00203C130020FB
:102E8000800110508400105000011050800010503C
:102E900010D001000B785B0602D14B78052B05D0D2
:102EA00001222321034BDA705A5470478A78024B6F
:102EB0001A60F5E7380F002000001150F0B54746C2
:102EC000CE46072380B548790A79034083B01B02B8
:102ED0008F781343CA7869469207920FCA71944655
:102EE0007F22CD7979B288463A40CE0F54002D48E2
:102EF000A119490141188F704746FF43FF0F4F70DA
:102F000057425741CF7067468B838F7741460029E0
:102F10002DDB254FD100BC4697016144C719B9602C
:102F200000270F60002A2DD02049D2008C46624431
:102F3000A119490141184A601D493F330B40022D38
:102F40002CD01C4FA41939686401CB183B601A4B74
:102F50000019C160594080231B060B43AD061D4379
:102F60001560012003B00CBC90469946F0BD134F8C
:102F7000D100BC4697016144C719B96200270F60B0
:102F8000002A06D100237601801943600C4BC360F0
:102F9000E7E70949D2008C466244C9E75B009BB26F
:102FA000CFE7C046380F00208400105004001050B6
:102FB000C0FF00003C1300200000105080001050A3
:102FC000000110507F2070B5150008404000C9096D
:102FD000044C40184001201829001A0000F090F815
:102FE000012070BD380F00207F2010B5084049B285
:102FF000002804D1CB43084ADB0F013393668022BB
:10300000C90F400040180549400108181201044941
:1030100000F04AF810BDC04600201150380F0020C3
:10302000FFF7FFFF7F2310B50B4009D0C9095B00F4
:10303000CB1804485B01C0180022034900F034F8A3
:1030400010BDC046380F0020FFD7FFFF80220D4B78
:10305000520410B51A600C4B0C491A6010008B68B2
:103060009843FBD10A4C9C2200212000FFF764FB0F
:103070008022002152010748FFF75EFB09236367A6
:1030800010BDC04600E0004000F0004000C000401D
:103090000000115000001050002303744374438259
:1030A000838283617047C04610B58368002901D0D0
:1030B0001C682140002A11D08024E40011432242E0
:1030C0000CD01A6822420BD10A4A0A401A60FFE764
:1030D000FFE7FFE7FFE7FFE7FFE78368196010BD41
:1030E0007F2281780448CB091140044A9B009A58FA
:1030F000FEF744FCFFFBFFFF9C620010C4030020AE
:10310000F8B5CE46474680B5437C0400002B01D07D
:10311000002303740023A382013363746368A161F5
:103120001B689946A38B1E1C934200D9161CE3789A
:1031300080251800471EB841B6B2ED004003354364
:10314000054301204340921BE370637892B2628290
:10315000002B52D0002A1FD1A023DB011D43394B85
:103160001B6C4A468027384BBF0513401F436368DA
:10317000A2681F6013685B055AD4344B2B40136060
:10318000FFE7FFE7FFE7FFE7FFE7FFE7A3681D6053
:103190000CBC90469946F8BD80235B011D43294B2A
:1031A0001B6C9B0702D4A3787F2BDAD9A38B191C45
:1031B000934200D9111C80268BB2F600D21A1E430E
:1031C0009846E37892B21900481E814149030E43A4
:1031D00001214B40E37063786282002B1AD0002AF1
:1031E00002D18023DB011E434A46A027184B360438
:1031F0001340FF0535431F43B9E73200E068FFF78E
:10320000A1FAA369628A9C46802366441B02A661D8
:103210001D439FE7E06842464030A169FFF792FAFC
:10322000A369628A4344A36180231B021E43D6E73D
:103230007F22A1780748CB091140074A9B009A5882
:10324000FEF79CFB00001150FFFFFFAFFFFBFFFFED
:10325000FFFFFFDF9C620010C4030020F0B5C646EC
:1032600000B5467C0400002E00D1D4E083681A68C3
:103270001D684378AD05AD0D002B00D063E0838A57
:10328000EB189BB28382A18B8D4207D2002363820D
:1032900063681B68300004BC9046F0BD6268126829
:1032A000520010D58D420ED1A26817686278BF0116
:1032B000BF0D002A00D092E0FB18A382AF4265D276
:1032C00000236382E6E7638A002BE3D062680F1C69
:1032D000166899424AD8E27880251100481E81413B
:1032E000BFB2ED0049033D430D4301214A40DB1BC2
:1032F000E27062789BB26382002A39D0002B2FD013
:103300008022520115434C4A126C920741D4A27894
:103310007F2A3ED8494B33408026B6051E4363685A
:10332000A2681E6013685B0500D57BE0444B2B4010
:103330001360FFE7FFE7FFE7FFE7FFE7FFE7A368AB
:1033400000261D60A6E72A00C1688069FFF7FAF928
:10335000A38AA269EB189BB25219A382A26192E7D9
:10336000A023DB011D43344B1B6CD3E71F1CB2E7CA
:103370003A00A169E068FFF7E5F9A3699C4680235C
:1033800067441B021D43A761638AB7E7638A29006C
:103390009AE7A28B111C9A4200D9191C80278AB285
:1033A000FF009B1A17439046E2789BB21100481E1B
:1033B000814149030F4301214A40E27062786382F0
:1033C000002A1AD0002B02D18023DB011F431D4BA2
:1033D0003F043340A026F6053D431E439FE7E168C6
:1033E0003A004031A069FFF7ADF9A38AA58BFB181D
:1033F000A382A369DB19A36160E7E068424640301D
:10340000A169FFF79FF9A3694344A36180231B02CD
:103410001F43638AD6E77F2381780B4A19400B4804
:10342000FEF7ACFA7F22A1780948CB091140064A81
:103430009B009A58FEF7A2FA00001150FFFFFFAF61
:10344000FFFBFFFFFFFFFFDFC4030020BC62001093
:103450009C620010014B18787047C0467D13002015
:10346000F8B54746CE462A4E80B533788046002BC5
:1034700004D001200CBC90469946F8BD532200218F
:103480002448FFF759F9244C2000FDF7F1FE234BA7
:103490001C60234C20001C30FDF708FF200001F0C9
:1034A00009FC204B1C60204B002B28D01F4D002412
:1034B000280000E000BF1E4F1E4A38602B7891465E
:1034C0000AE063001B193A68DB009B5898470134F7
:1034D0002B78E4B2A34209DB9C42F2D315D14B46D0
:1034E000984701342B78E4B2A342F5DA4046FFF75F
:1034F0007BFC4046FFF75CFC01233370B9E701F029
:103500002FF80A4B1B78002BF0D000231B68FFDE3E
:103510007D130020500E0020080E0020A40E002075
:10352000CC030020A80E0020000000007C13002027
:10353000B00D002061450010F0B5DE4657464E46FE
:103540004546E0B58BB001F075F9002800D186E161
:10355000CB4E07AC3568EA69EFF3108172B6136899
:10356000002BFCD0BFF35F8F29622800210001F0FF
:103570001BFAEA692B6ABFF35F8F0021116083F3A6
:103580001088002800D16AE16378082BE2D8BD4A90
:103590009B00D3589F466368002BDBD0A0689847F8
:1035A000D8E77F222179B84B0A405500C8095B193A
:1035B0001B18180001273030C578BD43C570C57889
:1035C0000337BD43C570002A00D191E1AF4ADB7CCF
:1035D000002A00D14CE1AE4A1278934200D345E173
:1035E0005A00D318AB4ADB001268D318002B00D165
:1035F00035E11D693FE10122A34D01212B78042013
:1036000013432B703323EA5C27788A43EA54EA5C3D
:103610008243EA540133EA5C8A43EA54EA5C824317
:10362000EA54002000F0E2FD23795A06920F032AA3
:1036300000D14AE160221A40402A00D15EE1DB0657
:10364000DB0E012B00D167E1002B00D17AE1022BC8
:1036500000D03AE17F232089C1B20B400F2B00D963
:1036600033E140B2C00F80465B009B468748EB18B1
:103670004344DB7C002800D191E1854800788342F7
:1036800000D38AE15800C3188248DB0000688146F5
:103690009944002A00D188E14B46002B00D114E167
:1036A000D86800F0A3FD4B4608AADB68002138006B
:1036B00098472DE1744B1B78DB0700D44AE7764B23
:1036C000002B00D146E7FCF76DFE43E76E4B1A78FE
:1036D000D20700D43EE7714A002A00D13AE71878B1
:1036E0000007C00FFCF756FE34E7694B00259846EB
:1036F0001A78664B002B00D1ABE0664F07E0AA4278
:1037000000D0A9E00135EDB2AA4200DA22E7AA42D0
:10371000F5D939686B008C465B19DB0063445B6943
:10372000002BEFD02078984743461A78EAE7564DA9
:103730005322002128002778FEF7FEFFE81C102204
:10374000FF21FEF7F9FF28002022FF211330FEF7AA
:10375000F3FF00F041FD4E4B4C4A984600251B7884
:10376000002A6CD04B4A91464D4A92460FE04A4699
:1037700012686B0094465B19DB0063445B68380099
:103780009847434601351B78EDB2AB420BDBAB42A9
:10379000EDD85BD1534638009847434601351B7836
:1037A000EDB2AB42F3DA3F4B002B00D1D2E6FCF78F
:1037B000EBFDCFE6344D23785322002128009946B3
:1037C000FEF7BAFF1022FF21E81CFEF7B5FF280024
:1037D0002022FF211330FEF7AFFF00F0FDFC2C4B41
:1037E0002A4A984600271B78002A00D176E0294A09
:1037F00092462B4A93462A004D4691460FE0524688
:1038000012687B009446DB19DB0063445B68280088
:103810009847434601371B78FFB2BB420BDBBB42E4
:10382000EDD813D15B4628009847434601371B78F3
:10383000FFB2BB42F3DA4D462379AB708AE638001B
:1038400000F0BCFE43461B78002BACD000235B6825
:10385000FFDE002A00D17DE600235B69FFDE0BB0AE
:103860003CBC90469946A246AB46F0BD9B1ADBB2E3
:10387000002BF4D10C4D62792078A368A84769E643
:10388000A80E0020F0620010500E00200000000082
:103890007C130020B00D0020A5030010950300103C
:1038A000BD4500108903001019470010FCF70AFEFF
:1038B000021E0AD0C37881781B020B43380008A986
:1038C00000F034FC002800D044E620780021FFF707
:1038D0008BFB20788021FFF787FB3BE6484600F012
:1038E0006DFE43461B78002BA6D000235B68FFDEED
:1038F00062792078A36800F08DFC2BE6CD48002883
:10390000E3D000F073FC08AA0021380000E000BFFB
:10391000002800D01EE6D8E7237A0F2BD5D8C64A58
:10392000ED18EB78002A1BD0C44A1278934215D2C6
:10393000C34A5D00EB181568DB00ED18002DC4D0FC
:10394000E86811E0202A00D1E4E0002ABDD16379C3
:10395000092BBAD8BB4A9B00D3589F469B1ADBB2AF
:10396000002BB2D1B848B94D00F040FCEB6808AA72
:10397000002138009847002800D0EBE56023227929
:103980001340A2D162790A2A00D1F8E00B2A9CD117
:1039900008A9380000F0B2FBDCE51B1ADBB2002BF3
:1039A00039D0002A91D10023994663799A46012B98
:1039B00004D0002B00D1CCE0032B86D1E388002B70
:1039C00012D153463800012B00D1C5E1FFF70CFBA3
:1039D0005B460221EB1843443033DA780A43012175
:1039E000DA70DA780A43DA704B46002B00D1B1E581
:1039F0004B46D86800F0FAFB4B4608AADB6800216A
:103A000038009847002000F0F1FB3423EB5CDB0723
:103A100000D59FE5BCE7002A00D0ACE08B4B99466F
:103A2000C3E7A37903931A006B78002B02D1002A15
:103A300000D0ADE06B461B7B08A938006B7000F02E
:103A40005DFB87E56B7806AA0232137008A9012393
:103A5000380000F06BFB7DE52B7806AA99061B0762
:103A6000DB0FC90F5B0002320B43138008A902234E
:103A7000380000F05BFB6DE5E388D8B21B0A0F2B22
:103A800000D922E7724A9B00D3589F4608A800F04D
:103A9000B3FBA1793800FFF791F902222B78134389
:103AA0002B7057E5E388012B00D00EE708222B7816
:103AB00008A9134338002B7000F020FB4AE5E38887
:103AC000012B00D001E708222B7808A99343380086
:103AD0002B7000F013FB3DE55E4B002B00D1F4E6AC
:103AE00000E000BF021E00D1EFE6137808A93800FD
:103AF00000F01CFB0CE72189FCF7E8FC021EF4D166
:103B0000E3E6FCF7DBFC1223020008A9380000F012
:103B10000DFBD7E6237A0F2B00D9D6E6464AED18DF
:103B2000EB78002A21D0454A127893421BD2444AAE
:103B30005D00EB181568DB00ED18002D00D1C4E620
:103B4000E86800F053FBEB6808AA002138009847AA
:103B5000DEE62B005B4443443033DB7806AA9B0748
:103B6000DB0F023281E79B1ADBB2002B00D0ACE600
:103B70003548364DE5E7354B3348994691E506AA79
:103B80000232137008A90133380000F0CFFAE1E4E3
:103B9000501EC0B2FCF796FC002800D195E6437891
:103BA000022B00D091E60122C379914698465B0929
:103BB000134019012B780F32934342469A464B46E5
:103BC000920913405A0153460B4320218B43134360
:103BD0002B7009239946C37882781B021343C318BC
:103BE00081440493994500D39FE0144BAA469B4619
:103BF0004B46B9461F0000237A7802930B2A00D166
:103C0000B9E0042A00D060E6049BDB1B9BB2009362
:103C1000BB785344DB78FF2B00D056E65B46064A60
:103C20001B78002A34D0002201923A0000254F462A
:103C3000914628E000000000000000007C130020F6
:103C4000B00D002014630010154700107C630010B5
:103C50003C630010000000004C4A6B0012685B19C6
:103C60009446DB0063449B680592009A49463800FD
:103C7000984700281CD15B4601351B78EDB20195B1
:103C8000AB4200DA21E6AB42E6D80ED1404BECE77E
:103C9000009A3900484600F0A3FC8046002870D105
:103CA0005B461B78002B00D10FE600239B68FFDEEC
:103CB0004B468046B9461F004346082B00D804E611
:103CC000009B434500D200E65246BB78D218D5701F
:103CD000029A002A15D091781000994200D0F4E59C
:103CE00012797B799A4200D0EFE5C278012A08D98F
:103CF000023A04315144D2B2080001322900FEF7E1
:103D00001BFD50462B0042463900133000F0D0FD19
:103D10005B46019A1B784744934200DAD5E5049B41
:103D2000BB4200D967E74F4655461A4B002B00D1DE
:103D300080E6FCF721FB7DE6174B002B00D1C4E5A4
:103D400000E000BFC37881781B0202000B433800FB
:103D500008A900F0EBF9DBE5FFF764F95B46022107
:103D6000EB1843443033DA788A435146DA70DA7814
:103D70008A43DA7038E63B780297FB185A781F00BE
:103D80003FE700230025019396E7C046B00D0020D1
:103D9000E1450010790300100000000070B586B006
:103DA00005000C000C2200216846FEF7C5FC6B469E
:103DB0001D705C70032C53D01CD9042C08D0052C2A
:103DC00035D13E4B1A78D20700D568E006B070BDF9
:103DD0003A4B1A78D207F9D504211A780A431A7097
:103DE000374B1C68E269EFF3108172B61368002B41
:103DF00026D1FBE7022C1AD1304B1A78D207E5D531
:103E000001211A788A431A701A780331A2431A7072
:103E100000225A701A788A431A70294B1C68E2698A
:103E2000EFF3108172B61368002B09D1FBE7244B26
:103E30001C68E269EFF3108172B61368002BFCD0A6
:103E4000BFF35F8F21626946200000F079FEE269CE
:103E5000236ABFF35F8F0021116083F31088B5E7F9
:103E6000164B1A785207B1D504211A7803AE8A434B
:103E70001A7000210C223000FEF75EFC05237370DF
:103E80000F4B35701C68E269EFF3108172B613684E
:103E9000002BFCD0BFF35F8F21623100D4E70421F7
:103EA0001A788A431A70064B1C68E269EFF3108196
:103EB00072B61368002BC3D1FBE7C046500E00203A
:103EC000A80E002070B584B001AC06000D000C22D5
:103ED00000212000FEF730FC012363700D4B25719B
:103EE0001D682670EA69EFF3108372B61168002925
:103EF000FCD0BFF35F8F2B622100280000F020FE72
:103F0000EA692B6ABFF35F8F0021116083F3108889
:103F100004B070BDA80E002070B584B001AD0600DD
:103F20000C000C2200212800FEF706FC06232100CD
:103F3000082202A86B702E70FEF704FC0C4B1C6864
:103F4000E269EFF3108372B611680029FCD0BFF369
:103F50005F8F23622900200000F0F2FDE269236AEE
:103F6000BFF35F8F0021116083F3108804B070BD30
:103F7000A80E0020F0B5C646804600B584B001AC5E
:103F80000F00160000210C2220001D00FEF7D4FBBC
:103F900043462370072363700F4B65711D682771BB
:103FA000A660EA69EFF3108372B611680029FCD0AD
:103FB000BFF35F8F2B622100280000F0C1FDEA698A
:103FC0002B6ABFF35F8F0021116083F3108804B068
:103FD00004BC9046F0BDC046A80E00207F2370B5FB
:103FE0008A7805000C0013400F2B01D9002070BD0A
:103FF000054B2000997800F021FC0028F6D0210024
:104000002800FEF75BFFF2E7500E00207F2370B51B
:104010000B40134C5B00C909E41864183034E07895
:10402000C007C00F1AD1E3785B0700D570BD01212E
:104030000C4E4942306802F03FF8E3780025DB0778
:1040400007D4E3785B0704D404220125E378134303
:10405000E370306802F010F82800E7E70020E5E799
:10406000500E0020A40E002070B50D0001210F4C51
:104070004942206802F020F87F2129404B000C497A
:10408000ED09C91849193031CB780025DB0707D471
:10409000CB785B0704D50422CB7801359343CB70F2
:1040A000206801F0E9FF280070BDC046A40E002082
:1040B000500E002070B57F240C4065000E4C0600A9
:1040C0006419C80924183034E5780020ED0700D5BC
:1040D00070BD0125E0782843E0703000FEF772FFE4
:1040E0000028F5D10122E3789343E370E3780332AB
:1040F0009343E370ECE7C046500E002070B50A4CC5
:104100000600082220000D00FEF71CFB0023002102
:10411000A360E381A38169563000C943C90FC90177
:104120000022FFF7C7FF70BDB40D0020F0B5C646F2
:104130009046274C082200B5060020000D001F0005
:10414000FEF700FB4346A3600023E381EB79AA79E5
:104150001B0213431A1CBB4200D93A1C97B2A2811E
:10416000002B12D0002F1FD04346002B2ED03B1C1B
:10417000402F17D89FB223787F2B1ED80021154AD5
:104180003B003000FFF796FF09E00021695600234D
:10419000C943C90FC90100223000FFF78BFF04BCDF
:1041A0009046F0BD4023E5E723787F2B02D800211D
:1041B0000022E5E780210022E2E7064C3A00414672
:1041C0002000FEF7BFFA80212200D9E70020E6E7B1
:1041D000B40D0020100E002010B51422002102485A
:1041E000FEF7AAFA10BDC046B40D0020014B1861BD
:1041F0007047C046B40D002010B5054C01000822E0
:104200002000FEF79FFA0023A360E381A38110BD85
:10421000B40D002070B53A4C1D0023780600DA0971
:10422000C9098A4212D00020002D0ED1354B002B37
:1042300003D021003000FEF72DFE2369002B2ED085
:104240002200022130009847012070BD7F2B06D844
:10425000A068002825D02A002B49FEF773FAA2682F
:10426000E38951195B19E2889BB2E381A1609A420C
:1042700001D03F2D17D82369002B05D02200012142
:1042800030009847002824D0002161560023C943FC
:10429000C90FC90100223000FFF70CFFD5E701204C
:1042A000D3E70020D1E7A289D31A1D1C9BB2402B73
:1042B00000D940252378ADB27F2B14D80021002DE2
:1042C00005D100222B003000FFF7F4FEBDE70E4AB7
:1042D000F8E700213000FEF787FE30008021FEF76E
:1042E00083FE0120B1E7002D01D18021E9E7064CD2
:1042F0002A002000FEF726FA80212200E2E7C046CD
:10430000B40D0020952E0010100E002070B5AC25C5
:104310006D0045432800054C1030001900F022FBC9
:104320006419A37B627B9B1A181870BD4C16002081
:10433000F0B5AC25C6466D0045431B4E00B5771958
:10434000BB780020002B02D104BC9046F0BD2B00AE
:1043500010339846B0440422404600F073FB04003A
:10436000404600F011FB3F2804D8043C6042604105
:10437000C0B2E9E7B9780020FFF748FE0028F4D082
:10438000404600F001FB3F2804D8B9780020FFF731
:104390006BFEEAE72A00D8329219B9784023002050
:1043A000FFF788FEE1E7C0464C160020F0B5454611
:1043B000DE4657464E46E0B51F00684B90469B468A
:1043C000AC2302005B005A435C4691464C44637840
:1043D00083B001900025002B58D016002C365E4487
:1043E000002F4ED009014BB29A460F235246134379
:1043F000DBB200933B0047469846300000F0C4FA19
:1044000003283ED9E279795D0135002A46D102239D
:10441000E371E3782171042B56D008204042844692
:104420000B099C446046032848D90E2B46D00F2B1D
:1044300056D06B461B786271E3700223A27123721F
:10444000E3790021E218D1705A1CD2B2042A0AD0B2
:10445000A218D1709A1CD2B2042A04D0A218D1702A
:10446000002B00D1A3714B46D91C594404223000C3
:1044700000F0AAFB00232372E371042806D1A845AB
:10448000BBD1300000F06EFA002837D1280003B00D
:104490003CBC90469946A246AB46F0BD032AF5D8EF
:1044A000A318D970E078531CDBB2E37104280FD055
:1044B000227A9A42E3D1042BC3D1D4E75246134364
:1044C000E37004232372DAE7F72912D02372D6E7C8
:1044D000F729EDD10432E2702372042BB1D1C2E787
:1044E000F0292DD00B0002229343F12B23D0F22987
:1044F0002ED00523E370033B2372A1E7AC24019B7C
:1045000064005C435C4461780020FFF77FFD002875
:10451000BCD04F461937FF375F4439004022300086
:1045200000F090FA617800280ED003003A000020D5
:10453000FFF7C0FDAAE7EF3BE370032323729EE77A
:104540000B3BE37023729AE70020FFF78DFD9DE798
:104550000323E3700133237291E7C0464C16002019
:10456000AC2270B5144C82B0520000212000FEF73E
:10457000E3F8002521002000483100950123402266
:10458000103000F0B3F9260021002000883101230B
:104590004022C83600952C3000F0A8F93000FCF716
:1045A00067FEA6622600D03665623000FCF760FE2A
:1045B0002664656402B070BD4C16002010B5074C2F
:1045C000102200212000FEF7B7F82000103000F084
:1045D00071FB20002C3000F06DFB10BD4C1600204C
:1045E000F0B54646D6464F46C0B54B790600150095
:1045F000012B06D0002420001CBC90469946A24600
:10460000F0BD8B79012BF5D1CB79002BF2D10F784E
:10461000BBB2CF197A78242A07D009E03A78BF18BC
:104620009B187A789BB2242A02D1AB42F6D9E1E7F3
:10463000042ADFD17A79012ADCD1BA79032AD9D1C7
:10464000FA79002AD6D1304A91465278002A02D00F
:1046500000231B70FFDE4A4692789246002AF7D16B
:104660004946BA780A703A78397990469B189CB2D4
:10467000B844002907D124E043461A78A418A4B20C
:1046800090448A451DD2A5421BD343465B78052B37
:10469000F2D141463000FFF7A1FC0028AAD04346E2
:1046A0009B785AB2002A25DB4A46937043461A7813
:1046B00053460133A418DBB2A4B290449A46397928
:1046C000DAE7124D280000F05FF93F2893D92E0059
:1046D000103EB1780020FFF799FC002800D18AE74E
:1046E000280000F051F9B1783F2806D80020FFF7E4
:1046F000BBFC80E74A465370D8E74023044A0020B9
:10470000FFF7D8FC77E7C0464C1600205C16002067
:104710002417002000207047F0B5C64600B53E4C77
:104720001D00A37806008B4227D063788B4204D00B
:104730000024200004BC9046F0BD27002C37380030
:1047400000F010F900283FD1344C200000F00AF9A5
:10475000002825D1002D23D0AB0621D12C3C617837
:104760003000FFF753FC2500041E19D069780023A0
:1047700000223000FFF79EFCDBE721002000AAB2F8
:10478000D831103000F020FA254B002B02D0002049
:1047900000E000BF234D280000F0F6F83F2801D8C4
:1047A0000124C6E72E00103EB1780020FFF72EFC52
:1047B000041EF5D0280000F0E7F83F2823D8B17890
:1047C0000020FFF751FCB4E761780020FFF71EFCE2
:1047D0000028B9D08C235B009846A0444146402273
:1047E000380000F02FF96178002808D00300424615
:1047F0000020FFF75FFC0028A6D0012499E70020E5
:10480000FFF732FCA0E72A00B178C832402300202D
:10481000FFF750FC8DE7C0464C16002078160020AC
:10482000000000005C16002010B50020FEF718FE06
:1048300010BDC04610B5FEF70DFE10BD072310B524
:104840004479027923401B021A43C3789B079B0FCC
:10485000022B16D00DD80020012B09D102394B4272
:104860005941114B00209C46614491424041C0B2E5
:1048700010BD022914D04023002093424041C0B211
:10488000F6E7022905D00020402393424041C0B200
:10489000EEE7064B9C46624450425041C0B2E7E707
:1048A0008023DB00E8E7C046FF03000000FEFFFFB7
:1048B000F0B500247F27002A06D115E00D78641991
:1048C000A4B24919A2420FD94D78052DF6D13D0069
:1048D0008E7835406D004519F609AB550D78641991
:1048E000A4B24919A242EFD8F0BDC046F0B5C64601
:1048F00000B51E0006AB1B780400984680230F000D
:1049000015001B0200209A4226D86069002803D0B7
:104910000121494201F0D0FBA069002803D0012108
:10492000494201F0C9FB4346A5806D00ADB2237238
:104930006B1EA381002360696D42E3812760E680DE
:1049400065812382002801D001F096FBA069002830
:1049500005D001F091FB012004BC9046F0BD012080
:10496000FAE7C046C189028A89B292B28B1A9BB219
:10497000914202D242899B1A9BB28288101C9A42B1
:1049800000D9181C80B2704710B5C489018AA4B23E
:1049900089B2631A82889BB28C4202D240891B1A68
:1049A0009BB2D01A80B210BD70B5040080690D00B2
:1049B000002803D00121494201F07EFBE089218AD1
:1049C00080B289B2421A92B2884202D26389D21A64
:1049D00092B2A388934208D2C21A92B290422CD2C9
:1049E0006089121A92B222821A00002A02D11DE0B6
:1049F000C91A89B28B42FBD92368E2889C4651438D
:104A000028006144FDF79EFE228A012592B2531CC4
:104A10009BB29A420DD962899B189BB2A0692382EE
:104A2000002801D001F028FB280070BD0025238A52
:104A30009BB2A2899A42F1D2EDE7A0899042D2D2EC
:104A4000CEE7C046F8B54746CE460400806980B53B
:104A50000E001700002803D00121494201F02CFB71
:104A6000E289218A92B289B2551AADB28A4202D243
:104A70006389ED1AADB2A388AB420AD2D11A89B2CA
:104A80008A4252D26289891A89B21D002182218A02
:104A900089B2002D4DD03A1CAF4244D895B28B421A
:104AA00003D8C91A89B28B42FBD95B1A9FB2E3883B
:104AB0005943984623689C466144BD4224D94046E8
:104AC000784383B21A0030009946FDF73BFE434617
:104AD0003000EA1B5A43484492B22168FDF732FE87
:104AE000228A92B253199BB29A4218D962899B18B2
:104AF0009BB2A0692382002801D001F0BDFA2800F2
:104B00000CBC90469946F8BD424630006A43FDF71A
:104B100019FE228A92B253199BB29A42E6D8A28910
:104B20009A42E6D2E2E72A1CB8E7A2898A42ACD2CE
:104B3000A8E7238AA2899BB29A42DAD2D6E7C04676
:104B400070B5040040690E00002803D001214942DD
:104B500001F0B2FAE589238AADB29BB2EA1A92B2A9
:104B60009D4202D26389D21A92B2A388934226D080
:104B700028009D4203D3C01A80B28342FBD9236828
:104B8000E2889C46504331006044FDF7DBFD6B1C1E
:104B90009BB29D420AD9628960699B189BB2E381EE
:104BA00000280AD001F068FA012070BDA2899A425B
:104BB000F1D36069E3810028F4D10120F5E7207A80
:104BC0000028D5D1F1E7C046F0B54F46D646464657
:104BD0000500C0B514000F00002A05D120001CBC40
:104BE00090469946A246F0BD4069002803D00121B5
:104BF000494201F061FAEE892B7A288AB6B280B276
:104C0000002B11D1321AAB8892B2864202D2698946
:104C1000521A92B29A1A111C92B2A24200D9211CC5
:104C2000EA888CB2904609E0EA88AB8890469C42BC
:104C300004D3E41A544306003F191C0030009E427E
:104C400003D3C01A80B29842FBD21B1A9BB299467A
:104C5000434658432B689C4660444C4515D8424611
:104C600039006243FDF76EFDA3199BB29E4202D844
:104C7000AA899A4202D26A899B189BB26869EB8121
:104C80000028ABD001F0F8F9A8E74B46414659435C
:104C90008BB21A0039009A46FDF754FD4B46E21AD2
:104CA000434639005A43514492B22868FDF74AFD01
:104CB000DAE7C04610B504004069002803D001219E
:104CC000494201F0F9F9A069002803D001214942C5
:104CD00001F0F2F90023E3812382A38860695B007D
:104CE0009BB25A1E5B42A2816381002801D001F071
:104CF000C3F9A069002801D001F0BEF9012010BD60
:104D000080210B4A4902136D0B42FCD00923042178
:104D10005367084A7733D150074B00201A68074B76
:104D20000021DA67064B1A68064B1A647047C046C2
:104D30000000115000301150300F002000400140A1
:104D40004413002000C0014070B5102084B0FBF770
:104D500013FC082865D0344B344DDB6F344C2B608A
:104D6000344B01221B6C01210F202360FBF70EFC4A
:104D700002210F20FBF736FC08222F4B03211B6872
:104D80000F205A401F2313402C4A1360FBF718FCD6
:104D9000022204212A4BDA677E329950294B743A59
:104DA0005A671B6D1B079B0F012B01D0FCF7FEFD03
:104DB000FBF738FF0600FCF749F9FA2200239200BE
:104DC00012184B4199420FD901225242D3170121A7
:104DD0000291002101911C4930000091FBF726FF50
:104DE000002806DB04B070BD9942F0D19042EBD8A8
:104DF000EDE7FA2000218000FCF734F98021114A08
:104E00004902136D0B42FCD00923042153670F4A5A
:104E10007733D1502A68044BDA672268054B1A644D
:104E2000E0E70B48FCF7AAFD00400140300F0020EE
:104E30004413002000C001407C4001407C500140F0
:104E40000020115000001150014D00100030115091
:104E500094630010074B10B51B6D1B079B0F03D10C
:104E6000FA200021800010BDFFF76EFF0020002116
:104E7000F9E7C0460000115010B584B0FBF7D2FE30
:104E80000400FCF7E3F8FA220023920012184B41C9
:104E900099420FD901225242D317012102910021D8
:104EA00001910B4920000091FBF7C0FE002806DBB2
:104EB00004B010BD9942F0D19042EBD8EDE7032247
:104EC00004490B6D9B081A42FBD0FFF73DFFEFE74B
:104ED000554E001000001150F0B557464546DE46CD
:104EE0004E46E0B50D000B3583B00700162D00D8F7
:104EF0009FE007239D4300D5C4E0A94200D9C1E04B
:104F000000F096FAF823FF339D4200D889E2680A40
:104F100000D1BBE0042800D964E138239846A809F1
:104F200080443930C100C94E71180839CC68A1429B
:104F300019D0032362689A431300521B0F2A00DD25
:104F4000AAE0002A00DB88E003239C4608E06246D2
:104F5000636893435A1B0F2A00DD9DE0002A7CDA28
:104F6000E468A142F3D1320034690832944200D19E
:104F70008BE10323616899438946491B0F2900DDB2
:104F800070E172613261002900DB87E0B04A4B4674
:104F9000914500D932E1DB08FF3A9910FF3A8A4087
:104FA000DB0071689B190A4399687260E360A16035
:104FB0009C601300CC6001218210914099426FD80F
:104FC0000B4205D103229043490004300B42FBD031
:104FD00003239846C3009946B144CC4682466346B3
:104FE000DC68A44507D152E1002A00DB61E1E468F6
:104FF000A44500D14BE14246636893435A1B0F2AF4
:10500000F2DD01208046611905436560A068E5680E
:105010000836C560A8604046F160B1601043486042
:10502000CE608E603800E25000F004FA20000830B4
:1050300021E0102926D8380000F0FAF910251823AD
:105040000220824EF3181A005C68083A944200D19C
:1050500029E1032362689A431300E268A168CA60E9
:1050600091600122E318596838000A435A6000F041
:10507000E1F92000083003B03CBC90469946A246B6
:10508000AB46F0BD0C2300203B60F4E780213F23BA
:1050900040208900984646E7404664E74B46E0E7F3
:1050A0000323B46862689A439046AA4203D3531B11
:1050B0000F2B00DD88E023004344664A0193664BD2
:1050C00093469A4692681B68EB18013200D161E161
:1050D000624A944663441B0B1B03009300993800FB
:1050E00000F0AAF903008146013362D0019B83429C
:1050F00000D9F9E053465B68009A9C4653466244E7
:105100005A60019B1100834200D14FE15B469B68CE
:10511000013300D166E14B46019A9B1A5918534658
:10512000596007234A46134000D11EE108218946F1
:105130004B49D21A9144CB1A009A38004A441105BF
:10514000090D5B1A19009B4600F076F9431C00D14B
:105150003CE14B46C01A01235844184353465B6850
:105160005B441900534659604B46B3605860B442E3
:1051700013D043460F2B00D8E2E043460722606875
:105180000C3B9343063A024005201A436260E21842
:10519000506090600F2B00D91CE15346DB6A9942A6
:1051A00001D95346D96253461B6B994201D95346E4
:1051B00019630323B46862689A43531B954200D96C
:1051C000C1E00F2B00DCBEE0012229001343114394
:1051D000651961603800B5606B6000F02BF9200044
:1051E000083048E7142873D9542800D9B2E06E2358
:1051F0009846280B80446F30C10094E65A0A042A6E
:105200006CD9142A00D9C8E011005C325B31D2009D
:1052100008235B429C46B218944463469A68032371
:105220009846944500D1A3E0434651689943894587
:1052300000D38DE092689445F6D16346DA687368CE
:105240006146E260A1609460CC60B4E62008002072
:10525000FF010000200C00207C0D00200F1000003A
:1052600008100000012360191D4365607061306102
:10527000C26082601A004B460A4342603800E15027
:1052800000F0D8F820000830F5E6736893E60823AC
:105290009B46073BDC449B46DA4443465246134256
:1052A00000D09CE636E0DC680230A34200D15AE62A
:1052B000CFE60122E318596838000A435A60E368D0
:1052C000A268D3609A6000F0B5F820000830D2E6FA
:1052D0005B23984680445C30C10024E69A091100A3
:1052E00039323831D20093E7B44200D061E75346F7
:1052F0005B68009A9C465346624411005A6005E779
:1053000008235B429C46E1444B469B680138994523
:1053100000D084E043460342F2D173688B4373604C
:105320004900994200D9BBE6002900D1B8E65046B1
:105330000B4200D04EE6490004300B42FBD049E658
:1053400001234A465360380000F074F8002092E6CA
:10535000944672E7AA235B00984211D8DD3B984639
:10536000E80B80447830C100DDE580235B01E3E693
:105370008910023B8B4072681343736062465FE79B
:105380002A4B98421CD87C239846A80C80447D3038
:10539000C100C8E510330093A0E6542A26D84B4636
:1053A0001A0B11006F326E31D20031E71B0500D0AD
:1053B000ACE60120009BB268434403435360ECE633
:1053C000FE217E237F2089009846ACE50023012042
:1053D0009B46C3E621003800083100F07DFB5346B0
:1053E0005968DAE65B464A469A609AE6AA2149007D
:1053F0008A4206D84B46DA0B110078327731D20058
:1054000006E70A498A4206D84B469A0C11007D32BB
:105410007C31D200FCE6FE227E219200F8E6736821
:105420007EE72B00E80808330BE6C0465405000071
:105430007047C0467047C046002370B5064C050053
:1054400008002360FCF77EFA431C00D070BD23687F
:10545000002BFBD02B60F9E7A417002010B58307C1
:1054600025D00378002B24D00300032102E01A7812
:10547000002A1AD001330B42F9D119680E4A0F4C99
:105480008A188A43224206D1043319680A4A8A18C4
:105490008A432242F8D01A001B78002B03D0013235
:1054A00011780029FBD1101A10BD181AFCE703006F
:1054B000E3E70020F8E7C046FFFEFEFE8080808024
:1054C000F8B506000D001400002802D0836B002BF5
:1054D0004ED0A369A3600C23E05E81B20B073CD5DC
:1054E0002369002B39D0FF22EFB2154080229201B0
:1054F000114215D022686169D31A8B421BDA01333D
:10550000A1680139A160511C2160177062699A423B
:105510001AD0A389DB0701D50A2D15D02800F8BDC4
:105520000243616EA281144A0A4062666169226880
:10553000D31A8B42E3DB2100300000F03DF9002854
:1055400008D122680123DBE72100300000F034F9A4
:105550000028E3D001256D42E0E72100300000F093
:1055600019F80028F6D10C23E05E236981B2BAE76E
:1055700000F03AFAADE7C046FFDFFFFF10B5044B7D
:105580000A001B6801001800FFF79AFF10BDC04613
:10559000F0030020334B70B5050018680C0000289C
:1055A00002D0836B002B3CD00C23E25E93B2190730
:1055B0000DD52169002915D0DA0721D50023A36074
:1055C000636900205B42A361002921D070BDD90628
:1055D0003FD55B0728D4216908231343A3819BB2DD
:1055E0000029E9D1A0228020920080001A40824246
:1055F000E2D02100280000F0C5FBA3892169DBE788
:1056000000229B0700D46269A26000200029DDD13E
:105610000C22A35E1A06D9D540221343A381013878
:10562000D4E700F0E1F9BFE7216B00290AD023009D
:105630004033994204D0280000F04EFA0C23E25E79
:105640000023236324239A4300232169636021609C
:10565000C2E709232B60402301201A43A281404264
:10566000B4E7C046F0030020F0B5C64600B50C23F1
:10567000CA5E804693B20C00190740D480231B01F8
:1056800013436268A381002A00DC70E0A66A002E42
:1056900031D042464146156800229BB20A60DA04C6
:1056A00000D469E0226D5B0706D56368D21A236BCC
:1056B000002B01D0E36BD21A0023E1694046B047CA
:1056C000431C3DD0A3893A4A1340002262602269FC
:1056D0001BB2A3812260DB0447D44346216B1D60CB
:1056E000002908D023004033994202D0404600F000
:1056F000F3F900232363002004BC9046F0BD266923
:10570000002EF8D022682660951B00229B0700D14E
:105710006269A260002D04DCEDE736182D1A002D19
:10572000E9DD2B003200E1694046676AB84700288E
:10573000F3DC40220120A38940421343A381DBE72D
:10574000434619681D29F4D81A4B0122CB409A43CD
:10575000EFD1A389164E6260334022691BB2A38148
:105760002260DB04B9D50029B7D12065B5E7E26B2B
:10577000002A00DD8AE7BEE700220123E1694046F6
:10578000B0470200431C02D0A389A66A8BE74346B8
:105790001B68002BF8D01D2B01D0162B03D14346DC
:1057A00000201D60A8E74021A3890B43A381A3E744
:1057B000FFF7FFFF0100402070B504000D00002836
:1057C00002D0836B002B09D00C22AB5E0020002B93
:1057D00003D029002000FFF747FF70BD00F004F957
:1057E000F2E7C04610B5011E04D0054B1868FFF75C
:1057F000E3FF10BD034B0449186800F06DFAF8E7A9
:10580000F0030020B8630010B95700100020704763
:1058100010B5024900F060FA10BDC046F95E0010F4
:10582000F8B5DE4657464E464546344BE0B5C363B1
:10583000B823002403229B00C45004334568C2509F
:105840000833C218043BC2500600042328002C6011
:105850006C60AC60AB816C66EC812C616C61AC619E
:10586000082200215C30FCF767FF254B254F9A4644
:105870002B62254BEF6299466B62244BED61AB6264
:10588000B568984609232800AB81083B2C606C6002
:10589000AC606C66EB812C616C61AC61082200210C
:1058A0005C309B46FCF748FF53462B624B466B62CD
:1058B0004346EF62AB62ED61F56812232800AB81CD
:1058C000103BEB812C606C60AC606C662C616C6191
:1058D000AC61082200215C30FCF72EFF53462B629E
:1058E0004B466B624346AB625B46EF62ED61B3636E
:1058F0003CBC90469946A246AB46F8BD11580010F4
:105900000D5E0010A15E0010395E0010755E001083
:105910000020704770B568244A1E54430E002100D1
:105920007431FFF7D9FA051E09D000232200036065
:1059300046600C30A86068320021FCF7FDFE2800AC
:1059400070BDC046214B70B51D680600AB6B002BC7
:105950002DD0B8239B009C4665446B68AC68013B26
:1059600003D51FE06834013B1CD30C21625E002A82
:10597000F8D10123002520005B42E3810233A3819B
:1059800065662560A560656025616561A561082281
:1059900000215C30FCF7D0FE256365636564A56477
:1059A000200070BD2868002805D00500D5E7280034
:1059B000FFF736FFCDE704213000FFF7ABFF28608B
:1059C0000028F2D10C2300243360E9E7B86300100B
:1059D00010B5034B0349186800F07EF910BDC046AE
:1059E000B8630010F95E0010836B10B5002B01D175
:1059F000FFF716FF10BDC0467047C0467047C0464F
:105A00007047C0467047C04610B5034B034918683D
:105A100000F040F910BDC046F003002011590010FD
:105A200010B5034B0349186800F034F910BDC046A7
:105A3000F00300200D580010F8B50C000600FFF729
:105A4000F7FC204FBB685D6803239D431E4B2C1B56
:105A50009C466444240B1D4B013C24039C4207DDFF
:105A600000213000FFF7E8FCBB685B19984204D0C6
:105A70003000FFF7DFFC0020F8BD61423000FFF787
:105A8000DBFC431C0DD00122BB682D1B15435D6060
:105A90000F4B30001A68141B1C60FFF7CBFC012071
:105AA000EAE700213000FFF7C7FCBA68831A0F2B22
:105AB000DEDD08490968401A0549086001210B43E9
:105AC0005360D5E720080020EF0F0000FF0F000013
:105AD000800D0020280C0020F8B504000D1E3CD0DD
